{
	"BabyCommitment.sol": {
		"BabyCommitment": {
			"abi": [
				{
					"inputs": [
						{
							"internalType": "uint256",
							"name": "secret",
							"type": "uint256"
						}
					],
					"name": "commit",
					"outputs": [],
					"stateMutability": "nonpayable",
					"type": "function"
				},
				{
					"inputs": [
						{
							"internalType": "address",
							"name": "",
							"type": "address"
						}
					],
					"name": "commitments",
					"outputs": [
						{
							"internalType": "uint256",
							"name": "",
							"type": "uint256"
						}
					],
					"stateMutability": "view",
					"type": "function"
				},
				{
					"inputs": [
						{
							"internalType": "uint256",
							"name": "openingNumber",
							"type": "uint256"
						}
					],
					"name": "reveal",
					"outputs": [
						{
							"internalType": "bool",
							"name": "",
							"type": "bool"
						}
					],
					"stateMutability": "nonpayable",
					"type": "function"
				}
			],
			"devdoc": {
				"kind": "dev",
				"methods": {},
				"version": 1
			},
			"evm": {
				"assembly": "    /* \"BabyCommitment.sol\":29:1517  contract BabyCommitment {... */\n  mstore(0x40, 0x80)\n  callvalue\n  dup1\n  iszero\n  tag_1\n  jumpi\n  0x00\n  dup1\n  revert\ntag_1:\n  pop\n  dataSize(sub_0)\n  dup1\n  dataOffset(sub_0)\n  0x00\n  codecopy\n  0x00\n  return\nstop\n\nsub_0: assembly {\n        /* \"BabyCommitment.sol\":29:1517  contract BabyCommitment {... */\n      mstore(0x40, 0x80)\n      callvalue\n      dup1\n      iszero\n      tag_1\n      jumpi\n      0x00\n      dup1\n      revert\n    tag_1:\n      pop\n      jumpi(tag_2, lt(calldatasize, 0x04))\n      shr(0xe0, calldataload(0x00))\n      dup1\n      0xc2ca0ac5\n      eq\n      tag_3\n      jumpi\n      dup1\n      0xe8fcf723\n      eq\n      tag_4\n      jumpi\n      dup1\n      0xf4f98ad5\n      eq\n      tag_5\n      jumpi\n    tag_2:\n      0x00\n      dup1\n      revert\n        /* \"BabyCommitment.sol\":654:884  function reveal (uint256 openingNumber) external returns (bool){... */\n    tag_3:\n      tag_6\n      0x04\n      dup1\n      calldatasize\n      sub\n      dup2\n      add\n      swap1\n      tag_7\n      swap2\n      swap1\n      tag_8\n      jump\t// in\n    tag_7:\n      tag_9\n      jump\t// in\n    tag_6:\n      mload(0x40)\n      tag_10\n      swap2\n      swap1\n      tag_11\n      jump\t// in\n    tag_10:\n      mload(0x40)\n      dup1\n      swap2\n      sub\n      swap1\n      return\n        /* \"BabyCommitment.sol\":60:106  mapping(address => uint256) public commitments */\n    tag_4:\n      tag_12\n      0x04\n      dup1\n      calldatasize\n      sub\n      dup2\n      add\n      swap1\n      tag_13\n      swap2\n      swap1\n      tag_14\n      jump\t// in\n    tag_13:\n      tag_15\n      jump\t// in\n    tag_12:\n      mload(0x40)\n      tag_16\n      swap2\n      swap1\n      tag_17\n      jump\t// in\n    tag_16:\n      mload(0x40)\n      dup1\n      swap2\n      sub\n      swap1\n      return\n        /* \"BabyCommitment.sol\":525:646  function commit(uint256 secret) external {... */\n    tag_5:\n      tag_18\n      0x04\n      dup1\n      calldatasize\n      sub\n      dup2\n      add\n      swap1\n      tag_19\n      swap2\n      swap1\n      tag_8\n      jump\t// in\n    tag_19:\n      tag_20\n      jump\t// in\n    tag_18:\n      stop\n        /* \"BabyCommitment.sol\":654:884  function reveal (uint256 openingNumber) external returns (bool){... */\n    tag_9:\n        /* \"BabyCommitment.sol\":712:716  bool */\n      0x00\n        /* \"BabyCommitment.sol\":728:746  uint256 commitment */\n      dup1\n        /* \"BabyCommitment.sol\":749:760  commitments */\n      0x00\n        /* \"BabyCommitment.sol\":749:773  commitments [msg.sender] */\n      dup1\n        /* \"BabyCommitment.sol\":762:772  msg.sender */\n      caller\n        /* \"BabyCommitment.sol\":749:773  commitments [msg.sender] */\n      0xffffffffffffffffffffffffffffffffffffffff\n      and\n      0xffffffffffffffffffffffffffffffffffffffff\n      and\n      dup2\n      mstore\n      0x20\n      add\n      swap1\n      dup2\n      mstore\n      0x20\n      add\n      0x00\n      keccak256\n      sload\n        /* \"BabyCommitment.sol\":728:773  uint256 commitment = commitments [msg.sender] */\n      swap1\n      pop\n        /* \"BabyCommitment.sol\":807:808  0 */\n      0x00\n        /* \"BabyCommitment.sol\":793:803  commitment */\n      dup2\n        /* \"BabyCommitment.sol\":793:808  commitment != 0 */\n      sub\n        /* \"BabyCommitment.sol\":785:809  require(commitment != 0) */\n      tag_22\n      jumpi\n      0x00\n      dup1\n      revert\n    tag_22:\n        /* \"BabyCommitment.sol\":866:876  commitment */\n      dup1\n        /* \"BabyCommitment.sol\":827:862  modExp(gen, openingNumber, modulus) */\n      tag_23\n        /* \"BabyCommitment.sol\":222:223  2 */\n      0x02\n        /* \"BabyCommitment.sol\":827:862  modExp(gen, openingNumber, modulus) */\n      0xff\n      and\n        /* \"BabyCommitment.sol\":839:852  openingNumber */\n      dup6\n        /* \"BabyCommitment.sol\":140:194  891774460845375173125266058974437262797511322331985127 */\n      0x094f80d8d0370458c7834461d2c7eebb3ea174756b34e7\n        /* \"BabyCommitment.sol\":827:833  modExp */\n      tag_24\n        /* \"BabyCommitment.sol\":827:862  modExp(gen, openingNumber, modulus) */\n      jump\t// in\n    tag_23:\n        /* \"BabyCommitment.sol\":827:876  modExp(gen, openingNumber, modulus) == commitment */\n      eq\n        /* \"BabyCommitment.sol\":820:876  return modExp(gen, openingNumber, modulus) == commitment */\n      swap2\n      pop\n      pop\n        /* \"BabyCommitment.sol\":654:884  function reveal (uint256 openingNumber) external returns (bool){... */\n      swap2\n      swap1\n      pop\n      jump\t// out\n        /* \"BabyCommitment.sol\":60:106  mapping(address => uint256) public commitments */\n    tag_15:\n      mstore(0x20, 0x00)\n      dup1\n      0x00\n      mstore\n      keccak256(0x00, 0x40)\n      0x00\n      swap2\n      pop\n      swap1\n      pop\n      sload\n      dup2\n      jump\t// out\n        /* \"BabyCommitment.sol\":525:646  function commit(uint256 secret) external {... */\n    tag_20:\n        /* \"BabyCommitment.sol\":610:638  modExp(gen, secret, modulus) */\n      tag_26\n        /* \"BabyCommitment.sol\":222:223  2 */\n      0x02\n        /* \"BabyCommitment.sol\":610:638  modExp(gen, secret, modulus) */\n      0xff\n      and\n        /* \"BabyCommitment.sol\":622:628  secret */\n      dup3\n        /* \"BabyCommitment.sol\":140:194  891774460845375173125266058974437262797511322331985127 */\n      0x094f80d8d0370458c7834461d2c7eebb3ea174756b34e7\n        /* \"BabyCommitment.sol\":610:616  modExp */\n      tag_24\n        /* \"BabyCommitment.sol\":610:638  modExp(gen, secret, modulus) */\n      jump\t// in\n    tag_26:\n        /* \"BabyCommitment.sol\":583:594  commitments */\n      0x00\n        /* \"BabyCommitment.sol\":583:607  commitments [msg.sender] */\n      dup1\n        /* \"BabyCommitment.sol\":596:606  msg.sender */\n      caller\n        /* \"BabyCommitment.sol\":583:607  commitments [msg.sender] */\n      0xffffffffffffffffffffffffffffffffffffffff\n      and\n      0xffffffffffffffffffffffffffffffffffffffff\n      and\n      dup2\n      mstore\n      0x20\n      add\n      swap1\n      dup2\n      mstore\n      0x20\n      add\n      0x00\n      keccak256\n        /* \"BabyCommitment.sol\":583:638  commitments [msg.sender] = modExp(gen, secret, modulus) */\n      dup2\n      swap1\n      sstore\n      pop\n        /* \"BabyCommitment.sol\":525:646  function commit(uint256 secret) external {... */\n      pop\n      jump\t// out\n        /* \"BabyCommitment.sol\":892:1514  function modExp(uint256 _b, uint256 _e, uint256 _m) internal returns (uint256 result) { ... */\n    tag_24:\n        /* \"BabyCommitment.sol\":962:976  uint256 result */\n      0x00\n        /* \"BabyCommitment.sol\":1036:1040  0x40 */\n      0x40\n        /* \"BabyCommitment.sol\":1029:1041  mload (0x40) */\n      mload\n        /* \"BabyCommitment.sol\":1071:1075  0x20 */\n      0x20\n        /* \"BabyCommitment.sol\":1062:1069  pointer */\n      dup2\n        /* \"BabyCommitment.sol\":1055:1076  mstore(pointer, 0x20) */\n      mstore\n        /* \"BabyCommitment.sol\":1117:1121  0x20 */\n      0x20\n        /* \"BabyCommitment.sol\":1110:1114  0x20 */\n      dup1\n        /* \"BabyCommitment.sol\":1101:1108  pointer */\n      dup3\n        /* \"BabyCommitment.sol\":1097:1115  add(pointer, 0x20) */\n      add\n        /* \"BabyCommitment.sol\":1090:1122  mstore(add(pointer, 0x20), 0x20) */\n      mstore\n        /* \"BabyCommitment.sol\":1163:1167  0x20 */\n      0x20\n        /* \"BabyCommitment.sol\":1156:1160  0x40 */\n      0x40\n        /* \"BabyCommitment.sol\":1147:1154  pointer */\n      dup3\n        /* \"BabyCommitment.sol\":1143:1161  add(pointer, 0x40) */\n      add\n        /* \"BabyCommitment.sol\":1136:1168  mstore(add(pointer, 0x40), 0x20) */\n      mstore\n        /* \"BabyCommitment.sol\":1209:1211  _b */\n      dup5\n        /* \"BabyCommitment.sol\":1202:1206  0x60 */\n      0x60\n        /* \"BabyCommitment.sol\":1193:1200  pointer */\n      dup3\n        /* \"BabyCommitment.sol\":1189:1207  add(pointer, 0x60) */\n      add\n        /* \"BabyCommitment.sol\":1182:1212  mstore(add(pointer, 0x60), _b) */\n      mstore\n        /* \"BabyCommitment.sol\":1253:1255  _e */\n      dup4\n        /* \"BabyCommitment.sol\":1246:1250  0x80 */\n      0x80\n        /* \"BabyCommitment.sol\":1237:1244  pointer */\n      dup3\n        /* \"BabyCommitment.sol\":1233:1251  add(pointer, 0x80) */\n      add\n        /* \"BabyCommitment.sol\":1226:1256  mstore(add(pointer, 0x80), _e) */\n      mstore\n        /* \"BabyCommitment.sol\":1297:1299  _m */\n      dup3\n        /* \"BabyCommitment.sol\":1290:1294  0xa0 */\n      0xa0\n        /* \"BabyCommitment.sol\":1281:1288  pointer */\n      dup3\n        /* \"BabyCommitment.sol\":1277:1295  add(pointer, 0xa0) */\n      add\n        /* \"BabyCommitment.sol\":1270:1300  mstore(add(pointer, 0xa0), _m) */\n      mstore\n        /* \"BabyCommitment.sol\":1334:1338  0xc0 */\n      0xc0\n        /* \"BabyCommitment.sol\":1327:1339  mload (0xc0) */\n      mload\n        /* \"BabyCommitment.sol\":1407:1411  0x20 */\n      0x20\n        /* \"BabyCommitment.sol\":1400:1405  value */\n      dup2\n        /* \"BabyCommitment.sol\":1394:1398  0xc0 */\n      0xc0\n        /* \"BabyCommitment.sol\":1385:1392  pointer */\n      dup5\n        /* \"BabyCommitment.sol\":1382:1383  0 */\n      0x00\n        /* \"BabyCommitment.sol\":1376:1380  0x05 */\n      0x05\n        /* \"BabyCommitment.sol\":1372:1373  0 */\n      0x00\n        /* \"BabyCommitment.sol\":1368:1374  not(0) */\n      not\n        /* \"BabyCommitment.sol\":1363:1412  call(not(0), 0x05, 0, pointer, 0xc0, value, 0x20) */\n      call\n        /* \"BabyCommitment.sol\":1353:1460  if iszero(call(not(0), 0x05, 0, pointer, 0xc0, value, 0x20)) {... */\n      tag_28\n      jumpi\n        /* \"BabyCommitment.sol\":1443:1444  0 */\n      0x00\n        /* \"BabyCommitment.sol\":1440:1441  0 */\n      dup1\n        /* \"BabyCommitment.sol\":1433:1445  revert(0, 0) */\n      revert\n        /* \"BabyCommitment.sol\":1353:1460  if iszero(call(not(0), 0x05, 0, pointer, 0xc0, value, 0x20)) {... */\n    tag_28:\n        /* \"BabyCommitment.sol\":1490:1495  value */\n      dup1\n        /* \"BabyCommitment.sol\":1484:1496  mload(value) */\n      mload\n        /* \"BabyCommitment.sol\":1474:1496  result := mload(value) */\n      swap3\n      pop\n        /* \"BabyCommitment.sol\":999:1507  {... */\n      pop\n      pop\n        /* \"BabyCommitment.sol\":892:1514  function modExp(uint256 _b, uint256 _e, uint256 _m) internal returns (uint256 result) { ... */\n      swap4\n      swap3\n      pop\n      pop\n      pop\n      jump\t// out\n        /* \"#utility.yul\":88:205   */\n    tag_30:\n        /* \"#utility.yul\":197:198   */\n      0x00\n        /* \"#utility.yul\":194:195   */\n      dup1\n        /* \"#utility.yul\":187:199   */\n      revert\n        /* \"#utility.yul\":334:411   */\n    tag_32:\n        /* \"#utility.yul\":371:378   */\n      0x00\n        /* \"#utility.yul\":400:405   */\n      dup2\n        /* \"#utility.yul\":389:405   */\n      swap1\n      pop\n        /* \"#utility.yul\":334:411   */\n      swap2\n      swap1\n      pop\n      jump\t// out\n        /* \"#utility.yul\":417:539   */\n    tag_33:\n        /* \"#utility.yul\":490:514   */\n      tag_48\n        /* \"#utility.yul\":508:513   */\n      dup2\n        /* \"#utility.yul\":490:514   */\n      tag_32\n      jump\t// in\n    tag_48:\n        /* \"#utility.yul\":483:488   */\n      dup2\n        /* \"#utility.yul\":480:515   */\n      eq\n        /* \"#utility.yul\":470:533   */\n      tag_49\n      jumpi\n        /* \"#utility.yul\":529:530   */\n      0x00\n        /* \"#utility.yul\":526:527   */\n      dup1\n        /* \"#utility.yul\":519:531   */\n      revert\n        /* \"#utility.yul\":470:533   */\n    tag_49:\n        /* \"#utility.yul\":417:539   */\n      pop\n      jump\t// out\n        /* \"#utility.yul\":545:684   */\n    tag_34:\n        /* \"#utility.yul\":591:596   */\n      0x00\n        /* \"#utility.yul\":629:635   */\n      dup2\n        /* \"#utility.yul\":616:636   */\n      calldataload\n        /* \"#utility.yul\":607:636   */\n      swap1\n      pop\n        /* \"#utility.yul\":645:678   */\n      tag_51\n        /* \"#utility.yul\":672:677   */\n      dup2\n        /* \"#utility.yul\":645:678   */\n      tag_33\n      jump\t// in\n    tag_51:\n        /* \"#utility.yul\":545:684   */\n      swap3\n      swap2\n      pop\n      pop\n      jump\t// out\n        /* \"#utility.yul\":690:1019   */\n    tag_8:\n        /* \"#utility.yul\":749:755   */\n      0x00\n        /* \"#utility.yul\":798:800   */\n      0x20\n        /* \"#utility.yul\":786:795   */\n      dup3\n        /* \"#utility.yul\":777:784   */\n      dup5\n        /* \"#utility.yul\":773:796   */\n      sub\n        /* \"#utility.yul\":769:801   */\n      slt\n        /* \"#utility.yul\":766:885   */\n      iszero\n      tag_53\n      jumpi\n        /* \"#utility.yul\":804:883   */\n      tag_54\n      tag_30\n      jump\t// in\n    tag_54:\n        /* \"#utility.yul\":766:885   */\n    tag_53:\n        /* \"#utility.yul\":924:925   */\n      0x00\n        /* \"#utility.yul\":949:1002   */\n      tag_55\n        /* \"#utility.yul\":994:1001   */\n      dup5\n        /* \"#utility.yul\":985:991   */\n      dup3\n        /* \"#utility.yul\":974:983   */\n      dup6\n        /* \"#utility.yul\":970:992   */\n      add\n        /* \"#utility.yul\":949:1002   */\n      tag_34\n      jump\t// in\n    tag_55:\n        /* \"#utility.yul\":939:1002   */\n      swap2\n      pop\n        /* \"#utility.yul\":895:1012   */\n      pop\n        /* \"#utility.yul\":690:1019   */\n      swap3\n      swap2\n      pop\n      pop\n      jump\t// out\n        /* \"#utility.yul\":1025:1115   */\n    tag_35:\n        /* \"#utility.yul\":1059:1066   */\n      0x00\n        /* \"#utility.yul\":1102:1107   */\n      dup2\n        /* \"#utility.yul\":1095:1108   */\n      iszero\n        /* \"#utility.yul\":1088:1109   */\n      iszero\n        /* \"#utility.yul\":1077:1109   */\n      swap1\n      pop\n        /* \"#utility.yul\":1025:1115   */\n      swap2\n      swap1\n      pop\n      jump\t// out\n        /* \"#utility.yul\":1121:1230   */\n    tag_36:\n        /* \"#utility.yul\":1202:1223   */\n      tag_58\n        /* \"#utility.yul\":1217:1222   */\n      dup2\n        /* \"#utility.yul\":1202:1223   */\n      tag_35\n      jump\t// in\n    tag_58:\n        /* \"#utility.yul\":1197:1200   */\n      dup3\n        /* \"#utility.yul\":1190:1224   */\n      mstore\n        /* \"#utility.yul\":1121:1230   */\n      pop\n      pop\n      jump\t// out\n        /* \"#utility.yul\":1236:1446   */\n    tag_11:\n        /* \"#utility.yul\":1323:1327   */\n      0x00\n        /* \"#utility.yul\":1361:1363   */\n      0x20\n        /* \"#utility.yul\":1350:1359   */\n      dup3\n        /* \"#utility.yul\":1346:1364   */\n      add\n        /* \"#utility.yul\":1338:1364   */\n      swap1\n      pop\n        /* \"#utility.yul\":1374:1439   */\n      tag_60\n        /* \"#utility.yul\":1436:1437   */\n      0x00\n        /* \"#utility.yul\":1425:1434   */\n      dup4\n        /* \"#utility.yul\":1421:1438   */\n      add\n        /* \"#utility.yul\":1412:1418   */\n      dup5\n        /* \"#utility.yul\":1374:1439   */\n      tag_36\n      jump\t// in\n    tag_60:\n        /* \"#utility.yul\":1236:1446   */\n      swap3\n      swap2\n      pop\n      pop\n      jump\t// out\n        /* \"#utility.yul\":1452:1578   */\n    tag_37:\n        /* \"#utility.yul\":1489:1496   */\n      0x00\n        /* \"#utility.yul\":1529:1571   */\n      0xffffffffffffffffffffffffffffffffffffffff\n        /* \"#utility.yul\":1522:1527   */\n      dup3\n        /* \"#utility.yul\":1518:1572   */\n      and\n        /* \"#utility.yul\":1507:1572   */\n      swap1\n      pop\n        /* \"#utility.yul\":1452:1578   */\n      swap2\n      swap1\n      pop\n      jump\t// out\n        /* \"#utility.yul\":1584:1680   */\n    tag_38:\n        /* \"#utility.yul\":1621:1628   */\n      0x00\n        /* \"#utility.yul\":1650:1674   */\n      tag_63\n        /* \"#utility.yul\":1668:1673   */\n      dup3\n        /* \"#utility.yul\":1650:1674   */\n      tag_37\n      jump\t// in\n    tag_63:\n        /* \"#utility.yul\":1639:1674   */\n      swap1\n      pop\n        /* \"#utility.yul\":1584:1680   */\n      swap2\n      swap1\n      pop\n      jump\t// out\n        /* \"#utility.yul\":1686:1808   */\n    tag_39:\n        /* \"#utility.yul\":1759:1783   */\n      tag_65\n        /* \"#utility.yul\":1777:1782   */\n      dup2\n        /* \"#utility.yul\":1759:1783   */\n      tag_38\n      jump\t// in\n    tag_65:\n        /* \"#utility.yul\":1752:1757   */\n      dup2\n        /* \"#utility.yul\":1749:1784   */\n      eq\n        /* \"#utility.yul\":1739:1802   */\n      tag_66\n      jumpi\n        /* \"#utility.yul\":1798:1799   */\n      0x00\n        /* \"#utility.yul\":1795:1796   */\n      dup1\n        /* \"#utility.yul\":1788:1800   */\n      revert\n        /* \"#utility.yul\":1739:1802   */\n    tag_66:\n        /* \"#utility.yul\":1686:1808   */\n      pop\n      jump\t// out\n        /* \"#utility.yul\":1814:1953   */\n    tag_40:\n        /* \"#utility.yul\":1860:1865   */\n      0x00\n        /* \"#utility.yul\":1898:1904   */\n      dup2\n        /* \"#utility.yul\":1885:1905   */\n      calldataload\n        /* \"#utility.yul\":1876:1905   */\n      swap1\n      pop\n        /* \"#utility.yul\":1914:1947   */\n      tag_68\n        /* \"#utility.yul\":1941:1946   */\n      dup2\n        /* \"#utility.yul\":1914:1947   */\n      tag_39\n      jump\t// in\n    tag_68:\n        /* \"#utility.yul\":1814:1953   */\n      swap3\n      swap2\n      pop\n      pop\n      jump\t// out\n        /* \"#utility.yul\":1959:2288   */\n    tag_14:\n        /* \"#utility.yul\":2018:2024   */\n      0x00\n        /* \"#utility.yul\":2067:2069   */\n      0x20\n        /* \"#utility.yul\":2055:2064   */\n      dup3\n        /* \"#utility.yul\":2046:2053   */\n      dup5\n        /* \"#utility.yul\":2042:2065   */\n      sub\n        /* \"#utility.yul\":2038:2070   */\n      slt\n        /* \"#utility.yul\":2035:2154   */\n      iszero\n      tag_70\n      jumpi\n        /* \"#utility.yul\":2073:2152   */\n      tag_71\n      tag_30\n      jump\t// in\n    tag_71:\n        /* \"#utility.yul\":2035:2154   */\n    tag_70:\n        /* \"#utility.yul\":2193:2194   */\n      0x00\n        /* \"#utility.yul\":2218:2271   */\n      tag_72\n        /* \"#utility.yul\":2263:2270   */\n      dup5\n        /* \"#utility.yul\":2254:2260   */\n      dup3\n        /* \"#utility.yul\":2243:2252   */\n      dup6\n        /* \"#utility.yul\":2239:2261   */\n      add\n        /* \"#utility.yul\":2218:2271   */\n      tag_40\n      jump\t// in\n    tag_72:\n        /* \"#utility.yul\":2208:2271   */\n      swap2\n      pop\n        /* \"#utility.yul\":2164:2281   */\n      pop\n        /* \"#utility.yul\":1959:2288   */\n      swap3\n      swap2\n      pop\n      pop\n      jump\t// out\n        /* \"#utility.yul\":2294:2412   */\n    tag_41:\n        /* \"#utility.yul\":2381:2405   */\n      tag_74\n        /* \"#utility.yul\":2399:2404   */\n      dup2\n        /* \"#utility.yul\":2381:2405   */\n      tag_32\n      jump\t// in\n    tag_74:\n        /* \"#utility.yul\":2376:2379   */\n      dup3\n        /* \"#utility.yul\":2369:2406   */\n      mstore\n        /* \"#utility.yul\":2294:2412   */\n      pop\n      pop\n      jump\t// out\n        /* \"#utility.yul\":2418:2640   */\n    tag_17:\n        /* \"#utility.yul\":2511:2515   */\n      0x00\n        /* \"#utility.yul\":2549:2551   */\n      0x20\n        /* \"#utility.yul\":2538:2547   */\n      dup3\n        /* \"#utility.yul\":2534:2552   */\n      add\n        /* \"#utility.yul\":2526:2552   */\n      swap1\n      pop\n        /* \"#utility.yul\":2562:2633   */\n      tag_76\n        /* \"#utility.yul\":2630:2631   */\n      0x00\n        /* \"#utility.yul\":2619:2628   */\n      dup4\n        /* \"#utility.yul\":2615:2632   */\n      add\n        /* \"#utility.yul\":2606:2612   */\n      dup5\n        /* \"#utility.yul\":2562:2633   */\n      tag_41\n      jump\t// in\n    tag_76:\n        /* \"#utility.yul\":2418:2640   */\n      swap3\n      swap2\n      pop\n      pop\n      jump\t// out\n\n    auxdata: 0xa26469706673582212206fc6b96af9f03157a6729142042da3c90aab6a7f08df2627bc238e32c39a9df264736f6c63430008110033\n}\n",
				"bytecode": {
					"linkReferences": {},
					"object": "608060405234801561001057600080fd5b5061039e806100206000396000f3fe608060405234801561001057600080fd5b50600436106100415760003560e01c8063c2ca0ac514610046578063e8fcf72314610076578063f4f98ad5146100a6575b600080fd5b610060600480360381019061005b9190610250565b6100c2565b60405161006d9190610298565b60405180910390f35b610090600480360381019061008b9190610311565b610143565b60405161009d919061034d565b60405180910390f35b6100c060048036038101906100bb9190610250565b61015b565b005b6000806000803373ffffffffffffffffffffffffffffffffffffffff1673ffffffffffffffffffffffffffffffffffffffff1681526020019081526020016000205490506000810361011357600080fd5b8061013a600260ff168576094f80d8d0370458c7834461d2c7eebb3ea174756b34e76101c6565b14915050919050565b60006020528060005260406000206000915090505481565b610181600260ff168276094f80d8d0370458c7834461d2c7eebb3ea174756b34e76101c6565b6000803373ffffffffffffffffffffffffffffffffffffffff1673ffffffffffffffffffffffffffffffffffffffff1681526020019081526020016000208190555050565b600060405160208152602080820152602060408201528460608201528360808201528260a082015260c05160208160c08460006005600019f161020857600080fd5b8051925050509392505050565b600080fd5b6000819050919050565b61022d8161021a565b811461023857600080fd5b50565b60008135905061024a81610224565b92915050565b60006020828403121561026657610265610215565b5b60006102748482850161023b565b91505092915050565b60008115159050919050565b6102928161027d565b82525050565b60006020820190506102ad6000830184610289565b92915050565b600073ffffffffffffffffffffffffffffffffffffffff82169050919050565b60006102de826102b3565b9050919050565b6102ee816102d3565b81146102f957600080fd5b50565b60008135905061030b816102e5565b92915050565b60006020828403121561032757610326610215565b5b6000610335848285016102fc565b91505092915050565b6103478161021a565b82525050565b6000602082019050610362600083018461033e565b9291505056fea26469706673582212206fc6b96af9f03157a6729142042da3c90aab6a7f08df2627bc238e32c39a9df264736f6c63430008110033",
					"opcodes": "PUSH1 0x80 PUSH1 0x40 MSTORE CALLVALUE DUP1 ISZERO PUSH2 0x10 JUMPI PUSH1 0x0 DUP1 REVERT JUMPDEST POP PUSH2 0x39E DUP1 PUSH2 0x20 PUSH1 0x0 CODECOPY PUSH1 0x0 RETURN INVALID PUSH1 0x80 PUSH1 0x40 MSTORE CALLVALUE DUP1 ISZERO PUSH2 0x10 JUMPI PUSH1 0x0 DUP1 REVERT JUMPDEST POP PUSH1 0x4 CALLDATASIZE LT PUSH2 0x41 JUMPI PUSH1 0x0 CALLDATALOAD PUSH1 0xE0 SHR DUP1 PUSH4 0xC2CA0AC5 EQ PUSH2 0x46 JUMPI DUP1 PUSH4 0xE8FCF723 EQ PUSH2 0x76 JUMPI DUP1 PUSH4 0xF4F98AD5 EQ PUSH2 0xA6 JUMPI JUMPDEST PUSH1 0x0 DUP1 REVERT JUMPDEST PUSH2 0x60 PUSH1 0x4 DUP1 CALLDATASIZE SUB DUP2 ADD SWAP1 PUSH2 0x5B SWAP2 SWAP1 PUSH2 0x250 JUMP JUMPDEST PUSH2 0xC2 JUMP JUMPDEST PUSH1 0x40 MLOAD PUSH2 0x6D SWAP2 SWAP1 PUSH2 0x298 JUMP JUMPDEST PUSH1 0x40 MLOAD DUP1 SWAP2 SUB SWAP1 RETURN JUMPDEST PUSH2 0x90 PUSH1 0x4 DUP1 CALLDATASIZE SUB DUP2 ADD SWAP1 PUSH2 0x8B SWAP2 SWAP1 PUSH2 0x311 JUMP JUMPDEST PUSH2 0x143 JUMP JUMPDEST PUSH1 0x40 MLOAD PUSH2 0x9D SWAP2 SWAP1 PUSH2 0x34D JUMP JUMPDEST PUSH1 0x40 MLOAD DUP1 SWAP2 SUB SWAP1 RETURN JUMPDEST PUSH2 0xC0 PUSH1 0x4 DUP1 CALLDATASIZE SUB DUP2 ADD SWAP1 PUSH2 0xBB SWAP2 SWAP1 PUSH2 0x250 JUMP JUMPDEST PUSH2 0x15B JUMP JUMPDEST STOP JUMPDEST PUSH1 0x0 DUP1 PUSH1 0x0 DUP1 CALLER PUSH20 0xFFFFFFFFFFFFFFFFFFFFFFFFFFFFFFFFFFFFFFFF AND PUSH20 0xFFFFFFFFFFFFFFFFFFFFFFFFFFFFFFFFFFFFFFFF AND DUP2 MSTORE PUSH1 0x20 ADD SWAP1 DUP2 MSTORE PUSH1 0x20 ADD PUSH1 0x0 KECCAK256 SLOAD SWAP1 POP PUSH1 0x0 DUP2 SUB PUSH2 0x113 JUMPI PUSH1 0x0 DUP1 REVERT JUMPDEST DUP1 PUSH2 0x13A PUSH1 0x2 PUSH1 0xFF AND DUP6 PUSH23 0x94F80D8D0370458C7834461D2C7EEBB3EA174756B34E7 PUSH2 0x1C6 JUMP JUMPDEST EQ SWAP2 POP POP SWAP2 SWAP1 POP JUMP JUMPDEST PUSH1 0x0 PUSH1 0x20 MSTORE DUP1 PUSH1 0x0 MSTORE PUSH1 0x40 PUSH1 0x0 KECCAK256 PUSH1 0x0 SWAP2 POP SWAP1 POP SLOAD DUP2 JUMP JUMPDEST PUSH2 0x181 PUSH1 0x2 PUSH1 0xFF AND DUP3 PUSH23 0x94F80D8D0370458C7834461D2C7EEBB3EA174756B34E7 PUSH2 0x1C6 JUMP JUMPDEST PUSH1 0x0 DUP1 CALLER PUSH20 0xFFFFFFFFFFFFFFFFFFFFFFFFFFFFFFFFFFFFFFFF AND PUSH20 0xFFFFFFFFFFFFFFFFFFFFFFFFFFFFFFFFFFFFFFFF AND DUP2 MSTORE PUSH1 0x20 ADD SWAP1 DUP2 MSTORE PUSH1 0x20 ADD PUSH1 0x0 KECCAK256 DUP2 SWAP1 SSTORE POP POP JUMP JUMPDEST PUSH1 0x0 PUSH1 0x40 MLOAD PUSH1 0x20 DUP2 MSTORE PUSH1 0x20 DUP1 DUP3 ADD MSTORE PUSH1 0x20 PUSH1 0x40 DUP3 ADD MSTORE DUP5 PUSH1 0x60 DUP3 ADD MSTORE DUP4 PUSH1 0x80 DUP3 ADD MSTORE DUP3 PUSH1 0xA0 DUP3 ADD MSTORE PUSH1 0xC0 MLOAD PUSH1 0x20 DUP2 PUSH1 0xC0 DUP5 PUSH1 0x0 PUSH1 0x5 PUSH1 0x0 NOT CALL PUSH2 0x208 JUMPI PUSH1 0x0 DUP1 REVERT JUMPDEST DUP1 MLOAD SWAP3 POP POP POP SWAP4 SWAP3 POP POP POP JUMP JUMPDEST PUSH1 0x0 DUP1 REVERT JUMPDEST PUSH1 0x0 DUP2 SWAP1 POP SWAP2 SWAP1 POP JUMP JUMPDEST PUSH2 0x22D DUP2 PUSH2 0x21A JUMP JUMPDEST DUP2 EQ PUSH2 0x238 JUMPI PUSH1 0x0 DUP1 REVERT JUMPDEST POP JUMP JUMPDEST PUSH1 0x0 DUP2 CALLDATALOAD SWAP1 POP PUSH2 0x24A DUP2 PUSH2 0x224 JUMP JUMPDEST SWAP3 SWAP2 POP POP JUMP JUMPDEST PUSH1 0x0 PUSH1 0x20 DUP3 DUP5 SUB SLT ISZERO PUSH2 0x266 JUMPI PUSH2 0x265 PUSH2 0x215 JUMP JUMPDEST JUMPDEST PUSH1 0x0 PUSH2 0x274 DUP5 DUP3 DUP6 ADD PUSH2 0x23B JUMP JUMPDEST SWAP2 POP POP SWAP3 SWAP2 POP POP JUMP JUMPDEST PUSH1 0x0 DUP2 ISZERO ISZERO SWAP1 POP SWAP2 SWAP1 POP JUMP JUMPDEST PUSH2 0x292 DUP2 PUSH2 0x27D JUMP JUMPDEST DUP3 MSTORE POP POP JUMP JUMPDEST PUSH1 0x0 PUSH1 0x20 DUP3 ADD SWAP1 POP PUSH2 0x2AD PUSH1 0x0 DUP4 ADD DUP5 PUSH2 0x289 JUMP JUMPDEST SWAP3 SWAP2 POP POP JUMP JUMPDEST PUSH1 0x0 PUSH20 0xFFFFFFFFFFFFFFFFFFFFFFFFFFFFFFFFFFFFFFFF DUP3 AND SWAP1 POP SWAP2 SWAP1 POP JUMP JUMPDEST PUSH1 0x0 PUSH2 0x2DE DUP3 PUSH2 0x2B3 JUMP JUMPDEST SWAP1 POP SWAP2 SWAP1 POP JUMP JUMPDEST PUSH2 0x2EE DUP2 PUSH2 0x2D3 JUMP JUMPDEST DUP2 EQ PUSH2 0x2F9 JUMPI PUSH1 0x0 DUP1 REVERT JUMPDEST POP JUMP JUMPDEST PUSH1 0x0 DUP2 CALLDATALOAD SWAP1 POP PUSH2 0x30B DUP2 PUSH2 0x2E5 JUMP JUMPDEST SWAP3 SWAP2 POP POP JUMP JUMPDEST PUSH1 0x0 PUSH1 0x20 DUP3 DUP5 SUB SLT ISZERO PUSH2 0x327 JUMPI PUSH2 0x326 PUSH2 0x215 JUMP JUMPDEST JUMPDEST PUSH1 0x0 PUSH2 0x335 DUP5 DUP3 DUP6 ADD PUSH2 0x2FC JUMP JUMPDEST SWAP2 POP POP SWAP3 SWAP2 POP POP JUMP JUMPDEST PUSH2 0x347 DUP2 PUSH2 0x21A JUMP JUMPDEST DUP3 MSTORE POP POP JUMP JUMPDEST PUSH1 0x0 PUSH1 0x20 DUP3 ADD SWAP1 POP PUSH2 0x362 PUSH1 0x0 DUP4 ADD DUP5 PUSH2 0x33E JUMP JUMPDEST SWAP3 SWAP2 POP POP JUMP INVALID LOG2 PUSH5 0x6970667358 0x22 SLT KECCAK256 PUSH16 0xC6B96AF9F03157A6729142042DA3C90A 0xAB PUSH11 0x7F08DF2627BC238E32C39A SWAP14 CALLCODE PUSH5 0x736F6C6343 STOP ADDMOD GT STOP CALLER "
				},
				"gasEstimates": {
					"creation": {
						"codeDepositCost": "185200",
						"executionCost": "226",
						"totalCost": "185426"
					},
					"external": {
						"commit(uint256)": "infinite",
						"commitments(address)": "2814",
						"reveal(uint256)": "infinite"
					},
					"internal": {
						"modExp(uint256,uint256,uint256)": "infinite"
					}
				},
				"methodIdentifiers": {
					"commit(uint256)": "f4f98ad5",
					"commitments(address)": "e8fcf723",
					"reveal(uint256)": "c2ca0ac5"
				}
			},
			"storageLayout": {
				"storage": [
					{
						"astId": 5,
						"contract": "BabyCommitment.sol:BabyCommitment",
						"label": "commitments",
						"offset": 0,
						"slot": "0",
						"type": "t_mapping(t_address,t_uint256)"
					}
				],
				"types": {
					"t_address": {
						"encoding": "inplace",
						"label": "address",
						"numberOfBytes": "20"
					},
					"t_mapping(t_address,t_uint256)": {
						"encoding": "mapping",
						"key": "t_address",
						"label": "mapping(address => uint256)",
						"numberOfBytes": "32",
						"value": "t_uint256"
					},
					"t_uint256": {
						"encoding": "inplace",
						"label": "uint256",
						"numberOfBytes": "32"
					}
				}
			},
			"userdoc": {
				"kind": "user",
				"methods": {
					"commit(uint256)": {
						"notice": "TODO: consider to add a random number with secret in commitment scheme"
					}
				},
				"version": 1
			}
		}
	}
}