{
	"EllipticCurve.sol": {
		"EllipticCurve": {
			"abi": [
				{
					"inputs": [
						{
							"components": [
								{
									"internalType": "uint256",
									"name": "x",
									"type": "uint256"
								},
								{
									"internalType": "uint256",
									"name": "y",
									"type": "uint256"
								}
							],
							"internalType": "struct EllipticCurve.Point",
							"name": "pt",
							"type": "tuple"
						}
					],
					"name": "isOnCurve",
					"outputs": [
						{
							"internalType": "bool",
							"name": "",
							"type": "bool"
						}
					],
					"stateMutability": "pure",
					"type": "function"
				},
				{
					"inputs": [
						{
							"components": [
								{
									"internalType": "uint256",
									"name": "x",
									"type": "uint256"
								},
								{
									"internalType": "uint256",
									"name": "y",
									"type": "uint256"
								}
							],
							"internalType": "struct EllipticCurve.Point",
							"name": "point",
							"type": "tuple"
						},
						{
							"internalType": "uint256",
							"name": "scalar",
							"type": "uint256"
						}
					],
					"name": "pointMultiply",
					"outputs": [
						{
							"components": [
								{
									"internalType": "uint256",
									"name": "x",
									"type": "uint256"
								},
								{
									"internalType": "uint256",
									"name": "y",
									"type": "uint256"
								}
							],
							"internalType": "struct EllipticCurve.Point",
							"name": "",
							"type": "tuple"
						}
					],
					"stateMutability": "pure",
					"type": "function"
				},
				{
					"inputs": [
						{
							"internalType": "bytes32",
							"name": "message",
							"type": "bytes32"
						},
						{
							"internalType": "uint256",
							"name": "r",
							"type": "uint256"
						},
						{
							"internalType": "uint256",
							"name": "s",
							"type": "uint256"
						},
						{
							"components": [
								{
									"internalType": "uint256",
									"name": "x",
									"type": "uint256"
								},
								{
									"internalType": "uint256",
									"name": "y",
									"type": "uint256"
								}
							],
							"internalType": "struct EllipticCurve.Point",
							"name": "publicKey",
							"type": "tuple"
						}
					],
					"name": "verifySignature",
					"outputs": [
						{
							"internalType": "bool",
							"name": "",
							"type": "bool"
						}
					],
					"stateMutability": "view",
					"type": "function"
				}
			],
			"devdoc": {
				"kind": "dev",
				"methods": {},
				"version": 1
			},
			"evm": {
				"assembly": "    /* \"EllipticCurve.sol\":2:3373  contract EllipticCurve {... */\n  mstore(0x40, 0x80)\n    /* \"EllipticCurve.sol\":362:427  Point(0x0b8f7b7b963b86f8a27ab0b288, 0x061bab2e6f5d749cbb10189162) */\n  mload(0x40)\n  dup1\n  0x40\n  add\n  0x40\n  mstore\n  dup1\n    /* \"EllipticCurve.sol\":368:396  0x0b8f7b7b963b86f8a27ab0b288 */\n  0x0b8f7b7b963b86f8a27ab0b288\n    /* \"EllipticCurve.sol\":362:427  Point(0x0b8f7b7b963b86f8a27ab0b288, 0x061bab2e6f5d749cbb10189162) */\n  dup2\n  mstore\n  0x20\n  add\n    /* \"EllipticCurve.sol\":398:426  0x061bab2e6f5d749cbb10189162 */\n  0x061bab2e6f5d749cbb10189162\n    /* \"EllipticCurve.sol\":362:427  Point(0x0b8f7b7b963b86f8a27ab0b288, 0x061bab2e6f5d749cbb10189162) */\n  dup2\n  mstore\n  pop\n    /* \"EllipticCurve.sol\":336:427  Point private generator = Point(0x0b8f7b7b963b86f8a27ab0b288, 0x061bab2e6f5d749cbb10189162) */\n  0x00\n  dup1\n  dup3\n  add\n  mload\n  dup2\n  0x00\n  add\n  sstore\n  0x20\n  dup3\n  add\n  mload\n  dup2\n  0x01\n  add\n  sstore\n  pop\n  pop\n    /* \"EllipticCurve.sol\":2:3373  contract EllipticCurve {... */\n  callvalue\n  dup1\n  iszero\n  tag_1\n  jumpi\n  0x00\n  dup1\n  revert\ntag_1:\n  pop\n  dataSize(sub_0)\n  dup1\n  dataOffset(sub_0)\n  0x00\n  codecopy\n  0x00\n  return\nstop\n\nsub_0: assembly {\n        /* \"EllipticCurve.sol\":2:3373  contract EllipticCurve {... */\n      mstore(0x40, 0x80)\n      callvalue\n      dup1\n      iszero\n      tag_1\n      jumpi\n      0x00\n      dup1\n      revert\n    tag_1:\n      pop\n      jumpi(tag_2, lt(calldatasize, 0x04))\n      shr(0xe0, calldataload(0x00))\n      dup1\n      0x06ba17bc\n      eq\n      tag_3\n      jumpi\n      dup1\n      0x32058281\n      eq\n      tag_4\n      jumpi\n      dup1\n      0x3a1dd7ac\n      eq\n      tag_5\n      jumpi\n    tag_2:\n      0x00\n      dup1\n      revert\n        /* \"EllipticCurve.sol\":436:960  function pointMultiply(Point memory point, uint scalar) public pure returns(Point memory) {... */\n    tag_3:\n      tag_6\n      0x04\n      dup1\n      calldatasize\n      sub\n      dup2\n      add\n      swap1\n      tag_7\n      swap2\n      swap1\n      tag_8\n      jump\t// in\n    tag_7:\n      tag_9\n      jump\t// in\n    tag_6:\n      mload(0x40)\n      tag_10\n      swap2\n      swap1\n      tag_11\n      jump\t// in\n    tag_10:\n      mload(0x40)\n      dup1\n      swap2\n      sub\n      swap1\n      return\n        /* \"EllipticCurve.sol\":975:1592  function verifySignature(bytes32 message, uint r, uint s, Point memory publicKey) public view returns(bool) {... */\n    tag_4:\n      tag_12\n      0x04\n      dup1\n      calldatasize\n      sub\n      dup2\n      add\n      swap1\n      tag_13\n      swap2\n      swap1\n      tag_14\n      jump\t// in\n    tag_13:\n      tag_15\n      jump\t// in\n    tag_12:\n      mload(0x40)\n      tag_16\n      swap2\n      swap1\n      tag_17\n      jump\t// in\n    tag_16:\n      mload(0x40)\n      dup1\n      swap2\n      sub\n      swap1\n      return\n        /* \"EllipticCurve.sol\":1620:1944  function isOnCurve(Point memory pt) public pure returns(bool) {... */\n    tag_5:\n      tag_18\n      0x04\n      dup1\n      calldatasize\n      sub\n      dup2\n      add\n      swap1\n      tag_19\n      swap2\n      swap1\n      tag_20\n      jump\t// in\n    tag_19:\n      tag_21\n      jump\t// in\n    tag_18:\n      mload(0x40)\n      tag_22\n      swap2\n      swap1\n      tag_17\n      jump\t// in\n    tag_22:\n      mload(0x40)\n      dup1\n      swap2\n      sub\n      swap1\n      return\n        /* \"EllipticCurve.sol\":436:960  function pointMultiply(Point memory point, uint scalar) public pure returns(Point memory) {... */\n    tag_9:\n        /* \"EllipticCurve.sol\":512:524  Point memory */\n      tag_23\n      tag_24\n      jump\t// in\n    tag_23:\n        /* \"EllipticCurve.sol\":545:561  isOnCurve(point) */\n      tag_26\n        /* \"EllipticCurve.sol\":555:560  point */\n      dup4\n        /* \"EllipticCurve.sol\":545:554  isOnCurve */\n      tag_21\n        /* \"EllipticCurve.sol\":545:561  isOnCurve(point) */\n      jump\t// in\n    tag_26:\n        /* \"EllipticCurve.sol\":537:591  require(isOnCurve(point), \"point is not on the curve\") */\n      tag_27\n      jumpi\n      mload(0x40)\n      0x08c379a000000000000000000000000000000000000000000000000000000000\n      dup2\n      mstore\n      0x04\n      add\n      tag_28\n      swap1\n      tag_29\n      jump\t// in\n    tag_28:\n      mload(0x40)\n      dup1\n      swap2\n      sub\n      swap1\n      revert\n    tag_27:\n        /* \"EllipticCurve.sol\":604:623  Point memory result */\n      0x00\n        /* \"EllipticCurve.sol\":626:637  Point(p, p) */\n      mload(0x40)\n      dup1\n      0x40\n      add\n      0x40\n      mstore\n      dup1\n        /* \"EllipticCurve.sol\":119:147  0x0ded3dc4be6d0d1d91a46b371d */\n      0x0ded3dc4be6d0d1d91a46b371d\n        /* \"EllipticCurve.sol\":626:637  Point(p, p) */\n      dup2\n      mstore\n      0x20\n      add\n        /* \"EllipticCurve.sol\":119:147  0x0ded3dc4be6d0d1d91a46b371d */\n      0x0ded3dc4be6d0d1d91a46b371d\n        /* \"EllipticCurve.sol\":626:637  Point(p, p) */\n      dup2\n      mstore\n      pop\n        /* \"EllipticCurve.sol\":604:637  Point memory result = Point(p, p) */\n      swap1\n      pop\n        /* \"EllipticCurve.sol\":673:693  Point memory current */\n      0x00\n        /* \"EllipticCurve.sol\":696:701  point */\n      dup5\n        /* \"EllipticCurve.sol\":673:701  Point memory current = point */\n      swap1\n      pop\n        /* \"EllipticCurve.sol\":708:928  while (scalar != 0) {... */\n    tag_30:\n        /* \"EllipticCurve.sol\":725:726  0 */\n      0x00\n        /* \"EllipticCurve.sol\":715:721  scalar */\n      dup5\n        /* \"EllipticCurve.sol\":715:726  scalar != 0 */\n      eq\n        /* \"EllipticCurve.sol\":708:928  while (scalar != 0) {... */\n      tag_31\n      jumpi\n        /* \"EllipticCurve.sol\":757:758  1 */\n      0x01\n        /* \"EllipticCurve.sol\":752:753  1 */\n      dup1\n        /* \"EllipticCurve.sol\":743:749  scalar */\n      dup6\n        /* \"EllipticCurve.sol\":743:753  scalar & 1 */\n      and\n        /* \"EllipticCurve.sol\":743:758  scalar & 1 == 1 */\n      sub\n        /* \"EllipticCurve.sol\":739:826  if (scalar & 1 == 1) {... */\n      tag_32\n      jumpi\n        /* \"EllipticCurve.sol\":784:814  pointAddition(result, current) */\n      tag_33\n        /* \"EllipticCurve.sol\":798:804  result */\n      dup3\n        /* \"EllipticCurve.sol\":806:813  current */\n      dup3\n        /* \"EllipticCurve.sol\":784:797  pointAddition */\n      tag_34\n        /* \"EllipticCurve.sol\":784:814  pointAddition(result, current) */\n      jump\t// in\n    tag_33:\n        /* \"EllipticCurve.sol\":775:814  result = pointAddition(result, current) */\n      swap2\n      pop\n        /* \"EllipticCurve.sol\":739:826  if (scalar & 1 == 1) {... */\n    tag_32:\n        /* \"EllipticCurve.sol\":850:881  pointAddition(current, current) */\n      tag_35\n        /* \"EllipticCurve.sol\":864:871  current */\n      dup2\n        /* \"EllipticCurve.sol\":873:880  current */\n      dup3\n        /* \"EllipticCurve.sol\":850:863  pointAddition */\n      tag_34\n        /* \"EllipticCurve.sol\":850:881  pointAddition(current, current) */\n      jump\t// in\n    tag_35:\n        /* \"EllipticCurve.sol\":840:881  current = pointAddition(current, current) */\n      swap1\n      pop\n        /* \"EllipticCurve.sol\":915:916  1 */\n      0x01\n        /* \"EllipticCurve.sol\":905:911  scalar */\n      dup5\n        /* \"EllipticCurve.sol\":905:916  scalar >> 1 */\n      swap1\n      shr\n        /* \"EllipticCurve.sol\":896:916  scalar = scalar >> 1 */\n      swap4\n      pop\n        /* \"EllipticCurve.sol\":708:928  while (scalar != 0) {... */\n      jump(tag_30)\n    tag_31:\n        /* \"EllipticCurve.sol\":946:952  result */\n      dup2\n        /* \"EllipticCurve.sol\":939:952  return result */\n      swap3\n      pop\n      pop\n      pop\n        /* \"EllipticCurve.sol\":436:960  function pointMultiply(Point memory point, uint scalar) public pure returns(Point memory) {... */\n      swap3\n      swap2\n      pop\n      pop\n      jump\t// out\n        /* \"EllipticCurve.sol\":975:1592  function verifySignature(bytes32 message, uint r, uint s, Point memory publicKey) public view returns(bool) {... */\n    tag_15:\n        /* \"EllipticCurve.sol\":1077:1081  bool */\n      0x00\n        /* \"EllipticCurve.sol\":1117:1137  isOnCurve(publicKey) */\n      tag_37\n        /* \"EllipticCurve.sol\":1127:1136  publicKey */\n      dup3\n        /* \"EllipticCurve.sol\":1117:1126  isOnCurve */\n      tag_21\n        /* \"EllipticCurve.sol\":1117:1137  isOnCurve(publicKey) */\n      jump\t// in\n    tag_37:\n        /* \"EllipticCurve.sol\":1109:1172  require(isOnCurve(publicKey), \"Public key is not on the curve\") */\n      tag_38\n      jumpi\n      mload(0x40)\n      0x08c379a000000000000000000000000000000000000000000000000000000000\n      dup2\n      mstore\n      0x04\n      add\n      tag_39\n      swap1\n      tag_40\n      jump\t// in\n    tag_39:\n      mload(0x40)\n      dup1\n      swap2\n      sub\n      swap1\n      revert\n    tag_38:\n        /* \"EllipticCurve.sol\":1200:1201  0 */\n      0x00\n        /* \"EllipticCurve.sol\":1195:1196  r */\n      dup5\n        /* \"EllipticCurve.sol\":1195:1201  r != 0 */\n      eq\n      iszero\n        /* \"EllipticCurve.sol\":1195:1211  r != 0 && s != 0 */\n      dup1\n      iszero\n      tag_41\n      jumpi\n      pop\n        /* \"EllipticCurve.sol\":1210:1211  0 */\n      0x00\n        /* \"EllipticCurve.sol\":1205:1206  s */\n      dup4\n        /* \"EllipticCurve.sol\":1205:1211  s != 0 */\n      eq\n      iszero\n        /* \"EllipticCurve.sol\":1195:1211  r != 0 && s != 0 */\n    tag_41:\n        /* \"EllipticCurve.sol\":1195:1220  r != 0 && s != 0 && r < n */\n      dup1\n      iszero\n      tag_42\n      jumpi\n      pop\n        /* \"EllipticCurve.sol\":302:329  0xd0d3dc4be6d0d1d91a46b371e */\n      0x0d0d3dc4be6d0d1d91a46b371e\n        /* \"EllipticCurve.sol\":1215:1216  r */\n      dup5\n        /* \"EllipticCurve.sol\":1215:1220  r < n */\n      lt\n        /* \"EllipticCurve.sol\":1195:1220  r != 0 && s != 0 && r < n */\n    tag_42:\n        /* \"EllipticCurve.sol\":1195:1237  r != 0 && s != 0 && r < n && s < n / 2 + 1 */\n      dup1\n      iszero\n      tag_43\n      jumpi\n      pop\n        /* \"EllipticCurve.sol\":1236:1237  1 */\n      0x01\n        /* \"EllipticCurve.sol\":1232:1233  2 */\n      0x02\n        /* \"EllipticCurve.sol\":302:329  0xd0d3dc4be6d0d1d91a46b371e */\n      0x0d0d3dc4be6d0d1d91a46b371e\n        /* \"EllipticCurve.sol\":1228:1233  n / 2 */\n      tag_44\n      swap2\n      swap1\n      tag_45\n      jump\t// in\n    tag_44:\n        /* \"EllipticCurve.sol\":1228:1237  n / 2 + 1 */\n      tag_46\n      swap2\n      swap1\n      tag_47\n      jump\t// in\n    tag_46:\n        /* \"EllipticCurve.sol\":1224:1225  s */\n      dup4\n        /* \"EllipticCurve.sol\":1224:1237  s < n / 2 + 1 */\n      lt\n        /* \"EllipticCurve.sol\":1195:1237  r != 0 && s != 0 && r < n && s < n / 2 + 1 */\n    tag_43:\n        /* \"EllipticCurve.sol\":1187:1257  require(r != 0 && s != 0 && r < n && s < n / 2 + 1, \"Wrong signature\") */\n      tag_48\n      jumpi\n      mload(0x40)\n      0x08c379a000000000000000000000000000000000000000000000000000000000\n      dup2\n      mstore\n      0x04\n      add\n      tag_49\n      swap1\n      tag_50\n      jump\t// in\n    tag_49:\n      mload(0x40)\n      dup1\n      swap2\n      sub\n      swap1\n      revert\n    tag_48:\n        /* \"EllipticCurve.sol\":1274:1280  uint w */\n      0x00\n        /* \"EllipticCurve.sol\":1283:1299  modInverse(s, n) */\n      tag_51\n        /* \"EllipticCurve.sol\":1294:1295  s */\n      dup5\n        /* \"EllipticCurve.sol\":302:329  0xd0d3dc4be6d0d1d91a46b371e */\n      0x0d0d3dc4be6d0d1d91a46b371e\n        /* \"EllipticCurve.sol\":1283:1293  modInverse */\n      tag_52\n        /* \"EllipticCurve.sol\":1283:1299  modInverse(s, n) */\n      jump\t// in\n    tag_51:\n        /* \"EllipticCurve.sol\":1274:1299  uint w = modInverse(s, n) */\n      swap1\n      pop\n        /* \"EllipticCurve.sol\":1314:1321  uint ul */\n      0x00\n        /* \"EllipticCurve.sol\":302:329  0xd0d3dc4be6d0d1d91a46b371e */\n      0x0d0d3dc4be6d0d1d91a46b371e\n        /* \"EllipticCurve.sol\":1324:1377  mulmod(uint(sha256(abi.encodePacked(message))), w, n) */\n      dup1\n      tag_53\n      jumpi\n      tag_54\n      tag_55\n      jump\t// in\n    tag_54:\n    tag_53:\n        /* \"EllipticCurve.sol\":1372:1373  w */\n      dup3\n        /* \"EllipticCurve.sol\":1336:1369  sha256(abi.encodePacked(message)) */\n      0x02\n        /* \"EllipticCurve.sol\":1360:1367  message */\n      dup10\n        /* \"EllipticCurve.sol\":1343:1368  abi.encodePacked(message) */\n      add(0x20, mload(0x40))\n      tag_56\n      swap2\n      swap1\n      tag_57\n      jump\t// in\n    tag_56:\n      mload(0x40)\n      0x20\n      dup2\n      dup4\n      sub\n      sub\n      dup2\n      mstore\n      swap1\n      0x40\n      mstore\n        /* \"EllipticCurve.sol\":1336:1369  sha256(abi.encodePacked(message)) */\n      mload(0x40)\n      tag_58\n      swap2\n      swap1\n      tag_59\n      jump\t// in\n    tag_58:\n      0x20\n      mload(0x40)\n      dup1\n      dup4\n      sub\n      dup2\n      dup6\n      gas\n      staticcall\n      iszero\n      dup1\n      iszero\n      tag_61\n      jumpi\n      returndatasize\n      0x00\n      dup1\n      returndatacopy\n      revert(0x00, returndatasize)\n    tag_61:\n      pop\n      pop\n      pop\n      mload(0x40)\n      returndatasize\n      not(0x1f)\n      0x1f\n      dup3\n      add\n      and\n      dup3\n      add\n      dup1\n      0x40\n      mstore\n      pop\n      dup2\n      add\n      swap1\n      tag_62\n      swap2\n      swap1\n      tag_63\n      jump\t// in\n    tag_62:\n        /* \"EllipticCurve.sol\":1331:1370  uint(sha256(abi.encodePacked(message))) */\n      0x00\n      shr\n        /* \"EllipticCurve.sol\":1324:1377  mulmod(uint(sha256(abi.encodePacked(message))), w, n) */\n      mulmod\n        /* \"EllipticCurve.sol\":1314:1377  uint ul = mulmod(uint(sha256(abi.encodePacked(message))), w, n) */\n      swap1\n      pop\n        /* \"EllipticCurve.sol\":1392:1399  uint u2 */\n      0x00\n        /* \"EllipticCurve.sol\":302:329  0xd0d3dc4be6d0d1d91a46b371e */\n      0x0d0d3dc4be6d0d1d91a46b371e\n        /* \"EllipticCurve.sol\":1402:1417  mulmod(r, w, n) */\n      dup1\n      tag_64\n      jumpi\n      tag_65\n      tag_55\n      jump\t// in\n    tag_65:\n    tag_64:\n        /* \"EllipticCurve.sol\":1412:1413  w */\n      dup4\n        /* \"EllipticCurve.sol\":1409:1410  r */\n      dup9\n        /* \"EllipticCurve.sol\":1402:1417  mulmod(r, w, n) */\n      mulmod\n        /* \"EllipticCurve.sol\":1392:1417  uint u2 = mulmod(r, w, n) */\n      swap1\n      pop\n        /* \"EllipticCurve.sol\":1434:1453  Point memory result */\n      0x00\n        /* \"EllipticCurve.sol\":1456:1529  pointAddition(pointMultiply(generator, ul), pointMultiply(publicKey, u2)) */\n      tag_66\n        /* \"EllipticCurve.sol\":1470:1498  pointMultiply(generator, ul) */\n      tag_67\n        /* \"EllipticCurve.sol\":1484:1493  generator */\n      0x00\n        /* \"EllipticCurve.sol\":1470:1498  pointMultiply(generator, ul) */\n      mload(0x40)\n      dup1\n      0x40\n      add\n      0x40\n      mstore\n      swap1\n      dup2\n      0x00\n      dup3\n      add\n      sload\n      dup2\n      mstore\n      0x20\n      add\n      0x01\n      dup3\n      add\n      sload\n      dup2\n      mstore\n      pop\n      pop\n        /* \"EllipticCurve.sol\":1495:1497  ul */\n      dup6\n        /* \"EllipticCurve.sol\":1470:1483  pointMultiply */\n      tag_9\n        /* \"EllipticCurve.sol\":1470:1498  pointMultiply(generator, ul) */\n      jump\t// in\n    tag_67:\n        /* \"EllipticCurve.sol\":1500:1528  pointMultiply(publicKey, u2) */\n      tag_68\n        /* \"EllipticCurve.sol\":1514:1523  publicKey */\n      dup9\n        /* \"EllipticCurve.sol\":1525:1527  u2 */\n      dup6\n        /* \"EllipticCurve.sol\":1500:1513  pointMultiply */\n      tag_9\n        /* \"EllipticCurve.sol\":1500:1528  pointMultiply(publicKey, u2) */\n      jump\t// in\n    tag_68:\n        /* \"EllipticCurve.sol\":1456:1469  pointAddition */\n      tag_34\n        /* \"EllipticCurve.sol\":1456:1529  pointAddition(pointMultiply(generator, ul), pointMultiply(publicKey, u2)) */\n      jump\t// in\n    tag_66:\n        /* \"EllipticCurve.sol\":1434:1529  Point memory result = pointAddition(pointMultiply(generator, ul), pointMultiply(publicKey, u2)) */\n      swap1\n      pop\n        /* \"EllipticCurve.sol\":302:329  0xd0d3dc4be6d0d1d91a46b371e */\n      0x0d0d3dc4be6d0d1d91a46b371e\n        /* \"EllipticCurve.sol\":1576:1577  r */\n      dup9\n        /* \"EllipticCurve.sol\":1576:1581  r % n */\n      tag_69\n      swap2\n      swap1\n      tag_70\n      jump\t// in\n    tag_69:\n        /* \"EllipticCurve.sol\":1564:1570  result */\n      dup2\n        /* \"EllipticCurve.sol\":1564:1572  result.x */\n      0x00\n      add\n      mload\n        /* \"EllipticCurve.sol\":1564:1581  result.x == r % n */\n      eq\n        /* \"EllipticCurve.sol\":1556:1582  return (result.x == r % n) */\n      swap5\n      pop\n      pop\n      pop\n      pop\n      pop\n        /* \"EllipticCurve.sol\":975:1592  function verifySignature(bytes32 message, uint r, uint s, Point memory publicKey) public view returns(bool) {... */\n      swap5\n      swap4\n      pop\n      pop\n      pop\n      pop\n      jump\t// out\n        /* \"EllipticCurve.sol\":1620:1944  function isOnCurve(Point memory pt) public pure returns(bool) {... */\n    tag_21:\n        /* \"EllipticCurve.sol\":1676:1680  bool */\n      0x00\n        /* \"EllipticCurve.sol\":119:147  0x0ded3dc4be6d0d1d91a46b371d */\n      0x0ded3dc4be6d0d1d91a46b371d\n        /* \"EllipticCurve.sol\":1697:1699  pt */\n      dup3\n        /* \"EllipticCurve.sol\":1697:1701  pt.x */\n      0x00\n      add\n      mload\n        /* \"EllipticCurve.sol\":1697:1706  pt.x >= p */\n      lt\n      iszero\n        /* \"EllipticCurve.sol\":1697:1719  pt.x >= p || pt.y >= p */\n      dup1\n      tag_72\n      jumpi\n      pop\n        /* \"EllipticCurve.sol\":119:147  0x0ded3dc4be6d0d1d91a46b371d */\n      0x0ded3dc4be6d0d1d91a46b371d\n        /* \"EllipticCurve.sol\":1710:1712  pt */\n      dup3\n        /* \"EllipticCurve.sol\":1710:1714  pt.y */\n      0x20\n      add\n      mload\n        /* \"EllipticCurve.sol\":1710:1719  pt.y >= p */\n      lt\n      iszero\n        /* \"EllipticCurve.sol\":1697:1719  pt.x >= p || pt.y >= p */\n    tag_72:\n        /* \"EllipticCurve.sol\":1693:1760  if (pt.x >= p || pt.y >= p) {... */\n      iszero\n      tag_73\n      jumpi\n        /* \"EllipticCurve.sol\":1743:1748  false */\n      0x00\n        /* \"EllipticCurve.sol\":1736:1748  return false */\n      swap1\n      pop\n      jump(tag_71)\n        /* \"EllipticCurve.sol\":1693:1760  if (pt.x >= p || pt.y >= p) {... */\n    tag_73:\n        /* \"EllipticCurve.sol\":1770:1778  uint lhs */\n      0x00\n        /* \"EllipticCurve.sol\":119:147  0x0ded3dc4be6d0d1d91a46b371d */\n      0x0ded3dc4be6d0d1d91a46b371d\n        /* \"EllipticCurve.sol\":1781:1802  mulmod(pt.y, pt.y, p) */\n      dup1\n      tag_74\n      jumpi\n      tag_75\n      tag_55\n      jump\t// in\n    tag_75:\n    tag_74:\n        /* \"EllipticCurve.sol\":1794:1796  pt */\n      dup4\n        /* \"EllipticCurve.sol\":1794:1798  pt.y */\n      0x20\n      add\n      mload\n        /* \"EllipticCurve.sol\":1788:1790  pt */\n      dup5\n        /* \"EllipticCurve.sol\":1788:1792  pt.y */\n      0x20\n      add\n      mload\n        /* \"EllipticCurve.sol\":1781:1802  mulmod(pt.y, pt.y, p) */\n      mulmod\n        /* \"EllipticCurve.sol\":1770:1802  uint lhs = mulmod(pt.y, pt.y, p) */\n      swap1\n      pop\n        /* \"EllipticCurve.sol\":1814:1822  uint rhs */\n      0x00\n        /* \"EllipticCurve.sol\":119:147  0x0ded3dc4be6d0d1d91a46b371d */\n      0x0ded3dc4be6d0d1d91a46b371d\n        /* \"EllipticCurve.sol\":1825:1908  addmod(addmod(mulmod(pt.x, mulmod(pt.x, pt.x, p), p), mulmod(a, pt.x, p), p), b, p) */\n      dup1\n      tag_76\n      jumpi\n      tag_77\n      tag_55\n      jump\t// in\n    tag_77:\n    tag_76:\n        /* \"EllipticCurve.sol\":241:269  0x00000000000000000000000001 */\n      0x01\n        /* \"EllipticCurve.sol\":119:147  0x0ded3dc4be6d0d1d91a46b371d */\n      0x0ded3dc4be6d0d1d91a46b371d\n        /* \"EllipticCurve.sol\":1832:1901  addmod(mulmod(pt.x, mulmod(pt.x, pt.x, p), p), mulmod(a, pt.x, p), p) */\n      dup1\n      tag_78\n      jumpi\n      tag_79\n      tag_55\n      jump\t// in\n    tag_79:\n    tag_78:\n        /* \"EllipticCurve.sol\":119:147  0x0ded3dc4be6d0d1d91a46b371d */\n      0x0ded3dc4be6d0d1d91a46b371d\n        /* \"EllipticCurve.sol\":1879:1897  mulmod(a, pt.x, p) */\n      dup1\n      tag_80\n      jumpi\n      tag_81\n      tag_55\n      jump\t// in\n    tag_81:\n    tag_80:\n        /* \"EllipticCurve.sol\":1889:1891  pt */\n      dup8\n        /* \"EllipticCurve.sol\":1889:1893  pt.x */\n      0x00\n      add\n      mload\n        /* \"EllipticCurve.sol\":180:208  0x00000000000000000000000000 */\n      0x00\n        /* \"EllipticCurve.sol\":1879:1897  mulmod(a, pt.x, p) */\n      mulmod\n        /* \"EllipticCurve.sol\":119:147  0x0ded3dc4be6d0d1d91a46b371d */\n      0x0ded3dc4be6d0d1d91a46b371d\n        /* \"EllipticCurve.sol\":1839:1877  mulmod(pt.x, mulmod(pt.x, pt.x, p), p) */\n      dup1\n      tag_82\n      jumpi\n      tag_83\n      tag_55\n      jump\t// in\n    tag_83:\n    tag_82:\n        /* \"EllipticCurve.sol\":119:147  0x0ded3dc4be6d0d1d91a46b371d */\n      0x0ded3dc4be6d0d1d91a46b371d\n        /* \"EllipticCurve.sol\":1852:1873  mulmod(pt.x, pt.x, p) */\n      dup1\n      tag_84\n      jumpi\n      tag_85\n      tag_55\n      jump\t// in\n    tag_85:\n    tag_84:\n        /* \"EllipticCurve.sol\":1865:1867  pt */\n      dup10\n        /* \"EllipticCurve.sol\":1865:1869  pt.x */\n      0x00\n      add\n      mload\n        /* \"EllipticCurve.sol\":1859:1861  pt */\n      dup11\n        /* \"EllipticCurve.sol\":1859:1863  pt.x */\n      0x00\n      add\n      mload\n        /* \"EllipticCurve.sol\":1852:1873  mulmod(pt.x, pt.x, p) */\n      mulmod\n        /* \"EllipticCurve.sol\":1846:1848  pt */\n      dup10\n        /* \"EllipticCurve.sol\":1846:1850  pt.x */\n      0x00\n      add\n      mload\n        /* \"EllipticCurve.sol\":1839:1877  mulmod(pt.x, mulmod(pt.x, pt.x, p), p) */\n      mulmod\n        /* \"EllipticCurve.sol\":1832:1901  addmod(mulmod(pt.x, mulmod(pt.x, pt.x, p), p), mulmod(a, pt.x, p), p) */\n      addmod\n        /* \"EllipticCurve.sol\":1825:1908  addmod(addmod(mulmod(pt.x, mulmod(pt.x, pt.x, p), p), mulmod(a, pt.x, p), p), b, p) */\n      addmod\n        /* \"EllipticCurve.sol\":1814:1908  uint rhs = addmod(addmod(mulmod(pt.x, mulmod(pt.x, pt.x, p), p), mulmod(a, pt.x, p), p), b, p) */\n      swap1\n      pop\n        /* \"EllipticCurve.sol\":1933:1936  rhs */\n      dup1\n        /* \"EllipticCurve.sol\":1926:1929  lhs */\n      dup3\n        /* \"EllipticCurve.sol\":1926:1936  lhs == rhs */\n      eq\n        /* \"EllipticCurve.sol\":1919:1936  return lhs == rhs */\n      swap3\n      pop\n      pop\n      pop\n        /* \"EllipticCurve.sol\":1620:1944  function isOnCurve(Point memory pt) public pure returns(bool) {... */\n    tag_71:\n      swap2\n      swap1\n      pop\n      jump\t// out\n        /* \"EllipticCurve.sol\":1954:2813  function pointAddition(Point memory p1, Point memory p2) private pure returns(Point memory) {... */\n    tag_34:\n        /* \"EllipticCurve.sol\":2032:2044  Point memory */\n      tag_86\n      tag_24\n      jump\t// in\n    tag_86:\n        /* \"EllipticCurve.sol\":119:147  0x0ded3dc4be6d0d1d91a46b371d */\n      0x0ded3dc4be6d0d1d91a46b371d\n        /* \"EllipticCurve.sol\":2061:2063  p1 */\n      dup4\n        /* \"EllipticCurve.sol\":2061:2065  p1.x */\n      0x00\n      add\n      mload\n        /* \"EllipticCurve.sol\":2061:2070  p1.x == p */\n      eq\n        /* \"EllipticCurve.sol\":2061:2083  p1.x == p && p1.y == p */\n      dup1\n      iszero\n      tag_88\n      jumpi\n      pop\n        /* \"EllipticCurve.sol\":119:147  0x0ded3dc4be6d0d1d91a46b371d */\n      0x0ded3dc4be6d0d1d91a46b371d\n        /* \"EllipticCurve.sol\":2074:2076  p1 */\n      dup4\n        /* \"EllipticCurve.sol\":2074:2078  p1.y */\n      0x20\n      add\n      mload\n        /* \"EllipticCurve.sol\":2074:2083  p1.y == p */\n      eq\n        /* \"EllipticCurve.sol\":2061:2083  p1.x == p && p1.y == p */\n    tag_88:\n        /* \"EllipticCurve.sol\":2057:2121  if (p1.x == p && p1.y == p) {... */\n      iszero\n      tag_89\n      jumpi\n        /* \"EllipticCurve.sol\":2107:2109  p2 */\n      dup2\n        /* \"EllipticCurve.sol\":2100:2109  return p2 */\n      swap1\n      pop\n      jump(tag_87)\n        /* \"EllipticCurve.sol\":2057:2121  if (p1.x == p && p1.y == p) {... */\n    tag_89:\n        /* \"EllipticCurve.sol\":119:147  0x0ded3dc4be6d0d1d91a46b371d */\n      0x0ded3dc4be6d0d1d91a46b371d\n        /* \"EllipticCurve.sol\":2135:2137  p2 */\n      dup3\n        /* \"EllipticCurve.sol\":2135:2139  p2.x */\n      0x00\n      add\n      mload\n        /* \"EllipticCurve.sol\":2135:2144  p2.x == p */\n      eq\n        /* \"EllipticCurve.sol\":2135:2157  p2.x == p && p2.y == p */\n      dup1\n      iszero\n      tag_90\n      jumpi\n      pop\n        /* \"EllipticCurve.sol\":119:147  0x0ded3dc4be6d0d1d91a46b371d */\n      0x0ded3dc4be6d0d1d91a46b371d\n        /* \"EllipticCurve.sol\":2148:2150  p2 */\n      dup3\n        /* \"EllipticCurve.sol\":2148:2152  p2.y */\n      0x20\n      add\n      mload\n        /* \"EllipticCurve.sol\":2148:2157  p2.y == p */\n      eq\n        /* \"EllipticCurve.sol\":2135:2157  p2.x == p && p2.y == p */\n    tag_90:\n        /* \"EllipticCurve.sol\":2131:2195  if (p2.x == p && p2.y == p) {... */\n      iszero\n      tag_91\n      jumpi\n        /* \"EllipticCurve.sol\":2181:2183  p1 */\n      dup3\n        /* \"EllipticCurve.sol\":2174:2183  return p1 */\n      swap1\n      pop\n      jump(tag_87)\n        /* \"EllipticCurve.sol\":2131:2195  if (p2.x == p && p2.y == p) {... */\n    tag_91:\n        /* \"EllipticCurve.sol\":2205:2211  uint m */\n      0x00\n        /* \"EllipticCurve.sol\":2238:2240  p2 */\n      dup3\n        /* \"EllipticCurve.sol\":2238:2242  p2.x */\n      0x00\n      add\n      mload\n        /* \"EllipticCurve.sol\":2230:2232  p1 */\n      dup5\n        /* \"EllipticCurve.sol\":2230:2234  p1.x */\n      0x00\n      add\n      mload\n        /* \"EllipticCurve.sol\":2230:2242  p1.x == p2.x */\n      sub\n        /* \"EllipticCurve.sol\":2226:2617  if (p1.x == p2.x) {... */\n      tag_92\n      jumpi\n        /* \"EllipticCurve.sol\":2271:2273  p2 */\n      dup3\n        /* \"EllipticCurve.sol\":2271:2275  p2.y */\n      0x20\n      add\n      mload\n        /* \"EllipticCurve.sol\":2263:2265  p1 */\n      dup5\n        /* \"EllipticCurve.sol\":2263:2267  p1.y */\n      0x20\n      add\n      mload\n        /* \"EllipticCurve.sol\":2263:2275  p1.y == p2.y */\n      sub\n        /* \"EllipticCurve.sol\":2259:2492  if (p1.y == p2.y) {... */\n      tag_93\n      jumpi\n        /* \"EllipticCurve.sol\":119:147  0x0ded3dc4be6d0d1d91a46b371d */\n      0x0ded3dc4be6d0d1d91a46b371d\n        /* \"EllipticCurve.sol\":2301:2395  mulmod(addmod(mulmod(3, mulmod(p1.x, p1.x, p), p), a, p), modInverse(mulmod(2,p1.y, p), p), p) */\n      dup1\n      tag_94\n      jumpi\n      tag_95\n      tag_55\n      jump\t// in\n    tag_95:\n    tag_94:\n        /* \"EllipticCurve.sol\":2359:2391  modInverse(mulmod(2,p1.y, p), p) */\n      tag_96\n        /* \"EllipticCurve.sol\":119:147  0x0ded3dc4be6d0d1d91a46b371d */\n      0x0ded3dc4be6d0d1d91a46b371d\n        /* \"EllipticCurve.sol\":2370:2387  mulmod(2,p1.y, p) */\n      dup1\n      tag_97\n      jumpi\n      tag_98\n      tag_55\n      jump\t// in\n    tag_98:\n    tag_97:\n        /* \"EllipticCurve.sol\":2379:2381  p1 */\n      dup7\n        /* \"EllipticCurve.sol\":2379:2383  p1.y */\n      0x20\n      add\n      mload\n        /* \"EllipticCurve.sol\":2377:2378  2 */\n      0x02\n        /* \"EllipticCurve.sol\":2370:2387  mulmod(2,p1.y, p) */\n      mulmod\n        /* \"EllipticCurve.sol\":119:147  0x0ded3dc4be6d0d1d91a46b371d */\n      0x0ded3dc4be6d0d1d91a46b371d\n        /* \"EllipticCurve.sol\":2359:2369  modInverse */\n      tag_52\n        /* \"EllipticCurve.sol\":2359:2391  modInverse(mulmod(2,p1.y, p), p) */\n      jump\t// in\n    tag_96:\n        /* \"EllipticCurve.sol\":119:147  0x0ded3dc4be6d0d1d91a46b371d */\n      0x0ded3dc4be6d0d1d91a46b371d\n        /* \"EllipticCurve.sol\":2308:2357  addmod(mulmod(3, mulmod(p1.x, p1.x, p), p), a, p) */\n      dup1\n      tag_99\n      jumpi\n      tag_100\n      tag_55\n      jump\t// in\n    tag_100:\n    tag_99:\n        /* \"EllipticCurve.sol\":180:208  0x00000000000000000000000000 */\n      0x00\n        /* \"EllipticCurve.sol\":119:147  0x0ded3dc4be6d0d1d91a46b371d */\n      0x0ded3dc4be6d0d1d91a46b371d\n        /* \"EllipticCurve.sol\":2315:2350  mulmod(3, mulmod(p1.x, p1.x, p), p) */\n      dup1\n      tag_101\n      jumpi\n      tag_102\n      tag_55\n      jump\t// in\n    tag_102:\n    tag_101:\n        /* \"EllipticCurve.sol\":119:147  0x0ded3dc4be6d0d1d91a46b371d */\n      0x0ded3dc4be6d0d1d91a46b371d\n        /* \"EllipticCurve.sol\":2325:2346  mulmod(p1.x, p1.x, p) */\n      dup1\n      tag_103\n      jumpi\n      tag_104\n      tag_55\n      jump\t// in\n    tag_104:\n    tag_103:\n        /* \"EllipticCurve.sol\":2338:2340  p1 */\n      dup10\n        /* \"EllipticCurve.sol\":2338:2342  p1.x */\n      0x00\n      add\n      mload\n        /* \"EllipticCurve.sol\":2332:2334  p1 */\n      dup11\n        /* \"EllipticCurve.sol\":2332:2336  p1.x */\n      0x00\n      add\n      mload\n        /* \"EllipticCurve.sol\":2325:2346  mulmod(p1.x, p1.x, p) */\n      mulmod\n        /* \"EllipticCurve.sol\":2322:2323  3 */\n      0x03\n        /* \"EllipticCurve.sol\":2315:2350  mulmod(3, mulmod(p1.x, p1.x, p), p) */\n      mulmod\n        /* \"EllipticCurve.sol\":2308:2357  addmod(mulmod(3, mulmod(p1.x, p1.x, p), p), a, p) */\n      addmod\n        /* \"EllipticCurve.sol\":2301:2395  mulmod(addmod(mulmod(3, mulmod(p1.x, p1.x, p), p), a, p), modInverse(mulmod(2,p1.y, p), p), p) */\n      mulmod\n        /* \"EllipticCurve.sol\":2297:2395  m = mulmod(addmod(mulmod(3, mulmod(p1.x, p1.x, p), p), a, p), modInverse(mulmod(2,p1.y, p), p), p) */\n      swap1\n      pop\n        /* \"EllipticCurve.sol\":2259:2492  if (p1.y == p2.y) {... */\n      jump(tag_105)\n    tag_93:\n        /* \"EllipticCurve.sol\":2444:2455  Point(p, p) */\n      mload(0x40)\n      dup1\n      0x40\n      add\n      0x40\n      mstore\n      dup1\n        /* \"EllipticCurve.sol\":119:147  0x0ded3dc4be6d0d1d91a46b371d */\n      0x0ded3dc4be6d0d1d91a46b371d\n        /* \"EllipticCurve.sol\":2444:2455  Point(p, p) */\n      dup2\n      mstore\n      0x20\n      add\n        /* \"EllipticCurve.sol\":119:147  0x0ded3dc4be6d0d1d91a46b371d */\n      0x0ded3dc4be6d0d1d91a46b371d\n        /* \"EllipticCurve.sol\":2444:2455  Point(p, p) */\n      dup2\n      mstore\n      pop\n        /* \"EllipticCurve.sol\":2437:2455  return Point(p, p) */\n      swap2\n      pop\n      pop\n      jump(tag_87)\n        /* \"EllipticCurve.sol\":2259:2492  if (p1.y == p2.y) {... */\n    tag_105:\n        /* \"EllipticCurve.sol\":2226:2617  if (p1.x == p2.x) {... */\n      jump(tag_106)\n    tag_92:\n        /* \"EllipticCurve.sol\":119:147  0x0ded3dc4be6d0d1d91a46b371d */\n      0x0ded3dc4be6d0d1d91a46b371d\n        /* \"EllipticCurve.sol\":2536:2608  mulmod(modDiff(p1.y, p2.y, p), modInverse(modDiff(p1.x, p2.x, p), p), p) */\n      dup1\n      tag_107\n      jumpi\n      tag_108\n      tag_55\n      jump\t// in\n    tag_108:\n    tag_107:\n        /* \"EllipticCurve.sol\":2567:2604  modInverse(modDiff(p1.x, p2.x, p), p) */\n      tag_109\n        /* \"EllipticCurve.sol\":2578:2600  modDiff(p1.x, p2.x, p) */\n      tag_110\n        /* \"EllipticCurve.sol\":2586:2588  p1 */\n      dup7\n        /* \"EllipticCurve.sol\":2586:2590  p1.x */\n      0x00\n      add\n      mload\n        /* \"EllipticCurve.sol\":2592:2594  p2 */\n      dup7\n        /* \"EllipticCurve.sol\":2592:2596  p2.x */\n      0x00\n      add\n      mload\n        /* \"EllipticCurve.sol\":119:147  0x0ded3dc4be6d0d1d91a46b371d */\n      0x0ded3dc4be6d0d1d91a46b371d\n        /* \"EllipticCurve.sol\":2578:2585  modDiff */\n      tag_111\n        /* \"EllipticCurve.sol\":2578:2600  modDiff(p1.x, p2.x, p) */\n      jump\t// in\n    tag_110:\n        /* \"EllipticCurve.sol\":119:147  0x0ded3dc4be6d0d1d91a46b371d */\n      0x0ded3dc4be6d0d1d91a46b371d\n        /* \"EllipticCurve.sol\":2567:2577  modInverse */\n      tag_52\n        /* \"EllipticCurve.sol\":2567:2604  modInverse(modDiff(p1.x, p2.x, p), p) */\n      jump\t// in\n    tag_109:\n        /* \"EllipticCurve.sol\":2543:2565  modDiff(p1.y, p2.y, p) */\n      tag_112\n        /* \"EllipticCurve.sol\":2551:2553  p1 */\n      dup7\n        /* \"EllipticCurve.sol\":2551:2555  p1.y */\n      0x20\n      add\n      mload\n        /* \"EllipticCurve.sol\":2557:2559  p2 */\n      dup7\n        /* \"EllipticCurve.sol\":2557:2561  p2.y */\n      0x20\n      add\n      mload\n        /* \"EllipticCurve.sol\":119:147  0x0ded3dc4be6d0d1d91a46b371d */\n      0x0ded3dc4be6d0d1d91a46b371d\n        /* \"EllipticCurve.sol\":2543:2550  modDiff */\n      tag_111\n        /* \"EllipticCurve.sol\":2543:2565  modDiff(p1.y, p2.y, p) */\n      jump\t// in\n    tag_112:\n        /* \"EllipticCurve.sol\":2536:2608  mulmod(modDiff(p1.y, p2.y, p), modInverse(modDiff(p1.x, p2.x, p), p), p) */\n      mulmod\n        /* \"EllipticCurve.sol\":2532:2608  m = mulmod(modDiff(p1.y, p2.y, p), modInverse(modDiff(p1.x, p2.x, p), p), p) */\n      swap1\n      pop\n        /* \"EllipticCurve.sol\":2226:2617  if (p1.x == p2.x) {... */\n    tag_106:\n        /* \"EllipticCurve.sol\":2629:2636  uint x3 */\n      0x00\n        /* \"EllipticCurve.sol\":119:147  0x0ded3dc4be6d0d1d91a46b371d */\n      0x0ded3dc4be6d0d1d91a46b371d\n        /* \"EllipticCurve.sol\":2639:2689  modDiff(mulmod(m, m, p), addmod(p1.x, p2.x, p), p) */\n      tag_113\n        /* \"EllipticCurve.sol\":119:147  0x0ded3dc4be6d0d1d91a46b371d */\n      0x0ded3dc4be6d0d1d91a46b371d\n        /* \"EllipticCurve.sol\":2647:2662  mulmod(m, m, p) */\n      dup1\n      tag_114\n      jumpi\n      tag_115\n      tag_55\n      jump\t// in\n    tag_115:\n    tag_114:\n        /* \"EllipticCurve.sol\":2657:2658  m */\n      dup5\n        /* \"EllipticCurve.sol\":2654:2655  m */\n      dup6\n        /* \"EllipticCurve.sol\":2647:2662  mulmod(m, m, p) */\n      mulmod\n        /* \"EllipticCurve.sol\":119:147  0x0ded3dc4be6d0d1d91a46b371d */\n      0x0ded3dc4be6d0d1d91a46b371d\n        /* \"EllipticCurve.sol\":2664:2685  addmod(p1.x, p2.x, p) */\n      dup1\n      tag_116\n      jumpi\n      tag_117\n      tag_55\n      jump\t// in\n    tag_117:\n    tag_116:\n        /* \"EllipticCurve.sol\":2677:2679  p2 */\n      dup8\n        /* \"EllipticCurve.sol\":2677:2681  p2.x */\n      0x00\n      add\n      mload\n        /* \"EllipticCurve.sol\":2671:2673  p1 */\n      dup10\n        /* \"EllipticCurve.sol\":2671:2675  p1.x */\n      0x00\n      add\n      mload\n        /* \"EllipticCurve.sol\":2664:2685  addmod(p1.x, p2.x, p) */\n      addmod\n        /* \"EllipticCurve.sol\":119:147  0x0ded3dc4be6d0d1d91a46b371d */\n      0x0ded3dc4be6d0d1d91a46b371d\n        /* \"EllipticCurve.sol\":2639:2646  modDiff */\n      tag_111\n        /* \"EllipticCurve.sol\":2639:2689  modDiff(mulmod(m, m, p), addmod(p1.x, p2.x, p), p) */\n      jump\t// in\n    tag_113:\n        /* \"EllipticCurve.sol\":2639:2693  modDiff(mulmod(m, m, p), addmod(p1.x, p2.x, p), p) % p */\n      tag_118\n      swap2\n      swap1\n      tag_70\n      jump\t// in\n    tag_118:\n        /* \"EllipticCurve.sol\":2629:2693  uint x3 = modDiff(mulmod(m, m, p), addmod(p1.x, p2.x, p), p) % p */\n      swap1\n      pop\n        /* \"EllipticCurve.sol\":2704:2711  uint y3 */\n      0x00\n        /* \"EllipticCurve.sol\":119:147  0x0ded3dc4be6d0d1d91a46b371d */\n      0x0ded3dc4be6d0d1d91a46b371d\n        /* \"EllipticCurve.sol\":2714:2766  modDiff(mulmod(m, modDiff(p1.x, x3, p), p), p1.y, p) */\n      tag_119\n        /* \"EllipticCurve.sol\":119:147  0x0ded3dc4be6d0d1d91a46b371d */\n      0x0ded3dc4be6d0d1d91a46b371d\n        /* \"EllipticCurve.sol\":2722:2756  mulmod(m, modDiff(p1.x, x3, p), p) */\n      dup1\n      tag_120\n      jumpi\n      tag_121\n      tag_55\n      jump\t// in\n    tag_121:\n    tag_120:\n        /* \"EllipticCurve.sol\":2732:2752  modDiff(p1.x, x3, p) */\n      tag_122\n        /* \"EllipticCurve.sol\":2740:2742  p1 */\n      dup10\n        /* \"EllipticCurve.sol\":2740:2744  p1.x */\n      0x00\n      add\n      mload\n        /* \"EllipticCurve.sol\":2746:2748  x3 */\n      dup7\n        /* \"EllipticCurve.sol\":119:147  0x0ded3dc4be6d0d1d91a46b371d */\n      0x0ded3dc4be6d0d1d91a46b371d\n        /* \"EllipticCurve.sol\":2732:2739  modDiff */\n      tag_111\n        /* \"EllipticCurve.sol\":2732:2752  modDiff(p1.x, x3, p) */\n      jump\t// in\n    tag_122:\n        /* \"EllipticCurve.sol\":2729:2730  m */\n      dup7\n        /* \"EllipticCurve.sol\":2722:2756  mulmod(m, modDiff(p1.x, x3, p), p) */\n      mulmod\n        /* \"EllipticCurve.sol\":2758:2760  p1 */\n      dup9\n        /* \"EllipticCurve.sol\":2758:2762  p1.y */\n      0x20\n      add\n      mload\n        /* \"EllipticCurve.sol\":119:147  0x0ded3dc4be6d0d1d91a46b371d */\n      0x0ded3dc4be6d0d1d91a46b371d\n        /* \"EllipticCurve.sol\":2714:2721  modDiff */\n      tag_111\n        /* \"EllipticCurve.sol\":2714:2766  modDiff(mulmod(m, modDiff(p1.x, x3, p), p), p1.y, p) */\n      jump\t// in\n    tag_119:\n        /* \"EllipticCurve.sol\":2714:2770  modDiff(mulmod(m, modDiff(p1.x, x3, p), p), p1.y, p) % p */\n      tag_123\n      swap2\n      swap1\n      tag_70\n      jump\t// in\n    tag_123:\n        /* \"EllipticCurve.sol\":2704:2770  uint y3 = modDiff(mulmod(m, modDiff(p1.x, x3, p), p), p1.y, p) % p */\n      swap1\n      pop\n        /* \"EllipticCurve.sol\":2796:2809  Point(x3, y3) */\n      mload(0x40)\n      dup1\n      0x40\n      add\n      0x40\n      mstore\n      dup1\n        /* \"EllipticCurve.sol\":2802:2804  x3 */\n      dup4\n        /* \"EllipticCurve.sol\":2796:2809  Point(x3, y3) */\n      dup2\n      mstore\n      0x20\n      add\n        /* \"EllipticCurve.sol\":2806:2808  y3 */\n      dup3\n        /* \"EllipticCurve.sol\":2796:2809  Point(x3, y3) */\n      dup2\n      mstore\n      pop\n        /* \"EllipticCurve.sol\":2789:2809  return Point(x3, y3) */\n      swap4\n      pop\n      pop\n      pop\n      pop\n        /* \"EllipticCurve.sol\":1954:2813  function pointAddition(Point memory p1, Point memory p2) private pure returns(Point memory) {... */\n    tag_87:\n      swap3\n      swap2\n      pop\n      pop\n      jump\t// out\n        /* \"EllipticCurve.sol\":2825:3223  function modInverse(uint aa, uint m) private pure returns(uint) {... */\n    tag_52:\n        /* \"EllipticCurve.sol\":2883:2887  uint */\n      0x00\n        /* \"EllipticCurve.sol\":2904:2913  uint256 q */\n      dup1\n        /* \"EllipticCurve.sol\":2916:2917  0 */\n      0x00\n        /* \"EllipticCurve.sol\":2904:2917  uint256 q = 0 */\n      swap1\n      pop\n        /* \"EllipticCurve.sol\":2932:2944  uint256 newT */\n      0x00\n        /* \"EllipticCurve.sol\":2947:2948  1 */\n      0x01\n        /* \"EllipticCurve.sol\":2932:2948  uint256 newT = 1 */\n      swap1\n      pop\n        /* \"EllipticCurve.sol\":2963:2972  uint256 r */\n      0x00\n        /* \"EllipticCurve.sol\":2974:2975  m */\n      dup5\n        /* \"EllipticCurve.sol\":2963:2975  uint256 r= m */\n      swap1\n      pop\n        /* \"EllipticCurve.sol\":2990:2999  uint256 t */\n      0x00\n        /* \"EllipticCurve.sol\":3014:3189  while (aa != 0) {... */\n    tag_125:\n        /* \"EllipticCurve.sol\":3027:3028  0 */\n      0x00\n        /* \"EllipticCurve.sol\":3021:3023  aa */\n      dup8\n        /* \"EllipticCurve.sol\":3021:3028  aa != 0 */\n      eq\n        /* \"EllipticCurve.sol\":3014:3189  while (aa != 0) {... */\n      tag_126\n      jumpi\n        /* \"EllipticCurve.sol\":3057:3059  aa */\n      dup7\n        /* \"EllipticCurve.sol\":3053:3054  r */\n      dup3\n        /* \"EllipticCurve.sol\":3053:3059  r / aa */\n      tag_127\n      swap2\n      swap1\n      tag_45\n      jump\t// in\n    tag_127:\n        /* \"EllipticCurve.sol\":3049:3059  t = r / aa */\n      swap1\n      pop\n        /* \"EllipticCurve.sol\":3089:3093  newT */\n      dup3\n        /* \"EllipticCurve.sol\":3129:3130  m */\n      dup7\n        /* \"EllipticCurve.sol\":3095:3131  addmod(q, (m-mulmod(t, newT, m)), m) */\n      dup1\n      tag_128\n      jumpi\n      tag_129\n      tag_55\n      jump\t// in\n    tag_129:\n    tag_128:\n        /* \"EllipticCurve.sol\":3124:3125  m */\n      dup8\n        /* \"EllipticCurve.sol\":3108:3126  mulmod(t, newT, m) */\n      dup1\n      tag_130\n      jumpi\n      tag_131\n      tag_55\n      jump\t// in\n    tag_131:\n    tag_130:\n        /* \"EllipticCurve.sol\":3118:3122  newT */\n      dup6\n        /* \"EllipticCurve.sol\":3115:3116  t */\n      dup5\n        /* \"EllipticCurve.sol\":3108:3126  mulmod(t, newT, m) */\n      mulmod\n        /* \"EllipticCurve.sol\":3106:3107  m */\n      dup9\n        /* \"EllipticCurve.sol\":3106:3126  m-mulmod(t, newT, m) */\n      tag_132\n      swap2\n      swap1\n      tag_133\n      jump\t// in\n    tag_132:\n        /* \"EllipticCurve.sol\":3102:3103  q */\n      dup7\n        /* \"EllipticCurve.sol\":3095:3131  addmod(q, (m-mulmod(t, newT, m)), m) */\n      addmod\n        /* \"EllipticCurve.sol\":3078:3132  (q, newT)=(newT, addmod(q, (m-mulmod(t, newT, m)), m)) */\n      dup1\n      swap5\n      pop\n      dup2\n      swap6\n      pop\n      pop\n      pop\n        /* \"EllipticCurve.sol\":3160:3162  aa */\n      dup7\n        /* \"EllipticCurve.sol\":3171:3172  t */\n      dup2\n        /* \"EllipticCurve.sol\":3166:3168  aa */\n      dup9\n        /* \"EllipticCurve.sol\":3166:3172  aa * t */\n      tag_134\n      swap2\n      swap1\n      tag_135\n      jump\t// in\n    tag_134:\n        /* \"EllipticCurve.sol\":3164:3165  r */\n      dup4\n        /* \"EllipticCurve.sol\":3164:3172  r-aa * t */\n      tag_136\n      swap2\n      swap1\n      tag_133\n      jump\t// in\n    tag_136:\n        /* \"EllipticCurve.sol\":3151:3173  (r, aa)=(aa, r-aa * t) */\n      dup1\n      swap9\n      pop\n      dup2\n      swap4\n      pop\n      pop\n      pop\n        /* \"EllipticCurve.sol\":3014:3189  while (aa != 0) {... */\n      jump(tag_125)\n    tag_126:\n        /* \"EllipticCurve.sol\":3210:3211  q */\n      dup4\n        /* \"EllipticCurve.sol\":3203:3211  return q */\n      swap5\n      pop\n      pop\n      pop\n      pop\n      pop\n        /* \"EllipticCurve.sol\":2825:3223  function modInverse(uint aa, uint m) private pure returns(uint) {... */\n      swap3\n      swap2\n      pop\n      pop\n      jump\t// out\n        /* \"EllipticCurve.sol\":3235:3370  function modDiff(uint x, uint y, uint mod) private pure returns(uint) {... */\n    tag_111:\n        /* \"EllipticCurve.sol\":3299:3303  uint */\n      0x00\n        /* \"EllipticCurve.sol\":3331:3332  y */\n      dup3\n        /* \"EllipticCurve.sol\":3327:3328  x */\n      dup5\n        /* \"EllipticCurve.sol\":3327:3332  x > y */\n      gt\n        /* \"EllipticCurve.sol\":3327:3358  x > y ? (x-y) : (mod - (y - x)) */\n      tag_138\n      jumpi\n        /* \"EllipticCurve.sol\":3355:3356  x */\n      dup4\n        /* \"EllipticCurve.sol\":3351:3352  y */\n      dup4\n        /* \"EllipticCurve.sol\":3351:3356  y - x */\n      tag_139\n      swap2\n      swap1\n      tag_133\n      jump\t// in\n    tag_139:\n        /* \"EllipticCurve.sol\":3344:3347  mod */\n      dup3\n        /* \"EllipticCurve.sol\":3344:3357  mod - (y - x) */\n      tag_140\n      swap2\n      swap1\n      tag_133\n      jump\t// in\n    tag_140:\n        /* \"EllipticCurve.sol\":3327:3358  x > y ? (x-y) : (mod - (y - x)) */\n      jump(tag_141)\n    tag_138:\n        /* \"EllipticCurve.sol\":3338:3339  y */\n      dup3\n        /* \"EllipticCurve.sol\":3336:3337  x */\n      dup5\n        /* \"EllipticCurve.sol\":3336:3339  x-y */\n      tag_142\n      swap2\n      swap1\n      tag_133\n      jump\t// in\n    tag_142:\n        /* \"EllipticCurve.sol\":3327:3358  x > y ? (x-y) : (mod - (y - x)) */\n    tag_141:\n        /* \"EllipticCurve.sol\":3320:3358  return x > y ? (x-y) : (mod - (y - x)) */\n      swap1\n      pop\n        /* \"EllipticCurve.sol\":3235:3370  function modDiff(uint x, uint y, uint mod) private pure returns(uint) {... */\n      swap4\n      swap3\n      pop\n      pop\n      pop\n      jump\t// out\n    tag_24:\n      mload(0x40)\n      dup1\n      0x40\n      add\n      0x40\n      mstore\n      dup1\n      0x00\n      dup2\n      mstore\n      0x20\n      add\n      0x00\n      dup2\n      mstore\n      pop\n      swap1\n      jump\t// out\n        /* \"#utility.yul\":7:82   */\n    tag_143:\n        /* \"#utility.yul\":40:46   */\n      0x00\n        /* \"#utility.yul\":73:75   */\n      0x40\n        /* \"#utility.yul\":67:76   */\n      mload\n        /* \"#utility.yul\":57:76   */\n      swap1\n      pop\n        /* \"#utility.yul\":7:82   */\n      swap1\n      jump\t// out\n        /* \"#utility.yul\":88:205   */\n    tag_144:\n        /* \"#utility.yul\":197:198   */\n      0x00\n        /* \"#utility.yul\":194:195   */\n      dup1\n        /* \"#utility.yul\":187:199   */\n      revert\n        /* \"#utility.yul\":334:451   */\n    tag_146:\n        /* \"#utility.yul\":443:444   */\n      0x00\n        /* \"#utility.yul\":440:441   */\n      dup1\n        /* \"#utility.yul\":433:445   */\n      revert\n        /* \"#utility.yul\":457:559   */\n    tag_147:\n        /* \"#utility.yul\":498:504   */\n      0x00\n        /* \"#utility.yul\":549:551   */\n      0x1f\n        /* \"#utility.yul\":545:552   */\n      not\n        /* \"#utility.yul\":540:542   */\n      0x1f\n        /* \"#utility.yul\":533:538   */\n      dup4\n        /* \"#utility.yul\":529:543   */\n      add\n        /* \"#utility.yul\":525:553   */\n      and\n        /* \"#utility.yul\":515:553   */\n      swap1\n      pop\n        /* \"#utility.yul\":457:559   */\n      swap2\n      swap1\n      pop\n      jump\t// out\n        /* \"#utility.yul\":565:745   */\n    tag_148:\n        /* \"#utility.yul\":613:690   */\n      0x4e487b7100000000000000000000000000000000000000000000000000000000\n        /* \"#utility.yul\":610:611   */\n      0x00\n        /* \"#utility.yul\":603:691   */\n      mstore\n        /* \"#utility.yul\":710:714   */\n      0x41\n        /* \"#utility.yul\":707:708   */\n      0x04\n        /* \"#utility.yul\":700:715   */\n      mstore\n        /* \"#utility.yul\":734:738   */\n      0x24\n        /* \"#utility.yul\":731:732   */\n      0x00\n        /* \"#utility.yul\":724:739   */\n      revert\n        /* \"#utility.yul\":751:1032   */\n    tag_149:\n        /* \"#utility.yul\":834:861   */\n      tag_186\n        /* \"#utility.yul\":856:860   */\n      dup3\n        /* \"#utility.yul\":834:861   */\n      tag_147\n      jump\t// in\n    tag_186:\n        /* \"#utility.yul\":826:832   */\n      dup2\n        /* \"#utility.yul\":822:862   */\n      add\n        /* \"#utility.yul\":964:970   */\n      dup2\n        /* \"#utility.yul\":952:962   */\n      dup2\n        /* \"#utility.yul\":949:971   */\n      lt\n        /* \"#utility.yul\":928:946   */\n      0xffffffffffffffff\n        /* \"#utility.yul\":916:926   */\n      dup3\n        /* \"#utility.yul\":913:947   */\n      gt\n        /* \"#utility.yul\":910:972   */\n      or\n        /* \"#utility.yul\":907:995   */\n      iszero\n      tag_187\n      jumpi\n        /* \"#utility.yul\":975:993   */\n      tag_188\n      tag_148\n      jump\t// in\n    tag_188:\n        /* \"#utility.yul\":907:995   */\n    tag_187:\n        /* \"#utility.yul\":1015:1025   */\n      dup1\n        /* \"#utility.yul\":1011:1013   */\n      0x40\n        /* \"#utility.yul\":1004:1026   */\n      mstore\n        /* \"#utility.yul\":794:1032   */\n      pop\n        /* \"#utility.yul\":751:1032   */\n      pop\n      pop\n      jump\t// out\n        /* \"#utility.yul\":1038:1167   */\n    tag_150:\n        /* \"#utility.yul\":1072:1078   */\n      0x00\n        /* \"#utility.yul\":1099:1119   */\n      tag_190\n      tag_143\n      jump\t// in\n    tag_190:\n        /* \"#utility.yul\":1089:1119   */\n      swap1\n      pop\n        /* \"#utility.yul\":1128:1161   */\n      tag_191\n        /* \"#utility.yul\":1156:1160   */\n      dup3\n        /* \"#utility.yul\":1148:1154   */\n      dup3\n        /* \"#utility.yul\":1128:1161   */\n      tag_149\n      jump\t// in\n    tag_191:\n        /* \"#utility.yul\":1038:1167   */\n      swap2\n      swap1\n      pop\n      jump\t// out\n        /* \"#utility.yul\":1296:1373   */\n    tag_152:\n        /* \"#utility.yul\":1333:1340   */\n      0x00\n        /* \"#utility.yul\":1362:1367   */\n      dup2\n        /* \"#utility.yul\":1351:1367   */\n      swap1\n      pop\n        /* \"#utility.yul\":1296:1373   */\n      swap2\n      swap1\n      pop\n      jump\t// out\n        /* \"#utility.yul\":1379:1501   */\n    tag_153:\n        /* \"#utility.yul\":1452:1476   */\n      tag_195\n        /* \"#utility.yul\":1470:1475   */\n      dup2\n        /* \"#utility.yul\":1452:1476   */\n      tag_152\n      jump\t// in\n    tag_195:\n        /* \"#utility.yul\":1445:1450   */\n      dup2\n        /* \"#utility.yul\":1442:1477   */\n      eq\n        /* \"#utility.yul\":1432:1495   */\n      tag_196\n      jumpi\n        /* \"#utility.yul\":1491:1492   */\n      0x00\n        /* \"#utility.yul\":1488:1489   */\n      dup1\n        /* \"#utility.yul\":1481:1493   */\n      revert\n        /* \"#utility.yul\":1432:1495   */\n    tag_196:\n        /* \"#utility.yul\":1379:1501   */\n      pop\n      jump\t// out\n        /* \"#utility.yul\":1507:1646   */\n    tag_154:\n        /* \"#utility.yul\":1553:1558   */\n      0x00\n        /* \"#utility.yul\":1591:1597   */\n      dup2\n        /* \"#utility.yul\":1578:1598   */\n      calldataload\n        /* \"#utility.yul\":1569:1598   */\n      swap1\n      pop\n        /* \"#utility.yul\":1607:1640   */\n      tag_198\n        /* \"#utility.yul\":1634:1639   */\n      dup2\n        /* \"#utility.yul\":1607:1640   */\n      tag_153\n      jump\t// in\n    tag_198:\n        /* \"#utility.yul\":1507:1646   */\n      swap3\n      swap2\n      pop\n      pop\n      jump\t// out\n        /* \"#utility.yul\":1686:2249   */\n    tag_155:\n        /* \"#utility.yul\":1755:1760   */\n      0x00\n        /* \"#utility.yul\":1799:1803   */\n      0x40\n        /* \"#utility.yul\":1787:1796   */\n      dup3\n        /* \"#utility.yul\":1782:1785   */\n      dup5\n        /* \"#utility.yul\":1778:1797   */\n      sub\n        /* \"#utility.yul\":1774:1804   */\n      slt\n        /* \"#utility.yul\":1771:1888   */\n      iszero\n      tag_200\n      jumpi\n        /* \"#utility.yul\":1807:1886   */\n      tag_201\n      tag_146\n      jump\t// in\n    tag_201:\n        /* \"#utility.yul\":1771:1888   */\n    tag_200:\n        /* \"#utility.yul\":1906:1927   */\n      tag_202\n        /* \"#utility.yul\":1922:1926   */\n      0x40\n        /* \"#utility.yul\":1906:1927   */\n      tag_150\n      jump\t// in\n    tag_202:\n        /* \"#utility.yul\":1897:1927   */\n      swap1\n      pop\n        /* \"#utility.yul\":1983:1984   */\n      0x00\n        /* \"#utility.yul\":2023:2072   */\n      tag_203\n        /* \"#utility.yul\":2068:2071   */\n      dup5\n        /* \"#utility.yul\":2059:2065   */\n      dup3\n        /* \"#utility.yul\":2048:2057   */\n      dup6\n        /* \"#utility.yul\":2044:2066   */\n      add\n        /* \"#utility.yul\":2023:2072   */\n      tag_154\n      jump\t// in\n    tag_203:\n        /* \"#utility.yul\":2016:2020   */\n      0x00\n        /* \"#utility.yul\":2009:2014   */\n      dup4\n        /* \"#utility.yul\":2005:2021   */\n      add\n        /* \"#utility.yul\":1998:2073   */\n      mstore\n        /* \"#utility.yul\":1937:2084   */\n      pop\n        /* \"#utility.yul\":2140:2142   */\n      0x20\n        /* \"#utility.yul\":2181:2230   */\n      tag_204\n        /* \"#utility.yul\":2226:2229   */\n      dup5\n        /* \"#utility.yul\":2217:2223   */\n      dup3\n        /* \"#utility.yul\":2206:2215   */\n      dup6\n        /* \"#utility.yul\":2202:2224   */\n      add\n        /* \"#utility.yul\":2181:2230   */\n      tag_154\n      jump\t// in\n    tag_204:\n        /* \"#utility.yul\":2174:2178   */\n      0x20\n        /* \"#utility.yul\":2167:2172   */\n      dup4\n        /* \"#utility.yul\":2163:2179   */\n      add\n        /* \"#utility.yul\":2156:2231   */\n      mstore\n        /* \"#utility.yul\":2094:2242   */\n      pop\n        /* \"#utility.yul\":1686:2249   */\n      swap3\n      swap2\n      pop\n      pop\n      jump\t// out\n        /* \"#utility.yul\":2255:2769   */\n    tag_8:\n        /* \"#utility.yul\":2343:2349   */\n      0x00\n        /* \"#utility.yul\":2351:2357   */\n      dup1\n        /* \"#utility.yul\":2400:2402   */\n      0x60\n        /* \"#utility.yul\":2388:2397   */\n      dup4\n        /* \"#utility.yul\":2379:2386   */\n      dup6\n        /* \"#utility.yul\":2375:2398   */\n      sub\n        /* \"#utility.yul\":2371:2403   */\n      slt\n        /* \"#utility.yul\":2368:2487   */\n      iszero\n      tag_206\n      jumpi\n        /* \"#utility.yul\":2406:2485   */\n      tag_207\n      tag_144\n      jump\t// in\n    tag_207:\n        /* \"#utility.yul\":2368:2487   */\n    tag_206:\n        /* \"#utility.yul\":2526:2527   */\n      0x00\n        /* \"#utility.yul\":2551:2624   */\n      tag_208\n        /* \"#utility.yul\":2616:2623   */\n      dup6\n        /* \"#utility.yul\":2607:2613   */\n      dup3\n        /* \"#utility.yul\":2596:2605   */\n      dup7\n        /* \"#utility.yul\":2592:2614   */\n      add\n        /* \"#utility.yul\":2551:2624   */\n      tag_155\n      jump\t// in\n    tag_208:\n        /* \"#utility.yul\":2541:2624   */\n      swap3\n      pop\n        /* \"#utility.yul\":2497:2634   */\n      pop\n        /* \"#utility.yul\":2673:2675   */\n      0x40\n        /* \"#utility.yul\":2699:2752   */\n      tag_209\n        /* \"#utility.yul\":2744:2751   */\n      dup6\n        /* \"#utility.yul\":2735:2741   */\n      dup3\n        /* \"#utility.yul\":2724:2733   */\n      dup7\n        /* \"#utility.yul\":2720:2742   */\n      add\n        /* \"#utility.yul\":2699:2752   */\n      tag_154\n      jump\t// in\n    tag_209:\n        /* \"#utility.yul\":2689:2752   */\n      swap2\n      pop\n        /* \"#utility.yul\":2644:2762   */\n      pop\n        /* \"#utility.yul\":2255:2769   */\n      swap3\n      pop\n      swap3\n      swap1\n      pop\n      jump\t// out\n        /* \"#utility.yul\":2775:2883   */\n    tag_156:\n        /* \"#utility.yul\":2852:2876   */\n      tag_211\n        /* \"#utility.yul\":2870:2875   */\n      dup2\n        /* \"#utility.yul\":2852:2876   */\n      tag_152\n      jump\t// in\n    tag_211:\n        /* \"#utility.yul\":2847:2850   */\n      dup3\n        /* \"#utility.yul\":2840:2877   */\n      mstore\n        /* \"#utility.yul\":2775:2883   */\n      pop\n      pop\n      jump\t// out\n        /* \"#utility.yul\":2953:3444   */\n    tag_157:\n        /* \"#utility.yul\":3090:3094   */\n      0x40\n        /* \"#utility.yul\":3085:3088   */\n      dup3\n        /* \"#utility.yul\":3081:3095   */\n      add\n        /* \"#utility.yul\":3174:3178   */\n      0x00\n        /* \"#utility.yul\":3167:3172   */\n      dup3\n        /* \"#utility.yul\":3163:3179   */\n      add\n        /* \"#utility.yul\":3157:3180   */\n      mload\n        /* \"#utility.yul\":3193:3256   */\n      tag_213\n        /* \"#utility.yul\":3250:3254   */\n      0x00\n        /* \"#utility.yul\":3245:3248   */\n      dup6\n        /* \"#utility.yul\":3241:3255   */\n      add\n        /* \"#utility.yul\":3227:3239   */\n      dup3\n        /* \"#utility.yul\":3193:3256   */\n      tag_156\n      jump\t// in\n    tag_213:\n        /* \"#utility.yul\":3105:3266   */\n      pop\n        /* \"#utility.yul\":3345:3349   */\n      0x20\n        /* \"#utility.yul\":3338:3343   */\n      dup3\n        /* \"#utility.yul\":3334:3350   */\n      add\n        /* \"#utility.yul\":3328:3351   */\n      mload\n        /* \"#utility.yul\":3364:3427   */\n      tag_214\n        /* \"#utility.yul\":3421:3425   */\n      0x20\n        /* \"#utility.yul\":3416:3419   */\n      dup6\n        /* \"#utility.yul\":3412:3426   */\n      add\n        /* \"#utility.yul\":3398:3410   */\n      dup3\n        /* \"#utility.yul\":3364:3427   */\n      tag_156\n      jump\t// in\n    tag_214:\n        /* \"#utility.yul\":3276:3437   */\n      pop\n        /* \"#utility.yul\":3059:3444   */\n      pop\n        /* \"#utility.yul\":2953:3444   */\n      pop\n      pop\n      jump\t// out\n        /* \"#utility.yul\":3450:3752   */\n    tag_11:\n        /* \"#utility.yul\":3583:3587   */\n      0x00\n        /* \"#utility.yul\":3621:3623   */\n      0x40\n        /* \"#utility.yul\":3610:3619   */\n      dup3\n        /* \"#utility.yul\":3606:3624   */\n      add\n        /* \"#utility.yul\":3598:3624   */\n      swap1\n      pop\n        /* \"#utility.yul\":3634:3745   */\n      tag_216\n        /* \"#utility.yul\":3742:3743   */\n      0x00\n        /* \"#utility.yul\":3731:3740   */\n      dup4\n        /* \"#utility.yul\":3727:3744   */\n      add\n        /* \"#utility.yul\":3718:3724   */\n      dup5\n        /* \"#utility.yul\":3634:3745   */\n      tag_157\n      jump\t// in\n    tag_216:\n        /* \"#utility.yul\":3450:3752   */\n      swap3\n      swap2\n      pop\n      pop\n      jump\t// out\n        /* \"#utility.yul\":3758:3835   */\n    tag_158:\n        /* \"#utility.yul\":3795:3802   */\n      0x00\n        /* \"#utility.yul\":3824:3829   */\n      dup2\n        /* \"#utility.yul\":3813:3829   */\n      swap1\n      pop\n        /* \"#utility.yul\":3758:3835   */\n      swap2\n      swap1\n      pop\n      jump\t// out\n        /* \"#utility.yul\":3841:3963   */\n    tag_159:\n        /* \"#utility.yul\":3914:3938   */\n      tag_219\n        /* \"#utility.yul\":3932:3937   */\n      dup2\n        /* \"#utility.yul\":3914:3938   */\n      tag_158\n      jump\t// in\n    tag_219:\n        /* \"#utility.yul\":3907:3912   */\n      dup2\n        /* \"#utility.yul\":3904:3939   */\n      eq\n        /* \"#utility.yul\":3894:3957   */\n      tag_220\n      jumpi\n        /* \"#utility.yul\":3953:3954   */\n      0x00\n        /* \"#utility.yul\":3950:3951   */\n      dup1\n        /* \"#utility.yul\":3943:3955   */\n      revert\n        /* \"#utility.yul\":3894:3957   */\n    tag_220:\n        /* \"#utility.yul\":3841:3963   */\n      pop\n      jump\t// out\n        /* \"#utility.yul\":3969:4108   */\n    tag_160:\n        /* \"#utility.yul\":4015:4020   */\n      0x00\n        /* \"#utility.yul\":4053:4059   */\n      dup2\n        /* \"#utility.yul\":4040:4060   */\n      calldataload\n        /* \"#utility.yul\":4031:4060   */\n      swap1\n      pop\n        /* \"#utility.yul\":4069:4102   */\n      tag_222\n        /* \"#utility.yul\":4096:4101   */\n      dup2\n        /* \"#utility.yul\":4069:4102   */\n      tag_159\n      jump\t// in\n    tag_222:\n        /* \"#utility.yul\":3969:4108   */\n      swap3\n      swap2\n      pop\n      pop\n      jump\t// out\n        /* \"#utility.yul\":4114:4919   */\n    tag_14:\n        /* \"#utility.yul\":4220:4226   */\n      0x00\n        /* \"#utility.yul\":4228:4234   */\n      dup1\n        /* \"#utility.yul\":4236:4242   */\n      0x00\n        /* \"#utility.yul\":4244:4250   */\n      dup1\n        /* \"#utility.yul\":4293:4296   */\n      0xa0\n        /* \"#utility.yul\":4281:4290   */\n      dup6\n        /* \"#utility.yul\":4272:4279   */\n      dup8\n        /* \"#utility.yul\":4268:4291   */\n      sub\n        /* \"#utility.yul\":4264:4297   */\n      slt\n        /* \"#utility.yul\":4261:4381   */\n      iszero\n      tag_224\n      jumpi\n        /* \"#utility.yul\":4300:4379   */\n      tag_225\n      tag_144\n      jump\t// in\n    tag_225:\n        /* \"#utility.yul\":4261:4381   */\n    tag_224:\n        /* \"#utility.yul\":4420:4421   */\n      0x00\n        /* \"#utility.yul\":4445:4498   */\n      tag_226\n        /* \"#utility.yul\":4490:4497   */\n      dup8\n        /* \"#utility.yul\":4481:4487   */\n      dup3\n        /* \"#utility.yul\":4470:4479   */\n      dup9\n        /* \"#utility.yul\":4466:4488   */\n      add\n        /* \"#utility.yul\":4445:4498   */\n      tag_160\n      jump\t// in\n    tag_226:\n        /* \"#utility.yul\":4435:4498   */\n      swap5\n      pop\n        /* \"#utility.yul\":4391:4508   */\n      pop\n        /* \"#utility.yul\":4547:4549   */\n      0x20\n        /* \"#utility.yul\":4573:4626   */\n      tag_227\n        /* \"#utility.yul\":4618:4625   */\n      dup8\n        /* \"#utility.yul\":4609:4615   */\n      dup3\n        /* \"#utility.yul\":4598:4607   */\n      dup9\n        /* \"#utility.yul\":4594:4616   */\n      add\n        /* \"#utility.yul\":4573:4626   */\n      tag_154\n      jump\t// in\n    tag_227:\n        /* \"#utility.yul\":4563:4626   */\n      swap4\n      pop\n        /* \"#utility.yul\":4518:4636   */\n      pop\n        /* \"#utility.yul\":4675:4677   */\n      0x40\n        /* \"#utility.yul\":4701:4754   */\n      tag_228\n        /* \"#utility.yul\":4746:4753   */\n      dup8\n        /* \"#utility.yul\":4737:4743   */\n      dup3\n        /* \"#utility.yul\":4726:4735   */\n      dup9\n        /* \"#utility.yul\":4722:4744   */\n      add\n        /* \"#utility.yul\":4701:4754   */\n      tag_154\n      jump\t// in\n    tag_228:\n        /* \"#utility.yul\":4691:4754   */\n      swap3\n      pop\n        /* \"#utility.yul\":4646:4764   */\n      pop\n        /* \"#utility.yul\":4803:4805   */\n      0x60\n        /* \"#utility.yul\":4829:4902   */\n      tag_229\n        /* \"#utility.yul\":4894:4901   */\n      dup8\n        /* \"#utility.yul\":4885:4891   */\n      dup3\n        /* \"#utility.yul\":4874:4883   */\n      dup9\n        /* \"#utility.yul\":4870:4892   */\n      add\n        /* \"#utility.yul\":4829:4902   */\n      tag_155\n      jump\t// in\n    tag_229:\n        /* \"#utility.yul\":4819:4902   */\n      swap2\n      pop\n        /* \"#utility.yul\":4774:4912   */\n      pop\n        /* \"#utility.yul\":4114:4919   */\n      swap3\n      swap6\n      swap2\n      swap5\n      pop\n      swap3\n      pop\n      jump\t// out\n        /* \"#utility.yul\":4925:5015   */\n    tag_161:\n        /* \"#utility.yul\":4959:4966   */\n      0x00\n        /* \"#utility.yul\":5002:5007   */\n      dup2\n        /* \"#utility.yul\":4995:5008   */\n      iszero\n        /* \"#utility.yul\":4988:5009   */\n      iszero\n        /* \"#utility.yul\":4977:5009   */\n      swap1\n      pop\n        /* \"#utility.yul\":4925:5015   */\n      swap2\n      swap1\n      pop\n      jump\t// out\n        /* \"#utility.yul\":5021:5130   */\n    tag_162:\n        /* \"#utility.yul\":5102:5123   */\n      tag_232\n        /* \"#utility.yul\":5117:5122   */\n      dup2\n        /* \"#utility.yul\":5102:5123   */\n      tag_161\n      jump\t// in\n    tag_232:\n        /* \"#utility.yul\":5097:5100   */\n      dup3\n        /* \"#utility.yul\":5090:5124   */\n      mstore\n        /* \"#utility.yul\":5021:5130   */\n      pop\n      pop\n      jump\t// out\n        /* \"#utility.yul\":5136:5346   */\n    tag_17:\n        /* \"#utility.yul\":5223:5227   */\n      0x00\n        /* \"#utility.yul\":5261:5263   */\n      0x20\n        /* \"#utility.yul\":5250:5259   */\n      dup3\n        /* \"#utility.yul\":5246:5264   */\n      add\n        /* \"#utility.yul\":5238:5264   */\n      swap1\n      pop\n        /* \"#utility.yul\":5274:5339   */\n      tag_234\n        /* \"#utility.yul\":5336:5337   */\n      0x00\n        /* \"#utility.yul\":5325:5334   */\n      dup4\n        /* \"#utility.yul\":5321:5338   */\n      add\n        /* \"#utility.yul\":5312:5318   */\n      dup5\n        /* \"#utility.yul\":5274:5339   */\n      tag_162\n      jump\t// in\n    tag_234:\n        /* \"#utility.yul\":5136:5346   */\n      swap3\n      swap2\n      pop\n      pop\n      jump\t// out\n        /* \"#utility.yul\":5352:5721   */\n    tag_20:\n        /* \"#utility.yul\":5431:5437   */\n      0x00\n        /* \"#utility.yul\":5480:5482   */\n      0x40\n        /* \"#utility.yul\":5468:5477   */\n      dup3\n        /* \"#utility.yul\":5459:5466   */\n      dup5\n        /* \"#utility.yul\":5455:5478   */\n      sub\n        /* \"#utility.yul\":5451:5483   */\n      slt\n        /* \"#utility.yul\":5448:5567   */\n      iszero\n      tag_236\n      jumpi\n        /* \"#utility.yul\":5486:5565   */\n      tag_237\n      tag_144\n      jump\t// in\n    tag_237:\n        /* \"#utility.yul\":5448:5567   */\n    tag_236:\n        /* \"#utility.yul\":5606:5607   */\n      0x00\n        /* \"#utility.yul\":5631:5704   */\n      tag_238\n        /* \"#utility.yul\":5696:5703   */\n      dup5\n        /* \"#utility.yul\":5687:5693   */\n      dup3\n        /* \"#utility.yul\":5676:5685   */\n      dup6\n        /* \"#utility.yul\":5672:5694   */\n      add\n        /* \"#utility.yul\":5631:5704   */\n      tag_155\n      jump\t// in\n    tag_238:\n        /* \"#utility.yul\":5621:5704   */\n      swap2\n      pop\n        /* \"#utility.yul\":5577:5714   */\n      pop\n        /* \"#utility.yul\":5352:5721   */\n      swap3\n      swap2\n      pop\n      pop\n      jump\t// out\n        /* \"#utility.yul\":5727:5896   */\n    tag_163:\n        /* \"#utility.yul\":5811:5822   */\n      0x00\n        /* \"#utility.yul\":5845:5851   */\n      dup3\n        /* \"#utility.yul\":5840:5843   */\n      dup3\n        /* \"#utility.yul\":5833:5852   */\n      mstore\n        /* \"#utility.yul\":5885:5889   */\n      0x20\n        /* \"#utility.yul\":5880:5883   */\n      dup3\n        /* \"#utility.yul\":5876:5890   */\n      add\n        /* \"#utility.yul\":5861:5890   */\n      swap1\n      pop\n        /* \"#utility.yul\":5727:5896   */\n      swap3\n      swap2\n      pop\n      pop\n      jump\t// out\n        /* \"#utility.yul\":5902:6077   */\n    tag_164:\n        /* \"#utility.yul\":6042:6069   */\n      0x706f696e74206973206e6f74206f6e2074686520637572766500000000000000\n        /* \"#utility.yul\":6038:6039   */\n      0x00\n        /* \"#utility.yul\":6030:6036   */\n      dup3\n        /* \"#utility.yul\":6026:6040   */\n      add\n        /* \"#utility.yul\":6019:6070   */\n      mstore\n        /* \"#utility.yul\":5902:6077   */\n      pop\n      jump\t// out\n        /* \"#utility.yul\":6083:6449   */\n    tag_165:\n        /* \"#utility.yul\":6225:6228   */\n      0x00\n        /* \"#utility.yul\":6246:6313   */\n      tag_242\n        /* \"#utility.yul\":6310:6312   */\n      0x19\n        /* \"#utility.yul\":6305:6308   */\n      dup4\n        /* \"#utility.yul\":6246:6313   */\n      tag_163\n      jump\t// in\n    tag_242:\n        /* \"#utility.yul\":6239:6313   */\n      swap2\n      pop\n        /* \"#utility.yul\":6322:6415   */\n      tag_243\n        /* \"#utility.yul\":6411:6414   */\n      dup3\n        /* \"#utility.yul\":6322:6415   */\n      tag_164\n      jump\t// in\n    tag_243:\n        /* \"#utility.yul\":6440:6442   */\n      0x20\n        /* \"#utility.yul\":6435:6438   */\n      dup3\n        /* \"#utility.yul\":6431:6443   */\n      add\n        /* \"#utility.yul\":6424:6443   */\n      swap1\n      pop\n        /* \"#utility.yul\":6083:6449   */\n      swap2\n      swap1\n      pop\n      jump\t// out\n        /* \"#utility.yul\":6455:6874   */\n    tag_29:\n        /* \"#utility.yul\":6621:6625   */\n      0x00\n        /* \"#utility.yul\":6659:6661   */\n      0x20\n        /* \"#utility.yul\":6648:6657   */\n      dup3\n        /* \"#utility.yul\":6644:6662   */\n      add\n        /* \"#utility.yul\":6636:6662   */\n      swap1\n      pop\n        /* \"#utility.yul\":6708:6717   */\n      dup2\n        /* \"#utility.yul\":6702:6706   */\n      dup2\n        /* \"#utility.yul\":6698:6718   */\n      sub\n        /* \"#utility.yul\":6694:6695   */\n      0x00\n        /* \"#utility.yul\":6683:6692   */\n      dup4\n        /* \"#utility.yul\":6679:6696   */\n      add\n        /* \"#utility.yul\":6672:6719   */\n      mstore\n        /* \"#utility.yul\":6736:6867   */\n      tag_245\n        /* \"#utility.yul\":6862:6866   */\n      dup2\n        /* \"#utility.yul\":6736:6867   */\n      tag_165\n      jump\t// in\n    tag_245:\n        /* \"#utility.yul\":6728:6867   */\n      swap1\n      pop\n        /* \"#utility.yul\":6455:6874   */\n      swap2\n      swap1\n      pop\n      jump\t// out\n        /* \"#utility.yul\":6880:7060   */\n    tag_166:\n        /* \"#utility.yul\":7020:7052   */\n      0x5075626c6963206b6579206973206e6f74206f6e207468652063757276650000\n        /* \"#utility.yul\":7016:7017   */\n      0x00\n        /* \"#utility.yul\":7008:7014   */\n      dup3\n        /* \"#utility.yul\":7004:7018   */\n      add\n        /* \"#utility.yul\":6997:7053   */\n      mstore\n        /* \"#utility.yul\":6880:7060   */\n      pop\n      jump\t// out\n        /* \"#utility.yul\":7066:7432   */\n    tag_167:\n        /* \"#utility.yul\":7208:7211   */\n      0x00\n        /* \"#utility.yul\":7229:7296   */\n      tag_248\n        /* \"#utility.yul\":7293:7295   */\n      0x1e\n        /* \"#utility.yul\":7288:7291   */\n      dup4\n        /* \"#utility.yul\":7229:7296   */\n      tag_163\n      jump\t// in\n    tag_248:\n        /* \"#utility.yul\":7222:7296   */\n      swap2\n      pop\n        /* \"#utility.yul\":7305:7398   */\n      tag_249\n        /* \"#utility.yul\":7394:7397   */\n      dup3\n        /* \"#utility.yul\":7305:7398   */\n      tag_166\n      jump\t// in\n    tag_249:\n        /* \"#utility.yul\":7423:7425   */\n      0x20\n        /* \"#utility.yul\":7418:7421   */\n      dup3\n        /* \"#utility.yul\":7414:7426   */\n      add\n        /* \"#utility.yul\":7407:7426   */\n      swap1\n      pop\n        /* \"#utility.yul\":7066:7432   */\n      swap2\n      swap1\n      pop\n      jump\t// out\n        /* \"#utility.yul\":7438:7857   */\n    tag_40:\n        /* \"#utility.yul\":7604:7608   */\n      0x00\n        /* \"#utility.yul\":7642:7644   */\n      0x20\n        /* \"#utility.yul\":7631:7640   */\n      dup3\n        /* \"#utility.yul\":7627:7645   */\n      add\n        /* \"#utility.yul\":7619:7645   */\n      swap1\n      pop\n        /* \"#utility.yul\":7691:7700   */\n      dup2\n        /* \"#utility.yul\":7685:7689   */\n      dup2\n        /* \"#utility.yul\":7681:7701   */\n      sub\n        /* \"#utility.yul\":7677:7678   */\n      0x00\n        /* \"#utility.yul\":7666:7675   */\n      dup4\n        /* \"#utility.yul\":7662:7679   */\n      add\n        /* \"#utility.yul\":7655:7702   */\n      mstore\n        /* \"#utility.yul\":7719:7850   */\n      tag_251\n        /* \"#utility.yul\":7845:7849   */\n      dup2\n        /* \"#utility.yul\":7719:7850   */\n      tag_167\n      jump\t// in\n    tag_251:\n        /* \"#utility.yul\":7711:7850   */\n      swap1\n      pop\n        /* \"#utility.yul\":7438:7857   */\n      swap2\n      swap1\n      pop\n      jump\t// out\n        /* \"#utility.yul\":7863:8043   */\n    tag_55:\n        /* \"#utility.yul\":7911:7988   */\n      0x4e487b7100000000000000000000000000000000000000000000000000000000\n        /* \"#utility.yul\":7908:7909   */\n      0x00\n        /* \"#utility.yul\":7901:7989   */\n      mstore\n        /* \"#utility.yul\":8008:8012   */\n      0x12\n        /* \"#utility.yul\":8005:8006   */\n      0x04\n        /* \"#utility.yul\":7998:8013   */\n      mstore\n        /* \"#utility.yul\":8032:8036   */\n      0x24\n        /* \"#utility.yul\":8029:8030   */\n      0x00\n        /* \"#utility.yul\":8022:8037   */\n      revert\n        /* \"#utility.yul\":8049:8229   */\n    tag_168:\n        /* \"#utility.yul\":8097:8174   */\n      0x4e487b7100000000000000000000000000000000000000000000000000000000\n        /* \"#utility.yul\":8094:8095   */\n      0x00\n        /* \"#utility.yul\":8087:8175   */\n      mstore\n        /* \"#utility.yul\":8194:8198   */\n      0x11\n        /* \"#utility.yul\":8191:8192   */\n      0x04\n        /* \"#utility.yul\":8184:8199   */\n      mstore\n        /* \"#utility.yul\":8218:8222   */\n      0x24\n        /* \"#utility.yul\":8215:8216   */\n      0x00\n        /* \"#utility.yul\":8208:8223   */\n      revert\n        /* \"#utility.yul\":8235:8420   */\n    tag_45:\n        /* \"#utility.yul\":8275:8276   */\n      0x00\n        /* \"#utility.yul\":8292:8312   */\n      tag_255\n        /* \"#utility.yul\":8310:8311   */\n      dup3\n        /* \"#utility.yul\":8292:8312   */\n      tag_152\n      jump\t// in\n    tag_255:\n        /* \"#utility.yul\":8287:8312   */\n      swap2\n      pop\n        /* \"#utility.yul\":8326:8346   */\n      tag_256\n        /* \"#utility.yul\":8344:8345   */\n      dup4\n        /* \"#utility.yul\":8326:8346   */\n      tag_152\n      jump\t// in\n    tag_256:\n        /* \"#utility.yul\":8321:8346   */\n      swap3\n      pop\n        /* \"#utility.yul\":8365:8366   */\n      dup3\n        /* \"#utility.yul\":8355:8390   */\n      tag_257\n      jumpi\n        /* \"#utility.yul\":8370:8388   */\n      tag_258\n      tag_55\n      jump\t// in\n    tag_258:\n        /* \"#utility.yul\":8355:8390   */\n    tag_257:\n        /* \"#utility.yul\":8412:8413   */\n      dup3\n        /* \"#utility.yul\":8409:8410   */\n      dup3\n        /* \"#utility.yul\":8405:8414   */\n      div\n        /* \"#utility.yul\":8400:8414   */\n      swap1\n      pop\n        /* \"#utility.yul\":8235:8420   */\n      swap3\n      swap2\n      pop\n      pop\n      jump\t// out\n        /* \"#utility.yul\":8426:8617   */\n    tag_47:\n        /* \"#utility.yul\":8466:8469   */\n      0x00\n        /* \"#utility.yul\":8485:8505   */\n      tag_260\n        /* \"#utility.yul\":8503:8504   */\n      dup3\n        /* \"#utility.yul\":8485:8505   */\n      tag_152\n      jump\t// in\n    tag_260:\n        /* \"#utility.yul\":8480:8505   */\n      swap2\n      pop\n        /* \"#utility.yul\":8519:8539   */\n      tag_261\n        /* \"#utility.yul\":8537:8538   */\n      dup4\n        /* \"#utility.yul\":8519:8539   */\n      tag_152\n      jump\t// in\n    tag_261:\n        /* \"#utility.yul\":8514:8539   */\n      swap3\n      pop\n        /* \"#utility.yul\":8562:8563   */\n      dup3\n        /* \"#utility.yul\":8559:8560   */\n      dup3\n        /* \"#utility.yul\":8555:8564   */\n      add\n        /* \"#utility.yul\":8548:8564   */\n      swap1\n      pop\n        /* \"#utility.yul\":8583:8586   */\n      dup1\n        /* \"#utility.yul\":8580:8581   */\n      dup3\n        /* \"#utility.yul\":8577:8587   */\n      gt\n        /* \"#utility.yul\":8574:8610   */\n      iszero\n      tag_262\n      jumpi\n        /* \"#utility.yul\":8590:8608   */\n      tag_263\n      tag_168\n      jump\t// in\n    tag_263:\n        /* \"#utility.yul\":8574:8610   */\n    tag_262:\n        /* \"#utility.yul\":8426:8617   */\n      swap3\n      swap2\n      pop\n      pop\n      jump\t// out\n        /* \"#utility.yul\":8623:8788   */\n    tag_169:\n        /* \"#utility.yul\":8763:8780   */\n      0x57726f6e67207369676e61747572650000000000000000000000000000000000\n        /* \"#utility.yul\":8759:8760   */\n      0x00\n        /* \"#utility.yul\":8751:8757   */\n      dup3\n        /* \"#utility.yul\":8747:8761   */\n      add\n        /* \"#utility.yul\":8740:8781   */\n      mstore\n        /* \"#utility.yul\":8623:8788   */\n      pop\n      jump\t// out\n        /* \"#utility.yul\":8794:9160   */\n    tag_170:\n        /* \"#utility.yul\":8936:8939   */\n      0x00\n        /* \"#utility.yul\":8957:9024   */\n      tag_266\n        /* \"#utility.yul\":9021:9023   */\n      0x0f\n        /* \"#utility.yul\":9016:9019   */\n      dup4\n        /* \"#utility.yul\":8957:9024   */\n      tag_163\n      jump\t// in\n    tag_266:\n        /* \"#utility.yul\":8950:9024   */\n      swap2\n      pop\n        /* \"#utility.yul\":9033:9126   */\n      tag_267\n        /* \"#utility.yul\":9122:9125   */\n      dup3\n        /* \"#utility.yul\":9033:9126   */\n      tag_169\n      jump\t// in\n    tag_267:\n        /* \"#utility.yul\":9151:9153   */\n      0x20\n        /* \"#utility.yul\":9146:9149   */\n      dup3\n        /* \"#utility.yul\":9142:9154   */\n      add\n        /* \"#utility.yul\":9135:9154   */\n      swap1\n      pop\n        /* \"#utility.yul\":8794:9160   */\n      swap2\n      swap1\n      pop\n      jump\t// out\n        /* \"#utility.yul\":9166:9585   */\n    tag_50:\n        /* \"#utility.yul\":9332:9336   */\n      0x00\n        /* \"#utility.yul\":9370:9372   */\n      0x20\n        /* \"#utility.yul\":9359:9368   */\n      dup3\n        /* \"#utility.yul\":9355:9373   */\n      add\n        /* \"#utility.yul\":9347:9373   */\n      swap1\n      pop\n        /* \"#utility.yul\":9419:9428   */\n      dup2\n        /* \"#utility.yul\":9413:9417   */\n      dup2\n        /* \"#utility.yul\":9409:9429   */\n      sub\n        /* \"#utility.yul\":9405:9406   */\n      0x00\n        /* \"#utility.yul\":9394:9403   */\n      dup4\n        /* \"#utility.yul\":9390:9407   */\n      add\n        /* \"#utility.yul\":9383:9430   */\n      mstore\n        /* \"#utility.yul\":9447:9578   */\n      tag_269\n        /* \"#utility.yul\":9573:9577   */\n      dup2\n        /* \"#utility.yul\":9447:9578   */\n      tag_170\n      jump\t// in\n    tag_269:\n        /* \"#utility.yul\":9439:9578   */\n      swap1\n      pop\n        /* \"#utility.yul\":9166:9585   */\n      swap2\n      swap1\n      pop\n      jump\t// out\n        /* \"#utility.yul\":9591:9670   */\n    tag_171:\n        /* \"#utility.yul\":9630:9637   */\n      0x00\n        /* \"#utility.yul\":9659:9664   */\n      dup2\n        /* \"#utility.yul\":9648:9664   */\n      swap1\n      pop\n        /* \"#utility.yul\":9591:9670   */\n      swap2\n      swap1\n      pop\n      jump\t// out\n        /* \"#utility.yul\":9676:9833   */\n    tag_172:\n        /* \"#utility.yul\":9781:9826   */\n      tag_272\n        /* \"#utility.yul\":9801:9825   */\n      tag_273\n        /* \"#utility.yul\":9819:9824   */\n      dup3\n        /* \"#utility.yul\":9801:9825   */\n      tag_158\n      jump\t// in\n    tag_273:\n        /* \"#utility.yul\":9781:9826   */\n      tag_171\n      jump\t// in\n    tag_272:\n        /* \"#utility.yul\":9776:9779   */\n      dup3\n        /* \"#utility.yul\":9769:9827   */\n      mstore\n        /* \"#utility.yul\":9676:9833   */\n      pop\n      pop\n      jump\t// out\n        /* \"#utility.yul\":9839:10095   */\n    tag_57:\n        /* \"#utility.yul\":9951:9954   */\n      0x00\n        /* \"#utility.yul\":9966:10041   */\n      tag_275\n        /* \"#utility.yul\":10037:10040   */\n      dup3\n        /* \"#utility.yul\":10028:10034   */\n      dup5\n        /* \"#utility.yul\":9966:10041   */\n      tag_172\n      jump\t// in\n    tag_275:\n        /* \"#utility.yul\":10066:10068   */\n      0x20\n        /* \"#utility.yul\":10061:10064   */\n      dup3\n        /* \"#utility.yul\":10057:10069   */\n      add\n        /* \"#utility.yul\":10050:10069   */\n      swap2\n      pop\n        /* \"#utility.yul\":10086:10089   */\n      dup2\n        /* \"#utility.yul\":10079:10089   */\n      swap1\n      pop\n        /* \"#utility.yul\":9839:10095   */\n      swap3\n      swap2\n      pop\n      pop\n      jump\t// out\n        /* \"#utility.yul\":10101:10199   */\n    tag_173:\n        /* \"#utility.yul\":10152:10158   */\n      0x00\n        /* \"#utility.yul\":10186:10191   */\n      dup2\n        /* \"#utility.yul\":10180:10192   */\n      mload\n        /* \"#utility.yul\":10170:10192   */\n      swap1\n      pop\n        /* \"#utility.yul\":10101:10199   */\n      swap2\n      swap1\n      pop\n      jump\t// out\n        /* \"#utility.yul\":10205:10352   */\n    tag_174:\n        /* \"#utility.yul\":10306:10317   */\n      0x00\n        /* \"#utility.yul\":10343:10346   */\n      dup2\n        /* \"#utility.yul\":10328:10346   */\n      swap1\n      pop\n        /* \"#utility.yul\":10205:10352   */\n      swap3\n      swap2\n      pop\n      pop\n      jump\t// out\n        /* \"#utility.yul\":10358:10604   */\n    tag_175:\n        /* \"#utility.yul\":10439:10440   */\n      0x00\n        /* \"#utility.yul\":10449:10562   */\n    tag_279:\n        /* \"#utility.yul\":10463:10469   */\n      dup4\n        /* \"#utility.yul\":10460:10461   */\n      dup2\n        /* \"#utility.yul\":10457:10470   */\n      lt\n        /* \"#utility.yul\":10449:10562   */\n      iszero\n      tag_281\n      jumpi\n        /* \"#utility.yul\":10548:10549   */\n      dup1\n        /* \"#utility.yul\":10543:10546   */\n      dup3\n        /* \"#utility.yul\":10539:10550   */\n      add\n        /* \"#utility.yul\":10533:10551   */\n      mload\n        /* \"#utility.yul\":10529:10530   */\n      dup2\n        /* \"#utility.yul\":10524:10527   */\n      dup5\n        /* \"#utility.yul\":10520:10531   */\n      add\n        /* \"#utility.yul\":10513:10552   */\n      mstore\n        /* \"#utility.yul\":10485:10487   */\n      0x20\n        /* \"#utility.yul\":10482:10483   */\n      dup2\n        /* \"#utility.yul\":10478:10488   */\n      add\n        /* \"#utility.yul\":10473:10488   */\n      swap1\n      pop\n        /* \"#utility.yul\":10449:10562   */\n      jump(tag_279)\n    tag_281:\n        /* \"#utility.yul\":10596:10597   */\n      0x00\n        /* \"#utility.yul\":10587:10593   */\n      dup5\n        /* \"#utility.yul\":10582:10585   */\n      dup5\n        /* \"#utility.yul\":10578:10594   */\n      add\n        /* \"#utility.yul\":10571:10598   */\n      mstore\n        /* \"#utility.yul\":10420:10604   */\n      pop\n        /* \"#utility.yul\":10358:10604   */\n      pop\n      pop\n      pop\n      jump\t// out\n        /* \"#utility.yul\":10610:10996   */\n    tag_176:\n        /* \"#utility.yul\":10714:10717   */\n      0x00\n        /* \"#utility.yul\":10742:10780   */\n      tag_283\n        /* \"#utility.yul\":10774:10779   */\n      dup3\n        /* \"#utility.yul\":10742:10780   */\n      tag_173\n      jump\t// in\n    tag_283:\n        /* \"#utility.yul\":10796:10884   */\n      tag_284\n        /* \"#utility.yul\":10877:10883   */\n      dup2\n        /* \"#utility.yul\":10872:10875   */\n      dup6\n        /* \"#utility.yul\":10796:10884   */\n      tag_174\n      jump\t// in\n    tag_284:\n        /* \"#utility.yul\":10789:10884   */\n      swap4\n      pop\n        /* \"#utility.yul\":10893:10958   */\n      tag_285\n        /* \"#utility.yul\":10951:10957   */\n      dup2\n        /* \"#utility.yul\":10946:10949   */\n      dup6\n        /* \"#utility.yul\":10939:10943   */\n      0x20\n        /* \"#utility.yul\":10932:10937   */\n      dup7\n        /* \"#utility.yul\":10928:10944   */\n      add\n        /* \"#utility.yul\":10893:10958   */\n      tag_175\n      jump\t// in\n    tag_285:\n        /* \"#utility.yul\":10983:10989   */\n      dup1\n        /* \"#utility.yul\":10978:10981   */\n      dup5\n        /* \"#utility.yul\":10974:10990   */\n      add\n        /* \"#utility.yul\":10967:10990   */\n      swap2\n      pop\n        /* \"#utility.yul\":10718:10996   */\n      pop\n        /* \"#utility.yul\":10610:10996   */\n      swap3\n      swap2\n      pop\n      pop\n      jump\t// out\n        /* \"#utility.yul\":11002:11273   */\n    tag_59:\n        /* \"#utility.yul\":11132:11135   */\n      0x00\n        /* \"#utility.yul\":11154:11247   */\n      tag_287\n        /* \"#utility.yul\":11243:11246   */\n      dup3\n        /* \"#utility.yul\":11234:11240   */\n      dup5\n        /* \"#utility.yul\":11154:11247   */\n      tag_176\n      jump\t// in\n    tag_287:\n        /* \"#utility.yul\":11147:11247   */\n      swap2\n      pop\n        /* \"#utility.yul\":11264:11267   */\n      dup2\n        /* \"#utility.yul\":11257:11267   */\n      swap1\n      pop\n        /* \"#utility.yul\":11002:11273   */\n      swap3\n      swap2\n      pop\n      pop\n      jump\t// out\n        /* \"#utility.yul\":11279:11422   */\n    tag_177:\n        /* \"#utility.yul\":11336:11341   */\n      0x00\n        /* \"#utility.yul\":11367:11373   */\n      dup2\n        /* \"#utility.yul\":11361:11374   */\n      mload\n        /* \"#utility.yul\":11352:11374   */\n      swap1\n      pop\n        /* \"#utility.yul\":11383:11416   */\n      tag_289\n        /* \"#utility.yul\":11410:11415   */\n      dup2\n        /* \"#utility.yul\":11383:11416   */\n      tag_159\n      jump\t// in\n    tag_289:\n        /* \"#utility.yul\":11279:11422   */\n      swap3\n      swap2\n      pop\n      pop\n      jump\t// out\n        /* \"#utility.yul\":11428:11779   */\n    tag_63:\n        /* \"#utility.yul\":11498:11504   */\n      0x00\n        /* \"#utility.yul\":11547:11549   */\n      0x20\n        /* \"#utility.yul\":11535:11544   */\n      dup3\n        /* \"#utility.yul\":11526:11533   */\n      dup5\n        /* \"#utility.yul\":11522:11545   */\n      sub\n        /* \"#utility.yul\":11518:11550   */\n      slt\n        /* \"#utility.yul\":11515:11634   */\n      iszero\n      tag_291\n      jumpi\n        /* \"#utility.yul\":11553:11632   */\n      tag_292\n      tag_144\n      jump\t// in\n    tag_292:\n        /* \"#utility.yul\":11515:11634   */\n    tag_291:\n        /* \"#utility.yul\":11673:11674   */\n      0x00\n        /* \"#utility.yul\":11698:11762   */\n      tag_293\n        /* \"#utility.yul\":11754:11761   */\n      dup5\n        /* \"#utility.yul\":11745:11751   */\n      dup3\n        /* \"#utility.yul\":11734:11743   */\n      dup6\n        /* \"#utility.yul\":11730:11752   */\n      add\n        /* \"#utility.yul\":11698:11762   */\n      tag_177\n      jump\t// in\n    tag_293:\n        /* \"#utility.yul\":11688:11762   */\n      swap2\n      pop\n        /* \"#utility.yul\":11644:11772   */\n      pop\n        /* \"#utility.yul\":11428:11779   */\n      swap3\n      swap2\n      pop\n      pop\n      jump\t// out\n        /* \"#utility.yul\":11785:11961   */\n    tag_70:\n        /* \"#utility.yul\":11817:11818   */\n      0x00\n        /* \"#utility.yul\":11834:11854   */\n      tag_295\n        /* \"#utility.yul\":11852:11853   */\n      dup3\n        /* \"#utility.yul\":11834:11854   */\n      tag_152\n      jump\t// in\n    tag_295:\n        /* \"#utility.yul\":11829:11854   */\n      swap2\n      pop\n        /* \"#utility.yul\":11868:11888   */\n      tag_296\n        /* \"#utility.yul\":11886:11887   */\n      dup4\n        /* \"#utility.yul\":11868:11888   */\n      tag_152\n      jump\t// in\n    tag_296:\n        /* \"#utility.yul\":11863:11888   */\n      swap3\n      pop\n        /* \"#utility.yul\":11907:11908   */\n      dup3\n        /* \"#utility.yul\":11897:11932   */\n      tag_297\n      jumpi\n        /* \"#utility.yul\":11912:11930   */\n      tag_298\n      tag_55\n      jump\t// in\n    tag_298:\n        /* \"#utility.yul\":11897:11932   */\n    tag_297:\n        /* \"#utility.yul\":11953:11954   */\n      dup3\n        /* \"#utility.yul\":11950:11951   */\n      dup3\n        /* \"#utility.yul\":11946:11955   */\n      mod\n        /* \"#utility.yul\":11941:11955   */\n      swap1\n      pop\n        /* \"#utility.yul\":11785:11961   */\n      swap3\n      swap2\n      pop\n      pop\n      jump\t// out\n        /* \"#utility.yul\":11967:12161   */\n    tag_133:\n        /* \"#utility.yul\":12007:12011   */\n      0x00\n        /* \"#utility.yul\":12027:12047   */\n      tag_300\n        /* \"#utility.yul\":12045:12046   */\n      dup3\n        /* \"#utility.yul\":12027:12047   */\n      tag_152\n      jump\t// in\n    tag_300:\n        /* \"#utility.yul\":12022:12047   */\n      swap2\n      pop\n        /* \"#utility.yul\":12061:12081   */\n      tag_301\n        /* \"#utility.yul\":12079:12080   */\n      dup4\n        /* \"#utility.yul\":12061:12081   */\n      tag_152\n      jump\t// in\n    tag_301:\n        /* \"#utility.yul\":12056:12081   */\n      swap3\n      pop\n        /* \"#utility.yul\":12105:12106   */\n      dup3\n        /* \"#utility.yul\":12102:12103   */\n      dup3\n        /* \"#utility.yul\":12098:12107   */\n      sub\n        /* \"#utility.yul\":12090:12107   */\n      swap1\n      pop\n        /* \"#utility.yul\":12129:12130   */\n      dup2\n        /* \"#utility.yul\":12123:12127   */\n      dup2\n        /* \"#utility.yul\":12120:12131   */\n      gt\n        /* \"#utility.yul\":12117:12154   */\n      iszero\n      tag_302\n      jumpi\n        /* \"#utility.yul\":12134:12152   */\n      tag_303\n      tag_168\n      jump\t// in\n    tag_303:\n        /* \"#utility.yul\":12117:12154   */\n    tag_302:\n        /* \"#utility.yul\":11967:12161   */\n      swap3\n      swap2\n      pop\n      pop\n      jump\t// out\n        /* \"#utility.yul\":12167:12577   */\n    tag_135:\n        /* \"#utility.yul\":12207:12214   */\n      0x00\n        /* \"#utility.yul\":12230:12250   */\n      tag_305\n        /* \"#utility.yul\":12248:12249   */\n      dup3\n        /* \"#utility.yul\":12230:12250   */\n      tag_152\n      jump\t// in\n    tag_305:\n        /* \"#utility.yul\":12225:12250   */\n      swap2\n      pop\n        /* \"#utility.yul\":12264:12284   */\n      tag_306\n        /* \"#utility.yul\":12282:12283   */\n      dup4\n        /* \"#utility.yul\":12264:12284   */\n      tag_152\n      jump\t// in\n    tag_306:\n        /* \"#utility.yul\":12259:12284   */\n      swap3\n      pop\n        /* \"#utility.yul\":12319:12320   */\n      dup3\n        /* \"#utility.yul\":12316:12317   */\n      dup3\n        /* \"#utility.yul\":12312:12321   */\n      mul\n        /* \"#utility.yul\":12341:12371   */\n      tag_307\n        /* \"#utility.yul\":12359:12370   */\n      dup2\n        /* \"#utility.yul\":12341:12371   */\n      tag_152\n      jump\t// in\n    tag_307:\n        /* \"#utility.yul\":12330:12371   */\n      swap2\n      pop\n        /* \"#utility.yul\":12520:12521   */\n      dup3\n        /* \"#utility.yul\":12511:12518   */\n      dup3\n        /* \"#utility.yul\":12507:12522   */\n      div\n        /* \"#utility.yul\":12504:12505   */\n      dup5\n        /* \"#utility.yul\":12501:12523   */\n      eq\n        /* \"#utility.yul\":12481:12482   */\n      dup4\n        /* \"#utility.yul\":12474:12483   */\n      iszero\n        /* \"#utility.yul\":12454:12537   */\n      or\n        /* \"#utility.yul\":12431:12570   */\n      tag_308\n      jumpi\n        /* \"#utility.yul\":12550:12568   */\n      tag_309\n      tag_168\n      jump\t// in\n    tag_309:\n        /* \"#utility.yul\":12431:12570   */\n    tag_308:\n        /* \"#utility.yul\":12215:12577   */\n      pop\n        /* \"#utility.yul\":12167:12577   */\n      swap3\n      swap2\n      pop\n      pop\n      jump\t// out\n\n    auxdata: 0xa2646970667358221220071ab6f2344531db5c75857741089d206e4970e4c85073421cc5d680c409180d64736f6c63430008110033\n}\n",
				"bytecode": {
					"linkReferences": {},
					"object": "608060405260405180604001604052806c0b8f7b7b963b86f8a27ab0b28881526020016c061bab2e6f5d749cbb10189162815250600080820151816000015560208201518160010155505034801561005657600080fd5b50610fad806100666000396000f3fe608060405234801561001057600080fd5b50600436106100415760003560e01c806306ba17bc1461004657806332058281146100765780633a1dd7ac146100a6575b600080fd5b610060600480360381019061005b9190610a19565b6100d6565b60405161006d9190610a97565b60405180910390f35b610090600480360381019061008b9190610ae8565b6101a1565b60405161009d9190610b6a565b60405180910390f35b6100c060048036038101906100bb9190610b85565b6103c3565b6040516100cd9190610b6a565b60405180910390f35b6100de6108d9565b6100e7836103c3565b610126576040517f08c379a000000000000000000000000000000000000000000000000000000000815260040161011d90610c0f565b60405180910390fd5b600060405180604001604052806c0ded3dc4be6d0d1d91a46b371d81526020016c0ded3dc4be6d0d1d91a46b371d815250905060008490505b600084146101965760018085160361017e5761017b82826104e9565b91505b61018881826104e9565b9050600184901c935061015f565b819250505092915050565b60006101ac826103c3565b6101eb576040517f08c379a00000000000000000000000000000000000000000000000000000000081526004016101e290610c7b565b60405180910390fd5b600084141580156101fd575060008314155b801561021557506c0d0d3dc4be6d0d1d91a46b371e84105b80156102455750600160026c0d0d3dc4be6d0d1d91a46b371e6102389190610cf9565b6102429190610d2a565b83105b610284576040517f08c379a000000000000000000000000000000000000000000000000000000000815260040161027b90610daa565b60405180910390fd5b600061029d846c0d0d3dc4be6d0d1d91a46b371e61080a565b905060006c0d0d3dc4be6d0d1d91a46b371e806102bd576102bc610c9b565b5b826002896040516020016102d19190610deb565b6040516020818303038152906040526040516102ed9190610e77565b602060405180830381855afa15801561030a573d6000803e3d6000fd5b5050506040513d601f19601f8201168201806040525081019061032d9190610ea3565b60001c09905060006c0d0d3dc4be6d0d1d91a46b371e8061035157610350610c9b565b5b83880990506000610394610385600060405180604001604052908160008201548152602001600182015481525050856100d6565b61038f88856100d6565b6104e9565b90506c0d0d3dc4be6d0d1d91a46b371e886103af9190610ed0565b816000015114945050505050949350505050565b60006c0ded3dc4be6d0d1d91a46b371d82600001511015806103f657506c0ded3dc4be6d0d1d91a46b371d826020015110155b1561040457600090506104e4565b60006c0ded3dc4be6d0d1d91a46b371d8061042257610421610c9b565b5b8360200151846020015109905060006c0ded3dc4be6d0d1d91a46b371d8061044d5761044c610c9b565b5b60016c0ded3dc4be6d0d1d91a46b371d8061046b5761046a610c9b565b5b6c0ded3dc4be6d0d1d91a46b371d8061048757610486610c9b565b5b87600001516000096c0ded3dc4be6d0d1d91a46b371d806104ab576104aa610c9b565b5b6c0ded3dc4be6d0d1d91a46b371d806104c7576104c6610c9b565b5b89600001518a600001510989600001510908089050808214925050505b919050565b6104f16108d9565b6c0ded3dc4be6d0d1d91a46b371d836000015114801561052157506c0ded3dc4be6d0d1d91a46b371d8360200151145b1561052e57819050610804565b6c0ded3dc4be6d0d1d91a46b371d826000015114801561055e57506c0ded3dc4be6d0d1d91a46b371d8260200151145b1561056b57829050610804565b6000826000015184600001510361068a57826020015184602001510361064e576c0ded3dc4be6d0d1d91a46b371d806105a7576105a6610c9b565b5b6105e16c0ded3dc4be6d0d1d91a46b371d806105c6576105c5610c9b565b5b86602001516002096c0ded3dc4be6d0d1d91a46b371d61080a565b6c0ded3dc4be6d0d1d91a46b371d806105fd576105fc610c9b565b5b60006c0ded3dc4be6d0d1d91a46b371d8061061b5761061a610c9b565b5b6c0ded3dc4be6d0d1d91a46b371d8061063757610636610c9b565b5b89600001518a600001510960030908099050610685565b60405180604001604052806c0ded3dc4be6d0d1d91a46b371d81526020016c0ded3dc4be6d0d1d91a46b371d815250915050610804565b610700565b6c0ded3dc4be6d0d1d91a46b371d806106a6576106a5610c9b565b5b6106dc6106c9866000015186600001516c0ded3dc4be6d0d1d91a46b371d61089e565b6c0ded3dc4be6d0d1d91a46b371d61080a565b6106fc866020015186602001516c0ded3dc4be6d0d1d91a46b371d61089e565b0990505b60006c0ded3dc4be6d0d1d91a46b371d61076c6c0ded3dc4be6d0d1d91a46b371d8061072f5761072e610c9b565b5b8485096c0ded3dc4be6d0d1d91a46b371d8061074e5761074d610c9b565b5b87600001518960000151086c0ded3dc4be6d0d1d91a46b371d61089e565b6107769190610ed0565b905060006c0ded3dc4be6d0d1d91a46b371d6107dd6c0ded3dc4be6d0d1d91a46b371d806107a7576107a6610c9b565b5b6107c38960000151866c0ded3dc4be6d0d1d91a46b371d61089e565b860988602001516c0ded3dc4be6d0d1d91a46b371d61089e565b6107e79190610ed0565b905060405180604001604052808381526020018281525093505050505b92915050565b60008060009050600060019050600084905060005b600087146108915786826108339190610cf9565b905082868061084557610844610c9b565b5b878061085457610853610c9b565b5b858409886108629190610f01565b860880945081955050508681886108799190610f35565b836108849190610f01565b809850819350505061081f565b8394505050505092915050565b60008284116108c35783836108b39190610f01565b826108be9190610f01565b6108d0565b82846108cf9190610f01565b5b90509392505050565b604051806040016040528060008152602001600081525090565b6000604051905090565b600080fd5b600080fd5b6000601f19601f8301169050919050565b7f4e487b7100000000000000000000000000000000000000000000000000000000600052604160045260246000fd5b61095082610907565b810181811067ffffffffffffffff8211171561096f5761096e610918565b5b80604052505050565b60006109826108f3565b905061098e8282610947565b919050565b6000819050919050565b6109a681610993565b81146109b157600080fd5b50565b6000813590506109c38161099d565b92915050565b6000604082840312156109df576109de610902565b5b6109e96040610978565b905060006109f9848285016109b4565b6000830152506020610a0d848285016109b4565b60208301525092915050565b60008060608385031215610a3057610a2f6108fd565b5b6000610a3e858286016109c9565b9250506040610a4f858286016109b4565b9150509250929050565b610a6281610993565b82525050565b604082016000820151610a7e6000850182610a59565b506020820151610a916020850182610a59565b50505050565b6000604082019050610aac6000830184610a68565b92915050565b6000819050919050565b610ac581610ab2565b8114610ad057600080fd5b50565b600081359050610ae281610abc565b92915050565b60008060008060a08587031215610b0257610b016108fd565b5b6000610b1087828801610ad3565b9450506020610b21878288016109b4565b9350506040610b32878288016109b4565b9250506060610b43878288016109c9565b91505092959194509250565b60008115159050919050565b610b6481610b4f565b82525050565b6000602082019050610b7f6000830184610b5b565b92915050565b600060408284031215610b9b57610b9a6108fd565b5b6000610ba9848285016109c9565b91505092915050565b600082825260208201905092915050565b7f706f696e74206973206e6f74206f6e2074686520637572766500000000000000600082015250565b6000610bf9601983610bb2565b9150610c0482610bc3565b602082019050919050565b60006020820190508181036000830152610c2881610bec565b9050919050565b7f5075626c6963206b6579206973206e6f74206f6e207468652063757276650000600082015250565b6000610c65601e83610bb2565b9150610c7082610c2f565b602082019050919050565b60006020820190508181036000830152610c9481610c58565b9050919050565b7f4e487b7100000000000000000000000000000000000000000000000000000000600052601260045260246000fd5b7f4e487b7100000000000000000000000000000000000000000000000000000000600052601160045260246000fd5b6000610d0482610993565b9150610d0f83610993565b925082610d1f57610d1e610c9b565b5b828204905092915050565b6000610d3582610993565b9150610d4083610993565b9250828201905080821115610d5857610d57610cca565b5b92915050565b7f57726f6e67207369676e61747572650000000000000000000000000000000000600082015250565b6000610d94600f83610bb2565b9150610d9f82610d5e565b602082019050919050565b60006020820190508181036000830152610dc381610d87565b9050919050565b6000819050919050565b610de5610de082610ab2565b610dca565b82525050565b6000610df78284610dd4565b60208201915081905092915050565b600081519050919050565b600081905092915050565b60005b83811015610e3a578082015181840152602081019050610e1f565b60008484015250505050565b6000610e5182610e06565b610e5b8185610e11565b9350610e6b818560208601610e1c565b80840191505092915050565b6000610e838284610e46565b915081905092915050565b600081519050610e9d81610abc565b92915050565b600060208284031215610eb957610eb86108fd565b5b6000610ec784828501610e8e565b91505092915050565b6000610edb82610993565b9150610ee683610993565b925082610ef657610ef5610c9b565b5b828206905092915050565b6000610f0c82610993565b9150610f1783610993565b9250828203905081811115610f2f57610f2e610cca565b5b92915050565b6000610f4082610993565b9150610f4b83610993565b9250828202610f5981610993565b91508282048414831517610f7057610f6f610cca565b5b509291505056fea2646970667358221220071ab6f2344531db5c75857741089d206e4970e4c85073421cc5d680c409180d64736f6c63430008110033",
					"opcodes": "PUSH1 0x80 PUSH1 0x40 MSTORE PUSH1 0x40 MLOAD DUP1 PUSH1 0x40 ADD PUSH1 0x40 MSTORE DUP1 PUSH13 0xB8F7B7B963B86F8A27AB0B288 DUP2 MSTORE PUSH1 0x20 ADD PUSH13 0x61BAB2E6F5D749CBB10189162 DUP2 MSTORE POP PUSH1 0x0 DUP1 DUP3 ADD MLOAD DUP2 PUSH1 0x0 ADD SSTORE PUSH1 0x20 DUP3 ADD MLOAD DUP2 PUSH1 0x1 ADD SSTORE POP POP CALLVALUE DUP1 ISZERO PUSH2 0x56 JUMPI PUSH1 0x0 DUP1 REVERT JUMPDEST POP PUSH2 0xFAD DUP1 PUSH2 0x66 PUSH1 0x0 CODECOPY PUSH1 0x0 RETURN INVALID PUSH1 0x80 PUSH1 0x40 MSTORE CALLVALUE DUP1 ISZERO PUSH2 0x10 JUMPI PUSH1 0x0 DUP1 REVERT JUMPDEST POP PUSH1 0x4 CALLDATASIZE LT PUSH2 0x41 JUMPI PUSH1 0x0 CALLDATALOAD PUSH1 0xE0 SHR DUP1 PUSH4 0x6BA17BC EQ PUSH2 0x46 JUMPI DUP1 PUSH4 0x32058281 EQ PUSH2 0x76 JUMPI DUP1 PUSH4 0x3A1DD7AC EQ PUSH2 0xA6 JUMPI JUMPDEST PUSH1 0x0 DUP1 REVERT JUMPDEST PUSH2 0x60 PUSH1 0x4 DUP1 CALLDATASIZE SUB DUP2 ADD SWAP1 PUSH2 0x5B SWAP2 SWAP1 PUSH2 0xA19 JUMP JUMPDEST PUSH2 0xD6 JUMP JUMPDEST PUSH1 0x40 MLOAD PUSH2 0x6D SWAP2 SWAP1 PUSH2 0xA97 JUMP JUMPDEST PUSH1 0x40 MLOAD DUP1 SWAP2 SUB SWAP1 RETURN JUMPDEST PUSH2 0x90 PUSH1 0x4 DUP1 CALLDATASIZE SUB DUP2 ADD SWAP1 PUSH2 0x8B SWAP2 SWAP1 PUSH2 0xAE8 JUMP JUMPDEST PUSH2 0x1A1 JUMP JUMPDEST PUSH1 0x40 MLOAD PUSH2 0x9D SWAP2 SWAP1 PUSH2 0xB6A JUMP JUMPDEST PUSH1 0x40 MLOAD DUP1 SWAP2 SUB SWAP1 RETURN JUMPDEST PUSH2 0xC0 PUSH1 0x4 DUP1 CALLDATASIZE SUB DUP2 ADD SWAP1 PUSH2 0xBB SWAP2 SWAP1 PUSH2 0xB85 JUMP JUMPDEST PUSH2 0x3C3 JUMP JUMPDEST PUSH1 0x40 MLOAD PUSH2 0xCD SWAP2 SWAP1 PUSH2 0xB6A JUMP JUMPDEST PUSH1 0x40 MLOAD DUP1 SWAP2 SUB SWAP1 RETURN JUMPDEST PUSH2 0xDE PUSH2 0x8D9 JUMP JUMPDEST PUSH2 0xE7 DUP4 PUSH2 0x3C3 JUMP JUMPDEST PUSH2 0x126 JUMPI PUSH1 0x40 MLOAD PUSH32 0x8C379A000000000000000000000000000000000000000000000000000000000 DUP2 MSTORE PUSH1 0x4 ADD PUSH2 0x11D SWAP1 PUSH2 0xC0F JUMP JUMPDEST PUSH1 0x40 MLOAD DUP1 SWAP2 SUB SWAP1 REVERT JUMPDEST PUSH1 0x0 PUSH1 0x40 MLOAD DUP1 PUSH1 0x40 ADD PUSH1 0x40 MSTORE DUP1 PUSH13 0xDED3DC4BE6D0D1D91A46B371D DUP2 MSTORE PUSH1 0x20 ADD PUSH13 0xDED3DC4BE6D0D1D91A46B371D DUP2 MSTORE POP SWAP1 POP PUSH1 0x0 DUP5 SWAP1 POP JUMPDEST PUSH1 0x0 DUP5 EQ PUSH2 0x196 JUMPI PUSH1 0x1 DUP1 DUP6 AND SUB PUSH2 0x17E JUMPI PUSH2 0x17B DUP3 DUP3 PUSH2 0x4E9 JUMP JUMPDEST SWAP2 POP JUMPDEST PUSH2 0x188 DUP2 DUP3 PUSH2 0x4E9 JUMP JUMPDEST SWAP1 POP PUSH1 0x1 DUP5 SWAP1 SHR SWAP4 POP PUSH2 0x15F JUMP JUMPDEST DUP2 SWAP3 POP POP POP SWAP3 SWAP2 POP POP JUMP JUMPDEST PUSH1 0x0 PUSH2 0x1AC DUP3 PUSH2 0x3C3 JUMP JUMPDEST PUSH2 0x1EB JUMPI PUSH1 0x40 MLOAD PUSH32 0x8C379A000000000000000000000000000000000000000000000000000000000 DUP2 MSTORE PUSH1 0x4 ADD PUSH2 0x1E2 SWAP1 PUSH2 0xC7B JUMP JUMPDEST PUSH1 0x40 MLOAD DUP1 SWAP2 SUB SWAP1 REVERT JUMPDEST PUSH1 0x0 DUP5 EQ ISZERO DUP1 ISZERO PUSH2 0x1FD JUMPI POP PUSH1 0x0 DUP4 EQ ISZERO JUMPDEST DUP1 ISZERO PUSH2 0x215 JUMPI POP PUSH13 0xD0D3DC4BE6D0D1D91A46B371E DUP5 LT JUMPDEST DUP1 ISZERO PUSH2 0x245 JUMPI POP PUSH1 0x1 PUSH1 0x2 PUSH13 0xD0D3DC4BE6D0D1D91A46B371E PUSH2 0x238 SWAP2 SWAP1 PUSH2 0xCF9 JUMP JUMPDEST PUSH2 0x242 SWAP2 SWAP1 PUSH2 0xD2A JUMP JUMPDEST DUP4 LT JUMPDEST PUSH2 0x284 JUMPI PUSH1 0x40 MLOAD PUSH32 0x8C379A000000000000000000000000000000000000000000000000000000000 DUP2 MSTORE PUSH1 0x4 ADD PUSH2 0x27B SWAP1 PUSH2 0xDAA JUMP JUMPDEST PUSH1 0x40 MLOAD DUP1 SWAP2 SUB SWAP1 REVERT JUMPDEST PUSH1 0x0 PUSH2 0x29D DUP5 PUSH13 0xD0D3DC4BE6D0D1D91A46B371E PUSH2 0x80A JUMP JUMPDEST SWAP1 POP PUSH1 0x0 PUSH13 0xD0D3DC4BE6D0D1D91A46B371E DUP1 PUSH2 0x2BD JUMPI PUSH2 0x2BC PUSH2 0xC9B JUMP JUMPDEST JUMPDEST DUP3 PUSH1 0x2 DUP10 PUSH1 0x40 MLOAD PUSH1 0x20 ADD PUSH2 0x2D1 SWAP2 SWAP1 PUSH2 0xDEB JUMP JUMPDEST PUSH1 0x40 MLOAD PUSH1 0x20 DUP2 DUP4 SUB SUB DUP2 MSTORE SWAP1 PUSH1 0x40 MSTORE PUSH1 0x40 MLOAD PUSH2 0x2ED SWAP2 SWAP1 PUSH2 0xE77 JUMP JUMPDEST PUSH1 0x20 PUSH1 0x40 MLOAD DUP1 DUP4 SUB DUP2 DUP6 GAS STATICCALL ISZERO DUP1 ISZERO PUSH2 0x30A JUMPI RETURNDATASIZE PUSH1 0x0 DUP1 RETURNDATACOPY RETURNDATASIZE PUSH1 0x0 REVERT JUMPDEST POP POP POP PUSH1 0x40 MLOAD RETURNDATASIZE PUSH1 0x1F NOT PUSH1 0x1F DUP3 ADD AND DUP3 ADD DUP1 PUSH1 0x40 MSTORE POP DUP2 ADD SWAP1 PUSH2 0x32D SWAP2 SWAP1 PUSH2 0xEA3 JUMP JUMPDEST PUSH1 0x0 SHR MULMOD SWAP1 POP PUSH1 0x0 PUSH13 0xD0D3DC4BE6D0D1D91A46B371E DUP1 PUSH2 0x351 JUMPI PUSH2 0x350 PUSH2 0xC9B JUMP JUMPDEST JUMPDEST DUP4 DUP9 MULMOD SWAP1 POP PUSH1 0x0 PUSH2 0x394 PUSH2 0x385 PUSH1 0x0 PUSH1 0x40 MLOAD DUP1 PUSH1 0x40 ADD PUSH1 0x40 MSTORE SWAP1 DUP2 PUSH1 0x0 DUP3 ADD SLOAD DUP2 MSTORE PUSH1 0x20 ADD PUSH1 0x1 DUP3 ADD SLOAD DUP2 MSTORE POP POP DUP6 PUSH2 0xD6 JUMP JUMPDEST PUSH2 0x38F DUP9 DUP6 PUSH2 0xD6 JUMP JUMPDEST PUSH2 0x4E9 JUMP JUMPDEST SWAP1 POP PUSH13 0xD0D3DC4BE6D0D1D91A46B371E DUP9 PUSH2 0x3AF SWAP2 SWAP1 PUSH2 0xED0 JUMP JUMPDEST DUP2 PUSH1 0x0 ADD MLOAD EQ SWAP5 POP POP POP POP POP SWAP5 SWAP4 POP POP POP POP JUMP JUMPDEST PUSH1 0x0 PUSH13 0xDED3DC4BE6D0D1D91A46B371D DUP3 PUSH1 0x0 ADD MLOAD LT ISZERO DUP1 PUSH2 0x3F6 JUMPI POP PUSH13 0xDED3DC4BE6D0D1D91A46B371D DUP3 PUSH1 0x20 ADD MLOAD LT ISZERO JUMPDEST ISZERO PUSH2 0x404 JUMPI PUSH1 0x0 SWAP1 POP PUSH2 0x4E4 JUMP JUMPDEST PUSH1 0x0 PUSH13 0xDED3DC4BE6D0D1D91A46B371D DUP1 PUSH2 0x422 JUMPI PUSH2 0x421 PUSH2 0xC9B JUMP JUMPDEST JUMPDEST DUP4 PUSH1 0x20 ADD MLOAD DUP5 PUSH1 0x20 ADD MLOAD MULMOD SWAP1 POP PUSH1 0x0 PUSH13 0xDED3DC4BE6D0D1D91A46B371D DUP1 PUSH2 0x44D JUMPI PUSH2 0x44C PUSH2 0xC9B JUMP JUMPDEST JUMPDEST PUSH1 0x1 PUSH13 0xDED3DC4BE6D0D1D91A46B371D DUP1 PUSH2 0x46B JUMPI PUSH2 0x46A PUSH2 0xC9B JUMP JUMPDEST JUMPDEST PUSH13 0xDED3DC4BE6D0D1D91A46B371D DUP1 PUSH2 0x487 JUMPI PUSH2 0x486 PUSH2 0xC9B JUMP JUMPDEST JUMPDEST DUP8 PUSH1 0x0 ADD MLOAD PUSH1 0x0 MULMOD PUSH13 0xDED3DC4BE6D0D1D91A46B371D DUP1 PUSH2 0x4AB JUMPI PUSH2 0x4AA PUSH2 0xC9B JUMP JUMPDEST JUMPDEST PUSH13 0xDED3DC4BE6D0D1D91A46B371D DUP1 PUSH2 0x4C7 JUMPI PUSH2 0x4C6 PUSH2 0xC9B JUMP JUMPDEST JUMPDEST DUP10 PUSH1 0x0 ADD MLOAD DUP11 PUSH1 0x0 ADD MLOAD MULMOD DUP10 PUSH1 0x0 ADD MLOAD MULMOD ADDMOD ADDMOD SWAP1 POP DUP1 DUP3 EQ SWAP3 POP POP POP JUMPDEST SWAP2 SWAP1 POP JUMP JUMPDEST PUSH2 0x4F1 PUSH2 0x8D9 JUMP JUMPDEST PUSH13 0xDED3DC4BE6D0D1D91A46B371D DUP4 PUSH1 0x0 ADD MLOAD EQ DUP1 ISZERO PUSH2 0x521 JUMPI POP PUSH13 0xDED3DC4BE6D0D1D91A46B371D DUP4 PUSH1 0x20 ADD MLOAD EQ JUMPDEST ISZERO PUSH2 0x52E JUMPI DUP2 SWAP1 POP PUSH2 0x804 JUMP JUMPDEST PUSH13 0xDED3DC4BE6D0D1D91A46B371D DUP3 PUSH1 0x0 ADD MLOAD EQ DUP1 ISZERO PUSH2 0x55E JUMPI POP PUSH13 0xDED3DC4BE6D0D1D91A46B371D DUP3 PUSH1 0x20 ADD MLOAD EQ JUMPDEST ISZERO PUSH2 0x56B JUMPI DUP3 SWAP1 POP PUSH2 0x804 JUMP JUMPDEST PUSH1 0x0 DUP3 PUSH1 0x0 ADD MLOAD DUP5 PUSH1 0x0 ADD MLOAD SUB PUSH2 0x68A JUMPI DUP3 PUSH1 0x20 ADD MLOAD DUP5 PUSH1 0x20 ADD MLOAD SUB PUSH2 0x64E JUMPI PUSH13 0xDED3DC4BE6D0D1D91A46B371D DUP1 PUSH2 0x5A7 JUMPI PUSH2 0x5A6 PUSH2 0xC9B JUMP JUMPDEST JUMPDEST PUSH2 0x5E1 PUSH13 0xDED3DC4BE6D0D1D91A46B371D DUP1 PUSH2 0x5C6 JUMPI PUSH2 0x5C5 PUSH2 0xC9B JUMP JUMPDEST JUMPDEST DUP7 PUSH1 0x20 ADD MLOAD PUSH1 0x2 MULMOD PUSH13 0xDED3DC4BE6D0D1D91A46B371D PUSH2 0x80A JUMP JUMPDEST PUSH13 0xDED3DC4BE6D0D1D91A46B371D DUP1 PUSH2 0x5FD JUMPI PUSH2 0x5FC PUSH2 0xC9B JUMP JUMPDEST JUMPDEST PUSH1 0x0 PUSH13 0xDED3DC4BE6D0D1D91A46B371D DUP1 PUSH2 0x61B JUMPI PUSH2 0x61A PUSH2 0xC9B JUMP JUMPDEST JUMPDEST PUSH13 0xDED3DC4BE6D0D1D91A46B371D DUP1 PUSH2 0x637 JUMPI PUSH2 0x636 PUSH2 0xC9B JUMP JUMPDEST JUMPDEST DUP10 PUSH1 0x0 ADD MLOAD DUP11 PUSH1 0x0 ADD MLOAD MULMOD PUSH1 0x3 MULMOD ADDMOD MULMOD SWAP1 POP PUSH2 0x685 JUMP JUMPDEST PUSH1 0x40 MLOAD DUP1 PUSH1 0x40 ADD PUSH1 0x40 MSTORE DUP1 PUSH13 0xDED3DC4BE6D0D1D91A46B371D DUP2 MSTORE PUSH1 0x20 ADD PUSH13 0xDED3DC4BE6D0D1D91A46B371D DUP2 MSTORE POP SWAP2 POP POP PUSH2 0x804 JUMP JUMPDEST PUSH2 0x700 JUMP JUMPDEST PUSH13 0xDED3DC4BE6D0D1D91A46B371D DUP1 PUSH2 0x6A6 JUMPI PUSH2 0x6A5 PUSH2 0xC9B JUMP JUMPDEST JUMPDEST PUSH2 0x6DC PUSH2 0x6C9 DUP7 PUSH1 0x0 ADD MLOAD DUP7 PUSH1 0x0 ADD MLOAD PUSH13 0xDED3DC4BE6D0D1D91A46B371D PUSH2 0x89E JUMP JUMPDEST PUSH13 0xDED3DC4BE6D0D1D91A46B371D PUSH2 0x80A JUMP JUMPDEST PUSH2 0x6FC DUP7 PUSH1 0x20 ADD MLOAD DUP7 PUSH1 0x20 ADD MLOAD PUSH13 0xDED3DC4BE6D0D1D91A46B371D PUSH2 0x89E JUMP JUMPDEST MULMOD SWAP1 POP JUMPDEST PUSH1 0x0 PUSH13 0xDED3DC4BE6D0D1D91A46B371D PUSH2 0x76C PUSH13 0xDED3DC4BE6D0D1D91A46B371D DUP1 PUSH2 0x72F JUMPI PUSH2 0x72E PUSH2 0xC9B JUMP JUMPDEST JUMPDEST DUP5 DUP6 MULMOD PUSH13 0xDED3DC4BE6D0D1D91A46B371D DUP1 PUSH2 0x74E JUMPI PUSH2 0x74D PUSH2 0xC9B JUMP JUMPDEST JUMPDEST DUP8 PUSH1 0x0 ADD MLOAD DUP10 PUSH1 0x0 ADD MLOAD ADDMOD PUSH13 0xDED3DC4BE6D0D1D91A46B371D PUSH2 0x89E JUMP JUMPDEST PUSH2 0x776 SWAP2 SWAP1 PUSH2 0xED0 JUMP JUMPDEST SWAP1 POP PUSH1 0x0 PUSH13 0xDED3DC4BE6D0D1D91A46B371D PUSH2 0x7DD PUSH13 0xDED3DC4BE6D0D1D91A46B371D DUP1 PUSH2 0x7A7 JUMPI PUSH2 0x7A6 PUSH2 0xC9B JUMP JUMPDEST JUMPDEST PUSH2 0x7C3 DUP10 PUSH1 0x0 ADD MLOAD DUP7 PUSH13 0xDED3DC4BE6D0D1D91A46B371D PUSH2 0x89E JUMP JUMPDEST DUP7 MULMOD DUP9 PUSH1 0x20 ADD MLOAD PUSH13 0xDED3DC4BE6D0D1D91A46B371D PUSH2 0x89E JUMP JUMPDEST PUSH2 0x7E7 SWAP2 SWAP1 PUSH2 0xED0 JUMP JUMPDEST SWAP1 POP PUSH1 0x40 MLOAD DUP1 PUSH1 0x40 ADD PUSH1 0x40 MSTORE DUP1 DUP4 DUP2 MSTORE PUSH1 0x20 ADD DUP3 DUP2 MSTORE POP SWAP4 POP POP POP POP JUMPDEST SWAP3 SWAP2 POP POP JUMP JUMPDEST PUSH1 0x0 DUP1 PUSH1 0x0 SWAP1 POP PUSH1 0x0 PUSH1 0x1 SWAP1 POP PUSH1 0x0 DUP5 SWAP1 POP PUSH1 0x0 JUMPDEST PUSH1 0x0 DUP8 EQ PUSH2 0x891 JUMPI DUP7 DUP3 PUSH2 0x833 SWAP2 SWAP1 PUSH2 0xCF9 JUMP JUMPDEST SWAP1 POP DUP3 DUP7 DUP1 PUSH2 0x845 JUMPI PUSH2 0x844 PUSH2 0xC9B JUMP JUMPDEST JUMPDEST DUP8 DUP1 PUSH2 0x854 JUMPI PUSH2 0x853 PUSH2 0xC9B JUMP JUMPDEST JUMPDEST DUP6 DUP5 MULMOD DUP9 PUSH2 0x862 SWAP2 SWAP1 PUSH2 0xF01 JUMP JUMPDEST DUP7 ADDMOD DUP1 SWAP5 POP DUP2 SWAP6 POP POP POP DUP7 DUP2 DUP9 PUSH2 0x879 SWAP2 SWAP1 PUSH2 0xF35 JUMP JUMPDEST DUP4 PUSH2 0x884 SWAP2 SWAP1 PUSH2 0xF01 JUMP JUMPDEST DUP1 SWAP9 POP DUP2 SWAP4 POP POP POP PUSH2 0x81F JUMP JUMPDEST DUP4 SWAP5 POP POP POP POP POP SWAP3 SWAP2 POP POP JUMP JUMPDEST PUSH1 0x0 DUP3 DUP5 GT PUSH2 0x8C3 JUMPI DUP4 DUP4 PUSH2 0x8B3 SWAP2 SWAP1 PUSH2 0xF01 JUMP JUMPDEST DUP3 PUSH2 0x8BE SWAP2 SWAP1 PUSH2 0xF01 JUMP JUMPDEST PUSH2 0x8D0 JUMP JUMPDEST DUP3 DUP5 PUSH2 0x8CF SWAP2 SWAP1 PUSH2 0xF01 JUMP JUMPDEST JUMPDEST SWAP1 POP SWAP4 SWAP3 POP POP POP JUMP JUMPDEST PUSH1 0x40 MLOAD DUP1 PUSH1 0x40 ADD PUSH1 0x40 MSTORE DUP1 PUSH1 0x0 DUP2 MSTORE PUSH1 0x20 ADD PUSH1 0x0 DUP2 MSTORE POP SWAP1 JUMP JUMPDEST PUSH1 0x0 PUSH1 0x40 MLOAD SWAP1 POP SWAP1 JUMP JUMPDEST PUSH1 0x0 DUP1 REVERT JUMPDEST PUSH1 0x0 DUP1 REVERT JUMPDEST PUSH1 0x0 PUSH1 0x1F NOT PUSH1 0x1F DUP4 ADD AND SWAP1 POP SWAP2 SWAP1 POP JUMP JUMPDEST PUSH32 0x4E487B7100000000000000000000000000000000000000000000000000000000 PUSH1 0x0 MSTORE PUSH1 0x41 PUSH1 0x4 MSTORE PUSH1 0x24 PUSH1 0x0 REVERT JUMPDEST PUSH2 0x950 DUP3 PUSH2 0x907 JUMP JUMPDEST DUP2 ADD DUP2 DUP2 LT PUSH8 0xFFFFFFFFFFFFFFFF DUP3 GT OR ISZERO PUSH2 0x96F JUMPI PUSH2 0x96E PUSH2 0x918 JUMP JUMPDEST JUMPDEST DUP1 PUSH1 0x40 MSTORE POP POP POP JUMP JUMPDEST PUSH1 0x0 PUSH2 0x982 PUSH2 0x8F3 JUMP JUMPDEST SWAP1 POP PUSH2 0x98E DUP3 DUP3 PUSH2 0x947 JUMP JUMPDEST SWAP2 SWAP1 POP JUMP JUMPDEST PUSH1 0x0 DUP2 SWAP1 POP SWAP2 SWAP1 POP JUMP JUMPDEST PUSH2 0x9A6 DUP2 PUSH2 0x993 JUMP JUMPDEST DUP2 EQ PUSH2 0x9B1 JUMPI PUSH1 0x0 DUP1 REVERT JUMPDEST POP JUMP JUMPDEST PUSH1 0x0 DUP2 CALLDATALOAD SWAP1 POP PUSH2 0x9C3 DUP2 PUSH2 0x99D JUMP JUMPDEST SWAP3 SWAP2 POP POP JUMP JUMPDEST PUSH1 0x0 PUSH1 0x40 DUP3 DUP5 SUB SLT ISZERO PUSH2 0x9DF JUMPI PUSH2 0x9DE PUSH2 0x902 JUMP JUMPDEST JUMPDEST PUSH2 0x9E9 PUSH1 0x40 PUSH2 0x978 JUMP JUMPDEST SWAP1 POP PUSH1 0x0 PUSH2 0x9F9 DUP5 DUP3 DUP6 ADD PUSH2 0x9B4 JUMP JUMPDEST PUSH1 0x0 DUP4 ADD MSTORE POP PUSH1 0x20 PUSH2 0xA0D DUP5 DUP3 DUP6 ADD PUSH2 0x9B4 JUMP JUMPDEST PUSH1 0x20 DUP4 ADD MSTORE POP SWAP3 SWAP2 POP POP JUMP JUMPDEST PUSH1 0x0 DUP1 PUSH1 0x60 DUP4 DUP6 SUB SLT ISZERO PUSH2 0xA30 JUMPI PUSH2 0xA2F PUSH2 0x8FD JUMP JUMPDEST JUMPDEST PUSH1 0x0 PUSH2 0xA3E DUP6 DUP3 DUP7 ADD PUSH2 0x9C9 JUMP JUMPDEST SWAP3 POP POP PUSH1 0x40 PUSH2 0xA4F DUP6 DUP3 DUP7 ADD PUSH2 0x9B4 JUMP JUMPDEST SWAP2 POP POP SWAP3 POP SWAP3 SWAP1 POP JUMP JUMPDEST PUSH2 0xA62 DUP2 PUSH2 0x993 JUMP JUMPDEST DUP3 MSTORE POP POP JUMP JUMPDEST PUSH1 0x40 DUP3 ADD PUSH1 0x0 DUP3 ADD MLOAD PUSH2 0xA7E PUSH1 0x0 DUP6 ADD DUP3 PUSH2 0xA59 JUMP JUMPDEST POP PUSH1 0x20 DUP3 ADD MLOAD PUSH2 0xA91 PUSH1 0x20 DUP6 ADD DUP3 PUSH2 0xA59 JUMP JUMPDEST POP POP POP POP JUMP JUMPDEST PUSH1 0x0 PUSH1 0x40 DUP3 ADD SWAP1 POP PUSH2 0xAAC PUSH1 0x0 DUP4 ADD DUP5 PUSH2 0xA68 JUMP JUMPDEST SWAP3 SWAP2 POP POP JUMP JUMPDEST PUSH1 0x0 DUP2 SWAP1 POP SWAP2 SWAP1 POP JUMP JUMPDEST PUSH2 0xAC5 DUP2 PUSH2 0xAB2 JUMP JUMPDEST DUP2 EQ PUSH2 0xAD0 JUMPI PUSH1 0x0 DUP1 REVERT JUMPDEST POP JUMP JUMPDEST PUSH1 0x0 DUP2 CALLDATALOAD SWAP1 POP PUSH2 0xAE2 DUP2 PUSH2 0xABC JUMP JUMPDEST SWAP3 SWAP2 POP POP JUMP JUMPDEST PUSH1 0x0 DUP1 PUSH1 0x0 DUP1 PUSH1 0xA0 DUP6 DUP8 SUB SLT ISZERO PUSH2 0xB02 JUMPI PUSH2 0xB01 PUSH2 0x8FD JUMP JUMPDEST JUMPDEST PUSH1 0x0 PUSH2 0xB10 DUP8 DUP3 DUP9 ADD PUSH2 0xAD3 JUMP JUMPDEST SWAP5 POP POP PUSH1 0x20 PUSH2 0xB21 DUP8 DUP3 DUP9 ADD PUSH2 0x9B4 JUMP JUMPDEST SWAP4 POP POP PUSH1 0x40 PUSH2 0xB32 DUP8 DUP3 DUP9 ADD PUSH2 0x9B4 JUMP JUMPDEST SWAP3 POP POP PUSH1 0x60 PUSH2 0xB43 DUP8 DUP3 DUP9 ADD PUSH2 0x9C9 JUMP JUMPDEST SWAP2 POP POP SWAP3 SWAP6 SWAP2 SWAP5 POP SWAP3 POP JUMP JUMPDEST PUSH1 0x0 DUP2 ISZERO ISZERO SWAP1 POP SWAP2 SWAP1 POP JUMP JUMPDEST PUSH2 0xB64 DUP2 PUSH2 0xB4F JUMP JUMPDEST DUP3 MSTORE POP POP JUMP JUMPDEST PUSH1 0x0 PUSH1 0x20 DUP3 ADD SWAP1 POP PUSH2 0xB7F PUSH1 0x0 DUP4 ADD DUP5 PUSH2 0xB5B JUMP JUMPDEST SWAP3 SWAP2 POP POP JUMP JUMPDEST PUSH1 0x0 PUSH1 0x40 DUP3 DUP5 SUB SLT ISZERO PUSH2 0xB9B JUMPI PUSH2 0xB9A PUSH2 0x8FD JUMP JUMPDEST JUMPDEST PUSH1 0x0 PUSH2 0xBA9 DUP5 DUP3 DUP6 ADD PUSH2 0x9C9 JUMP JUMPDEST SWAP2 POP POP SWAP3 SWAP2 POP POP JUMP JUMPDEST PUSH1 0x0 DUP3 DUP3 MSTORE PUSH1 0x20 DUP3 ADD SWAP1 POP SWAP3 SWAP2 POP POP JUMP JUMPDEST PUSH32 0x706F696E74206973206E6F74206F6E2074686520637572766500000000000000 PUSH1 0x0 DUP3 ADD MSTORE POP JUMP JUMPDEST PUSH1 0x0 PUSH2 0xBF9 PUSH1 0x19 DUP4 PUSH2 0xBB2 JUMP JUMPDEST SWAP2 POP PUSH2 0xC04 DUP3 PUSH2 0xBC3 JUMP JUMPDEST PUSH1 0x20 DUP3 ADD SWAP1 POP SWAP2 SWAP1 POP JUMP JUMPDEST PUSH1 0x0 PUSH1 0x20 DUP3 ADD SWAP1 POP DUP2 DUP2 SUB PUSH1 0x0 DUP4 ADD MSTORE PUSH2 0xC28 DUP2 PUSH2 0xBEC JUMP JUMPDEST SWAP1 POP SWAP2 SWAP1 POP JUMP JUMPDEST PUSH32 0x5075626C6963206B6579206973206E6F74206F6E207468652063757276650000 PUSH1 0x0 DUP3 ADD MSTORE POP JUMP JUMPDEST PUSH1 0x0 PUSH2 0xC65 PUSH1 0x1E DUP4 PUSH2 0xBB2 JUMP JUMPDEST SWAP2 POP PUSH2 0xC70 DUP3 PUSH2 0xC2F JUMP JUMPDEST PUSH1 0x20 DUP3 ADD SWAP1 POP SWAP2 SWAP1 POP JUMP JUMPDEST PUSH1 0x0 PUSH1 0x20 DUP3 ADD SWAP1 POP DUP2 DUP2 SUB PUSH1 0x0 DUP4 ADD MSTORE PUSH2 0xC94 DUP2 PUSH2 0xC58 JUMP JUMPDEST SWAP1 POP SWAP2 SWAP1 POP JUMP JUMPDEST PUSH32 0x4E487B7100000000000000000000000000000000000000000000000000000000 PUSH1 0x0 MSTORE PUSH1 0x12 PUSH1 0x4 MSTORE PUSH1 0x24 PUSH1 0x0 REVERT JUMPDEST PUSH32 0x4E487B7100000000000000000000000000000000000000000000000000000000 PUSH1 0x0 MSTORE PUSH1 0x11 PUSH1 0x4 MSTORE PUSH1 0x24 PUSH1 0x0 REVERT JUMPDEST PUSH1 0x0 PUSH2 0xD04 DUP3 PUSH2 0x993 JUMP JUMPDEST SWAP2 POP PUSH2 0xD0F DUP4 PUSH2 0x993 JUMP JUMPDEST SWAP3 POP DUP3 PUSH2 0xD1F JUMPI PUSH2 0xD1E PUSH2 0xC9B JUMP JUMPDEST JUMPDEST DUP3 DUP3 DIV SWAP1 POP SWAP3 SWAP2 POP POP JUMP JUMPDEST PUSH1 0x0 PUSH2 0xD35 DUP3 PUSH2 0x993 JUMP JUMPDEST SWAP2 POP PUSH2 0xD40 DUP4 PUSH2 0x993 JUMP JUMPDEST SWAP3 POP DUP3 DUP3 ADD SWAP1 POP DUP1 DUP3 GT ISZERO PUSH2 0xD58 JUMPI PUSH2 0xD57 PUSH2 0xCCA JUMP JUMPDEST JUMPDEST SWAP3 SWAP2 POP POP JUMP JUMPDEST PUSH32 0x57726F6E67207369676E61747572650000000000000000000000000000000000 PUSH1 0x0 DUP3 ADD MSTORE POP JUMP JUMPDEST PUSH1 0x0 PUSH2 0xD94 PUSH1 0xF DUP4 PUSH2 0xBB2 JUMP JUMPDEST SWAP2 POP PUSH2 0xD9F DUP3 PUSH2 0xD5E JUMP JUMPDEST PUSH1 0x20 DUP3 ADD SWAP1 POP SWAP2 SWAP1 POP JUMP JUMPDEST PUSH1 0x0 PUSH1 0x20 DUP3 ADD SWAP1 POP DUP2 DUP2 SUB PUSH1 0x0 DUP4 ADD MSTORE PUSH2 0xDC3 DUP2 PUSH2 0xD87 JUMP JUMPDEST SWAP1 POP SWAP2 SWAP1 POP JUMP JUMPDEST PUSH1 0x0 DUP2 SWAP1 POP SWAP2 SWAP1 POP JUMP JUMPDEST PUSH2 0xDE5 PUSH2 0xDE0 DUP3 PUSH2 0xAB2 JUMP JUMPDEST PUSH2 0xDCA JUMP JUMPDEST DUP3 MSTORE POP POP JUMP JUMPDEST PUSH1 0x0 PUSH2 0xDF7 DUP3 DUP5 PUSH2 0xDD4 JUMP JUMPDEST PUSH1 0x20 DUP3 ADD SWAP2 POP DUP2 SWAP1 POP SWAP3 SWAP2 POP POP JUMP JUMPDEST PUSH1 0x0 DUP2 MLOAD SWAP1 POP SWAP2 SWAP1 POP JUMP JUMPDEST PUSH1 0x0 DUP2 SWAP1 POP SWAP3 SWAP2 POP POP JUMP JUMPDEST PUSH1 0x0 JUMPDEST DUP4 DUP2 LT ISZERO PUSH2 0xE3A JUMPI DUP1 DUP3 ADD MLOAD DUP2 DUP5 ADD MSTORE PUSH1 0x20 DUP2 ADD SWAP1 POP PUSH2 0xE1F JUMP JUMPDEST PUSH1 0x0 DUP5 DUP5 ADD MSTORE POP POP POP POP JUMP JUMPDEST PUSH1 0x0 PUSH2 0xE51 DUP3 PUSH2 0xE06 JUMP JUMPDEST PUSH2 0xE5B DUP2 DUP6 PUSH2 0xE11 JUMP JUMPDEST SWAP4 POP PUSH2 0xE6B DUP2 DUP6 PUSH1 0x20 DUP7 ADD PUSH2 0xE1C JUMP JUMPDEST DUP1 DUP5 ADD SWAP2 POP POP SWAP3 SWAP2 POP POP JUMP JUMPDEST PUSH1 0x0 PUSH2 0xE83 DUP3 DUP5 PUSH2 0xE46 JUMP JUMPDEST SWAP2 POP DUP2 SWAP1 POP SWAP3 SWAP2 POP POP JUMP JUMPDEST PUSH1 0x0 DUP2 MLOAD SWAP1 POP PUSH2 0xE9D DUP2 PUSH2 0xABC JUMP JUMPDEST SWAP3 SWAP2 POP POP JUMP JUMPDEST PUSH1 0x0 PUSH1 0x20 DUP3 DUP5 SUB SLT ISZERO PUSH2 0xEB9 JUMPI PUSH2 0xEB8 PUSH2 0x8FD JUMP JUMPDEST JUMPDEST PUSH1 0x0 PUSH2 0xEC7 DUP5 DUP3 DUP6 ADD PUSH2 0xE8E JUMP JUMPDEST SWAP2 POP POP SWAP3 SWAP2 POP POP JUMP JUMPDEST PUSH1 0x0 PUSH2 0xEDB DUP3 PUSH2 0x993 JUMP JUMPDEST SWAP2 POP PUSH2 0xEE6 DUP4 PUSH2 0x993 JUMP JUMPDEST SWAP3 POP DUP3 PUSH2 0xEF6 JUMPI PUSH2 0xEF5 PUSH2 0xC9B JUMP JUMPDEST JUMPDEST DUP3 DUP3 MOD SWAP1 POP SWAP3 SWAP2 POP POP JUMP JUMPDEST PUSH1 0x0 PUSH2 0xF0C DUP3 PUSH2 0x993 JUMP JUMPDEST SWAP2 POP PUSH2 0xF17 DUP4 PUSH2 0x993 JUMP JUMPDEST SWAP3 POP DUP3 DUP3 SUB SWAP1 POP DUP2 DUP2 GT ISZERO PUSH2 0xF2F JUMPI PUSH2 0xF2E PUSH2 0xCCA JUMP JUMPDEST JUMPDEST SWAP3 SWAP2 POP POP JUMP JUMPDEST PUSH1 0x0 PUSH2 0xF40 DUP3 PUSH2 0x993 JUMP JUMPDEST SWAP2 POP PUSH2 0xF4B DUP4 PUSH2 0x993 JUMP JUMPDEST SWAP3 POP DUP3 DUP3 MUL PUSH2 0xF59 DUP2 PUSH2 0x993 JUMP JUMPDEST SWAP2 POP DUP3 DUP3 DIV DUP5 EQ DUP4 ISZERO OR PUSH2 0xF70 JUMPI PUSH2 0xF6F PUSH2 0xCCA JUMP JUMPDEST JUMPDEST POP SWAP3 SWAP2 POP POP JUMP INVALID LOG2 PUSH5 0x6970667358 0x22 SLT KECCAK256 SMOD BYTE 0xB6 CALLCODE CALLVALUE GASLIMIT BALANCE 0xDB 0x5C PUSH22 0x857741089D206E4970E4C85073421CC5D680C409180D PUSH5 0x736F6C6343 STOP ADDMOD GT STOP CALLER "
				},
				"gasEstimates": {
					"creation": {
						"codeDepositCost": "802600",
						"executionCost": "45137",
						"totalCost": "847737"
					},
					"external": {
						"isOnCurve((uint256,uint256))": "infinite",
						"pointMultiply((uint256,uint256),uint256)": "infinite",
						"verifySignature(bytes32,uint256,uint256,(uint256,uint256))": "infinite"
					},
					"internal": {
						"modDiff(uint256,uint256,uint256)": "infinite",
						"modInverse(uint256,uint256)": "infinite",
						"pointAddition(struct EllipticCurve.Point memory,struct EllipticCurve.Point memory)": "infinite"
					}
				},
				"methodIdentifiers": {
					"isOnCurve((uint256,uint256))": "3a1dd7ac",
					"pointMultiply((uint256,uint256),uint256)": "06ba17bc",
					"verifySignature(bytes32,uint256,uint256,(uint256,uint256))": "32058281"
				}
			},
			"storageLayout": {
				"storage": [
					{
						"astId": 24,
						"contract": "EllipticCurve.sol:EllipticCurve",
						"label": "generator",
						"offset": 0,
						"slot": "0",
						"type": "t_struct(Point)5_storage"
					}
				],
				"types": {
					"t_struct(Point)5_storage": {
						"encoding": "inplace",
						"label": "struct EllipticCurve.Point",
						"members": [
							{
								"astId": 2,
								"contract": "EllipticCurve.sol:EllipticCurve",
								"label": "x",
								"offset": 0,
								"slot": "0",
								"type": "t_uint256"
							},
							{
								"astId": 4,
								"contract": "EllipticCurve.sol:EllipticCurve",
								"label": "y",
								"offset": 0,
								"slot": "1",
								"type": "t_uint256"
							}
						],
						"numberOfBytes": "64"
					},
					"t_uint256": {
						"encoding": "inplace",
						"label": "uint256",
						"numberOfBytes": "32"
					}
				}
			},
			"userdoc": {
				"kind": "user",
				"methods": {},
				"version": 1
			}
		}
	}
}