{
	"SimpleLottery.sol": {
		"SimpleLottery": {
			"abi": [
				{
					"inputs": [
						{
							"internalType": "address",
							"name": "vrfCoordinator",
							"type": "address"
						},
						{
							"internalType": "address",
							"name": "linkToken",
							"type": "address"
						},
						{
							"internalType": "bytes32",
							"name": "_keyHash",
							"type": "bytes32"
						},
						{
							"internalType": "uint256",
							"name": "_fee",
							"type": "uint256"
						},
						{
							"internalType": "uint256",
							"name": "_ticketPrice",
							"type": "uint256"
						}
					],
					"stateMutability": "nonpayable",
					"type": "constructor"
				},
				{
					"anonymous": false,
					"inputs": [
						{
							"indexed": true,
							"internalType": "address",
							"name": "player",
							"type": "address"
						},
						{
							"indexed": false,
							"internalType": "uint256",
							"name": "tickets",
							"type": "uint256"
						}
					],
					"name": "TicketPurchased",
					"type": "event"
				},
				{
					"anonymous": false,
					"inputs": [
						{
							"indexed": true,
							"internalType": "address",
							"name": "winner",
							"type": "address"
						}
					],
					"name": "WinnerDrawn",
					"type": "event"
				},
				{
					"inputs": [
						{
							"internalType": "uint256",
							"name": "numberOfTickets",
							"type": "uint256"
						}
					],
					"name": "buyTicket",
					"outputs": [],
					"stateMutability": "payable",
					"type": "function"
				},
				{
					"inputs": [],
					"name": "drawWinner",
					"outputs": [],
					"stateMutability": "nonpayable",
					"type": "function"
				},
				{
					"inputs": [],
					"name": "getRandomResult",
					"outputs": [
						{
							"internalType": "uint256",
							"name": "",
							"type": "uint256"
						}
					],
					"stateMutability": "view",
					"type": "function"
				},
				{
					"inputs": [],
					"name": "getWinner",
					"outputs": [
						{
							"internalType": "address",
							"name": "",
							"type": "address"
						}
					],
					"stateMutability": "view",
					"type": "function"
				},
				{
					"inputs": [],
					"name": "owner",
					"outputs": [
						{
							"internalType": "address",
							"name": "",
							"type": "address"
						}
					],
					"stateMutability": "view",
					"type": "function"
				},
				{
					"inputs": [
						{
							"internalType": "uint256",
							"name": "",
							"type": "uint256"
						}
					],
					"name": "players",
					"outputs": [
						{
							"internalType": "address",
							"name": "",
							"type": "address"
						}
					],
					"stateMutability": "view",
					"type": "function"
				},
				{
					"inputs": [
						{
							"internalType": "bytes32",
							"name": "requestId",
							"type": "bytes32"
						},
						{
							"internalType": "uint256",
							"name": "randomness",
							"type": "uint256"
						}
					],
					"name": "rawFulfillRandomness",
					"outputs": [],
					"stateMutability": "nonpayable",
					"type": "function"
				},
				{
					"inputs": [],
					"name": "ticketCount",
					"outputs": [
						{
							"internalType": "uint256",
							"name": "",
							"type": "uint256"
						}
					],
					"stateMutability": "view",
					"type": "function"
				},
				{
					"inputs": [],
					"name": "ticketPrice",
					"outputs": [
						{
							"internalType": "uint256",
							"name": "",
							"type": "uint256"
						}
					],
					"stateMutability": "view",
					"type": "function"
				},
				{
					"inputs": [
						{
							"internalType": "address",
							"name": "",
							"type": "address"
						}
					],
					"name": "tickets",
					"outputs": [
						{
							"internalType": "uint256",
							"name": "",
							"type": "uint256"
						}
					],
					"stateMutability": "view",
					"type": "function"
				},
				{
					"inputs": [],
					"name": "winner",
					"outputs": [
						{
							"internalType": "address",
							"name": "",
							"type": "address"
						}
					],
					"stateMutability": "view",
					"type": "function"
				},
				{
					"inputs": [],
					"name": "withdrawLink",
					"outputs": [],
					"stateMutability": "nonpayable",
					"type": "function"
				},
				{
					"inputs": [],
					"name": "withdrawPrize",
					"outputs": [],
					"stateMutability": "nonpayable",
					"type": "function"
				}
			],
			"devdoc": {
				"kind": "dev",
				"methods": {
					"buyTicket(uint256)": {
						"details": "Allows players to purchase tickets for the lottery.",
						"params": {
							"numberOfTickets": "The number of tickets to purchase."
						}
					},
					"constructor": {
						"details": "Initializes the SimpleLottery contract.",
						"params": {
							"_fee": "The fee required to request randomness from Chainlink VRF.",
							"_keyHash": "The Chainlink VRF key hash.",
							"_ticketPrice": "The price per ticket in wei.",
							"linkToken": "The address of the LINK token contract used for payments to Chainlink VRF.",
							"vrfCoordinator": "The address of the Chainlink VRF coordinator contract."
						}
					},
					"drawWinner()": {
						"details": "Draws the winner of the lottery using a random number from Chainlink VRF."
					},
					"getRandomResult()": {
						"details": "Returns the latest random number generated by Chainlink VRF.",
						"returns": {
							"_0": "The latest random number."
						}
					},
					"getWinner()": {
						"details": "Returns the address of the current winner.",
						"returns": {
							"_0": "The address of the winner if the winner has been drawn, otherwise reverts with an error message."
						}
					},
					"withdrawLink()": {
						"details": "Allows the owner to withdraw any remaining LINK tokens in the contract."
					},
					"withdrawPrize()": {
						"details": "Allows the owner to withdraw the prize amount to the winner."
					}
				},
				"title": "SimpleLottery - A simple lottery contract using Chainlink VRF for randomness.",
				"version": 1
			},
			"evm": {
				"assembly": "    /* \"SimpleLottery.sol\":213:7049  contract SimpleLottery is VRFConsumerBase {... */\n  mstore(0x40, 0xc0)\n    /* \"SimpleLottery.sol\":1059:1064  false */\n  0x00\n    /* \"SimpleLottery.sol\":1029:1064  bool private prizeWithdrawn = false */\n  0x0c\n  exp(0x0100, 0x00)\n  dup2\n  sload\n  dup2\n  0xff\n  mul\n  not\n  and\n  swap1\n  dup4\n  iszero\n  iszero\n  mul\n  or\n  swap1\n  sstore\n  pop\n    /* \"SimpleLottery.sol\":1150:1155  false */\n  0x00\n    /* \"SimpleLottery.sol\":1111:1155  bool private randomRequestInProgress = false */\n  0x0c\n  exp(0x0100, 0x01)\n  dup2\n  sload\n  dup2\n  0xff\n  mul\n  not\n  and\n  swap1\n  dup4\n  iszero\n  iszero\n  mul\n  or\n  swap1\n  sstore\n  pop\n    /* \"SimpleLottery.sol\":1801:2129  constructor(... */\n  callvalue\n  dup1\n  iszero\n  tag_1\n  jumpi\n  0x00\n  dup1\n  revert\ntag_1:\n  pop\n  mload(0x40)\n  sub(codesize, bytecodeSize)\n  dup1\n  bytecodeSize\n  dup4\n  codecopy\n  dup2\n  dup2\n  add\n  0x40\n  mstore\n  dup2\n  add\n  swap1\n  tag_2\n  swap2\n  swap1\n  tag_3\n  jump\t// in\ntag_2:\n    /* \"SimpleLottery.sol\":1978:1992  vrfCoordinator */\n  dup5\n    /* \"SimpleLottery.sol\":1994:2003  linkToken */\n  dup5\n    /* \"@chainlink/contracts/src/v0.8/VRFConsumerBase.sol\":9323:9338  _vrfCoordinator */\n  dup2\n    /* \"@chainlink/contracts/src/v0.8/VRFConsumerBase.sol\":9306:9338  vrfCoordinator = _vrfCoordinator */\n  0xffffffffffffffffffffffffffffffffffffffff\n  and\n  0xa0\n  dup2\n  0xffffffffffffffffffffffffffffffffffffffff\n  and\n  dup2\n  mstore\n  pop\n  pop\n    /* \"@chainlink/contracts/src/v0.8/VRFConsumerBase.sol\":9370:9375  _link */\n  dup1\n    /* \"@chainlink/contracts/src/v0.8/VRFConsumerBase.sol\":9344:9376  LINK = LinkTokenInterface(_link) */\n  0xffffffffffffffffffffffffffffffffffffffff\n  and\n  0x80\n  dup2\n  0xffffffffffffffffffffffffffffffffffffffff\n  and\n  dup2\n  mstore\n  pop\n  pop\n    /* \"@chainlink/contracts/src/v0.8/VRFConsumerBase.sol\":9248:9381  constructor(address _vrfCoordinator, address _link) {... */\n  pop\n  pop\n    /* \"SimpleLottery.sol\":2024:2034  msg.sender */\n  caller\n    /* \"SimpleLottery.sol\":2016:2021  owner */\n  0x01\n  0x00\n    /* \"SimpleLottery.sol\":2016:2034  owner = msg.sender */\n  0x0100\n  exp\n  dup2\n  sload\n  dup2\n  0xffffffffffffffffffffffffffffffffffffffff\n  mul\n  not\n  and\n  swap1\n  dup4\n  0xffffffffffffffffffffffffffffffffffffffff\n  and\n  mul\n  or\n  swap1\n  sstore\n  pop\n    /* \"SimpleLottery.sol\":2055:2063  _keyHash */\n  dup3\n    /* \"SimpleLottery.sol\":2045:2052  keyHash */\n  0x06\n    /* \"SimpleLottery.sol\":2045:2063  keyHash = _keyHash */\n  dup2\n  swap1\n  sstore\n  pop\n    /* \"SimpleLottery.sol\":2080:2084  _fee */\n  dup2\n    /* \"SimpleLottery.sol\":2074:2077  fee */\n  0x07\n    /* \"SimpleLottery.sol\":2074:2084  fee = _fee */\n  dup2\n  swap1\n  sstore\n  pop\n    /* \"SimpleLottery.sol\":2109:2121  _ticketPrice */\n  dup1\n    /* \"SimpleLottery.sol\":2095:2106  ticketPrice */\n  0x02\n    /* \"SimpleLottery.sol\":2095:2121  ticketPrice = _ticketPrice */\n  dup2\n  swap1\n  sstore\n  pop\n    /* \"SimpleLottery.sol\":1801:2129  constructor(... */\n  pop\n  pop\n  pop\n  pop\n  pop\n    /* \"SimpleLottery.sol\":213:7049  contract SimpleLottery is VRFConsumerBase {... */\n  jump(tag_8)\n    /* \"#utility.yul\":88:205   */\ntag_10:\n    /* \"#utility.yul\":197:198   */\n  0x00\n    /* \"#utility.yul\":194:195   */\n  dup1\n    /* \"#utility.yul\":187:199   */\n  revert\n    /* \"#utility.yul\":334:460   */\ntag_12:\n    /* \"#utility.yul\":371:378   */\n  0x00\n    /* \"#utility.yul\":411:453   */\n  0xffffffffffffffffffffffffffffffffffffffff\n    /* \"#utility.yul\":404:409   */\n  dup3\n    /* \"#utility.yul\":400:454   */\n  and\n    /* \"#utility.yul\":389:454   */\n  swap1\n  pop\n    /* \"#utility.yul\":334:460   */\n  swap2\n  swap1\n  pop\n  jump\t// out\n    /* \"#utility.yul\":466:562   */\ntag_13:\n    /* \"#utility.yul\":503:510   */\n  0x00\n    /* \"#utility.yul\":532:556   */\n  tag_28\n    /* \"#utility.yul\":550:555   */\n  dup3\n    /* \"#utility.yul\":532:556   */\n  tag_12\n  jump\t// in\ntag_28:\n    /* \"#utility.yul\":521:556   */\n  swap1\n  pop\n    /* \"#utility.yul\":466:562   */\n  swap2\n  swap1\n  pop\n  jump\t// out\n    /* \"#utility.yul\":568:690   */\ntag_14:\n    /* \"#utility.yul\":641:665   */\n  tag_30\n    /* \"#utility.yul\":659:664   */\n  dup2\n    /* \"#utility.yul\":641:665   */\n  tag_13\n  jump\t// in\ntag_30:\n    /* \"#utility.yul\":634:639   */\n  dup2\n    /* \"#utility.yul\":631:666   */\n  eq\n    /* \"#utility.yul\":621:684   */\n  tag_31\n  jumpi\n    /* \"#utility.yul\":680:681   */\n  0x00\n    /* \"#utility.yul\":677:678   */\n  dup1\n    /* \"#utility.yul\":670:682   */\n  revert\n    /* \"#utility.yul\":621:684   */\ntag_31:\n    /* \"#utility.yul\":568:690   */\n  pop\n  jump\t// out\n    /* \"#utility.yul\":696:839   */\ntag_15:\n    /* \"#utility.yul\":753:758   */\n  0x00\n    /* \"#utility.yul\":784:790   */\n  dup2\n    /* \"#utility.yul\":778:791   */\n  mload\n    /* \"#utility.yul\":769:791   */\n  swap1\n  pop\n    /* \"#utility.yul\":800:833   */\n  tag_33\n    /* \"#utility.yul\":827:832   */\n  dup2\n    /* \"#utility.yul\":800:833   */\n  tag_14\n  jump\t// in\ntag_33:\n    /* \"#utility.yul\":696:839   */\n  swap3\n  swap2\n  pop\n  pop\n  jump\t// out\n    /* \"#utility.yul\":845:922   */\ntag_16:\n    /* \"#utility.yul\":882:889   */\n  0x00\n    /* \"#utility.yul\":911:916   */\n  dup2\n    /* \"#utility.yul\":900:916   */\n  swap1\n  pop\n    /* \"#utility.yul\":845:922   */\n  swap2\n  swap1\n  pop\n  jump\t// out\n    /* \"#utility.yul\":928:1050   */\ntag_17:\n    /* \"#utility.yul\":1001:1025   */\n  tag_36\n    /* \"#utility.yul\":1019:1024   */\n  dup2\n    /* \"#utility.yul\":1001:1025   */\n  tag_16\n  jump\t// in\ntag_36:\n    /* \"#utility.yul\":994:999   */\n  dup2\n    /* \"#utility.yul\":991:1026   */\n  eq\n    /* \"#utility.yul\":981:1044   */\n  tag_37\n  jumpi\n    /* \"#utility.yul\":1040:1041   */\n  0x00\n    /* \"#utility.yul\":1037:1038   */\n  dup1\n    /* \"#utility.yul\":1030:1042   */\n  revert\n    /* \"#utility.yul\":981:1044   */\ntag_37:\n    /* \"#utility.yul\":928:1050   */\n  pop\n  jump\t// out\n    /* \"#utility.yul\":1056:1199   */\ntag_18:\n    /* \"#utility.yul\":1113:1118   */\n  0x00\n    /* \"#utility.yul\":1144:1150   */\n  dup2\n    /* \"#utility.yul\":1138:1151   */\n  mload\n    /* \"#utility.yul\":1129:1151   */\n  swap1\n  pop\n    /* \"#utility.yul\":1160:1193   */\n  tag_39\n    /* \"#utility.yul\":1187:1192   */\n  dup2\n    /* \"#utility.yul\":1160:1193   */\n  tag_17\n  jump\t// in\ntag_39:\n    /* \"#utility.yul\":1056:1199   */\n  swap3\n  swap2\n  pop\n  pop\n  jump\t// out\n    /* \"#utility.yul\":1205:1282   */\ntag_19:\n    /* \"#utility.yul\":1242:1249   */\n  0x00\n    /* \"#utility.yul\":1271:1276   */\n  dup2\n    /* \"#utility.yul\":1260:1276   */\n  swap1\n  pop\n    /* \"#utility.yul\":1205:1282   */\n  swap2\n  swap1\n  pop\n  jump\t// out\n    /* \"#utility.yul\":1288:1410   */\ntag_20:\n    /* \"#utility.yul\":1361:1385   */\n  tag_42\n    /* \"#utility.yul\":1379:1384   */\n  dup2\n    /* \"#utility.yul\":1361:1385   */\n  tag_19\n  jump\t// in\ntag_42:\n    /* \"#utility.yul\":1354:1359   */\n  dup2\n    /* \"#utility.yul\":1351:1386   */\n  eq\n    /* \"#utility.yul\":1341:1404   */\n  tag_43\n  jumpi\n    /* \"#utility.yul\":1400:1401   */\n  0x00\n    /* \"#utility.yul\":1397:1398   */\n  dup1\n    /* \"#utility.yul\":1390:1402   */\n  revert\n    /* \"#utility.yul\":1341:1404   */\ntag_43:\n    /* \"#utility.yul\":1288:1410   */\n  pop\n  jump\t// out\n    /* \"#utility.yul\":1416:1559   */\ntag_21:\n    /* \"#utility.yul\":1473:1478   */\n  0x00\n    /* \"#utility.yul\":1504:1510   */\n  dup2\n    /* \"#utility.yul\":1498:1511   */\n  mload\n    /* \"#utility.yul\":1489:1511   */\n  swap1\n  pop\n    /* \"#utility.yul\":1520:1553   */\n  tag_45\n    /* \"#utility.yul\":1547:1552   */\n  dup2\n    /* \"#utility.yul\":1520:1553   */\n  tag_20\n  jump\t// in\ntag_45:\n    /* \"#utility.yul\":1416:1559   */\n  swap3\n  swap2\n  pop\n  pop\n  jump\t// out\n    /* \"#utility.yul\":1565:2542   */\ntag_3:\n    /* \"#utility.yul\":1671:1677   */\n  0x00\n    /* \"#utility.yul\":1679:1685   */\n  dup1\n    /* \"#utility.yul\":1687:1693   */\n  0x00\n    /* \"#utility.yul\":1695:1701   */\n  dup1\n    /* \"#utility.yul\":1703:1709   */\n  0x00\n    /* \"#utility.yul\":1752:1755   */\n  0xa0\n    /* \"#utility.yul\":1740:1749   */\n  dup7\n    /* \"#utility.yul\":1731:1738   */\n  dup9\n    /* \"#utility.yul\":1727:1750   */\n  sub\n    /* \"#utility.yul\":1723:1756   */\n  slt\n    /* \"#utility.yul\":1720:1840   */\n  iszero\n  tag_47\n  jumpi\n    /* \"#utility.yul\":1759:1838   */\n  tag_48\n  tag_10\n  jump\t// in\ntag_48:\n    /* \"#utility.yul\":1720:1840   */\ntag_47:\n    /* \"#utility.yul\":1879:1880   */\n  0x00\n    /* \"#utility.yul\":1904:1968   */\n  tag_49\n    /* \"#utility.yul\":1960:1967   */\n  dup9\n    /* \"#utility.yul\":1951:1957   */\n  dup3\n    /* \"#utility.yul\":1940:1949   */\n  dup10\n    /* \"#utility.yul\":1936:1958   */\n  add\n    /* \"#utility.yul\":1904:1968   */\n  tag_15\n  jump\t// in\ntag_49:\n    /* \"#utility.yul\":1894:1968   */\n  swap6\n  pop\n    /* \"#utility.yul\":1850:1978   */\n  pop\n    /* \"#utility.yul\":2017:2019   */\n  0x20\n    /* \"#utility.yul\":2043:2107   */\n  tag_50\n    /* \"#utility.yul\":2099:2106   */\n  dup9\n    /* \"#utility.yul\":2090:2096   */\n  dup3\n    /* \"#utility.yul\":2079:2088   */\n  dup10\n    /* \"#utility.yul\":2075:2097   */\n  add\n    /* \"#utility.yul\":2043:2107   */\n  tag_15\n  jump\t// in\ntag_50:\n    /* \"#utility.yul\":2033:2107   */\n  swap5\n  pop\n    /* \"#utility.yul\":1988:2117   */\n  pop\n    /* \"#utility.yul\":2156:2158   */\n  0x40\n    /* \"#utility.yul\":2182:2246   */\n  tag_51\n    /* \"#utility.yul\":2238:2245   */\n  dup9\n    /* \"#utility.yul\":2229:2235   */\n  dup3\n    /* \"#utility.yul\":2218:2227   */\n  dup10\n    /* \"#utility.yul\":2214:2236   */\n  add\n    /* \"#utility.yul\":2182:2246   */\n  tag_18\n  jump\t// in\ntag_51:\n    /* \"#utility.yul\":2172:2246   */\n  swap4\n  pop\n    /* \"#utility.yul\":2127:2256   */\n  pop\n    /* \"#utility.yul\":2295:2297   */\n  0x60\n    /* \"#utility.yul\":2321:2385   */\n  tag_52\n    /* \"#utility.yul\":2377:2384   */\n  dup9\n    /* \"#utility.yul\":2368:2374   */\n  dup3\n    /* \"#utility.yul\":2357:2366   */\n  dup10\n    /* \"#utility.yul\":2353:2375   */\n  add\n    /* \"#utility.yul\":2321:2385   */\n  tag_21\n  jump\t// in\ntag_52:\n    /* \"#utility.yul\":2311:2385   */\n  swap3\n  pop\n    /* \"#utility.yul\":2266:2395   */\n  pop\n    /* \"#utility.yul\":2434:2437   */\n  0x80\n    /* \"#utility.yul\":2461:2525   */\n  tag_53\n    /* \"#utility.yul\":2517:2524   */\n  dup9\n    /* \"#utility.yul\":2508:2514   */\n  dup3\n    /* \"#utility.yul\":2497:2506   */\n  dup10\n    /* \"#utility.yul\":2493:2515   */\n  add\n    /* \"#utility.yul\":2461:2525   */\n  tag_21\n  jump\t// in\ntag_53:\n    /* \"#utility.yul\":2451:2525   */\n  swap2\n  pop\n    /* \"#utility.yul\":2405:2535   */\n  pop\n    /* \"#utility.yul\":1565:2542   */\n  swap3\n  swap6\n  pop\n  swap3\n  swap6\n  swap1\n  swap4\n  pop\n  jump\t// out\n    /* \"SimpleLottery.sol\":213:7049  contract SimpleLottery is VRFConsumerBase {... */\ntag_8:\n  mload(0x80)\n  mload(0xa0)\n  codecopy(0x00, dataOffset(sub_0), dataSize(sub_0))\n  0x00\n  assignImmutable(\"0x6dbb33232cde86c8a04f90a8bed9fc1c5ef520188a14538d96eb100d69bc2a94\")\n  0x00\n  assignImmutable(\"0xb2219b801710730437d0358146c829b62297a059eceaa0b40b27aea2daecf595\")\n  return(0x00, dataSize(sub_0))\nstop\n\nsub_0: assembly {\n        /* \"SimpleLottery.sol\":213:7049  contract SimpleLottery is VRFConsumerBase {... */\n      mstore(0x40, 0x80)\n      jumpi(tag_1, lt(calldatasize, 0x04))\n      shr(0xe0, calldataload(0x00))\n      dup1\n      0x8dc654a2\n      gt\n      tag_15\n      jumpi\n      dup1\n      0xb2185bb1\n      gt\n      tag_16\n      jumpi\n      dup1\n      0xb2185bb1\n      eq\n      tag_11\n      jumpi\n      dup1\n      0xcfbd900f\n      eq\n      tag_12\n      jumpi\n      dup1\n      0xdfbf53ae\n      eq\n      tag_13\n      jumpi\n      dup1\n      0xf71d96cb\n      eq\n      tag_14\n      jumpi\n      jump(tag_1)\n    tag_16:\n      dup1\n      0x8dc654a2\n      eq\n      tag_8\n      jumpi\n      dup1\n      0x8e7ea5b2\n      eq\n      tag_9\n      jumpi\n      dup1\n      0x94985ddd\n      eq\n      tag_10\n      jumpi\n      jump(tag_1)\n    tag_15:\n      dup1\n      0x1209b1f6\n      eq\n      tag_2\n      jumpi\n      dup1\n      0x48d37a58\n      eq\n      tag_3\n      jumpi\n      dup1\n      0x67dd74ca\n      eq\n      tag_4\n      jumpi\n      dup1\n      0x6dcbf2a3\n      eq\n      tag_5\n      jumpi\n      dup1\n      0x7390c786\n      eq\n      tag_6\n      jumpi\n      dup1\n      0x8da5cb5b\n      eq\n      tag_7\n      jumpi\n    tag_1:\n      0x00\n      dup1\n      revert\n        /* \"SimpleLottery.sol\":314:340  uint256 public ticketPrice */\n    tag_2:\n      callvalue\n      dup1\n      iszero\n      tag_17\n      jumpi\n      0x00\n      dup1\n      revert\n    tag_17:\n      pop\n      tag_18\n      tag_19\n      jump\t// in\n    tag_18:\n      mload(0x40)\n      tag_20\n      swap2\n      swap1\n      tag_21\n      jump\t// in\n    tag_20:\n      mload(0x40)\n      dup1\n      swap2\n      sub\n      swap1\n      return\n        /* \"SimpleLottery.sol\":4729:5226  function withdrawPrize() external onlyOwner {... */\n    tag_3:\n      callvalue\n      dup1\n      iszero\n      tag_22\n      jumpi\n      0x00\n      dup1\n      revert\n    tag_22:\n      pop\n      tag_23\n      tag_24\n      jump\t// in\n    tag_23:\n      stop\n        /* \"SimpleLottery.sol\":2646:3489  function buyTicket(uint256 numberOfTickets) external payable {... */\n    tag_4:\n      tag_25\n      0x04\n      dup1\n      calldatasize\n      sub\n      dup2\n      add\n      swap1\n      tag_26\n      swap2\n      swap1\n      tag_27\n      jump\t// in\n    tag_26:\n      tag_28\n      jump\t// in\n    tag_25:\n      stop\n        /* \"SimpleLottery.sol\":802:844  mapping(address => uint256) public tickets */\n    tag_5:\n      callvalue\n      dup1\n      iszero\n      tag_29\n      jumpi\n      0x00\n      dup1\n      revert\n    tag_29:\n      pop\n      tag_30\n      0x04\n      dup1\n      calldatasize\n      sub\n      dup2\n      add\n      swap1\n      tag_31\n      swap2\n      swap1\n      tag_32\n      jump\t// in\n    tag_31:\n      tag_33\n      jump\t// in\n    tag_30:\n      mload(0x40)\n      tag_34\n      swap2\n      swap1\n      tag_21\n      jump\t// in\n    tag_34:\n      mload(0x40)\n      dup1\n      swap2\n      sub\n      swap1\n      return\n        /* \"SimpleLottery.sol\":6949:7046  function getRandomResult() external view returns (uint256) {... */\n    tag_6:\n      callvalue\n      dup1\n      iszero\n      tag_35\n      jumpi\n      0x00\n      dup1\n      revert\n    tag_35:\n      pop\n      tag_36\n      tag_37\n      jump\t// in\n    tag_36:\n      mload(0x40)\n      tag_38\n      swap2\n      swap1\n      tag_21\n      jump\t// in\n    tag_38:\n      mload(0x40)\n      dup1\n      swap2\n      sub\n      swap1\n      return\n        /* \"SimpleLottery.sol\":262:282  address public owner */\n    tag_7:\n      callvalue\n      dup1\n      iszero\n      tag_39\n      jumpi\n      0x00\n      dup1\n      revert\n    tag_39:\n      pop\n      tag_40\n      tag_41\n      jump\t// in\n    tag_40:\n      mload(0x40)\n      tag_42\n      swap2\n      swap1\n      tag_43\n      jump\t// in\n    tag_42:\n      mload(0x40)\n      dup1\n      swap2\n      sub\n      swap1\n      return\n        /* \"SimpleLottery.sol\":4407:4567  function withdrawLink() external onlyOwner {... */\n    tag_8:\n      callvalue\n      dup1\n      iszero\n      tag_44\n      jumpi\n      0x00\n      dup1\n      revert\n    tag_44:\n      pop\n      tag_45\n      tag_46\n      jump\t// in\n    tag_45:\n      stop\n        /* \"SimpleLottery.sol\":4155:4313  function getWinner() external view returns (address) {... */\n    tag_9:\n      callvalue\n      dup1\n      iszero\n      tag_47\n      jumpi\n      0x00\n      dup1\n      revert\n    tag_47:\n      pop\n      tag_48\n      tag_49\n      jump\t// in\n    tag_48:\n      mload(0x40)\n      tag_50\n      swap2\n      swap1\n      tag_43\n      jump\t// in\n    tag_50:\n      mload(0x40)\n      dup1\n      swap2\n      sub\n      swap1\n      return\n        /* \"@chainlink/contracts/src/v0.8/VRFConsumerBase.sol\":9576:9783  function rawFulfillRandomness(bytes32 requestId, uint256 randomness) external {... */\n    tag_10:\n      callvalue\n      dup1\n      iszero\n      tag_51\n      jumpi\n      0x00\n      dup1\n      revert\n    tag_51:\n      pop\n      tag_52\n      0x04\n      dup1\n      calldatasize\n      sub\n      dup2\n      add\n      swap1\n      tag_53\n      swap2\n      swap1\n      tag_54\n      jump\t// in\n    tag_53:\n      tag_55\n      jump\t// in\n    tag_52:\n      stop\n        /* \"SimpleLottery.sol\":3695:3974  function drawWinner() external onlyOwner notWinnerSelected {... */\n    tag_11:\n      callvalue\n      dup1\n      iszero\n      tag_56\n      jumpi\n      0x00\n      dup1\n      revert\n    tag_56:\n      pop\n      tag_57\n      tag_58\n      jump\t// in\n    tag_57:\n      stop\n        /* \"SimpleLottery.sol\":374:400  uint256 public ticketCount */\n    tag_12:\n      callvalue\n      dup1\n      iszero\n      tag_59\n      jumpi\n      0x00\n      dup1\n      revert\n    tag_59:\n      pop\n      tag_60\n      tag_61\n      jump\t// in\n    tag_60:\n      mload(0x40)\n      tag_62\n      swap2\n      swap1\n      tag_21\n      jump\t// in\n    tag_62:\n      mload(0x40)\n      dup1\n      swap2\n      sub\n      swap1\n      return\n        /* \"SimpleLottery.sol\":439:460  address public winner */\n    tag_13:\n      callvalue\n      dup1\n      iszero\n      tag_63\n      jumpi\n      0x00\n      dup1\n      revert\n    tag_63:\n      pop\n      tag_64\n      tag_65\n      jump\t// in\n    tag_64:\n      mload(0x40)\n      tag_66\n      swap2\n      swap1\n      tag_43\n      jump\t// in\n    tag_66:\n      mload(0x40)\n      dup1\n      swap2\n      sub\n      swap1\n      return\n        /* \"SimpleLottery.sol\":666:690  address[] public players */\n    tag_14:\n      callvalue\n      dup1\n      iszero\n      tag_67\n      jumpi\n      0x00\n      dup1\n      revert\n    tag_67:\n      pop\n      tag_68\n      0x04\n      dup1\n      calldatasize\n      sub\n      dup2\n      add\n      swap1\n      tag_69\n      swap2\n      swap1\n      tag_27\n      jump\t// in\n    tag_69:\n      tag_70\n      jump\t// in\n    tag_68:\n      mload(0x40)\n      tag_71\n      swap2\n      swap1\n      tag_43\n      jump\t// in\n    tag_71:\n      mload(0x40)\n      dup1\n      swap2\n      sub\n      swap1\n      return\n        /* \"SimpleLottery.sol\":314:340  uint256 public ticketPrice */\n    tag_19:\n      sload(0x02)\n      dup2\n      jump\t// out\n        /* \"SimpleLottery.sol\":4729:5226  function withdrawPrize() external onlyOwner {... */\n    tag_24:\n        /* \"SimpleLottery.sol\":2191:2196  owner */\n      0x01\n      0x00\n      swap1\n      sload\n      swap1\n      0x0100\n      exp\n      swap1\n      div\n      0xffffffffffffffffffffffffffffffffffffffff\n      and\n        /* \"SimpleLottery.sol\":2177:2196  msg.sender == owner */\n      0xffffffffffffffffffffffffffffffffffffffff\n      and\n        /* \"SimpleLottery.sol\":2177:2187  msg.sender */\n      caller\n        /* \"SimpleLottery.sol\":2177:2196  msg.sender == owner */\n      0xffffffffffffffffffffffffffffffffffffffff\n      and\n      eq\n        /* \"SimpleLottery.sol\":2169:2238  require(msg.sender == owner, \"Only the owner can call this function\") */\n      tag_73\n      jumpi\n      mload(0x40)\n      0x08c379a000000000000000000000000000000000000000000000000000000000\n      dup2\n      mstore\n      0x04\n      add\n      tag_74\n      swap1\n      tag_75\n      jump\t// in\n    tag_74:\n      mload(0x40)\n      dup1\n      swap2\n      sub\n      swap1\n      revert\n    tag_73:\n        /* \"SimpleLottery.sol\":4810:4811  0 */\n      0x00\n        /* \"SimpleLottery.sol\":4792:4812  winner != address(0) */\n      0xffffffffffffffffffffffffffffffffffffffff\n      and\n        /* \"SimpleLottery.sol\":4792:4798  winner */\n      0x04\n      0x00\n      swap1\n      sload\n      swap1\n      0x0100\n      exp\n      swap1\n      div\n      0xffffffffffffffffffffffffffffffffffffffff\n      and\n        /* \"SimpleLottery.sol\":4792:4812  winner != address(0) */\n      0xffffffffffffffffffffffffffffffffffffffff\n      and\n      sub\n        /* \"SimpleLottery.sol\":4784:4846  require(winner != address(0), \"Winner has not been drawn yet\") */\n      tag_77\n      jumpi\n      mload(0x40)\n      0x08c379a000000000000000000000000000000000000000000000000000000000\n      dup2\n      mstore\n      0x04\n      add\n      tag_78\n      swap1\n      tag_79\n      jump\t// in\n    tag_78:\n      mload(0x40)\n      dup1\n      swap2\n      sub\n      swap1\n      revert\n    tag_77:\n        /* \"SimpleLottery.sol\":4866:4880  prizeWithdrawn */\n      0x0c\n      0x00\n      swap1\n      sload\n      swap1\n      0x0100\n      exp\n      swap1\n      div\n      0xff\n      and\n        /* \"SimpleLottery.sol\":4865:4880  !prizeWithdrawn */\n      iszero\n        /* \"SimpleLottery.sol\":4857:4917  require(!prizeWithdrawn, \"Prize has already been withdrawn\") */\n      tag_80\n      jumpi\n      mload(0x40)\n      0x08c379a000000000000000000000000000000000000000000000000000000000\n      dup2\n      mstore\n      0x04\n      add\n      tag_81\n      swap1\n      tag_82\n      jump\t// in\n    tag_81:\n      mload(0x40)\n      dup1\n      swap2\n      sub\n      swap1\n      revert\n    tag_80:\n        /* \"SimpleLottery.sol\":4930:4949  uint256 prizeAmount */\n      0x00\n        /* \"SimpleLottery.sol\":4966:4977  ticketCount */\n      sload(0x03)\n        /* \"SimpleLottery.sol\":4952:4963  ticketPrice */\n      sload(0x02)\n        /* \"SimpleLottery.sol\":4952:4977  ticketPrice * ticketCount */\n      tag_83\n      swap2\n      swap1\n      tag_84\n      jump\t// in\n    tag_83:\n        /* \"SimpleLottery.sol\":4930:4977  uint256 prizeAmount = ticketPrice * ticketCount */\n      swap1\n      pop\n        /* \"SimpleLottery.sol\":5051:5062  prizeAmount */\n      dup1\n        /* \"SimpleLottery.sol\":5026:5047  address(this).balance */\n      selfbalance\n        /* \"SimpleLottery.sol\":5026:5062  address(this).balance >= prizeAmount */\n      lt\n      iszero\n        /* \"SimpleLottery.sol\":5018:5100  require(address(this).balance >= prizeAmount, \"Not enough Ether to pay the prize\") */\n      tag_85\n      jumpi\n      mload(0x40)\n      0x08c379a000000000000000000000000000000000000000000000000000000000\n      dup2\n      mstore\n      0x04\n      add\n      tag_86\n      swap1\n      tag_87\n      jump\t// in\n    tag_86:\n      mload(0x40)\n      dup1\n      swap2\n      sub\n      swap1\n      revert\n    tag_85:\n        /* \"SimpleLottery.sol\":5121:5127  winner */\n      0x04\n      0x00\n      swap1\n      sload\n      swap1\n      0x0100\n      exp\n      swap1\n      div\n      0xffffffffffffffffffffffffffffffffffffffff\n      and\n        /* \"SimpleLottery.sol\":5113:5137  payable(winner).transfer */\n      0xffffffffffffffffffffffffffffffffffffffff\n      and\n        /* \"SimpleLottery.sol\":5113:5150  payable(winner).transfer(prizeAmount) */\n      0x08fc\n        /* \"SimpleLottery.sol\":5138:5149  prizeAmount */\n      dup3\n        /* \"SimpleLottery.sol\":5113:5150  payable(winner).transfer(prizeAmount) */\n      swap1\n      dup2\n      iszero\n      mul\n      swap1\n      mload(0x40)\n      0x00\n      mload(0x40)\n      dup1\n      dup4\n      sub\n      dup2\n      dup6\n      dup9\n      dup9\n      call\n      swap4\n      pop\n      pop\n      pop\n      pop\n      iszero\n      dup1\n      iszero\n      tag_89\n      jumpi\n      returndatasize\n      0x00\n      dup1\n      returndatacopy\n      revert(0x00, returndatasize)\n    tag_89:\n      pop\n        /* \"SimpleLottery.sol\":5214:5218  true */\n      0x01\n        /* \"SimpleLottery.sol\":5197:5211  prizeWithdrawn */\n      0x0c\n      0x00\n        /* \"SimpleLottery.sol\":5197:5218  prizeWithdrawn = true */\n      0x0100\n      exp\n      dup2\n      sload\n      dup2\n      0xff\n      mul\n      not\n      and\n      swap1\n      dup4\n      iszero\n      iszero\n      mul\n      or\n      swap1\n      sstore\n      pop\n        /* \"SimpleLottery.sol\":4773:5226  {... */\n      pop\n        /* \"SimpleLottery.sol\":4729:5226  function withdrawPrize() external onlyOwner {... */\n      jump\t// out\n        /* \"SimpleLottery.sol\":2646:3489  function buyTicket(uint256 numberOfTickets) external payable {... */\n    tag_28:\n        /* \"SimpleLottery.sol\":2744:2745  0 */\n      0x00\n        /* \"SimpleLottery.sol\":2726:2741  numberOfTickets */\n      dup2\n        /* \"SimpleLottery.sol\":2726:2745  numberOfTickets > 0 */\n      gt\n        /* \"SimpleLottery.sol\":2718:2792  require(numberOfTickets > 0, \"Number of tickets should be greater than 0\") */\n      tag_91\n      jumpi\n      mload(0x40)\n      0x08c379a000000000000000000000000000000000000000000000000000000000\n      dup2\n      mstore\n      0x04\n      add\n      tag_92\n      swap1\n      tag_93\n      jump\t// in\n    tag_92:\n      mload(0x40)\n      dup1\n      swap2\n      sub\n      swap1\n      revert\n    tag_91:\n        /* \"SimpleLottery.sol\":2838:2853  numberOfTickets */\n      dup1\n        /* \"SimpleLottery.sol\":2824:2835  ticketPrice */\n      sload(0x02)\n        /* \"SimpleLottery.sol\":2824:2853  ticketPrice * numberOfTickets */\n      tag_94\n      swap2\n      swap1\n      tag_84\n      jump\t// in\n    tag_94:\n        /* \"SimpleLottery.sol\":2811:2820  msg.value */\n      callvalue\n        /* \"SimpleLottery.sol\":2811:2853  msg.value >= ticketPrice * numberOfTickets */\n      lt\n      iszero\n        /* \"SimpleLottery.sol\":2803:2879  require(msg.value >= ticketPrice * numberOfTickets, \"Not enough ether sent\") */\n      tag_95\n      jumpi\n      mload(0x40)\n      0x08c379a000000000000000000000000000000000000000000000000000000000\n      dup2\n      mstore\n      0x04\n      add\n      tag_96\n      swap1\n      tag_97\n      jump\t// in\n    tag_96:\n      mload(0x40)\n      dup1\n      swap2\n      sub\n      swap1\n      revert\n    tag_95:\n        /* \"SimpleLottery.sol\":2937:2952  numberOfTickets */\n      dup1\n        /* \"SimpleLottery.sol\":2923:2934  ticketPrice */\n      sload(0x02)\n        /* \"SimpleLottery.sol\":2923:2952  ticketPrice * numberOfTickets */\n      tag_98\n      swap2\n      swap1\n      tag_84\n      jump\t// in\n    tag_98:\n        /* \"SimpleLottery.sol\":2898:2919  address(this).balance */\n      selfbalance\n        /* \"SimpleLottery.sol\":2898:2952  address(this).balance >= ticketPrice * numberOfTickets */\n      lt\n      iszero\n        /* \"SimpleLottery.sol\":2890:2988  require(address(this).balance >= ticketPrice * numberOfTickets, \"Contract has insufficient funds\") */\n      tag_99\n      jumpi\n      mload(0x40)\n      0x08c379a000000000000000000000000000000000000000000000000000000000\n      dup2\n      mstore\n      0x04\n      add\n      tag_100\n      swap1\n      tag_101\n      jump\t// in\n    tag_100:\n      mload(0x40)\n      dup1\n      swap2\n      sub\n      swap1\n      revert\n    tag_99:\n        /* \"SimpleLottery.sol\":3024:3039  numberOfTickets */\n      dup1\n        /* \"SimpleLottery.sol\":3001:3008  tickets */\n      0x0a\n        /* \"SimpleLottery.sol\":3001:3020  tickets[msg.sender] */\n      0x00\n        /* \"SimpleLottery.sol\":3009:3019  msg.sender */\n      caller\n        /* \"SimpleLottery.sol\":3001:3020  tickets[msg.sender] */\n      0xffffffffffffffffffffffffffffffffffffffff\n      and\n      0xffffffffffffffffffffffffffffffffffffffff\n      and\n      dup2\n      mstore\n      0x20\n      add\n      swap1\n      dup2\n      mstore\n      0x20\n      add\n      0x00\n      keccak256\n      0x00\n        /* \"SimpleLottery.sol\":3001:3039  tickets[msg.sender] += numberOfTickets */\n      dup3\n      dup3\n      sload\n      tag_102\n      swap2\n      swap1\n      tag_103\n      jump\t// in\n    tag_102:\n      swap3\n      pop\n      pop\n      dup2\n      swap1\n      sstore\n      pop\n        /* \"SimpleLottery.sol\":3110:3123  uniquePlayers */\n      0x0b\n        /* \"SimpleLottery.sol\":3110:3135  uniquePlayers[msg.sender] */\n      0x00\n        /* \"SimpleLottery.sol\":3124:3134  msg.sender */\n      caller\n        /* \"SimpleLottery.sol\":3110:3135  uniquePlayers[msg.sender] */\n      0xffffffffffffffffffffffffffffffffffffffff\n      and\n      0xffffffffffffffffffffffffffffffffffffffff\n      and\n      dup2\n      mstore\n      0x20\n      add\n      swap1\n      dup2\n      mstore\n      0x20\n      add\n      0x00\n      keccak256\n      0x00\n      swap1\n      sload\n      swap1\n      0x0100\n      exp\n      swap1\n      div\n      0xff\n      and\n        /* \"SimpleLottery.sol\":3106:3334  if(!uniquePlayers[msg.sender]){ // If the player is not added to the array yet... */\n      tag_104\n      jumpi\n        /* \"SimpleLottery.sol\":3198:3205  players */\n      0x08\n        /* \"SimpleLottery.sol\":3211:3221  msg.sender */\n      caller\n        /* \"SimpleLottery.sol\":3198:3222  players.push(msg.sender) */\n      swap1\n      dup1\n      0x01\n      dup2\n      sload\n      add\n      dup1\n      dup3\n      sstore\n      dup1\n      swap2\n      pop\n      pop\n      0x01\n      swap1\n      sub\n      swap1\n      0x00\n      mstore\n      keccak256(0x00, 0x20)\n      add\n      0x00\n      swap1\n      swap2\n      swap1\n      swap2\n      swap1\n      swap2\n      0x0100\n      exp\n      dup2\n      sload\n      dup2\n      0xffffffffffffffffffffffffffffffffffffffff\n      mul\n      not\n      and\n      swap1\n      dup4\n      0xffffffffffffffffffffffffffffffffffffffff\n      and\n      mul\n      or\n      swap1\n      sstore\n      pop\n        /* \"SimpleLottery.sol\":3295:3299  true */\n      0x01\n        /* \"SimpleLottery.sol\":3267:3280  uniquePlayers */\n      0x0b\n        /* \"SimpleLottery.sol\":3267:3292  uniquePlayers[msg.sender] */\n      0x00\n        /* \"SimpleLottery.sol\":3281:3291  msg.sender */\n      caller\n        /* \"SimpleLottery.sol\":3267:3292  uniquePlayers[msg.sender] */\n      0xffffffffffffffffffffffffffffffffffffffff\n      and\n      0xffffffffffffffffffffffffffffffffffffffff\n      and\n      dup2\n      mstore\n      0x20\n      add\n      swap1\n      dup2\n      mstore\n      0x20\n      add\n      0x00\n      keccak256\n      0x00\n        /* \"SimpleLottery.sol\":3267:3299  uniquePlayers[msg.sender] = true */\n      0x0100\n      exp\n      dup2\n      sload\n      dup2\n      0xff\n      mul\n      not\n      and\n      swap1\n      dup4\n      iszero\n      iszero\n      mul\n      or\n      swap1\n      sstore\n      pop\n        /* \"SimpleLottery.sol\":3106:3334  if(!uniquePlayers[msg.sender]){ // If the player is not added to the array yet... */\n    tag_104:\n        /* \"SimpleLottery.sol\":3359:3374  numberOfTickets */\n      dup1\n        /* \"SimpleLottery.sol\":3344:3355  ticketCount */\n      0x03\n      0x00\n        /* \"SimpleLottery.sol\":3344:3374  ticketCount += numberOfTickets */\n      dup3\n      dup3\n      sload\n      tag_106\n      swap2\n      swap1\n      tag_103\n      jump\t// in\n    tag_106:\n      swap3\n      pop\n      pop\n      dup2\n      swap1\n      sstore\n      pop\n        /* \"SimpleLottery.sol\":3453:3463  msg.sender */\n      caller\n        /* \"SimpleLottery.sol\":3437:3481  TicketPurchased(msg.sender, numberOfTickets) */\n      0xffffffffffffffffffffffffffffffffffffffff\n      and\n      0x0668f5b446eb814fe35b3206f43f14bd8567ba04ddaf7a3ee56516929ab22ccb\n        /* \"SimpleLottery.sol\":3465:3480  numberOfTickets */\n      dup3\n        /* \"SimpleLottery.sol\":3437:3481  TicketPurchased(msg.sender, numberOfTickets) */\n      mload(0x40)\n      tag_107\n      swap2\n      swap1\n      tag_21\n      jump\t// in\n    tag_107:\n      mload(0x40)\n      dup1\n      swap2\n      sub\n      swap1\n      log2\n        /* \"SimpleLottery.sol\":2646:3489  function buyTicket(uint256 numberOfTickets) external payable {... */\n      pop\n      jump\t// out\n        /* \"SimpleLottery.sol\":802:844  mapping(address => uint256) public tickets */\n    tag_33:\n      mstore(0x20, 0x0a)\n      dup1\n      0x00\n      mstore\n      keccak256(0x00, 0x40)\n      0x00\n      swap2\n      pop\n      swap1\n      pop\n      sload\n      dup2\n      jump\t// out\n        /* \"SimpleLottery.sol\":6949:7046  function getRandomResult() external view returns (uint256) {... */\n    tag_37:\n        /* \"SimpleLottery.sol\":6999:7006  uint256 */\n      0x00\n        /* \"SimpleLottery.sol\":7026:7038  randomResult */\n      sload(0x05)\n        /* \"SimpleLottery.sol\":7019:7038  return randomResult */\n      swap1\n      pop\n        /* \"SimpleLottery.sol\":6949:7046  function getRandomResult() external view returns (uint256) {... */\n      swap1\n      jump\t// out\n        /* \"SimpleLottery.sol\":262:282  address public owner */\n    tag_41:\n      0x01\n      0x00\n      swap1\n      sload\n      swap1\n      0x0100\n      exp\n      swap1\n      div\n      0xffffffffffffffffffffffffffffffffffffffff\n      and\n      dup2\n      jump\t// out\n        /* \"SimpleLottery.sol\":4407:4567  function withdrawLink() external onlyOwner {... */\n    tag_46:\n        /* \"SimpleLottery.sol\":2191:2196  owner */\n      0x01\n      0x00\n      swap1\n      sload\n      swap1\n      0x0100\n      exp\n      swap1\n      div\n      0xffffffffffffffffffffffffffffffffffffffff\n      and\n        /* \"SimpleLottery.sol\":2177:2196  msg.sender == owner */\n      0xffffffffffffffffffffffffffffffffffffffff\n      and\n        /* \"SimpleLottery.sol\":2177:2187  msg.sender */\n      caller\n        /* \"SimpleLottery.sol\":2177:2196  msg.sender == owner */\n      0xffffffffffffffffffffffffffffffffffffffff\n      and\n      eq\n        /* \"SimpleLottery.sol\":2169:2238  require(msg.sender == owner, \"Only the owner can call this function\") */\n      tag_110\n      jumpi\n      mload(0x40)\n      0x08c379a000000000000000000000000000000000000000000000000000000000\n      dup2\n      mstore\n      0x04\n      add\n      tag_111\n      swap1\n      tag_75\n      jump\t// in\n    tag_111:\n      mload(0x40)\n      dup1\n      swap2\n      sub\n      swap1\n      revert\n    tag_110:\n        /* \"SimpleLottery.sol\":4461:4465  LINK */\n      immutable(\"0xb2219b801710730437d0358146c829b62297a059eceaa0b40b27aea2daecf595\")\n        /* \"SimpleLottery.sol\":4461:4474  LINK.transfer */\n      0xffffffffffffffffffffffffffffffffffffffff\n      and\n      0xa9059cbb\n        /* \"SimpleLottery.sol\":4475:4480  owner */\n      0x01\n      0x00\n      swap1\n      sload\n      swap1\n      0x0100\n      exp\n      swap1\n      div\n      0xffffffffffffffffffffffffffffffffffffffff\n      and\n        /* \"SimpleLottery.sol\":4482:4486  LINK */\n      immutable(\"0xb2219b801710730437d0358146c829b62297a059eceaa0b40b27aea2daecf595\")\n        /* \"SimpleLottery.sol\":4482:4496  LINK.balanceOf */\n      0xffffffffffffffffffffffffffffffffffffffff\n      and\n      0x70a08231\n        /* \"SimpleLottery.sol\":4505:4509  this */\n      address\n        /* \"SimpleLottery.sol\":4482:4511  LINK.balanceOf(address(this)) */\n      mload(0x40)\n      dup3\n      0xffffffff\n      and\n      0xe0\n      shl\n      dup2\n      mstore\n      0x04\n      add\n      tag_113\n      swap2\n      swap1\n      tag_43\n      jump\t// in\n    tag_113:\n      0x20\n      mload(0x40)\n      dup1\n      dup4\n      sub\n      dup2\n      dup7\n      gas\n      staticcall\n      iszero\n      dup1\n      iszero\n      tag_115\n      jumpi\n      returndatasize\n      0x00\n      dup1\n      returndatacopy\n      revert(0x00, returndatasize)\n    tag_115:\n      pop\n      pop\n      pop\n      pop\n      mload(0x40)\n      returndatasize\n      not(0x1f)\n      0x1f\n      dup3\n      add\n      and\n      dup3\n      add\n      dup1\n      0x40\n      mstore\n      pop\n      dup2\n      add\n      swap1\n      tag_116\n      swap2\n      swap1\n      tag_117\n      jump\t// in\n    tag_116:\n        /* \"SimpleLottery.sol\":4461:4512  LINK.transfer(owner, LINK.balanceOf(address(this))) */\n      mload(0x40)\n      dup4\n      0xffffffff\n      and\n      0xe0\n      shl\n      dup2\n      mstore\n      0x04\n      add\n      tag_118\n      swap3\n      swap2\n      swap1\n      tag_119\n      jump\t// in\n    tag_118:\n      0x20\n      mload(0x40)\n      dup1\n      dup4\n      sub\n      dup2\n      0x00\n      dup8\n      gas\n      call\n      iszero\n      dup1\n      iszero\n      tag_121\n      jumpi\n      returndatasize\n      0x00\n      dup1\n      returndatacopy\n      revert(0x00, returndatasize)\n    tag_121:\n      pop\n      pop\n      pop\n      pop\n      mload(0x40)\n      returndatasize\n      not(0x1f)\n      0x1f\n      dup3\n      add\n      and\n      dup3\n      add\n      dup1\n      0x40\n      mstore\n      pop\n      dup2\n      add\n      swap1\n      tag_122\n      swap2\n      swap1\n      tag_123\n      jump\t// in\n    tag_122:\n      pop\n        /* \"SimpleLottery.sol\":4407:4567  function withdrawLink() external onlyOwner {... */\n      jump\t// out\n        /* \"SimpleLottery.sol\":4155:4313  function getWinner() external view returns (address) {... */\n    tag_49:\n        /* \"SimpleLottery.sol\":4199:4206  address */\n      0x00\n        /* \"SimpleLottery.sol\":4245:4246  0 */\n      dup1\n        /* \"SimpleLottery.sol\":4227:4247  winner != address(0) */\n      0xffffffffffffffffffffffffffffffffffffffff\n      and\n        /* \"SimpleLottery.sol\":4227:4233  winner */\n      0x04\n      0x00\n      swap1\n      sload\n      swap1\n      0x0100\n      exp\n      swap1\n      div\n      0xffffffffffffffffffffffffffffffffffffffff\n      and\n        /* \"SimpleLottery.sol\":4227:4247  winner != address(0) */\n      0xffffffffffffffffffffffffffffffffffffffff\n      and\n      sub\n        /* \"SimpleLottery.sol\":4219:4281  require(winner != address(0), \"Winner has not been drawn yet\") */\n      tag_125\n      jumpi\n      mload(0x40)\n      0x08c379a000000000000000000000000000000000000000000000000000000000\n      dup2\n      mstore\n      0x04\n      add\n      tag_126\n      swap1\n      tag_79\n      jump\t// in\n    tag_126:\n      mload(0x40)\n      dup1\n      swap2\n      sub\n      swap1\n      revert\n    tag_125:\n        /* \"SimpleLottery.sol\":4299:4305  winner */\n      0x04\n      0x00\n      swap1\n      sload\n      swap1\n      0x0100\n      exp\n      swap1\n      div\n      0xffffffffffffffffffffffffffffffffffffffff\n      and\n        /* \"SimpleLottery.sol\":4292:4305  return winner */\n      swap1\n      pop\n        /* \"SimpleLottery.sol\":4155:4313  function getWinner() external view returns (address) {... */\n      swap1\n      jump\t// out\n        /* \"@chainlink/contracts/src/v0.8/VRFConsumerBase.sol\":9576:9783  function rawFulfillRandomness(bytes32 requestId, uint256 randomness) external {... */\n    tag_55:\n        /* \"@chainlink/contracts/src/v0.8/VRFConsumerBase.sol\":9682:9696  vrfCoordinator */\n      immutable(\"0x6dbb33232cde86c8a04f90a8bed9fc1c5ef520188a14538d96eb100d69bc2a94\")\n        /* \"@chainlink/contracts/src/v0.8/VRFConsumerBase.sol\":9668:9696  msg.sender == vrfCoordinator */\n      0xffffffffffffffffffffffffffffffffffffffff\n      and\n        /* \"@chainlink/contracts/src/v0.8/VRFConsumerBase.sol\":9668:9678  msg.sender */\n      caller\n        /* \"@chainlink/contracts/src/v0.8/VRFConsumerBase.sol\":9668:9696  msg.sender == vrfCoordinator */\n      0xffffffffffffffffffffffffffffffffffffffff\n      and\n      eq\n        /* \"@chainlink/contracts/src/v0.8/VRFConsumerBase.sol\":9660:9732  require(msg.sender == vrfCoordinator, \"Only VRFCoordinator can fulfill\") */\n      tag_128\n      jumpi\n      mload(0x40)\n      0x08c379a000000000000000000000000000000000000000000000000000000000\n      dup2\n      mstore\n      0x04\n      add\n      tag_129\n      swap1\n      tag_130\n      jump\t// in\n    tag_129:\n      mload(0x40)\n      dup1\n      swap2\n      sub\n      swap1\n      revert\n    tag_128:\n        /* \"@chainlink/contracts/src/v0.8/VRFConsumerBase.sol\":9738:9778  fulfillRandomness(requestId, randomness) */\n      tag_131\n        /* \"@chainlink/contracts/src/v0.8/VRFConsumerBase.sol\":9756:9765  requestId */\n      dup3\n        /* \"@chainlink/contracts/src/v0.8/VRFConsumerBase.sol\":9767:9777  randomness */\n      dup3\n        /* \"@chainlink/contracts/src/v0.8/VRFConsumerBase.sol\":9738:9755  fulfillRandomness */\n      tag_132\n        /* \"@chainlink/contracts/src/v0.8/VRFConsumerBase.sol\":9738:9778  fulfillRandomness(requestId, randomness) */\n      jump\t// in\n    tag_131:\n        /* \"@chainlink/contracts/src/v0.8/VRFConsumerBase.sol\":9576:9783  function rawFulfillRandomness(bytes32 requestId, uint256 randomness) external {... */\n      pop\n      pop\n      jump\t// out\n        /* \"SimpleLottery.sol\":3695:3974  function drawWinner() external onlyOwner notWinnerSelected {... */\n    tag_58:\n        /* \"SimpleLottery.sol\":2191:2196  owner */\n      0x01\n      0x00\n      swap1\n      sload\n      swap1\n      0x0100\n      exp\n      swap1\n      div\n      0xffffffffffffffffffffffffffffffffffffffff\n      and\n        /* \"SimpleLottery.sol\":2177:2196  msg.sender == owner */\n      0xffffffffffffffffffffffffffffffffffffffff\n      and\n        /* \"SimpleLottery.sol\":2177:2187  msg.sender */\n      caller\n        /* \"SimpleLottery.sol\":2177:2196  msg.sender == owner */\n      0xffffffffffffffffffffffffffffffffffffffff\n      and\n      eq\n        /* \"SimpleLottery.sol\":2169:2238  require(msg.sender == owner, \"Only the owner can call this function\") */\n      tag_134\n      jumpi\n      mload(0x40)\n      0x08c379a000000000000000000000000000000000000000000000000000000000\n      dup2\n      mstore\n      0x04\n      add\n      tag_135\n      swap1\n      tag_75\n      jump\t// in\n    tag_135:\n      mload(0x40)\n      dup1\n      swap2\n      sub\n      swap1\n      revert\n    tag_134:\n        /* \"SimpleLottery.sol\":2332:2333  0 */\n      0x00\n        /* \"SimpleLottery.sol\":2314:2334  winner == address(0) */\n      0xffffffffffffffffffffffffffffffffffffffff\n      and\n        /* \"SimpleLottery.sol\":2314:2320  winner */\n      0x04\n      0x00\n      swap1\n      sload\n      swap1\n      0x0100\n      exp\n      swap1\n      div\n      0xffffffffffffffffffffffffffffffffffffffff\n      and\n        /* \"SimpleLottery.sol\":2314:2334  winner == address(0) */\n      0xffffffffffffffffffffffffffffffffffffffff\n      and\n      eq\n        /* \"SimpleLottery.sol\":2306:2362  require(winner == address(0), \"Winner already selected\") */\n      tag_137\n      jumpi\n      mload(0x40)\n      0x08c379a000000000000000000000000000000000000000000000000000000000\n      dup2\n      mstore\n      0x04\n      add\n      tag_138\n      swap1\n      tag_139\n      jump\t// in\n    tag_138:\n      mload(0x40)\n      dup1\n      swap2\n      sub\n      swap1\n      revert\n    tag_137:\n        /* \"SimpleLottery.sol\":3783:3784  0 */\n      0x00\n        /* \"SimpleLottery.sol\":3769:3780  ticketCount */\n      sload(0x03)\n        /* \"SimpleLottery.sol\":3769:3784  ticketCount > 0 */\n      gt\n        /* \"SimpleLottery.sol\":3761:3813  require(ticketCount > 0, \"No tickets purchased yet\") */\n      tag_141\n      jumpi\n      mload(0x40)\n      0x08c379a000000000000000000000000000000000000000000000000000000000\n      dup2\n      mstore\n      0x04\n      add\n      tag_142\n      swap1\n      tag_143\n      jump\t// in\n    tag_142:\n      mload(0x40)\n      dup1\n      swap2\n      sub\n      swap1\n      revert\n    tag_141:\n        /* \"SimpleLottery.sol\":3829:3852  randomRequestInProgress */\n      0x0c\n      0x01\n      swap1\n      sload\n      swap1\n      0x0100\n      exp\n      swap1\n      div\n      0xff\n      and\n        /* \"SimpleLottery.sol\":3828:3852  !randomRequestInProgress */\n      iszero\n        /* \"SimpleLottery.sol\":3820:3898  require(!randomRequestInProgress, \"Random number request already in progress\") */\n      tag_144\n      jumpi\n      mload(0x40)\n      0x08c379a000000000000000000000000000000000000000000000000000000000\n      dup2\n      mstore\n      0x04\n      add\n      tag_145\n      swap1\n      tag_146\n      jump\t// in\n    tag_145:\n      mload(0x40)\n      dup1\n      swap2\n      sub\n      swap1\n      revert\n    tag_144:\n        /* \"SimpleLottery.sol\":3907:3924  getRandomNumber() */\n      tag_147\n        /* \"SimpleLottery.sol\":3907:3922  getRandomNumber */\n      tag_148\n        /* \"SimpleLottery.sol\":3907:3924  getRandomNumber() */\n      jump\t// in\n    tag_147:\n        /* \"SimpleLottery.sol\":3695:3974  function drawWinner() external onlyOwner notWinnerSelected {... */\n      jump\t// out\n        /* \"SimpleLottery.sol\":374:400  uint256 public ticketCount */\n    tag_61:\n      sload(0x03)\n      dup2\n      jump\t// out\n        /* \"SimpleLottery.sol\":439:460  address public winner */\n    tag_65:\n      0x04\n      0x00\n      swap1\n      sload\n      swap1\n      0x0100\n      exp\n      swap1\n      div\n      0xffffffffffffffffffffffffffffffffffffffff\n      and\n      dup2\n      jump\t// out\n        /* \"SimpleLottery.sol\":666:690  address[] public players */\n    tag_70:\n      0x08\n      dup2\n      dup2\n      sload\n      dup2\n      lt\n      tag_149\n      jumpi\n      0x00\n      dup1\n      revert\n    tag_149:\n      swap1\n      0x00\n      mstore\n      keccak256(0x00, 0x20)\n      add\n      0x00\n      swap2\n      pop\n      sload\n      swap1\n      0x0100\n      exp\n      swap1\n      div\n      0xffffffffffffffffffffffffffffffffffffffff\n      and\n      dup2\n      jump\t// out\n        /* \"SimpleLottery.sol\":6143:6823  function fulfillRandomness(bytes32 requestId, uint256 randomness) internal override {... */\n    tag_132:\n        /* \"SimpleLottery.sol\":6347:6366  requestRandomnessId */\n      sload(0x09)\n        /* \"SimpleLottery.sol\":6334:6343  requestId */\n      dup3\n        /* \"SimpleLottery.sol\":6334:6366  requestId == requestRandomnessId */\n      eq\n        /* \"SimpleLottery.sol\":6326:6386  require(requestId == requestRandomnessId, \"Wrong requestId\") */\n      tag_152\n      jumpi\n      mload(0x40)\n      0x08c379a000000000000000000000000000000000000000000000000000000000\n      dup2\n      mstore\n      0x04\n      add\n      tag_153\n      swap1\n      tag_154\n      jump\t// in\n    tag_153:\n      mload(0x40)\n      dup1\n      swap2\n      sub\n      swap1\n      revert\n    tag_152:\n        /* \"SimpleLottery.sol\":6418:6419  0 */\n      0x00\n        /* \"SimpleLottery.sol\":6405:6415  randomness */\n      dup2\n        /* \"SimpleLottery.sol\":6405:6419  randomness > 0 */\n      gt\n        /* \"SimpleLottery.sol\":6397:6451  require(randomness > 0, \"Random number not generated\") */\n      tag_155\n      jumpi\n      mload(0x40)\n      0x08c379a000000000000000000000000000000000000000000000000000000000\n      dup2\n      mstore\n      0x04\n      add\n      tag_156\n      swap1\n      tag_157\n      jump\t// in\n    tag_156:\n      mload(0x40)\n      dup1\n      swap2\n      sub\n      swap1\n      revert\n    tag_155:\n        /* \"SimpleLottery.sol\":6477:6487  randomness */\n      dup1\n        /* \"SimpleLottery.sol\":6462:6474  randomResult */\n      0x05\n        /* \"SimpleLottery.sol\":6462:6487  randomResult = randomness */\n      dup2\n      swap1\n      sstore\n      pop\n        /* \"SimpleLottery.sol\":6543:6562  uint256 winnerIndex */\n      0x00\n        /* \"SimpleLottery.sol\":6578:6585  players */\n      0x08\n        /* \"SimpleLottery.sol\":6578:6592  players.length */\n      dup1\n      sload\n      swap1\n      pop\n        /* \"SimpleLottery.sol\":6565:6575  randomness */\n      dup3\n        /* \"SimpleLottery.sol\":6565:6592  randomness % players.length */\n      tag_158\n      swap2\n      swap1\n      tag_159\n      jump\t// in\n    tag_158:\n        /* \"SimpleLottery.sol\":6543:6592  uint256 winnerIndex = randomness % players.length */\n      swap1\n      pop\n        /* \"SimpleLottery.sol\":6653:6660  players */\n      0x08\n        /* \"SimpleLottery.sol\":6661:6672  winnerIndex */\n      dup2\n        /* \"SimpleLottery.sol\":6653:6673  players[winnerIndex] */\n      dup2\n      sload\n      dup2\n      lt\n      tag_160\n      jumpi\n      tag_161\n      tag_162\n      jump\t// in\n    tag_161:\n    tag_160:\n      swap1\n      0x00\n      mstore\n      keccak256(0x00, 0x20)\n      add\n      0x00\n      swap1\n      sload\n      swap1\n      0x0100\n      exp\n      swap1\n      div\n      0xffffffffffffffffffffffffffffffffffffffff\n      and\n        /* \"SimpleLottery.sol\":6644:6650  winner */\n      0x04\n      0x00\n        /* \"SimpleLottery.sol\":6644:6673  winner = players[winnerIndex] */\n      0x0100\n      exp\n      dup2\n      sload\n      dup2\n      0xffffffffffffffffffffffffffffffffffffffff\n      mul\n      not\n      and\n      swap1\n      dup4\n      0xffffffffffffffffffffffffffffffffffffffff\n      and\n      mul\n      or\n      swap1\n      sstore\n      pop\n        /* \"SimpleLottery.sol\":6745:6751  winner */\n      0x04\n      0x00\n      swap1\n      sload\n      swap1\n      0x0100\n      exp\n      swap1\n      div\n      0xffffffffffffffffffffffffffffffffffffffff\n      and\n        /* \"SimpleLottery.sol\":6733:6752  WinnerDrawn(winner) */\n      0xffffffffffffffffffffffffffffffffffffffff\n      and\n      0xb1899e5911a12372a7fa329d3051f8358e8f5156f66bcf69707ea096419681b7\n      mload(0x40)\n      mload(0x40)\n      dup1\n      swap2\n      sub\n      swap1\n      log2\n        /* \"SimpleLottery.sol\":6791:6796  false */\n      0x00\n        /* \"SimpleLottery.sol\":6765:6788  randomRequestInProgress */\n      0x0c\n      0x01\n        /* \"SimpleLottery.sol\":6765:6796  randomRequestInProgress = false */\n      0x0100\n      exp\n      dup2\n      sload\n      dup2\n      0xff\n      mul\n      not\n      and\n      swap1\n      dup4\n      iszero\n      iszero\n      mul\n      or\n      swap1\n      sstore\n      pop\n        /* \"SimpleLottery.sol\":6227:6823  {... */\n      pop\n        /* \"SimpleLottery.sol\":6143:6823  function fulfillRandomness(bytes32 requestId, uint256 randomness) internal override {... */\n      pop\n      pop\n      jump\t// out\n        /* \"SimpleLottery.sol\":5299:5892  function getRandomNumber() internal  {... */\n    tag_148:\n        /* \"SimpleLottery.sol\":5388:5391  fee */\n      sload(0x07)\n        /* \"SimpleLottery.sol\":5355:5359  LINK */\n      immutable(\"0xb2219b801710730437d0358146c829b62297a059eceaa0b40b27aea2daecf595\")\n        /* \"SimpleLottery.sol\":5355:5369  LINK.balanceOf */\n      0xffffffffffffffffffffffffffffffffffffffff\n      and\n      0x70a08231\n        /* \"SimpleLottery.sol\":5378:5382  this */\n      address\n        /* \"SimpleLottery.sol\":5355:5384  LINK.balanceOf(address(this)) */\n      mload(0x40)\n      dup3\n      0xffffffff\n      and\n      0xe0\n      shl\n      dup2\n      mstore\n      0x04\n      add\n      tag_165\n      swap2\n      swap1\n      tag_43\n      jump\t// in\n    tag_165:\n      0x20\n      mload(0x40)\n      dup1\n      dup4\n      sub\n      dup2\n      dup7\n      gas\n      staticcall\n      iszero\n      dup1\n      iszero\n      tag_167\n      jumpi\n      returndatasize\n      0x00\n      dup1\n      returndatacopy\n      revert(0x00, returndatasize)\n    tag_167:\n      pop\n      pop\n      pop\n      pop\n      mload(0x40)\n      returndatasize\n      not(0x1f)\n      0x1f\n      dup3\n      add\n      and\n      dup3\n      add\n      dup1\n      0x40\n      mstore\n      pop\n      dup2\n      add\n      swap1\n      tag_168\n      swap2\n      swap1\n      tag_117\n      jump\t// in\n    tag_168:\n        /* \"SimpleLottery.sol\":5355:5391  LINK.balanceOf(address(this)) >= fee */\n      lt\n      iszero\n        /* \"SimpleLottery.sol\":5347:5422  require(LINK.balanceOf(address(this)) >= fee, \"Not enough LINK to pay fee\") */\n      tag_169\n      jumpi\n      mload(0x40)\n      0x08c379a000000000000000000000000000000000000000000000000000000000\n      dup2\n      mstore\n      0x04\n      add\n      tag_170\n      swap1\n      tag_171\n      jump\t// in\n    tag_170:\n      mload(0x40)\n      dup1\n      swap2\n      sub\n      swap1\n      revert\n    tag_169:\n        /* \"SimpleLottery.sol\":5460:5461  0 */\n      0x00\n        /* \"SimpleLottery.sol\":5452:5462  bytes32(0) */\n      dup1\n      shl\n        /* \"SimpleLottery.sol\":5441:5448  keyHash */\n      sload(0x06)\n        /* \"SimpleLottery.sol\":5441:5462  keyHash != bytes32(0) */\n      sub\n        /* \"SimpleLottery.sol\":5433:5490  require(keyHash != bytes32(0), \"Must have valid keyHash\") */\n      tag_172\n      jumpi\n      mload(0x40)\n      0x08c379a000000000000000000000000000000000000000000000000000000000\n      dup2\n      mstore\n      0x04\n      add\n      tag_173\n      swap1\n      tag_174\n      jump\t// in\n    tag_173:\n      mload(0x40)\n      dup1\n      swap2\n      sub\n      swap1\n      revert\n    tag_172:\n        /* \"SimpleLottery.sol\":5523:5524  0 */\n      0x00\n        /* \"SimpleLottery.sol\":5509:5520  ticketCount */\n      sload(0x03)\n        /* \"SimpleLottery.sol\":5509:5524  ticketCount > 0 */\n      gt\n        /* \"SimpleLottery.sol\":5501:5553  require(ticketCount > 0, \"No tickets purchased yet\") */\n      tag_175\n      jumpi\n      mload(0x40)\n      0x08c379a000000000000000000000000000000000000000000000000000000000\n      dup2\n      mstore\n      0x04\n      add\n      tag_176\n      swap1\n      tag_143\n      jump\t// in\n    tag_176:\n      mload(0x40)\n      dup1\n      swap2\n      sub\n      swap1\n      revert\n    tag_175:\n        /* \"SimpleLottery.sol\":5573:5596  randomRequestInProgress */\n      0x0c\n      0x01\n      swap1\n      sload\n      swap1\n      0x0100\n      exp\n      swap1\n      div\n      0xff\n      and\n        /* \"SimpleLottery.sol\":5572:5596  !randomRequestInProgress */\n      iszero\n        /* \"SimpleLottery.sol\":5564:5642  require(!randomRequestInProgress, \"Random number request already in progress\") */\n      tag_177\n      jumpi\n      mload(0x40)\n      0x08c379a000000000000000000000000000000000000000000000000000000000\n      dup2\n      mstore\n      0x04\n      add\n      tag_178\n      swap1\n      tag_146\n      jump\t// in\n    tag_178:\n      mload(0x40)\n      dup1\n      swap2\n      sub\n      swap1\n      revert\n    tag_177:\n        /* \"SimpleLottery.sol\":5655:5672  bytes32 requestId */\n      0x00\n        /* \"SimpleLottery.sol\":5675:5706  requestRandomness(keyHash, fee) */\n      tag_179\n        /* \"SimpleLottery.sol\":5693:5700  keyHash */\n      sload(0x06)\n        /* \"SimpleLottery.sol\":5702:5705  fee */\n      sload(0x07)\n        /* \"SimpleLottery.sol\":5675:5692  requestRandomness */\n      tag_180\n        /* \"SimpleLottery.sol\":5675:5706  requestRandomness(keyHash, fee) */\n      jump\t// in\n    tag_179:\n        /* \"SimpleLottery.sol\":5655:5706  bytes32 requestId = requestRandomness(keyHash, fee) */\n      swap1\n      pop\n        /* \"SimpleLottery.sol\":5785:5794  requestId */\n      dup1\n        /* \"SimpleLottery.sol\":5763:5782  requestRandomnessId */\n      0x09\n        /* \"SimpleLottery.sol\":5763:5794  requestRandomnessId = requestId */\n      dup2\n      swap1\n      sstore\n      pop\n        /* \"SimpleLottery.sol\":5880:5884  true */\n      0x01\n        /* \"SimpleLottery.sol\":5854:5877  randomRequestInProgress */\n      0x0c\n      0x01\n        /* \"SimpleLottery.sol\":5854:5884  randomRequestInProgress = true */\n      0x0100\n      exp\n      dup2\n      sload\n      dup2\n      0xff\n      mul\n      not\n      and\n      swap1\n      dup4\n      iszero\n      iszero\n      mul\n      or\n      swap1\n      sstore\n      pop\n        /* \"SimpleLottery.sol\":5336:5892  {... */\n      pop\n        /* \"SimpleLottery.sol\":5299:5892  function getRandomNumber() internal  {... */\n      jump\t// out\n        /* \"@chainlink/contracts/src/v0.8/VRFConsumerBase.sol\":7732:8752  function requestRandomness(bytes32 _keyHash, uint256 _fee) internal returns (bytes32 requestId) {... */\n    tag_180:\n        /* \"@chainlink/contracts/src/v0.8/VRFConsumerBase.sol\":7809:7826  bytes32 requestId */\n      0x00\n        /* \"@chainlink/contracts/src/v0.8/VRFConsumerBase.sol\":7834:7838  LINK */\n      immutable(\"0xb2219b801710730437d0358146c829b62297a059eceaa0b40b27aea2daecf595\")\n        /* \"@chainlink/contracts/src/v0.8/VRFConsumerBase.sol\":7834:7854  LINK.transferAndCall */\n      0xffffffffffffffffffffffffffffffffffffffff\n      and\n      0x4000aea0\n        /* \"@chainlink/contracts/src/v0.8/VRFConsumerBase.sol\":7855:7869  vrfCoordinator */\n      immutable(\"0x6dbb33232cde86c8a04f90a8bed9fc1c5ef520188a14538d96eb100d69bc2a94\")\n        /* \"@chainlink/contracts/src/v0.8/VRFConsumerBase.sol\":7871:7875  _fee */\n      dup5\n        /* \"@chainlink/contracts/src/v0.8/VRFConsumerBase.sol\":7888:7896  _keyHash */\n      dup7\n        /* \"@chainlink/contracts/src/v0.8/VRFConsumerBase.sol\":6589:6590  0 */\n      0x00\n        /* \"@chainlink/contracts/src/v0.8/VRFConsumerBase.sol\":7877:7920  abi.encode(_keyHash, USER_SEED_PLACEHOLDER) */\n      add(0x20, mload(0x40))\n      tag_182\n      swap3\n      swap2\n      swap1\n      tag_183\n      jump\t// in\n    tag_182:\n      mload(0x40)\n      0x20\n      dup2\n      dup4\n      sub\n      sub\n      dup2\n      mstore\n      swap1\n      0x40\n      mstore\n        /* \"@chainlink/contracts/src/v0.8/VRFConsumerBase.sol\":7834:7921  LINK.transferAndCall(vrfCoordinator, _fee, abi.encode(_keyHash, USER_SEED_PLACEHOLDER)) */\n      mload(0x40)\n      dup5\n      0xffffffff\n      and\n      0xe0\n      shl\n      dup2\n      mstore\n      0x04\n      add\n      tag_184\n      swap4\n      swap3\n      swap2\n      swap1\n      tag_185\n      jump\t// in\n    tag_184:\n      0x20\n      mload(0x40)\n      dup1\n      dup4\n      sub\n      dup2\n      0x00\n      dup8\n      gas\n      call\n      iszero\n      dup1\n      iszero\n      tag_187\n      jumpi\n      returndatasize\n      0x00\n      dup1\n      returndatacopy\n      revert(0x00, returndatasize)\n    tag_187:\n      pop\n      pop\n      pop\n      pop\n      mload(0x40)\n      returndatasize\n      not(0x1f)\n      0x1f\n      dup3\n      add\n      and\n      dup3\n      add\n      dup1\n      0x40\n      mstore\n      pop\n      dup2\n      add\n      swap1\n      tag_188\n      swap2\n      swap1\n      tag_123\n      jump\t// in\n    tag_188:\n      pop\n        /* \"@chainlink/contracts/src/v0.8/VRFConsumerBase.sol\":8152:8167  uint256 vRFSeed */\n      0x00\n        /* \"@chainlink/contracts/src/v0.8/VRFConsumerBase.sol\":8170:8252  makeVRFInputSeed(_keyHash, USER_SEED_PLACEHOLDER, address(this), nonces[_keyHash]) */\n      tag_189\n        /* \"@chainlink/contracts/src/v0.8/VRFConsumerBase.sol\":8187:8195  _keyHash */\n      dup5\n        /* \"@chainlink/contracts/src/v0.8/VRFConsumerBase.sol\":6589:6590  0 */\n      0x00\n        /* \"@chainlink/contracts/src/v0.8/VRFConsumerBase.sol\":8228:8232  this */\n      address\n        /* \"@chainlink/contracts/src/v0.8/VRFConsumerBase.sol\":8235:8241  nonces */\n      0x00\n        /* \"@chainlink/contracts/src/v0.8/VRFConsumerBase.sol\":8235:8251  nonces[_keyHash] */\n      dup1\n        /* \"@chainlink/contracts/src/v0.8/VRFConsumerBase.sol\":8242:8250  _keyHash */\n      dup10\n        /* \"@chainlink/contracts/src/v0.8/VRFConsumerBase.sol\":8235:8251  nonces[_keyHash] */\n      dup2\n      mstore\n      0x20\n      add\n      swap1\n      dup2\n      mstore\n      0x20\n      add\n      0x00\n      keccak256\n      sload\n        /* \"@chainlink/contracts/src/v0.8/VRFConsumerBase.sol\":8170:8186  makeVRFInputSeed */\n      tag_190\n        /* \"@chainlink/contracts/src/v0.8/VRFConsumerBase.sol\":8170:8252  makeVRFInputSeed(_keyHash, USER_SEED_PLACEHOLDER, address(this), nonces[_keyHash]) */\n      jump\t// in\n    tag_189:\n        /* \"@chainlink/contracts/src/v0.8/VRFConsumerBase.sol\":8152:8252  uint256 vRFSeed = makeVRFInputSeed(_keyHash, USER_SEED_PLACEHOLDER, address(this), nonces[_keyHash]) */\n      swap1\n      pop\n        /* \"@chainlink/contracts/src/v0.8/VRFConsumerBase.sol\":8701:8702  1 */\n      0x01\n        /* \"@chainlink/contracts/src/v0.8/VRFConsumerBase.sol\":8682:8688  nonces */\n      0x00\n        /* \"@chainlink/contracts/src/v0.8/VRFConsumerBase.sol\":8682:8698  nonces[_keyHash] */\n      dup1\n        /* \"@chainlink/contracts/src/v0.8/VRFConsumerBase.sol\":8689:8697  _keyHash */\n      dup7\n        /* \"@chainlink/contracts/src/v0.8/VRFConsumerBase.sol\":8682:8698  nonces[_keyHash] */\n      dup2\n      mstore\n      0x20\n      add\n      swap1\n      dup2\n      mstore\n      0x20\n      add\n      0x00\n      keccak256\n      sload\n        /* \"@chainlink/contracts/src/v0.8/VRFConsumerBase.sol\":8682:8702  nonces[_keyHash] + 1 */\n      tag_191\n      swap2\n      swap1\n      tag_103\n      jump\t// in\n    tag_191:\n        /* \"@chainlink/contracts/src/v0.8/VRFConsumerBase.sol\":8663:8669  nonces */\n      0x00\n        /* \"@chainlink/contracts/src/v0.8/VRFConsumerBase.sol\":8663:8679  nonces[_keyHash] */\n      dup1\n        /* \"@chainlink/contracts/src/v0.8/VRFConsumerBase.sol\":8670:8678  _keyHash */\n      dup7\n        /* \"@chainlink/contracts/src/v0.8/VRFConsumerBase.sol\":8663:8679  nonces[_keyHash] */\n      dup2\n      mstore\n      0x20\n      add\n      swap1\n      dup2\n      mstore\n      0x20\n      add\n      0x00\n      keccak256\n        /* \"@chainlink/contracts/src/v0.8/VRFConsumerBase.sol\":8663:8702  nonces[_keyHash] = nonces[_keyHash] + 1 */\n      dup2\n      swap1\n      sstore\n      pop\n        /* \"@chainlink/contracts/src/v0.8/VRFConsumerBase.sol\":8715:8747  makeRequestId(_keyHash, vRFSeed) */\n      tag_192\n        /* \"@chainlink/contracts/src/v0.8/VRFConsumerBase.sol\":8729:8737  _keyHash */\n      dup5\n        /* \"@chainlink/contracts/src/v0.8/VRFConsumerBase.sol\":8739:8746  vRFSeed */\n      dup3\n        /* \"@chainlink/contracts/src/v0.8/VRFConsumerBase.sol\":8715:8728  makeRequestId */\n      tag_193\n        /* \"@chainlink/contracts/src/v0.8/VRFConsumerBase.sol\":8715:8747  makeRequestId(_keyHash, vRFSeed) */\n      jump\t// in\n    tag_192:\n        /* \"@chainlink/contracts/src/v0.8/VRFConsumerBase.sol\":8708:8747  return makeRequestId(_keyHash, vRFSeed) */\n      swap2\n      pop\n      pop\n        /* \"@chainlink/contracts/src/v0.8/VRFConsumerBase.sol\":7732:8752  function requestRandomness(bytes32 _keyHash, uint256 _fee) internal returns (bytes32 requestId) {... */\n      swap3\n      swap2\n      pop\n      pop\n      jump\t// out\n        /* \"@chainlink/contracts/src/v0.8/VRFRequestIDBase.sol\":796:1036  function makeVRFInputSeed(... */\n    tag_190:\n        /* \"@chainlink/contracts/src/v0.8/VRFRequestIDBase.sol\":938:945  uint256 */\n      0x00\n        /* \"@chainlink/contracts/src/v0.8/VRFRequestIDBase.sol\":989:997  _keyHash */\n      dup5\n        /* \"@chainlink/contracts/src/v0.8/VRFRequestIDBase.sol\":999:1008  _userSeed */\n      dup5\n        /* \"@chainlink/contracts/src/v0.8/VRFRequestIDBase.sol\":1010:1020  _requester */\n      dup5\n        /* \"@chainlink/contracts/src/v0.8/VRFRequestIDBase.sol\":1022:1028  _nonce */\n      dup5\n        /* \"@chainlink/contracts/src/v0.8/VRFRequestIDBase.sol\":978:1029  abi.encode(_keyHash, _userSeed, _requester, _nonce) */\n      add(0x20, mload(0x40))\n      tag_195\n      swap5\n      swap4\n      swap3\n      swap2\n      swap1\n      tag_196\n      jump\t// in\n    tag_195:\n      mload(0x40)\n      0x20\n      dup2\n      dup4\n      sub\n      sub\n      dup2\n      mstore\n      swap1\n      0x40\n      mstore\n        /* \"@chainlink/contracts/src/v0.8/VRFRequestIDBase.sol\":968:1030  keccak256(abi.encode(_keyHash, _userSeed, _requester, _nonce)) */\n      dup1\n      mload\n      swap1\n      0x20\n      add\n      keccak256\n        /* \"@chainlink/contracts/src/v0.8/VRFRequestIDBase.sol\":960:1031  uint256(keccak256(abi.encode(_keyHash, _userSeed, _requester, _nonce))) */\n      0x00\n      shr\n        /* \"@chainlink/contracts/src/v0.8/VRFRequestIDBase.sol\":953:1031  return uint256(keccak256(abi.encode(_keyHash, _userSeed, _requester, _nonce))) */\n      swap1\n      pop\n        /* \"@chainlink/contracts/src/v0.8/VRFRequestIDBase.sol\":796:1036  function makeVRFInputSeed(... */\n      swap5\n      swap4\n      pop\n      pop\n      pop\n      pop\n      jump\t// out\n        /* \"@chainlink/contracts/src/v0.8/VRFRequestIDBase.sol\":1416:1582  function makeRequestId(bytes32 _keyHash, uint256 _vRFInputSeed) internal pure returns (bytes32) {... */\n    tag_193:\n        /* \"@chainlink/contracts/src/v0.8/VRFRequestIDBase.sol\":1503:1510  bytes32 */\n      0x00\n        /* \"@chainlink/contracts/src/v0.8/VRFRequestIDBase.sol\":1552:1560  _keyHash */\n      dup3\n        /* \"@chainlink/contracts/src/v0.8/VRFRequestIDBase.sol\":1562:1575  _vRFInputSeed */\n      dup3\n        /* \"@chainlink/contracts/src/v0.8/VRFRequestIDBase.sol\":1535:1576  abi.encodePacked(_keyHash, _vRFInputSeed) */\n      add(0x20, mload(0x40))\n      tag_198\n      swap3\n      swap2\n      swap1\n      tag_199\n      jump\t// in\n    tag_198:\n      mload(0x40)\n      0x20\n      dup2\n      dup4\n      sub\n      sub\n      dup2\n      mstore\n      swap1\n      0x40\n      mstore\n        /* \"@chainlink/contracts/src/v0.8/VRFRequestIDBase.sol\":1525:1577  keccak256(abi.encodePacked(_keyHash, _vRFInputSeed)) */\n      dup1\n      mload\n      swap1\n      0x20\n      add\n      keccak256\n        /* \"@chainlink/contracts/src/v0.8/VRFRequestIDBase.sol\":1518:1577  return keccak256(abi.encodePacked(_keyHash, _vRFInputSeed)) */\n      swap1\n      pop\n        /* \"@chainlink/contracts/src/v0.8/VRFRequestIDBase.sol\":1416:1582  function makeRequestId(bytes32 _keyHash, uint256 _vRFInputSeed) internal pure returns (bytes32) {... */\n      swap3\n      swap2\n      pop\n      pop\n      jump\t// out\n        /* \"#utility.yul\":7:84   */\n    tag_200:\n        /* \"#utility.yul\":44:51   */\n      0x00\n        /* \"#utility.yul\":73:78   */\n      dup2\n        /* \"#utility.yul\":62:78   */\n      swap1\n      pop\n        /* \"#utility.yul\":7:84   */\n      swap2\n      swap1\n      pop\n      jump\t// out\n        /* \"#utility.yul\":90:208   */\n    tag_201:\n        /* \"#utility.yul\":177:201   */\n      tag_265\n        /* \"#utility.yul\":195:200   */\n      dup2\n        /* \"#utility.yul\":177:201   */\n      tag_200\n      jump\t// in\n    tag_265:\n        /* \"#utility.yul\":172:175   */\n      dup3\n        /* \"#utility.yul\":165:202   */\n      mstore\n        /* \"#utility.yul\":90:208   */\n      pop\n      pop\n      jump\t// out\n        /* \"#utility.yul\":214:436   */\n    tag_21:\n        /* \"#utility.yul\":307:311   */\n      0x00\n        /* \"#utility.yul\":345:347   */\n      0x20\n        /* \"#utility.yul\":334:343   */\n      dup3\n        /* \"#utility.yul\":330:348   */\n      add\n        /* \"#utility.yul\":322:348   */\n      swap1\n      pop\n        /* \"#utility.yul\":358:429   */\n      tag_267\n        /* \"#utility.yul\":426:427   */\n      0x00\n        /* \"#utility.yul\":415:424   */\n      dup4\n        /* \"#utility.yul\":411:428   */\n      add\n        /* \"#utility.yul\":402:408   */\n      dup5\n        /* \"#utility.yul\":358:429   */\n      tag_201\n      jump\t// in\n    tag_267:\n        /* \"#utility.yul\":214:436   */\n      swap3\n      swap2\n      pop\n      pop\n      jump\t// out\n        /* \"#utility.yul\":523:640   */\n    tag_203:\n        /* \"#utility.yul\":632:633   */\n      0x00\n        /* \"#utility.yul\":629:630   */\n      dup1\n        /* \"#utility.yul\":622:634   */\n      revert\n        /* \"#utility.yul\":769:891   */\n    tag_205:\n        /* \"#utility.yul\":842:866   */\n      tag_272\n        /* \"#utility.yul\":860:865   */\n      dup2\n        /* \"#utility.yul\":842:866   */\n      tag_200\n      jump\t// in\n    tag_272:\n        /* \"#utility.yul\":835:840   */\n      dup2\n        /* \"#utility.yul\":832:867   */\n      eq\n        /* \"#utility.yul\":822:885   */\n      tag_273\n      jumpi\n        /* \"#utility.yul\":881:882   */\n      0x00\n        /* \"#utility.yul\":878:879   */\n      dup1\n        /* \"#utility.yul\":871:883   */\n      revert\n        /* \"#utility.yul\":822:885   */\n    tag_273:\n        /* \"#utility.yul\":769:891   */\n      pop\n      jump\t// out\n        /* \"#utility.yul\":897:1036   */\n    tag_206:\n        /* \"#utility.yul\":943:948   */\n      0x00\n        /* \"#utility.yul\":981:987   */\n      dup2\n        /* \"#utility.yul\":968:988   */\n      calldataload\n        /* \"#utility.yul\":959:988   */\n      swap1\n      pop\n        /* \"#utility.yul\":997:1030   */\n      tag_275\n        /* \"#utility.yul\":1024:1029   */\n      dup2\n        /* \"#utility.yul\":997:1030   */\n      tag_205\n      jump\t// in\n    tag_275:\n        /* \"#utility.yul\":897:1036   */\n      swap3\n      swap2\n      pop\n      pop\n      jump\t// out\n        /* \"#utility.yul\":1042:1371   */\n    tag_27:\n        /* \"#utility.yul\":1101:1107   */\n      0x00\n        /* \"#utility.yul\":1150:1152   */\n      0x20\n        /* \"#utility.yul\":1138:1147   */\n      dup3\n        /* \"#utility.yul\":1129:1136   */\n      dup5\n        /* \"#utility.yul\":1125:1148   */\n      sub\n        /* \"#utility.yul\":1121:1153   */\n      slt\n        /* \"#utility.yul\":1118:1237   */\n      iszero\n      tag_277\n      jumpi\n        /* \"#utility.yul\":1156:1235   */\n      tag_278\n      tag_203\n      jump\t// in\n    tag_278:\n        /* \"#utility.yul\":1118:1237   */\n    tag_277:\n        /* \"#utility.yul\":1276:1277   */\n      0x00\n        /* \"#utility.yul\":1301:1354   */\n      tag_279\n        /* \"#utility.yul\":1346:1353   */\n      dup5\n        /* \"#utility.yul\":1337:1343   */\n      dup3\n        /* \"#utility.yul\":1326:1335   */\n      dup6\n        /* \"#utility.yul\":1322:1344   */\n      add\n        /* \"#utility.yul\":1301:1354   */\n      tag_206\n      jump\t// in\n    tag_279:\n        /* \"#utility.yul\":1291:1354   */\n      swap2\n      pop\n        /* \"#utility.yul\":1247:1364   */\n      pop\n        /* \"#utility.yul\":1042:1371   */\n      swap3\n      swap2\n      pop\n      pop\n      jump\t// out\n        /* \"#utility.yul\":1377:1503   */\n    tag_207:\n        /* \"#utility.yul\":1414:1421   */\n      0x00\n        /* \"#utility.yul\":1454:1496   */\n      0xffffffffffffffffffffffffffffffffffffffff\n        /* \"#utility.yul\":1447:1452   */\n      dup3\n        /* \"#utility.yul\":1443:1497   */\n      and\n        /* \"#utility.yul\":1432:1497   */\n      swap1\n      pop\n        /* \"#utility.yul\":1377:1503   */\n      swap2\n      swap1\n      pop\n      jump\t// out\n        /* \"#utility.yul\":1509:1605   */\n    tag_208:\n        /* \"#utility.yul\":1546:1553   */\n      0x00\n        /* \"#utility.yul\":1575:1599   */\n      tag_282\n        /* \"#utility.yul\":1593:1598   */\n      dup3\n        /* \"#utility.yul\":1575:1599   */\n      tag_207\n      jump\t// in\n    tag_282:\n        /* \"#utility.yul\":1564:1599   */\n      swap1\n      pop\n        /* \"#utility.yul\":1509:1605   */\n      swap2\n      swap1\n      pop\n      jump\t// out\n        /* \"#utility.yul\":1611:1733   */\n    tag_209:\n        /* \"#utility.yul\":1684:1708   */\n      tag_284\n        /* \"#utility.yul\":1702:1707   */\n      dup2\n        /* \"#utility.yul\":1684:1708   */\n      tag_208\n      jump\t// in\n    tag_284:\n        /* \"#utility.yul\":1677:1682   */\n      dup2\n        /* \"#utility.yul\":1674:1709   */\n      eq\n        /* \"#utility.yul\":1664:1727   */\n      tag_285\n      jumpi\n        /* \"#utility.yul\":1723:1724   */\n      0x00\n        /* \"#utility.yul\":1720:1721   */\n      dup1\n        /* \"#utility.yul\":1713:1725   */\n      revert\n        /* \"#utility.yul\":1664:1727   */\n    tag_285:\n        /* \"#utility.yul\":1611:1733   */\n      pop\n      jump\t// out\n        /* \"#utility.yul\":1739:1878   */\n    tag_210:\n        /* \"#utility.yul\":1785:1790   */\n      0x00\n        /* \"#utility.yul\":1823:1829   */\n      dup2\n        /* \"#utility.yul\":1810:1830   */\n      calldataload\n        /* \"#utility.yul\":1801:1830   */\n      swap1\n      pop\n        /* \"#utility.yul\":1839:1872   */\n      tag_287\n        /* \"#utility.yul\":1866:1871   */\n      dup2\n        /* \"#utility.yul\":1839:1872   */\n      tag_209\n      jump\t// in\n    tag_287:\n        /* \"#utility.yul\":1739:1878   */\n      swap3\n      swap2\n      pop\n      pop\n      jump\t// out\n        /* \"#utility.yul\":1884:2213   */\n    tag_32:\n        /* \"#utility.yul\":1943:1949   */\n      0x00\n        /* \"#utility.yul\":1992:1994   */\n      0x20\n        /* \"#utility.yul\":1980:1989   */\n      dup3\n        /* \"#utility.yul\":1971:1978   */\n      dup5\n        /* \"#utility.yul\":1967:1990   */\n      sub\n        /* \"#utility.yul\":1963:1995   */\n      slt\n        /* \"#utility.yul\":1960:2079   */\n      iszero\n      tag_289\n      jumpi\n        /* \"#utility.yul\":1998:2077   */\n      tag_290\n      tag_203\n      jump\t// in\n    tag_290:\n        /* \"#utility.yul\":1960:2079   */\n    tag_289:\n        /* \"#utility.yul\":2118:2119   */\n      0x00\n        /* \"#utility.yul\":2143:2196   */\n      tag_291\n        /* \"#utility.yul\":2188:2195   */\n      dup5\n        /* \"#utility.yul\":2179:2185   */\n      dup3\n        /* \"#utility.yul\":2168:2177   */\n      dup6\n        /* \"#utility.yul\":2164:2186   */\n      add\n        /* \"#utility.yul\":2143:2196   */\n      tag_210\n      jump\t// in\n    tag_291:\n        /* \"#utility.yul\":2133:2196   */\n      swap2\n      pop\n        /* \"#utility.yul\":2089:2206   */\n      pop\n        /* \"#utility.yul\":1884:2213   */\n      swap3\n      swap2\n      pop\n      pop\n      jump\t// out\n        /* \"#utility.yul\":2219:2337   */\n    tag_211:\n        /* \"#utility.yul\":2306:2330   */\n      tag_293\n        /* \"#utility.yul\":2324:2329   */\n      dup2\n        /* \"#utility.yul\":2306:2330   */\n      tag_208\n      jump\t// in\n    tag_293:\n        /* \"#utility.yul\":2301:2304   */\n      dup3\n        /* \"#utility.yul\":2294:2331   */\n      mstore\n        /* \"#utility.yul\":2219:2337   */\n      pop\n      pop\n      jump\t// out\n        /* \"#utility.yul\":2343:2565   */\n    tag_43:\n        /* \"#utility.yul\":2436:2440   */\n      0x00\n        /* \"#utility.yul\":2474:2476   */\n      0x20\n        /* \"#utility.yul\":2463:2472   */\n      dup3\n        /* \"#utility.yul\":2459:2477   */\n      add\n        /* \"#utility.yul\":2451:2477   */\n      swap1\n      pop\n        /* \"#utility.yul\":2487:2558   */\n      tag_295\n        /* \"#utility.yul\":2555:2556   */\n      0x00\n        /* \"#utility.yul\":2544:2553   */\n      dup4\n        /* \"#utility.yul\":2540:2557   */\n      add\n        /* \"#utility.yul\":2531:2537   */\n      dup5\n        /* \"#utility.yul\":2487:2558   */\n      tag_211\n      jump\t// in\n    tag_295:\n        /* \"#utility.yul\":2343:2565   */\n      swap3\n      swap2\n      pop\n      pop\n      jump\t// out\n        /* \"#utility.yul\":2571:2648   */\n    tag_212:\n        /* \"#utility.yul\":2608:2615   */\n      0x00\n        /* \"#utility.yul\":2637:2642   */\n      dup2\n        /* \"#utility.yul\":2626:2642   */\n      swap1\n      pop\n        /* \"#utility.yul\":2571:2648   */\n      swap2\n      swap1\n      pop\n      jump\t// out\n        /* \"#utility.yul\":2654:2776   */\n    tag_213:\n        /* \"#utility.yul\":2727:2751   */\n      tag_298\n        /* \"#utility.yul\":2745:2750   */\n      dup2\n        /* \"#utility.yul\":2727:2751   */\n      tag_212\n      jump\t// in\n    tag_298:\n        /* \"#utility.yul\":2720:2725   */\n      dup2\n        /* \"#utility.yul\":2717:2752   */\n      eq\n        /* \"#utility.yul\":2707:2770   */\n      tag_299\n      jumpi\n        /* \"#utility.yul\":2766:2767   */\n      0x00\n        /* \"#utility.yul\":2763:2764   */\n      dup1\n        /* \"#utility.yul\":2756:2768   */\n      revert\n        /* \"#utility.yul\":2707:2770   */\n    tag_299:\n        /* \"#utility.yul\":2654:2776   */\n      pop\n      jump\t// out\n        /* \"#utility.yul\":2782:2921   */\n    tag_214:\n        /* \"#utility.yul\":2828:2833   */\n      0x00\n        /* \"#utility.yul\":2866:2872   */\n      dup2\n        /* \"#utility.yul\":2853:2873   */\n      calldataload\n        /* \"#utility.yul\":2844:2873   */\n      swap1\n      pop\n        /* \"#utility.yul\":2882:2915   */\n      tag_301\n        /* \"#utility.yul\":2909:2914   */\n      dup2\n        /* \"#utility.yul\":2882:2915   */\n      tag_213\n      jump\t// in\n    tag_301:\n        /* \"#utility.yul\":2782:2921   */\n      swap3\n      swap2\n      pop\n      pop\n      jump\t// out\n        /* \"#utility.yul\":2927:3401   */\n    tag_54:\n        /* \"#utility.yul\":2995:3001   */\n      0x00\n        /* \"#utility.yul\":3003:3009   */\n      dup1\n        /* \"#utility.yul\":3052:3054   */\n      0x40\n        /* \"#utility.yul\":3040:3049   */\n      dup4\n        /* \"#utility.yul\":3031:3038   */\n      dup6\n        /* \"#utility.yul\":3027:3050   */\n      sub\n        /* \"#utility.yul\":3023:3055   */\n      slt\n        /* \"#utility.yul\":3020:3139   */\n      iszero\n      tag_303\n      jumpi\n        /* \"#utility.yul\":3058:3137   */\n      tag_304\n      tag_203\n      jump\t// in\n    tag_304:\n        /* \"#utility.yul\":3020:3139   */\n    tag_303:\n        /* \"#utility.yul\":3178:3179   */\n      0x00\n        /* \"#utility.yul\":3203:3256   */\n      tag_305\n        /* \"#utility.yul\":3248:3255   */\n      dup6\n        /* \"#utility.yul\":3239:3245   */\n      dup3\n        /* \"#utility.yul\":3228:3237   */\n      dup7\n        /* \"#utility.yul\":3224:3246   */\n      add\n        /* \"#utility.yul\":3203:3256   */\n      tag_214\n      jump\t// in\n    tag_305:\n        /* \"#utility.yul\":3193:3256   */\n      swap3\n      pop\n        /* \"#utility.yul\":3149:3266   */\n      pop\n        /* \"#utility.yul\":3305:3307   */\n      0x20\n        /* \"#utility.yul\":3331:3384   */\n      tag_306\n        /* \"#utility.yul\":3376:3383   */\n      dup6\n        /* \"#utility.yul\":3367:3373   */\n      dup3\n        /* \"#utility.yul\":3356:3365   */\n      dup7\n        /* \"#utility.yul\":3352:3374   */\n      add\n        /* \"#utility.yul\":3331:3384   */\n      tag_206\n      jump\t// in\n    tag_306:\n        /* \"#utility.yul\":3321:3384   */\n      swap2\n      pop\n        /* \"#utility.yul\":3276:3394   */\n      pop\n        /* \"#utility.yul\":2927:3401   */\n      swap3\n      pop\n      swap3\n      swap1\n      pop\n      jump\t// out\n        /* \"#utility.yul\":3407:3576   */\n    tag_215:\n        /* \"#utility.yul\":3491:3502   */\n      0x00\n        /* \"#utility.yul\":3525:3531   */\n      dup3\n        /* \"#utility.yul\":3520:3523   */\n      dup3\n        /* \"#utility.yul\":3513:3532   */\n      mstore\n        /* \"#utility.yul\":3565:3569   */\n      0x20\n        /* \"#utility.yul\":3560:3563   */\n      dup3\n        /* \"#utility.yul\":3556:3570   */\n      add\n        /* \"#utility.yul\":3541:3570   */\n      swap1\n      pop\n        /* \"#utility.yul\":3407:3576   */\n      swap3\n      swap2\n      pop\n      pop\n      jump\t// out\n        /* \"#utility.yul\":3582:3806   */\n    tag_216:\n        /* \"#utility.yul\":3722:3756   */\n      0x4f6e6c7920746865206f776e65722063616e2063616c6c20746869732066756e\n        /* \"#utility.yul\":3718:3719   */\n      0x00\n        /* \"#utility.yul\":3710:3716   */\n      dup3\n        /* \"#utility.yul\":3706:3720   */\n      add\n        /* \"#utility.yul\":3699:3757   */\n      mstore\n        /* \"#utility.yul\":3791:3798   */\n      0x6374696f6e000000000000000000000000000000000000000000000000000000\n        /* \"#utility.yul\":3786:3788   */\n      0x20\n        /* \"#utility.yul\":3778:3784   */\n      dup3\n        /* \"#utility.yul\":3774:3789   */\n      add\n        /* \"#utility.yul\":3767:3799   */\n      mstore\n        /* \"#utility.yul\":3582:3806   */\n      pop\n      jump\t// out\n        /* \"#utility.yul\":3812:4178   */\n    tag_217:\n        /* \"#utility.yul\":3954:3957   */\n      0x00\n        /* \"#utility.yul\":3975:4042   */\n      tag_310\n        /* \"#utility.yul\":4039:4041   */\n      0x25\n        /* \"#utility.yul\":4034:4037   */\n      dup4\n        /* \"#utility.yul\":3975:4042   */\n      tag_215\n      jump\t// in\n    tag_310:\n        /* \"#utility.yul\":3968:4042   */\n      swap2\n      pop\n        /* \"#utility.yul\":4051:4144   */\n      tag_311\n        /* \"#utility.yul\":4140:4143   */\n      dup3\n        /* \"#utility.yul\":4051:4144   */\n      tag_216\n      jump\t// in\n    tag_311:\n        /* \"#utility.yul\":4169:4171   */\n      0x40\n        /* \"#utility.yul\":4164:4167   */\n      dup3\n        /* \"#utility.yul\":4160:4172   */\n      add\n        /* \"#utility.yul\":4153:4172   */\n      swap1\n      pop\n        /* \"#utility.yul\":3812:4178   */\n      swap2\n      swap1\n      pop\n      jump\t// out\n        /* \"#utility.yul\":4184:4603   */\n    tag_75:\n        /* \"#utility.yul\":4350:4354   */\n      0x00\n        /* \"#utility.yul\":4388:4390   */\n      0x20\n        /* \"#utility.yul\":4377:4386   */\n      dup3\n        /* \"#utility.yul\":4373:4391   */\n      add\n        /* \"#utility.yul\":4365:4391   */\n      swap1\n      pop\n        /* \"#utility.yul\":4437:4446   */\n      dup2\n        /* \"#utility.yul\":4431:4435   */\n      dup2\n        /* \"#utility.yul\":4427:4447   */\n      sub\n        /* \"#utility.yul\":4423:4424   */\n      0x00\n        /* \"#utility.yul\":4412:4421   */\n      dup4\n        /* \"#utility.yul\":4408:4425   */\n      add\n        /* \"#utility.yul\":4401:4448   */\n      mstore\n        /* \"#utility.yul\":4465:4596   */\n      tag_313\n        /* \"#utility.yul\":4591:4595   */\n      dup2\n        /* \"#utility.yul\":4465:4596   */\n      tag_217\n      jump\t// in\n    tag_313:\n        /* \"#utility.yul\":4457:4596   */\n      swap1\n      pop\n        /* \"#utility.yul\":4184:4603   */\n      swap2\n      swap1\n      pop\n      jump\t// out\n        /* \"#utility.yul\":4609:4788   */\n    tag_218:\n        /* \"#utility.yul\":4749:4780   */\n      0x57696e6e657220686173206e6f74206265656e20647261776e20796574000000\n        /* \"#utility.yul\":4745:4746   */\n      0x00\n        /* \"#utility.yul\":4737:4743   */\n      dup3\n        /* \"#utility.yul\":4733:4747   */\n      add\n        /* \"#utility.yul\":4726:4781   */\n      mstore\n        /* \"#utility.yul\":4609:4788   */\n      pop\n      jump\t// out\n        /* \"#utility.yul\":4794:5160   */\n    tag_219:\n        /* \"#utility.yul\":4936:4939   */\n      0x00\n        /* \"#utility.yul\":4957:5024   */\n      tag_316\n        /* \"#utility.yul\":5021:5023   */\n      0x1d\n        /* \"#utility.yul\":5016:5019   */\n      dup4\n        /* \"#utility.yul\":4957:5024   */\n      tag_215\n      jump\t// in\n    tag_316:\n        /* \"#utility.yul\":4950:5024   */\n      swap2\n      pop\n        /* \"#utility.yul\":5033:5126   */\n      tag_317\n        /* \"#utility.yul\":5122:5125   */\n      dup3\n        /* \"#utility.yul\":5033:5126   */\n      tag_218\n      jump\t// in\n    tag_317:\n        /* \"#utility.yul\":5151:5153   */\n      0x20\n        /* \"#utility.yul\":5146:5149   */\n      dup3\n        /* \"#utility.yul\":5142:5154   */\n      add\n        /* \"#utility.yul\":5135:5154   */\n      swap1\n      pop\n        /* \"#utility.yul\":4794:5160   */\n      swap2\n      swap1\n      pop\n      jump\t// out\n        /* \"#utility.yul\":5166:5585   */\n    tag_79:\n        /* \"#utility.yul\":5332:5336   */\n      0x00\n        /* \"#utility.yul\":5370:5372   */\n      0x20\n        /* \"#utility.yul\":5359:5368   */\n      dup3\n        /* \"#utility.yul\":5355:5373   */\n      add\n        /* \"#utility.yul\":5347:5373   */\n      swap1\n      pop\n        /* \"#utility.yul\":5419:5428   */\n      dup2\n        /* \"#utility.yul\":5413:5417   */\n      dup2\n        /* \"#utility.yul\":5409:5429   */\n      sub\n        /* \"#utility.yul\":5405:5406   */\n      0x00\n        /* \"#utility.yul\":5394:5403   */\n      dup4\n        /* \"#utility.yul\":5390:5407   */\n      add\n        /* \"#utility.yul\":5383:5430   */\n      mstore\n        /* \"#utility.yul\":5447:5578   */\n      tag_319\n        /* \"#utility.yul\":5573:5577   */\n      dup2\n        /* \"#utility.yul\":5447:5578   */\n      tag_219\n      jump\t// in\n    tag_319:\n        /* \"#utility.yul\":5439:5578   */\n      swap1\n      pop\n        /* \"#utility.yul\":5166:5585   */\n      swap2\n      swap1\n      pop\n      jump\t// out\n        /* \"#utility.yul\":5591:5773   */\n    tag_220:\n        /* \"#utility.yul\":5731:5765   */\n      0x5072697a652068617320616c7265616479206265656e2077697468647261776e\n        /* \"#utility.yul\":5727:5728   */\n      0x00\n        /* \"#utility.yul\":5719:5725   */\n      dup3\n        /* \"#utility.yul\":5715:5729   */\n      add\n        /* \"#utility.yul\":5708:5766   */\n      mstore\n        /* \"#utility.yul\":5591:5773   */\n      pop\n      jump\t// out\n        /* \"#utility.yul\":5779:6145   */\n    tag_221:\n        /* \"#utility.yul\":5921:5924   */\n      0x00\n        /* \"#utility.yul\":5942:6009   */\n      tag_322\n        /* \"#utility.yul\":6006:6008   */\n      0x20\n        /* \"#utility.yul\":6001:6004   */\n      dup4\n        /* \"#utility.yul\":5942:6009   */\n      tag_215\n      jump\t// in\n    tag_322:\n        /* \"#utility.yul\":5935:6009   */\n      swap2\n      pop\n        /* \"#utility.yul\":6018:6111   */\n      tag_323\n        /* \"#utility.yul\":6107:6110   */\n      dup3\n        /* \"#utility.yul\":6018:6111   */\n      tag_220\n      jump\t// in\n    tag_323:\n        /* \"#utility.yul\":6136:6138   */\n      0x20\n        /* \"#utility.yul\":6131:6134   */\n      dup3\n        /* \"#utility.yul\":6127:6139   */\n      add\n        /* \"#utility.yul\":6120:6139   */\n      swap1\n      pop\n        /* \"#utility.yul\":5779:6145   */\n      swap2\n      swap1\n      pop\n      jump\t// out\n        /* \"#utility.yul\":6151:6570   */\n    tag_82:\n        /* \"#utility.yul\":6317:6321   */\n      0x00\n        /* \"#utility.yul\":6355:6357   */\n      0x20\n        /* \"#utility.yul\":6344:6353   */\n      dup3\n        /* \"#utility.yul\":6340:6358   */\n      add\n        /* \"#utility.yul\":6332:6358   */\n      swap1\n      pop\n        /* \"#utility.yul\":6404:6413   */\n      dup2\n        /* \"#utility.yul\":6398:6402   */\n      dup2\n        /* \"#utility.yul\":6394:6414   */\n      sub\n        /* \"#utility.yul\":6390:6391   */\n      0x00\n        /* \"#utility.yul\":6379:6388   */\n      dup4\n        /* \"#utility.yul\":6375:6392   */\n      add\n        /* \"#utility.yul\":6368:6415   */\n      mstore\n        /* \"#utility.yul\":6432:6563   */\n      tag_325\n        /* \"#utility.yul\":6558:6562   */\n      dup2\n        /* \"#utility.yul\":6432:6563   */\n      tag_221\n      jump\t// in\n    tag_325:\n        /* \"#utility.yul\":6424:6563   */\n      swap1\n      pop\n        /* \"#utility.yul\":6151:6570   */\n      swap2\n      swap1\n      pop\n      jump\t// out\n        /* \"#utility.yul\":6576:6756   */\n    tag_222:\n        /* \"#utility.yul\":6624:6701   */\n      0x4e487b7100000000000000000000000000000000000000000000000000000000\n        /* \"#utility.yul\":6621:6622   */\n      0x00\n        /* \"#utility.yul\":6614:6702   */\n      mstore\n        /* \"#utility.yul\":6721:6725   */\n      0x11\n        /* \"#utility.yul\":6718:6719   */\n      0x04\n        /* \"#utility.yul\":6711:6726   */\n      mstore\n        /* \"#utility.yul\":6745:6749   */\n      0x24\n        /* \"#utility.yul\":6742:6743   */\n      0x00\n        /* \"#utility.yul\":6735:6750   */\n      revert\n        /* \"#utility.yul\":6762:7172   */\n    tag_84:\n        /* \"#utility.yul\":6802:6809   */\n      0x00\n        /* \"#utility.yul\":6825:6845   */\n      tag_328\n        /* \"#utility.yul\":6843:6844   */\n      dup3\n        /* \"#utility.yul\":6825:6845   */\n      tag_200\n      jump\t// in\n    tag_328:\n        /* \"#utility.yul\":6820:6845   */\n      swap2\n      pop\n        /* \"#utility.yul\":6859:6879   */\n      tag_329\n        /* \"#utility.yul\":6877:6878   */\n      dup4\n        /* \"#utility.yul\":6859:6879   */\n      tag_200\n      jump\t// in\n    tag_329:\n        /* \"#utility.yul\":6854:6879   */\n      swap3\n      pop\n        /* \"#utility.yul\":6914:6915   */\n      dup3\n        /* \"#utility.yul\":6911:6912   */\n      dup3\n        /* \"#utility.yul\":6907:6916   */\n      mul\n        /* \"#utility.yul\":6936:6966   */\n      tag_330\n        /* \"#utility.yul\":6954:6965   */\n      dup2\n        /* \"#utility.yul\":6936:6966   */\n      tag_200\n      jump\t// in\n    tag_330:\n        /* \"#utility.yul\":6925:6966   */\n      swap2\n      pop\n        /* \"#utility.yul\":7115:7116   */\n      dup3\n        /* \"#utility.yul\":7106:7113   */\n      dup3\n        /* \"#utility.yul\":7102:7117   */\n      div\n        /* \"#utility.yul\":7099:7100   */\n      dup5\n        /* \"#utility.yul\":7096:7118   */\n      eq\n        /* \"#utility.yul\":7076:7077   */\n      dup4\n        /* \"#utility.yul\":7069:7078   */\n      iszero\n        /* \"#utility.yul\":7049:7132   */\n      or\n        /* \"#utility.yul\":7026:7165   */\n      tag_331\n      jumpi\n        /* \"#utility.yul\":7145:7163   */\n      tag_332\n      tag_222\n      jump\t// in\n    tag_332:\n        /* \"#utility.yul\":7026:7165   */\n    tag_331:\n        /* \"#utility.yul\":6810:7172   */\n      pop\n        /* \"#utility.yul\":6762:7172   */\n      swap3\n      swap2\n      pop\n      pop\n      jump\t// out\n        /* \"#utility.yul\":7178:7398   */\n    tag_223:\n        /* \"#utility.yul\":7318:7352   */\n      0x4e6f7420656e6f75676820457468657220746f2070617920746865207072697a\n        /* \"#utility.yul\":7314:7315   */\n      0x00\n        /* \"#utility.yul\":7306:7312   */\n      dup3\n        /* \"#utility.yul\":7302:7316   */\n      add\n        /* \"#utility.yul\":7295:7353   */\n      mstore\n        /* \"#utility.yul\":7387:7390   */\n      0x6500000000000000000000000000000000000000000000000000000000000000\n        /* \"#utility.yul\":7382:7384   */\n      0x20\n        /* \"#utility.yul\":7374:7380   */\n      dup3\n        /* \"#utility.yul\":7370:7385   */\n      add\n        /* \"#utility.yul\":7363:7391   */\n      mstore\n        /* \"#utility.yul\":7178:7398   */\n      pop\n      jump\t// out\n        /* \"#utility.yul\":7404:7770   */\n    tag_224:\n        /* \"#utility.yul\":7546:7549   */\n      0x00\n        /* \"#utility.yul\":7567:7634   */\n      tag_335\n        /* \"#utility.yul\":7631:7633   */\n      0x21\n        /* \"#utility.yul\":7626:7629   */\n      dup4\n        /* \"#utility.yul\":7567:7634   */\n      tag_215\n      jump\t// in\n    tag_335:\n        /* \"#utility.yul\":7560:7634   */\n      swap2\n      pop\n        /* \"#utility.yul\":7643:7736   */\n      tag_336\n        /* \"#utility.yul\":7732:7735   */\n      dup3\n        /* \"#utility.yul\":7643:7736   */\n      tag_223\n      jump\t// in\n    tag_336:\n        /* \"#utility.yul\":7761:7763   */\n      0x40\n        /* \"#utility.yul\":7756:7759   */\n      dup3\n        /* \"#utility.yul\":7752:7764   */\n      add\n        /* \"#utility.yul\":7745:7764   */\n      swap1\n      pop\n        /* \"#utility.yul\":7404:7770   */\n      swap2\n      swap1\n      pop\n      jump\t// out\n        /* \"#utility.yul\":7776:8195   */\n    tag_87:\n        /* \"#utility.yul\":7942:7946   */\n      0x00\n        /* \"#utility.yul\":7980:7982   */\n      0x20\n        /* \"#utility.yul\":7969:7978   */\n      dup3\n        /* \"#utility.yul\":7965:7983   */\n      add\n        /* \"#utility.yul\":7957:7983   */\n      swap1\n      pop\n        /* \"#utility.yul\":8029:8038   */\n      dup2\n        /* \"#utility.yul\":8023:8027   */\n      dup2\n        /* \"#utility.yul\":8019:8039   */\n      sub\n        /* \"#utility.yul\":8015:8016   */\n      0x00\n        /* \"#utility.yul\":8004:8013   */\n      dup4\n        /* \"#utility.yul\":8000:8017   */\n      add\n        /* \"#utility.yul\":7993:8040   */\n      mstore\n        /* \"#utility.yul\":8057:8188   */\n      tag_338\n        /* \"#utility.yul\":8183:8187   */\n      dup2\n        /* \"#utility.yul\":8057:8188   */\n      tag_224\n      jump\t// in\n    tag_338:\n        /* \"#utility.yul\":8049:8188   */\n      swap1\n      pop\n        /* \"#utility.yul\":7776:8195   */\n      swap2\n      swap1\n      pop\n      jump\t// out\n        /* \"#utility.yul\":8201:8430   */\n    tag_225:\n        /* \"#utility.yul\":8341:8375   */\n      0x4e756d626572206f66207469636b6574732073686f756c642062652067726561\n        /* \"#utility.yul\":8337:8338   */\n      0x00\n        /* \"#utility.yul\":8329:8335   */\n      dup3\n        /* \"#utility.yul\":8325:8339   */\n      add\n        /* \"#utility.yul\":8318:8376   */\n      mstore\n        /* \"#utility.yul\":8410:8422   */\n      0x746572207468616e203000000000000000000000000000000000000000000000\n        /* \"#utility.yul\":8405:8407   */\n      0x20\n        /* \"#utility.yul\":8397:8403   */\n      dup3\n        /* \"#utility.yul\":8393:8408   */\n      add\n        /* \"#utility.yul\":8386:8423   */\n      mstore\n        /* \"#utility.yul\":8201:8430   */\n      pop\n      jump\t// out\n        /* \"#utility.yul\":8436:8802   */\n    tag_226:\n        /* \"#utility.yul\":8578:8581   */\n      0x00\n        /* \"#utility.yul\":8599:8666   */\n      tag_341\n        /* \"#utility.yul\":8663:8665   */\n      0x2a\n        /* \"#utility.yul\":8658:8661   */\n      dup4\n        /* \"#utility.yul\":8599:8666   */\n      tag_215\n      jump\t// in\n    tag_341:\n        /* \"#utility.yul\":8592:8666   */\n      swap2\n      pop\n        /* \"#utility.yul\":8675:8768   */\n      tag_342\n        /* \"#utility.yul\":8764:8767   */\n      dup3\n        /* \"#utility.yul\":8675:8768   */\n      tag_225\n      jump\t// in\n    tag_342:\n        /* \"#utility.yul\":8793:8795   */\n      0x40\n        /* \"#utility.yul\":8788:8791   */\n      dup3\n        /* \"#utility.yul\":8784:8796   */\n      add\n        /* \"#utility.yul\":8777:8796   */\n      swap1\n      pop\n        /* \"#utility.yul\":8436:8802   */\n      swap2\n      swap1\n      pop\n      jump\t// out\n        /* \"#utility.yul\":8808:9227   */\n    tag_93:\n        /* \"#utility.yul\":8974:8978   */\n      0x00\n        /* \"#utility.yul\":9012:9014   */\n      0x20\n        /* \"#utility.yul\":9001:9010   */\n      dup3\n        /* \"#utility.yul\":8997:9015   */\n      add\n        /* \"#utility.yul\":8989:9015   */\n      swap1\n      pop\n        /* \"#utility.yul\":9061:9070   */\n      dup2\n        /* \"#utility.yul\":9055:9059   */\n      dup2\n        /* \"#utility.yul\":9051:9071   */\n      sub\n        /* \"#utility.yul\":9047:9048   */\n      0x00\n        /* \"#utility.yul\":9036:9045   */\n      dup4\n        /* \"#utility.yul\":9032:9049   */\n      add\n        /* \"#utility.yul\":9025:9072   */\n      mstore\n        /* \"#utility.yul\":9089:9220   */\n      tag_344\n        /* \"#utility.yul\":9215:9219   */\n      dup2\n        /* \"#utility.yul\":9089:9220   */\n      tag_226\n      jump\t// in\n    tag_344:\n        /* \"#utility.yul\":9081:9220   */\n      swap1\n      pop\n        /* \"#utility.yul\":8808:9227   */\n      swap2\n      swap1\n      pop\n      jump\t// out\n        /* \"#utility.yul\":9233:9404   */\n    tag_227:\n        /* \"#utility.yul\":9373:9396   */\n      0x4e6f7420656e6f7567682065746865722073656e740000000000000000000000\n        /* \"#utility.yul\":9369:9370   */\n      0x00\n        /* \"#utility.yul\":9361:9367   */\n      dup3\n        /* \"#utility.yul\":9357:9371   */\n      add\n        /* \"#utility.yul\":9350:9397   */\n      mstore\n        /* \"#utility.yul\":9233:9404   */\n      pop\n      jump\t// out\n        /* \"#utility.yul\":9410:9776   */\n    tag_228:\n        /* \"#utility.yul\":9552:9555   */\n      0x00\n        /* \"#utility.yul\":9573:9640   */\n      tag_347\n        /* \"#utility.yul\":9637:9639   */\n      0x15\n        /* \"#utility.yul\":9632:9635   */\n      dup4\n        /* \"#utility.yul\":9573:9640   */\n      tag_215\n      jump\t// in\n    tag_347:\n        /* \"#utility.yul\":9566:9640   */\n      swap2\n      pop\n        /* \"#utility.yul\":9649:9742   */\n      tag_348\n        /* \"#utility.yul\":9738:9741   */\n      dup3\n        /* \"#utility.yul\":9649:9742   */\n      tag_227\n      jump\t// in\n    tag_348:\n        /* \"#utility.yul\":9767:9769   */\n      0x20\n        /* \"#utility.yul\":9762:9765   */\n      dup3\n        /* \"#utility.yul\":9758:9770   */\n      add\n        /* \"#utility.yul\":9751:9770   */\n      swap1\n      pop\n        /* \"#utility.yul\":9410:9776   */\n      swap2\n      swap1\n      pop\n      jump\t// out\n        /* \"#utility.yul\":9782:10201   */\n    tag_97:\n        /* \"#utility.yul\":9948:9952   */\n      0x00\n        /* \"#utility.yul\":9986:9988   */\n      0x20\n        /* \"#utility.yul\":9975:9984   */\n      dup3\n        /* \"#utility.yul\":9971:9989   */\n      add\n        /* \"#utility.yul\":9963:9989   */\n      swap1\n      pop\n        /* \"#utility.yul\":10035:10044   */\n      dup2\n        /* \"#utility.yul\":10029:10033   */\n      dup2\n        /* \"#utility.yul\":10025:10045   */\n      sub\n        /* \"#utility.yul\":10021:10022   */\n      0x00\n        /* \"#utility.yul\":10010:10019   */\n      dup4\n        /* \"#utility.yul\":10006:10023   */\n      add\n        /* \"#utility.yul\":9999:10046   */\n      mstore\n        /* \"#utility.yul\":10063:10194   */\n      tag_350\n        /* \"#utility.yul\":10189:10193   */\n      dup2\n        /* \"#utility.yul\":10063:10194   */\n      tag_228\n      jump\t// in\n    tag_350:\n        /* \"#utility.yul\":10055:10194   */\n      swap1\n      pop\n        /* \"#utility.yul\":9782:10201   */\n      swap2\n      swap1\n      pop\n      jump\t// out\n        /* \"#utility.yul\":10207:10388   */\n    tag_229:\n        /* \"#utility.yul\":10347:10380   */\n      0x436f6e74726163742068617320696e73756666696369656e742066756e647300\n        /* \"#utility.yul\":10343:10344   */\n      0x00\n        /* \"#utility.yul\":10335:10341   */\n      dup3\n        /* \"#utility.yul\":10331:10345   */\n      add\n        /* \"#utility.yul\":10324:10381   */\n      mstore\n        /* \"#utility.yul\":10207:10388   */\n      pop\n      jump\t// out\n        /* \"#utility.yul\":10394:10760   */\n    tag_230:\n        /* \"#utility.yul\":10536:10539   */\n      0x00\n        /* \"#utility.yul\":10557:10624   */\n      tag_353\n        /* \"#utility.yul\":10621:10623   */\n      0x1f\n        /* \"#utility.yul\":10616:10619   */\n      dup4\n        /* \"#utility.yul\":10557:10624   */\n      tag_215\n      jump\t// in\n    tag_353:\n        /* \"#utility.yul\":10550:10624   */\n      swap2\n      pop\n        /* \"#utility.yul\":10633:10726   */\n      tag_354\n        /* \"#utility.yul\":10722:10725   */\n      dup3\n        /* \"#utility.yul\":10633:10726   */\n      tag_229\n      jump\t// in\n    tag_354:\n        /* \"#utility.yul\":10751:10753   */\n      0x20\n        /* \"#utility.yul\":10746:10749   */\n      dup3\n        /* \"#utility.yul\":10742:10754   */\n      add\n        /* \"#utility.yul\":10735:10754   */\n      swap1\n      pop\n        /* \"#utility.yul\":10394:10760   */\n      swap2\n      swap1\n      pop\n      jump\t// out\n        /* \"#utility.yul\":10766:11185   */\n    tag_101:\n        /* \"#utility.yul\":10932:10936   */\n      0x00\n        /* \"#utility.yul\":10970:10972   */\n      0x20\n        /* \"#utility.yul\":10959:10968   */\n      dup3\n        /* \"#utility.yul\":10955:10973   */\n      add\n        /* \"#utility.yul\":10947:10973   */\n      swap1\n      pop\n        /* \"#utility.yul\":11019:11028   */\n      dup2\n        /* \"#utility.yul\":11013:11017   */\n      dup2\n        /* \"#utility.yul\":11009:11029   */\n      sub\n        /* \"#utility.yul\":11005:11006   */\n      0x00\n        /* \"#utility.yul\":10994:11003   */\n      dup4\n        /* \"#utility.yul\":10990:11007   */\n      add\n        /* \"#utility.yul\":10983:11030   */\n      mstore\n        /* \"#utility.yul\":11047:11178   */\n      tag_356\n        /* \"#utility.yul\":11173:11177   */\n      dup2\n        /* \"#utility.yul\":11047:11178   */\n      tag_230\n      jump\t// in\n    tag_356:\n        /* \"#utility.yul\":11039:11178   */\n      swap1\n      pop\n        /* \"#utility.yul\":10766:11185   */\n      swap2\n      swap1\n      pop\n      jump\t// out\n        /* \"#utility.yul\":11191:11382   */\n    tag_103:\n        /* \"#utility.yul\":11231:11234   */\n      0x00\n        /* \"#utility.yul\":11250:11270   */\n      tag_358\n        /* \"#utility.yul\":11268:11269   */\n      dup3\n        /* \"#utility.yul\":11250:11270   */\n      tag_200\n      jump\t// in\n    tag_358:\n        /* \"#utility.yul\":11245:11270   */\n      swap2\n      pop\n        /* \"#utility.yul\":11284:11304   */\n      tag_359\n        /* \"#utility.yul\":11302:11303   */\n      dup4\n        /* \"#utility.yul\":11284:11304   */\n      tag_200\n      jump\t// in\n    tag_359:\n        /* \"#utility.yul\":11279:11304   */\n      swap3\n      pop\n        /* \"#utility.yul\":11327:11328   */\n      dup3\n        /* \"#utility.yul\":11324:11325   */\n      dup3\n        /* \"#utility.yul\":11320:11329   */\n      add\n        /* \"#utility.yul\":11313:11329   */\n      swap1\n      pop\n        /* \"#utility.yul\":11348:11351   */\n      dup1\n        /* \"#utility.yul\":11345:11346   */\n      dup3\n        /* \"#utility.yul\":11342:11352   */\n      gt\n        /* \"#utility.yul\":11339:11375   */\n      iszero\n      tag_360\n      jumpi\n        /* \"#utility.yul\":11355:11373   */\n      tag_361\n      tag_222\n      jump\t// in\n    tag_361:\n        /* \"#utility.yul\":11339:11375   */\n    tag_360:\n        /* \"#utility.yul\":11191:11382   */\n      swap3\n      swap2\n      pop\n      pop\n      jump\t// out\n        /* \"#utility.yul\":11388:11531   */\n    tag_231:\n        /* \"#utility.yul\":11445:11450   */\n      0x00\n        /* \"#utility.yul\":11476:11482   */\n      dup2\n        /* \"#utility.yul\":11470:11483   */\n      mload\n        /* \"#utility.yul\":11461:11483   */\n      swap1\n      pop\n        /* \"#utility.yul\":11492:11525   */\n      tag_363\n        /* \"#utility.yul\":11519:11524   */\n      dup2\n        /* \"#utility.yul\":11492:11525   */\n      tag_205\n      jump\t// in\n    tag_363:\n        /* \"#utility.yul\":11388:11531   */\n      swap3\n      swap2\n      pop\n      pop\n      jump\t// out\n        /* \"#utility.yul\":11537:11888   */\n    tag_117:\n        /* \"#utility.yul\":11607:11613   */\n      0x00\n        /* \"#utility.yul\":11656:11658   */\n      0x20\n        /* \"#utility.yul\":11644:11653   */\n      dup3\n        /* \"#utility.yul\":11635:11642   */\n      dup5\n        /* \"#utility.yul\":11631:11654   */\n      sub\n        /* \"#utility.yul\":11627:11659   */\n      slt\n        /* \"#utility.yul\":11624:11743   */\n      iszero\n      tag_365\n      jumpi\n        /* \"#utility.yul\":11662:11741   */\n      tag_366\n      tag_203\n      jump\t// in\n    tag_366:\n        /* \"#utility.yul\":11624:11743   */\n    tag_365:\n        /* \"#utility.yul\":11782:11783   */\n      0x00\n        /* \"#utility.yul\":11807:11871   */\n      tag_367\n        /* \"#utility.yul\":11863:11870   */\n      dup5\n        /* \"#utility.yul\":11854:11860   */\n      dup3\n        /* \"#utility.yul\":11843:11852   */\n      dup6\n        /* \"#utility.yul\":11839:11861   */\n      add\n        /* \"#utility.yul\":11807:11871   */\n      tag_231\n      jump\t// in\n    tag_367:\n        /* \"#utility.yul\":11797:11871   */\n      swap2\n      pop\n        /* \"#utility.yul\":11753:11881   */\n      pop\n        /* \"#utility.yul\":11537:11888   */\n      swap3\n      swap2\n      pop\n      pop\n      jump\t// out\n        /* \"#utility.yul\":11894:12226   */\n    tag_119:\n        /* \"#utility.yul\":12015:12019   */\n      0x00\n        /* \"#utility.yul\":12053:12055   */\n      0x40\n        /* \"#utility.yul\":12042:12051   */\n      dup3\n        /* \"#utility.yul\":12038:12056   */\n      add\n        /* \"#utility.yul\":12030:12056   */\n      swap1\n      pop\n        /* \"#utility.yul\":12066:12137   */\n      tag_369\n        /* \"#utility.yul\":12134:12135   */\n      0x00\n        /* \"#utility.yul\":12123:12132   */\n      dup4\n        /* \"#utility.yul\":12119:12136   */\n      add\n        /* \"#utility.yul\":12110:12116   */\n      dup6\n        /* \"#utility.yul\":12066:12137   */\n      tag_211\n      jump\t// in\n    tag_369:\n        /* \"#utility.yul\":12147:12219   */\n      tag_370\n        /* \"#utility.yul\":12215:12217   */\n      0x20\n        /* \"#utility.yul\":12204:12213   */\n      dup4\n        /* \"#utility.yul\":12200:12218   */\n      add\n        /* \"#utility.yul\":12191:12197   */\n      dup5\n        /* \"#utility.yul\":12147:12219   */\n      tag_201\n      jump\t// in\n    tag_370:\n        /* \"#utility.yul\":11894:12226   */\n      swap4\n      swap3\n      pop\n      pop\n      pop\n      jump\t// out\n        /* \"#utility.yul\":12232:12322   */\n    tag_232:\n        /* \"#utility.yul\":12266:12273   */\n      0x00\n        /* \"#utility.yul\":12309:12314   */\n      dup2\n        /* \"#utility.yul\":12302:12315   */\n      iszero\n        /* \"#utility.yul\":12295:12316   */\n      iszero\n        /* \"#utility.yul\":12284:12316   */\n      swap1\n      pop\n        /* \"#utility.yul\":12232:12322   */\n      swap2\n      swap1\n      pop\n      jump\t// out\n        /* \"#utility.yul\":12328:12444   */\n    tag_233:\n        /* \"#utility.yul\":12398:12419   */\n      tag_373\n        /* \"#utility.yul\":12413:12418   */\n      dup2\n        /* \"#utility.yul\":12398:12419   */\n      tag_232\n      jump\t// in\n    tag_373:\n        /* \"#utility.yul\":12391:12396   */\n      dup2\n        /* \"#utility.yul\":12388:12420   */\n      eq\n        /* \"#utility.yul\":12378:12438   */\n      tag_374\n      jumpi\n        /* \"#utility.yul\":12434:12435   */\n      0x00\n        /* \"#utility.yul\":12431:12432   */\n      dup1\n        /* \"#utility.yul\":12424:12436   */\n      revert\n        /* \"#utility.yul\":12378:12438   */\n    tag_374:\n        /* \"#utility.yul\":12328:12444   */\n      pop\n      jump\t// out\n        /* \"#utility.yul\":12450:12587   */\n    tag_234:\n        /* \"#utility.yul\":12504:12509   */\n      0x00\n        /* \"#utility.yul\":12535:12541   */\n      dup2\n        /* \"#utility.yul\":12529:12542   */\n      mload\n        /* \"#utility.yul\":12520:12542   */\n      swap1\n      pop\n        /* \"#utility.yul\":12551:12581   */\n      tag_376\n        /* \"#utility.yul\":12575:12580   */\n      dup2\n        /* \"#utility.yul\":12551:12581   */\n      tag_233\n      jump\t// in\n    tag_376:\n        /* \"#utility.yul\":12450:12587   */\n      swap3\n      swap2\n      pop\n      pop\n      jump\t// out\n        /* \"#utility.yul\":12593:12938   */\n    tag_123:\n        /* \"#utility.yul\":12660:12666   */\n      0x00\n        /* \"#utility.yul\":12709:12711   */\n      0x20\n        /* \"#utility.yul\":12697:12706   */\n      dup3\n        /* \"#utility.yul\":12688:12695   */\n      dup5\n        /* \"#utility.yul\":12684:12707   */\n      sub\n        /* \"#utility.yul\":12680:12712   */\n      slt\n        /* \"#utility.yul\":12677:12796   */\n      iszero\n      tag_378\n      jumpi\n        /* \"#utility.yul\":12715:12794   */\n      tag_379\n      tag_203\n      jump\t// in\n    tag_379:\n        /* \"#utility.yul\":12677:12796   */\n    tag_378:\n        /* \"#utility.yul\":12835:12836   */\n      0x00\n        /* \"#utility.yul\":12860:12921   */\n      tag_380\n        /* \"#utility.yul\":12913:12920   */\n      dup5\n        /* \"#utility.yul\":12904:12910   */\n      dup3\n        /* \"#utility.yul\":12893:12902   */\n      dup6\n        /* \"#utility.yul\":12889:12911   */\n      add\n        /* \"#utility.yul\":12860:12921   */\n      tag_234\n      jump\t// in\n    tag_380:\n        /* \"#utility.yul\":12850:12921   */\n      swap2\n      pop\n        /* \"#utility.yul\":12806:12931   */\n      pop\n        /* \"#utility.yul\":12593:12938   */\n      swap3\n      swap2\n      pop\n      pop\n      jump\t// out\n        /* \"#utility.yul\":12944:13125   */\n    tag_235:\n        /* \"#utility.yul\":13084:13117   */\n      0x4f6e6c7920565246436f6f7264696e61746f722063616e2066756c66696c6c00\n        /* \"#utility.yul\":13080:13081   */\n      0x00\n        /* \"#utility.yul\":13072:13078   */\n      dup3\n        /* \"#utility.yul\":13068:13082   */\n      add\n        /* \"#utility.yul\":13061:13118   */\n      mstore\n        /* \"#utility.yul\":12944:13125   */\n      pop\n      jump\t// out\n        /* \"#utility.yul\":13131:13497   */\n    tag_236:\n        /* \"#utility.yul\":13273:13276   */\n      0x00\n        /* \"#utility.yul\":13294:13361   */\n      tag_383\n        /* \"#utility.yul\":13358:13360   */\n      0x1f\n        /* \"#utility.yul\":13353:13356   */\n      dup4\n        /* \"#utility.yul\":13294:13361   */\n      tag_215\n      jump\t// in\n    tag_383:\n        /* \"#utility.yul\":13287:13361   */\n      swap2\n      pop\n        /* \"#utility.yul\":13370:13463   */\n      tag_384\n        /* \"#utility.yul\":13459:13462   */\n      dup3\n        /* \"#utility.yul\":13370:13463   */\n      tag_235\n      jump\t// in\n    tag_384:\n        /* \"#utility.yul\":13488:13490   */\n      0x20\n        /* \"#utility.yul\":13483:13486   */\n      dup3\n        /* \"#utility.yul\":13479:13491   */\n      add\n        /* \"#utility.yul\":13472:13491   */\n      swap1\n      pop\n        /* \"#utility.yul\":13131:13497   */\n      swap2\n      swap1\n      pop\n      jump\t// out\n        /* \"#utility.yul\":13503:13922   */\n    tag_130:\n        /* \"#utility.yul\":13669:13673   */\n      0x00\n        /* \"#utility.yul\":13707:13709   */\n      0x20\n        /* \"#utility.yul\":13696:13705   */\n      dup3\n        /* \"#utility.yul\":13692:13710   */\n      add\n        /* \"#utility.yul\":13684:13710   */\n      swap1\n      pop\n        /* \"#utility.yul\":13756:13765   */\n      dup2\n        /* \"#utility.yul\":13750:13754   */\n      dup2\n        /* \"#utility.yul\":13746:13766   */\n      sub\n        /* \"#utility.yul\":13742:13743   */\n      0x00\n        /* \"#utility.yul\":13731:13740   */\n      dup4\n        /* \"#utility.yul\":13727:13744   */\n      add\n        /* \"#utility.yul\":13720:13767   */\n      mstore\n        /* \"#utility.yul\":13784:13915   */\n      tag_386\n        /* \"#utility.yul\":13910:13914   */\n      dup2\n        /* \"#utility.yul\":13784:13915   */\n      tag_236\n      jump\t// in\n    tag_386:\n        /* \"#utility.yul\":13776:13915   */\n      swap1\n      pop\n        /* \"#utility.yul\":13503:13922   */\n      swap2\n      swap1\n      pop\n      jump\t// out\n        /* \"#utility.yul\":13928:14101   */\n    tag_237:\n        /* \"#utility.yul\":14068:14093   */\n      0x57696e6e657220616c72656164792073656c6563746564000000000000000000\n        /* \"#utility.yul\":14064:14065   */\n      0x00\n        /* \"#utility.yul\":14056:14062   */\n      dup3\n        /* \"#utility.yul\":14052:14066   */\n      add\n        /* \"#utility.yul\":14045:14094   */\n      mstore\n        /* \"#utility.yul\":13928:14101   */\n      pop\n      jump\t// out\n        /* \"#utility.yul\":14107:14473   */\n    tag_238:\n        /* \"#utility.yul\":14249:14252   */\n      0x00\n        /* \"#utility.yul\":14270:14337   */\n      tag_389\n        /* \"#utility.yul\":14334:14336   */\n      0x17\n        /* \"#utility.yul\":14329:14332   */\n      dup4\n        /* \"#utility.yul\":14270:14337   */\n      tag_215\n      jump\t// in\n    tag_389:\n        /* \"#utility.yul\":14263:14337   */\n      swap2\n      pop\n        /* \"#utility.yul\":14346:14439   */\n      tag_390\n        /* \"#utility.yul\":14435:14438   */\n      dup3\n        /* \"#utility.yul\":14346:14439   */\n      tag_237\n      jump\t// in\n    tag_390:\n        /* \"#utility.yul\":14464:14466   */\n      0x20\n        /* \"#utility.yul\":14459:14462   */\n      dup3\n        /* \"#utility.yul\":14455:14467   */\n      add\n        /* \"#utility.yul\":14448:14467   */\n      swap1\n      pop\n        /* \"#utility.yul\":14107:14473   */\n      swap2\n      swap1\n      pop\n      jump\t// out\n        /* \"#utility.yul\":14479:14898   */\n    tag_139:\n        /* \"#utility.yul\":14645:14649   */\n      0x00\n        /* \"#utility.yul\":14683:14685   */\n      0x20\n        /* \"#utility.yul\":14672:14681   */\n      dup3\n        /* \"#utility.yul\":14668:14686   */\n      add\n        /* \"#utility.yul\":14660:14686   */\n      swap1\n      pop\n        /* \"#utility.yul\":14732:14741   */\n      dup2\n        /* \"#utility.yul\":14726:14730   */\n      dup2\n        /* \"#utility.yul\":14722:14742   */\n      sub\n        /* \"#utility.yul\":14718:14719   */\n      0x00\n        /* \"#utility.yul\":14707:14716   */\n      dup4\n        /* \"#utility.yul\":14703:14720   */\n      add\n        /* \"#utility.yul\":14696:14743   */\n      mstore\n        /* \"#utility.yul\":14760:14891   */\n      tag_392\n        /* \"#utility.yul\":14886:14890   */\n      dup2\n        /* \"#utility.yul\":14760:14891   */\n      tag_238\n      jump\t// in\n    tag_392:\n        /* \"#utility.yul\":14752:14891   */\n      swap1\n      pop\n        /* \"#utility.yul\":14479:14898   */\n      swap2\n      swap1\n      pop\n      jump\t// out\n        /* \"#utility.yul\":14904:15078   */\n    tag_239:\n        /* \"#utility.yul\":15044:15070   */\n      0x4e6f207469636b65747320707572636861736564207965740000000000000000\n        /* \"#utility.yul\":15040:15041   */\n      0x00\n        /* \"#utility.yul\":15032:15038   */\n      dup3\n        /* \"#utility.yul\":15028:15042   */\n      add\n        /* \"#utility.yul\":15021:15071   */\n      mstore\n        /* \"#utility.yul\":14904:15078   */\n      pop\n      jump\t// out\n        /* \"#utility.yul\":15084:15450   */\n    tag_240:\n        /* \"#utility.yul\":15226:15229   */\n      0x00\n        /* \"#utility.yul\":15247:15314   */\n      tag_395\n        /* \"#utility.yul\":15311:15313   */\n      0x18\n        /* \"#utility.yul\":15306:15309   */\n      dup4\n        /* \"#utility.yul\":15247:15314   */\n      tag_215\n      jump\t// in\n    tag_395:\n        /* \"#utility.yul\":15240:15314   */\n      swap2\n      pop\n        /* \"#utility.yul\":15323:15416   */\n      tag_396\n        /* \"#utility.yul\":15412:15415   */\n      dup3\n        /* \"#utility.yul\":15323:15416   */\n      tag_239\n      jump\t// in\n    tag_396:\n        /* \"#utility.yul\":15441:15443   */\n      0x20\n        /* \"#utility.yul\":15436:15439   */\n      dup3\n        /* \"#utility.yul\":15432:15444   */\n      add\n        /* \"#utility.yul\":15425:15444   */\n      swap1\n      pop\n        /* \"#utility.yul\":15084:15450   */\n      swap2\n      swap1\n      pop\n      jump\t// out\n        /* \"#utility.yul\":15456:15875   */\n    tag_143:\n        /* \"#utility.yul\":15622:15626   */\n      0x00\n        /* \"#utility.yul\":15660:15662   */\n      0x20\n        /* \"#utility.yul\":15649:15658   */\n      dup3\n        /* \"#utility.yul\":15645:15663   */\n      add\n        /* \"#utility.yul\":15637:15663   */\n      swap1\n      pop\n        /* \"#utility.yul\":15709:15718   */\n      dup2\n        /* \"#utility.yul\":15703:15707   */\n      dup2\n        /* \"#utility.yul\":15699:15719   */\n      sub\n        /* \"#utility.yul\":15695:15696   */\n      0x00\n        /* \"#utility.yul\":15684:15693   */\n      dup4\n        /* \"#utility.yul\":15680:15697   */\n      add\n        /* \"#utility.yul\":15673:15720   */\n      mstore\n        /* \"#utility.yul\":15737:15868   */\n      tag_398\n        /* \"#utility.yul\":15863:15867   */\n      dup2\n        /* \"#utility.yul\":15737:15868   */\n      tag_240\n      jump\t// in\n    tag_398:\n        /* \"#utility.yul\":15729:15868   */\n      swap1\n      pop\n        /* \"#utility.yul\":15456:15875   */\n      swap2\n      swap1\n      pop\n      jump\t// out\n        /* \"#utility.yul\":15881:16109   */\n    tag_241:\n        /* \"#utility.yul\":16021:16055   */\n      0x52616e646f6d206e756d626572207265717565737420616c726561647920696e\n        /* \"#utility.yul\":16017:16018   */\n      0x00\n        /* \"#utility.yul\":16009:16015   */\n      dup3\n        /* \"#utility.yul\":16005:16019   */\n      add\n        /* \"#utility.yul\":15998:16056   */\n      mstore\n        /* \"#utility.yul\":16090:16101   */\n      0x2070726f67726573730000000000000000000000000000000000000000000000\n        /* \"#utility.yul\":16085:16087   */\n      0x20\n        /* \"#utility.yul\":16077:16083   */\n      dup3\n        /* \"#utility.yul\":16073:16088   */\n      add\n        /* \"#utility.yul\":16066:16102   */\n      mstore\n        /* \"#utility.yul\":15881:16109   */\n      pop\n      jump\t// out\n        /* \"#utility.yul\":16115:16481   */\n    tag_242:\n        /* \"#utility.yul\":16257:16260   */\n      0x00\n        /* \"#utility.yul\":16278:16345   */\n      tag_401\n        /* \"#utility.yul\":16342:16344   */\n      0x29\n        /* \"#utility.yul\":16337:16340   */\n      dup4\n        /* \"#utility.yul\":16278:16345   */\n      tag_215\n      jump\t// in\n    tag_401:\n        /* \"#utility.yul\":16271:16345   */\n      swap2\n      pop\n        /* \"#utility.yul\":16354:16447   */\n      tag_402\n        /* \"#utility.yul\":16443:16446   */\n      dup3\n        /* \"#utility.yul\":16354:16447   */\n      tag_241\n      jump\t// in\n    tag_402:\n        /* \"#utility.yul\":16472:16474   */\n      0x40\n        /* \"#utility.yul\":16467:16470   */\n      dup3\n        /* \"#utility.yul\":16463:16475   */\n      add\n        /* \"#utility.yul\":16456:16475   */\n      swap1\n      pop\n        /* \"#utility.yul\":16115:16481   */\n      swap2\n      swap1\n      pop\n      jump\t// out\n        /* \"#utility.yul\":16487:16906   */\n    tag_146:\n        /* \"#utility.yul\":16653:16657   */\n      0x00\n        /* \"#utility.yul\":16691:16693   */\n      0x20\n        /* \"#utility.yul\":16680:16689   */\n      dup3\n        /* \"#utility.yul\":16676:16694   */\n      add\n        /* \"#utility.yul\":16668:16694   */\n      swap1\n      pop\n        /* \"#utility.yul\":16740:16749   */\n      dup2\n        /* \"#utility.yul\":16734:16738   */\n      dup2\n        /* \"#utility.yul\":16730:16750   */\n      sub\n        /* \"#utility.yul\":16726:16727   */\n      0x00\n        /* \"#utility.yul\":16715:16724   */\n      dup4\n        /* \"#utility.yul\":16711:16728   */\n      add\n        /* \"#utility.yul\":16704:16751   */\n      mstore\n        /* \"#utility.yul\":16768:16899   */\n      tag_404\n        /* \"#utility.yul\":16894:16898   */\n      dup2\n        /* \"#utility.yul\":16768:16899   */\n      tag_242\n      jump\t// in\n    tag_404:\n        /* \"#utility.yul\":16760:16899   */\n      swap1\n      pop\n        /* \"#utility.yul\":16487:16906   */\n      swap2\n      swap1\n      pop\n      jump\t// out\n        /* \"#utility.yul\":16912:17077   */\n    tag_243:\n        /* \"#utility.yul\":17052:17069   */\n      0x57726f6e67207265717565737449640000000000000000000000000000000000\n        /* \"#utility.yul\":17048:17049   */\n      0x00\n        /* \"#utility.yul\":17040:17046   */\n      dup3\n        /* \"#utility.yul\":17036:17050   */\n      add\n        /* \"#utility.yul\":17029:17070   */\n      mstore\n        /* \"#utility.yul\":16912:17077   */\n      pop\n      jump\t// out\n        /* \"#utility.yul\":17083:17449   */\n    tag_244:\n        /* \"#utility.yul\":17225:17228   */\n      0x00\n        /* \"#utility.yul\":17246:17313   */\n      tag_407\n        /* \"#utility.yul\":17310:17312   */\n      0x0f\n        /* \"#utility.yul\":17305:17308   */\n      dup4\n        /* \"#utility.yul\":17246:17313   */\n      tag_215\n      jump\t// in\n    tag_407:\n        /* \"#utility.yul\":17239:17313   */\n      swap2\n      pop\n        /* \"#utility.yul\":17322:17415   */\n      tag_408\n        /* \"#utility.yul\":17411:17414   */\n      dup3\n        /* \"#utility.yul\":17322:17415   */\n      tag_243\n      jump\t// in\n    tag_408:\n        /* \"#utility.yul\":17440:17442   */\n      0x20\n        /* \"#utility.yul\":17435:17438   */\n      dup3\n        /* \"#utility.yul\":17431:17443   */\n      add\n        /* \"#utility.yul\":17424:17443   */\n      swap1\n      pop\n        /* \"#utility.yul\":17083:17449   */\n      swap2\n      swap1\n      pop\n      jump\t// out\n        /* \"#utility.yul\":17455:17874   */\n    tag_154:\n        /* \"#utility.yul\":17621:17625   */\n      0x00\n        /* \"#utility.yul\":17659:17661   */\n      0x20\n        /* \"#utility.yul\":17648:17657   */\n      dup3\n        /* \"#utility.yul\":17644:17662   */\n      add\n        /* \"#utility.yul\":17636:17662   */\n      swap1\n      pop\n        /* \"#utility.yul\":17708:17717   */\n      dup2\n        /* \"#utility.yul\":17702:17706   */\n      dup2\n        /* \"#utility.yul\":17698:17718   */\n      sub\n        /* \"#utility.yul\":17694:17695   */\n      0x00\n        /* \"#utility.yul\":17683:17692   */\n      dup4\n        /* \"#utility.yul\":17679:17696   */\n      add\n        /* \"#utility.yul\":17672:17719   */\n      mstore\n        /* \"#utility.yul\":17736:17867   */\n      tag_410\n        /* \"#utility.yul\":17862:17866   */\n      dup2\n        /* \"#utility.yul\":17736:17867   */\n      tag_244\n      jump\t// in\n    tag_410:\n        /* \"#utility.yul\":17728:17867   */\n      swap1\n      pop\n        /* \"#utility.yul\":17455:17874   */\n      swap2\n      swap1\n      pop\n      jump\t// out\n        /* \"#utility.yul\":17880:18057   */\n    tag_245:\n        /* \"#utility.yul\":18020:18049   */\n      0x52616e646f6d206e756d626572206e6f742067656e6572617465640000000000\n        /* \"#utility.yul\":18016:18017   */\n      0x00\n        /* \"#utility.yul\":18008:18014   */\n      dup3\n        /* \"#utility.yul\":18004:18018   */\n      add\n        /* \"#utility.yul\":17997:18050   */\n      mstore\n        /* \"#utility.yul\":17880:18057   */\n      pop\n      jump\t// out\n        /* \"#utility.yul\":18063:18429   */\n    tag_246:\n        /* \"#utility.yul\":18205:18208   */\n      0x00\n        /* \"#utility.yul\":18226:18293   */\n      tag_413\n        /* \"#utility.yul\":18290:18292   */\n      0x1b\n        /* \"#utility.yul\":18285:18288   */\n      dup4\n        /* \"#utility.yul\":18226:18293   */\n      tag_215\n      jump\t// in\n    tag_413:\n        /* \"#utility.yul\":18219:18293   */\n      swap2\n      pop\n        /* \"#utility.yul\":18302:18395   */\n      tag_414\n        /* \"#utility.yul\":18391:18394   */\n      dup3\n        /* \"#utility.yul\":18302:18395   */\n      tag_245\n      jump\t// in\n    tag_414:\n        /* \"#utility.yul\":18420:18422   */\n      0x20\n        /* \"#utility.yul\":18415:18418   */\n      dup3\n        /* \"#utility.yul\":18411:18423   */\n      add\n        /* \"#utility.yul\":18404:18423   */\n      swap1\n      pop\n        /* \"#utility.yul\":18063:18429   */\n      swap2\n      swap1\n      pop\n      jump\t// out\n        /* \"#utility.yul\":18435:18854   */\n    tag_157:\n        /* \"#utility.yul\":18601:18605   */\n      0x00\n        /* \"#utility.yul\":18639:18641   */\n      0x20\n        /* \"#utility.yul\":18628:18637   */\n      dup3\n        /* \"#utility.yul\":18624:18642   */\n      add\n        /* \"#utility.yul\":18616:18642   */\n      swap1\n      pop\n        /* \"#utility.yul\":18688:18697   */\n      dup2\n        /* \"#utility.yul\":18682:18686   */\n      dup2\n        /* \"#utility.yul\":18678:18698   */\n      sub\n        /* \"#utility.yul\":18674:18675   */\n      0x00\n        /* \"#utility.yul\":18663:18672   */\n      dup4\n        /* \"#utility.yul\":18659:18676   */\n      add\n        /* \"#utility.yul\":18652:18699   */\n      mstore\n        /* \"#utility.yul\":18716:18847   */\n      tag_416\n        /* \"#utility.yul\":18842:18846   */\n      dup2\n        /* \"#utility.yul\":18716:18847   */\n      tag_246\n      jump\t// in\n    tag_416:\n        /* \"#utility.yul\":18708:18847   */\n      swap1\n      pop\n        /* \"#utility.yul\":18435:18854   */\n      swap2\n      swap1\n      pop\n      jump\t// out\n        /* \"#utility.yul\":18860:19040   */\n    tag_247:\n        /* \"#utility.yul\":18908:18985   */\n      0x4e487b7100000000000000000000000000000000000000000000000000000000\n        /* \"#utility.yul\":18905:18906   */\n      0x00\n        /* \"#utility.yul\":18898:18986   */\n      mstore\n        /* \"#utility.yul\":19005:19009   */\n      0x12\n        /* \"#utility.yul\":19002:19003   */\n      0x04\n        /* \"#utility.yul\":18995:19010   */\n      mstore\n        /* \"#utility.yul\":19029:19033   */\n      0x24\n        /* \"#utility.yul\":19026:19027   */\n      0x00\n        /* \"#utility.yul\":19019:19034   */\n      revert\n        /* \"#utility.yul\":19046:19222   */\n    tag_159:\n        /* \"#utility.yul\":19078:19079   */\n      0x00\n        /* \"#utility.yul\":19095:19115   */\n      tag_419\n        /* \"#utility.yul\":19113:19114   */\n      dup3\n        /* \"#utility.yul\":19095:19115   */\n      tag_200\n      jump\t// in\n    tag_419:\n        /* \"#utility.yul\":19090:19115   */\n      swap2\n      pop\n        /* \"#utility.yul\":19129:19149   */\n      tag_420\n        /* \"#utility.yul\":19147:19148   */\n      dup4\n        /* \"#utility.yul\":19129:19149   */\n      tag_200\n      jump\t// in\n    tag_420:\n        /* \"#utility.yul\":19124:19149   */\n      swap3\n      pop\n        /* \"#utility.yul\":19168:19169   */\n      dup3\n        /* \"#utility.yul\":19158:19193   */\n      tag_421\n      jumpi\n        /* \"#utility.yul\":19173:19191   */\n      tag_422\n      tag_247\n      jump\t// in\n    tag_422:\n        /* \"#utility.yul\":19158:19193   */\n    tag_421:\n        /* \"#utility.yul\":19214:19215   */\n      dup3\n        /* \"#utility.yul\":19211:19212   */\n      dup3\n        /* \"#utility.yul\":19207:19216   */\n      mod\n        /* \"#utility.yul\":19202:19216   */\n      swap1\n      pop\n        /* \"#utility.yul\":19046:19222   */\n      swap3\n      swap2\n      pop\n      pop\n      jump\t// out\n        /* \"#utility.yul\":19228:19408   */\n    tag_162:\n        /* \"#utility.yul\":19276:19353   */\n      0x4e487b7100000000000000000000000000000000000000000000000000000000\n        /* \"#utility.yul\":19273:19274   */\n      0x00\n        /* \"#utility.yul\":19266:19354   */\n      mstore\n        /* \"#utility.yul\":19373:19377   */\n      0x32\n        /* \"#utility.yul\":19370:19371   */\n      0x04\n        /* \"#utility.yul\":19363:19378   */\n      mstore\n        /* \"#utility.yul\":19397:19401   */\n      0x24\n        /* \"#utility.yul\":19394:19395   */\n      0x00\n        /* \"#utility.yul\":19387:19402   */\n      revert\n        /* \"#utility.yul\":19414:19590   */\n    tag_248:\n        /* \"#utility.yul\":19554:19582   */\n      0x4e6f7420656e6f756768204c494e4b20746f2070617920666565000000000000\n        /* \"#utility.yul\":19550:19551   */\n      0x00\n        /* \"#utility.yul\":19542:19548   */\n      dup3\n        /* \"#utility.yul\":19538:19552   */\n      add\n        /* \"#utility.yul\":19531:19583   */\n      mstore\n        /* \"#utility.yul\":19414:19590   */\n      pop\n      jump\t// out\n        /* \"#utility.yul\":19596:19962   */\n    tag_249:\n        /* \"#utility.yul\":19738:19741   */\n      0x00\n        /* \"#utility.yul\":19759:19826   */\n      tag_426\n        /* \"#utility.yul\":19823:19825   */\n      0x1a\n        /* \"#utility.yul\":19818:19821   */\n      dup4\n        /* \"#utility.yul\":19759:19826   */\n      tag_215\n      jump\t// in\n    tag_426:\n        /* \"#utility.yul\":19752:19826   */\n      swap2\n      pop\n        /* \"#utility.yul\":19835:19928   */\n      tag_427\n        /* \"#utility.yul\":19924:19927   */\n      dup3\n        /* \"#utility.yul\":19835:19928   */\n      tag_248\n      jump\t// in\n    tag_427:\n        /* \"#utility.yul\":19953:19955   */\n      0x20\n        /* \"#utility.yul\":19948:19951   */\n      dup3\n        /* \"#utility.yul\":19944:19956   */\n      add\n        /* \"#utility.yul\":19937:19956   */\n      swap1\n      pop\n        /* \"#utility.yul\":19596:19962   */\n      swap2\n      swap1\n      pop\n      jump\t// out\n        /* \"#utility.yul\":19968:20387   */\n    tag_171:\n        /* \"#utility.yul\":20134:20138   */\n      0x00\n        /* \"#utility.yul\":20172:20174   */\n      0x20\n        /* \"#utility.yul\":20161:20170   */\n      dup3\n        /* \"#utility.yul\":20157:20175   */\n      add\n        /* \"#utility.yul\":20149:20175   */\n      swap1\n      pop\n        /* \"#utility.yul\":20221:20230   */\n      dup2\n        /* \"#utility.yul\":20215:20219   */\n      dup2\n        /* \"#utility.yul\":20211:20231   */\n      sub\n        /* \"#utility.yul\":20207:20208   */\n      0x00\n        /* \"#utility.yul\":20196:20205   */\n      dup4\n        /* \"#utility.yul\":20192:20209   */\n      add\n        /* \"#utility.yul\":20185:20232   */\n      mstore\n        /* \"#utility.yul\":20249:20380   */\n      tag_429\n        /* \"#utility.yul\":20375:20379   */\n      dup2\n        /* \"#utility.yul\":20249:20380   */\n      tag_249\n      jump\t// in\n    tag_429:\n        /* \"#utility.yul\":20241:20380   */\n      swap1\n      pop\n        /* \"#utility.yul\":19968:20387   */\n      swap2\n      swap1\n      pop\n      jump\t// out\n        /* \"#utility.yul\":20393:20566   */\n    tag_250:\n        /* \"#utility.yul\":20533:20558   */\n      0x4d75737420686176652076616c6964206b657948617368000000000000000000\n        /* \"#utility.yul\":20529:20530   */\n      0x00\n        /* \"#utility.yul\":20521:20527   */\n      dup3\n        /* \"#utility.yul\":20517:20531   */\n      add\n        /* \"#utility.yul\":20510:20559   */\n      mstore\n        /* \"#utility.yul\":20393:20566   */\n      pop\n      jump\t// out\n        /* \"#utility.yul\":20572:20938   */\n    tag_251:\n        /* \"#utility.yul\":20714:20717   */\n      0x00\n        /* \"#utility.yul\":20735:20802   */\n      tag_432\n        /* \"#utility.yul\":20799:20801   */\n      0x17\n        /* \"#utility.yul\":20794:20797   */\n      dup4\n        /* \"#utility.yul\":20735:20802   */\n      tag_215\n      jump\t// in\n    tag_432:\n        /* \"#utility.yul\":20728:20802   */\n      swap2\n      pop\n        /* \"#utility.yul\":20811:20904   */\n      tag_433\n        /* \"#utility.yul\":20900:20903   */\n      dup3\n        /* \"#utility.yul\":20811:20904   */\n      tag_250\n      jump\t// in\n    tag_433:\n        /* \"#utility.yul\":20929:20931   */\n      0x20\n        /* \"#utility.yul\":20924:20927   */\n      dup3\n        /* \"#utility.yul\":20920:20932   */\n      add\n        /* \"#utility.yul\":20913:20932   */\n      swap1\n      pop\n        /* \"#utility.yul\":20572:20938   */\n      swap2\n      swap1\n      pop\n      jump\t// out\n        /* \"#utility.yul\":20944:21363   */\n    tag_174:\n        /* \"#utility.yul\":21110:21114   */\n      0x00\n        /* \"#utility.yul\":21148:21150   */\n      0x20\n        /* \"#utility.yul\":21137:21146   */\n      dup3\n        /* \"#utility.yul\":21133:21151   */\n      add\n        /* \"#utility.yul\":21125:21151   */\n      swap1\n      pop\n        /* \"#utility.yul\":21197:21206   */\n      dup2\n        /* \"#utility.yul\":21191:21195   */\n      dup2\n        /* \"#utility.yul\":21187:21207   */\n      sub\n        /* \"#utility.yul\":21183:21184   */\n      0x00\n        /* \"#utility.yul\":21172:21181   */\n      dup4\n        /* \"#utility.yul\":21168:21185   */\n      add\n        /* \"#utility.yul\":21161:21208   */\n      mstore\n        /* \"#utility.yul\":21225:21356   */\n      tag_435\n        /* \"#utility.yul\":21351:21355   */\n      dup2\n        /* \"#utility.yul\":21225:21356   */\n      tag_251\n      jump\t// in\n    tag_435:\n        /* \"#utility.yul\":21217:21356   */\n      swap1\n      pop\n        /* \"#utility.yul\":20944:21363   */\n      swap2\n      swap1\n      pop\n      jump\t// out\n        /* \"#utility.yul\":21369:21487   */\n    tag_252:\n        /* \"#utility.yul\":21456:21480   */\n      tag_437\n        /* \"#utility.yul\":21474:21479   */\n      dup2\n        /* \"#utility.yul\":21456:21480   */\n      tag_212\n      jump\t// in\n    tag_437:\n        /* \"#utility.yul\":21451:21454   */\n      dup3\n        /* \"#utility.yul\":21444:21481   */\n      mstore\n        /* \"#utility.yul\":21369:21487   */\n      pop\n      pop\n      jump\t// out\n        /* \"#utility.yul\":21493:21825   */\n    tag_183:\n        /* \"#utility.yul\":21614:21618   */\n      0x00\n        /* \"#utility.yul\":21652:21654   */\n      0x40\n        /* \"#utility.yul\":21641:21650   */\n      dup3\n        /* \"#utility.yul\":21637:21655   */\n      add\n        /* \"#utility.yul\":21629:21655   */\n      swap1\n      pop\n        /* \"#utility.yul\":21665:21736   */\n      tag_439\n        /* \"#utility.yul\":21733:21734   */\n      0x00\n        /* \"#utility.yul\":21722:21731   */\n      dup4\n        /* \"#utility.yul\":21718:21735   */\n      add\n        /* \"#utility.yul\":21709:21715   */\n      dup6\n        /* \"#utility.yul\":21665:21736   */\n      tag_252\n      jump\t// in\n    tag_439:\n        /* \"#utility.yul\":21746:21818   */\n      tag_440\n        /* \"#utility.yul\":21814:21816   */\n      0x20\n        /* \"#utility.yul\":21803:21812   */\n      dup4\n        /* \"#utility.yul\":21799:21817   */\n      add\n        /* \"#utility.yul\":21790:21796   */\n      dup5\n        /* \"#utility.yul\":21746:21818   */\n      tag_201\n      jump\t// in\n    tag_440:\n        /* \"#utility.yul\":21493:21825   */\n      swap4\n      swap3\n      pop\n      pop\n      pop\n      jump\t// out\n        /* \"#utility.yul\":21831:21929   */\n    tag_253:\n        /* \"#utility.yul\":21882:21888   */\n      0x00\n        /* \"#utility.yul\":21916:21921   */\n      dup2\n        /* \"#utility.yul\":21910:21922   */\n      mload\n        /* \"#utility.yul\":21900:21922   */\n      swap1\n      pop\n        /* \"#utility.yul\":21831:21929   */\n      swap2\n      swap1\n      pop\n      jump\t// out\n        /* \"#utility.yul\":21935:22103   */\n    tag_254:\n        /* \"#utility.yul\":22018:22029   */\n      0x00\n        /* \"#utility.yul\":22052:22058   */\n      dup3\n        /* \"#utility.yul\":22047:22050   */\n      dup3\n        /* \"#utility.yul\":22040:22059   */\n      mstore\n        /* \"#utility.yul\":22092:22096   */\n      0x20\n        /* \"#utility.yul\":22087:22090   */\n      dup3\n        /* \"#utility.yul\":22083:22097   */\n      add\n        /* \"#utility.yul\":22068:22097   */\n      swap1\n      pop\n        /* \"#utility.yul\":21935:22103   */\n      swap3\n      swap2\n      pop\n      pop\n      jump\t// out\n        /* \"#utility.yul\":22109:22355   */\n    tag_255:\n        /* \"#utility.yul\":22190:22191   */\n      0x00\n        /* \"#utility.yul\":22200:22313   */\n    tag_444:\n        /* \"#utility.yul\":22214:22220   */\n      dup4\n        /* \"#utility.yul\":22211:22212   */\n      dup2\n        /* \"#utility.yul\":22208:22221   */\n      lt\n        /* \"#utility.yul\":22200:22313   */\n      iszero\n      tag_446\n      jumpi\n        /* \"#utility.yul\":22299:22300   */\n      dup1\n        /* \"#utility.yul\":22294:22297   */\n      dup3\n        /* \"#utility.yul\":22290:22301   */\n      add\n        /* \"#utility.yul\":22284:22302   */\n      mload\n        /* \"#utility.yul\":22280:22281   */\n      dup2\n        /* \"#utility.yul\":22275:22278   */\n      dup5\n        /* \"#utility.yul\":22271:22282   */\n      add\n        /* \"#utility.yul\":22264:22303   */\n      mstore\n        /* \"#utility.yul\":22236:22238   */\n      0x20\n        /* \"#utility.yul\":22233:22234   */\n      dup2\n        /* \"#utility.yul\":22229:22239   */\n      add\n        /* \"#utility.yul\":22224:22239   */\n      swap1\n      pop\n        /* \"#utility.yul\":22200:22313   */\n      jump(tag_444)\n    tag_446:\n        /* \"#utility.yul\":22347:22348   */\n      0x00\n        /* \"#utility.yul\":22338:22344   */\n      dup5\n        /* \"#utility.yul\":22333:22336   */\n      dup5\n        /* \"#utility.yul\":22329:22345   */\n      add\n        /* \"#utility.yul\":22322:22349   */\n      mstore\n        /* \"#utility.yul\":22171:22355   */\n      pop\n        /* \"#utility.yul\":22109:22355   */\n      pop\n      pop\n      pop\n      jump\t// out\n        /* \"#utility.yul\":22361:22463   */\n    tag_256:\n        /* \"#utility.yul\":22402:22408   */\n      0x00\n        /* \"#utility.yul\":22453:22455   */\n      0x1f\n        /* \"#utility.yul\":22449:22456   */\n      not\n        /* \"#utility.yul\":22444:22446   */\n      0x1f\n        /* \"#utility.yul\":22437:22442   */\n      dup4\n        /* \"#utility.yul\":22433:22447   */\n      add\n        /* \"#utility.yul\":22429:22457   */\n      and\n        /* \"#utility.yul\":22419:22457   */\n      swap1\n      pop\n        /* \"#utility.yul\":22361:22463   */\n      swap2\n      swap1\n      pop\n      jump\t// out\n        /* \"#utility.yul\":22469:22842   */\n    tag_257:\n        /* \"#utility.yul\":22555:22558   */\n      0x00\n        /* \"#utility.yul\":22583:22621   */\n      tag_449\n        /* \"#utility.yul\":22615:22620   */\n      dup3\n        /* \"#utility.yul\":22583:22621   */\n      tag_253\n      jump\t// in\n    tag_449:\n        /* \"#utility.yul\":22637:22707   */\n      tag_450\n        /* \"#utility.yul\":22700:22706   */\n      dup2\n        /* \"#utility.yul\":22695:22698   */\n      dup6\n        /* \"#utility.yul\":22637:22707   */\n      tag_254\n      jump\t// in\n    tag_450:\n        /* \"#utility.yul\":22630:22707   */\n      swap4\n      pop\n        /* \"#utility.yul\":22716:22781   */\n      tag_451\n        /* \"#utility.yul\":22774:22780   */\n      dup2\n        /* \"#utility.yul\":22769:22772   */\n      dup6\n        /* \"#utility.yul\":22762:22766   */\n      0x20\n        /* \"#utility.yul\":22755:22760   */\n      dup7\n        /* \"#utility.yul\":22751:22767   */\n      add\n        /* \"#utility.yul\":22716:22781   */\n      tag_255\n      jump\t// in\n    tag_451:\n        /* \"#utility.yul\":22806:22835   */\n      tag_452\n        /* \"#utility.yul\":22828:22834   */\n      dup2\n        /* \"#utility.yul\":22806:22835   */\n      tag_256\n      jump\t// in\n    tag_452:\n        /* \"#utility.yul\":22801:22804   */\n      dup5\n        /* \"#utility.yul\":22797:22836   */\n      add\n        /* \"#utility.yul\":22790:22836   */\n      swap2\n      pop\n        /* \"#utility.yul\":22559:22842   */\n      pop\n        /* \"#utility.yul\":22469:22842   */\n      swap3\n      swap2\n      pop\n      pop\n      jump\t// out\n        /* \"#utility.yul\":22848:23377   */\n    tag_185:\n        /* \"#utility.yul\":23015:23019   */\n      0x00\n        /* \"#utility.yul\":23053:23055   */\n      0x60\n        /* \"#utility.yul\":23042:23051   */\n      dup3\n        /* \"#utility.yul\":23038:23056   */\n      add\n        /* \"#utility.yul\":23030:23056   */\n      swap1\n      pop\n        /* \"#utility.yul\":23066:23137   */\n      tag_454\n        /* \"#utility.yul\":23134:23135   */\n      0x00\n        /* \"#utility.yul\":23123:23132   */\n      dup4\n        /* \"#utility.yul\":23119:23136   */\n      add\n        /* \"#utility.yul\":23110:23116   */\n      dup7\n        /* \"#utility.yul\":23066:23137   */\n      tag_211\n      jump\t// in\n    tag_454:\n        /* \"#utility.yul\":23147:23219   */\n      tag_455\n        /* \"#utility.yul\":23215:23217   */\n      0x20\n        /* \"#utility.yul\":23204:23213   */\n      dup4\n        /* \"#utility.yul\":23200:23218   */\n      add\n        /* \"#utility.yul\":23191:23197   */\n      dup6\n        /* \"#utility.yul\":23147:23219   */\n      tag_201\n      jump\t// in\n    tag_455:\n        /* \"#utility.yul\":23266:23275   */\n      dup2\n        /* \"#utility.yul\":23260:23264   */\n      dup2\n        /* \"#utility.yul\":23256:23276   */\n      sub\n        /* \"#utility.yul\":23251:23253   */\n      0x40\n        /* \"#utility.yul\":23240:23249   */\n      dup4\n        /* \"#utility.yul\":23236:23254   */\n      add\n        /* \"#utility.yul\":23229:23277   */\n      mstore\n        /* \"#utility.yul\":23294:23370   */\n      tag_456\n        /* \"#utility.yul\":23365:23369   */\n      dup2\n        /* \"#utility.yul\":23356:23362   */\n      dup5\n        /* \"#utility.yul\":23294:23370   */\n      tag_257\n      jump\t// in\n    tag_456:\n        /* \"#utility.yul\":23286:23370   */\n      swap1\n      pop\n        /* \"#utility.yul\":22848:23377   */\n      swap5\n      swap4\n      pop\n      pop\n      pop\n      pop\n      jump\t// out\n        /* \"#utility.yul\":23383:23936   */\n    tag_196:\n        /* \"#utility.yul\":23560:23564   */\n      0x00\n        /* \"#utility.yul\":23598:23601   */\n      0x80\n        /* \"#utility.yul\":23587:23596   */\n      dup3\n        /* \"#utility.yul\":23583:23602   */\n      add\n        /* \"#utility.yul\":23575:23602   */\n      swap1\n      pop\n        /* \"#utility.yul\":23612:23683   */\n      tag_458\n        /* \"#utility.yul\":23680:23681   */\n      0x00\n        /* \"#utility.yul\":23669:23678   */\n      dup4\n        /* \"#utility.yul\":23665:23682   */\n      add\n        /* \"#utility.yul\":23656:23662   */\n      dup8\n        /* \"#utility.yul\":23612:23683   */\n      tag_252\n      jump\t// in\n    tag_458:\n        /* \"#utility.yul\":23693:23765   */\n      tag_459\n        /* \"#utility.yul\":23761:23763   */\n      0x20\n        /* \"#utility.yul\":23750:23759   */\n      dup4\n        /* \"#utility.yul\":23746:23764   */\n      add\n        /* \"#utility.yul\":23737:23743   */\n      dup7\n        /* \"#utility.yul\":23693:23765   */\n      tag_201\n      jump\t// in\n    tag_459:\n        /* \"#utility.yul\":23775:23847   */\n      tag_460\n        /* \"#utility.yul\":23843:23845   */\n      0x40\n        /* \"#utility.yul\":23832:23841   */\n      dup4\n        /* \"#utility.yul\":23828:23846   */\n      add\n        /* \"#utility.yul\":23819:23825   */\n      dup6\n        /* \"#utility.yul\":23775:23847   */\n      tag_211\n      jump\t// in\n    tag_460:\n        /* \"#utility.yul\":23857:23929   */\n      tag_461\n        /* \"#utility.yul\":23925:23927   */\n      0x60\n        /* \"#utility.yul\":23914:23923   */\n      dup4\n        /* \"#utility.yul\":23910:23928   */\n      add\n        /* \"#utility.yul\":23901:23907   */\n      dup5\n        /* \"#utility.yul\":23857:23929   */\n      tag_201\n      jump\t// in\n    tag_461:\n        /* \"#utility.yul\":23383:23936   */\n      swap6\n      swap5\n      pop\n      pop\n      pop\n      pop\n      pop\n      jump\t// out\n        /* \"#utility.yul\":23942:24021   */\n    tag_258:\n        /* \"#utility.yul\":23981:23988   */\n      0x00\n        /* \"#utility.yul\":24010:24015   */\n      dup2\n        /* \"#utility.yul\":23999:24015   */\n      swap1\n      pop\n        /* \"#utility.yul\":23942:24021   */\n      swap2\n      swap1\n      pop\n      jump\t// out\n        /* \"#utility.yul\":24027:24184   */\n    tag_259:\n        /* \"#utility.yul\":24132:24177   */\n      tag_464\n        /* \"#utility.yul\":24152:24176   */\n      tag_465\n        /* \"#utility.yul\":24170:24175   */\n      dup3\n        /* \"#utility.yul\":24152:24176   */\n      tag_212\n      jump\t// in\n    tag_465:\n        /* \"#utility.yul\":24132:24177   */\n      tag_258\n      jump\t// in\n    tag_464:\n        /* \"#utility.yul\":24127:24130   */\n      dup3\n        /* \"#utility.yul\":24120:24178   */\n      mstore\n        /* \"#utility.yul\":24027:24184   */\n      pop\n      pop\n      jump\t// out\n        /* \"#utility.yul\":24190:24269   */\n    tag_260:\n        /* \"#utility.yul\":24229:24236   */\n      0x00\n        /* \"#utility.yul\":24258:24263   */\n      dup2\n        /* \"#utility.yul\":24247:24263   */\n      swap1\n      pop\n        /* \"#utility.yul\":24190:24269   */\n      swap2\n      swap1\n      pop\n      jump\t// out\n        /* \"#utility.yul\":24275:24432   */\n    tag_261:\n        /* \"#utility.yul\":24380:24425   */\n      tag_468\n        /* \"#utility.yul\":24400:24424   */\n      tag_469\n        /* \"#utility.yul\":24418:24423   */\n      dup3\n        /* \"#utility.yul\":24400:24424   */\n      tag_200\n      jump\t// in\n    tag_469:\n        /* \"#utility.yul\":24380:24425   */\n      tag_260\n      jump\t// in\n    tag_468:\n        /* \"#utility.yul\":24375:24378   */\n      dup3\n        /* \"#utility.yul\":24368:24426   */\n      mstore\n        /* \"#utility.yul\":24275:24432   */\n      pop\n      pop\n      jump\t// out\n        /* \"#utility.yul\":24438:24835   */\n    tag_199:\n        /* \"#utility.yul\":24578:24581   */\n      0x00\n        /* \"#utility.yul\":24593:24668   */\n      tag_471\n        /* \"#utility.yul\":24664:24667   */\n      dup3\n        /* \"#utility.yul\":24655:24661   */\n      dup6\n        /* \"#utility.yul\":24593:24668   */\n      tag_259\n      jump\t// in\n    tag_471:\n        /* \"#utility.yul\":24693:24695   */\n      0x20\n        /* \"#utility.yul\":24688:24691   */\n      dup3\n        /* \"#utility.yul\":24684:24696   */\n      add\n        /* \"#utility.yul\":24677:24696   */\n      swap2\n      pop\n        /* \"#utility.yul\":24706:24781   */\n      tag_472\n        /* \"#utility.yul\":24777:24780   */\n      dup3\n        /* \"#utility.yul\":24768:24774   */\n      dup5\n        /* \"#utility.yul\":24706:24781   */\n      tag_261\n      jump\t// in\n    tag_472:\n        /* \"#utility.yul\":24806:24808   */\n      0x20\n        /* \"#utility.yul\":24801:24804   */\n      dup3\n        /* \"#utility.yul\":24797:24809   */\n      add\n        /* \"#utility.yul\":24790:24809   */\n      swap2\n      pop\n        /* \"#utility.yul\":24826:24829   */\n      dup2\n        /* \"#utility.yul\":24819:24829   */\n      swap1\n      pop\n        /* \"#utility.yul\":24438:24835   */\n      swap4\n      swap3\n      pop\n      pop\n      pop\n      jump\t// out\n\n    auxdata: 0xa26469706673582212203d08a966c897c8af6489a72340526bec73f580dc4de79ceef4afd17376dd1c4b64736f6c63430008130033\n}\n",
				"bytecode": {
					"linkReferences": {},
					"object": "60c06040526000600c60006101000a81548160ff0219169083151502179055506000600c60016101000a81548160ff0219169083151502179055503480156200004757600080fd5b506040516200226f3803806200226f83398181016040528101906200006d91906200021a565b84848173ffffffffffffffffffffffffffffffffffffffff1660a08173ffffffffffffffffffffffffffffffffffffffff16815250508073ffffffffffffffffffffffffffffffffffffffff1660808173ffffffffffffffffffffffffffffffffffffffff1681525050505033600160006101000a81548173ffffffffffffffffffffffffffffffffffffffff021916908373ffffffffffffffffffffffffffffffffffffffff1602179055508260068190555081600781905550806002819055505050505050620002a2565b600080fd5b600073ffffffffffffffffffffffffffffffffffffffff82169050919050565b60006200016c826200013f565b9050919050565b6200017e816200015f565b81146200018a57600080fd5b50565b6000815190506200019e8162000173565b92915050565b6000819050919050565b620001b981620001a4565b8114620001c557600080fd5b50565b600081519050620001d981620001ae565b92915050565b6000819050919050565b620001f481620001df565b81146200020057600080fd5b50565b6000815190506200021481620001e9565b92915050565b600080600080600060a086880312156200023957620002386200013a565b5b600062000249888289016200018d565b95505060206200025c888289016200018d565b94505060406200026f88828901620001c8565b9350506060620002828882890162000203565b9250506080620002958882890162000203565b9150509295509295909350565b60805160a051611f8b620002e460003960008181610ac2015261115f0152600081816108ac0152818161090b01528181610f3301526111230152611f8b6000f3fe6080604052600436106100c25760003560e01c80638dc654a21161007f578063b2185bb111610059578063b2185bb114610223578063cfbd900f1461023a578063dfbf53ae14610265578063f71d96cb14610290576100c2565b80638dc654a2146101b85780638e7ea5b2146101cf57806394985ddd146101fa576100c2565b80631209b1f6146100c757806348d37a58146100f257806367dd74ca146101095780636dcbf2a3146101255780637390c786146101625780638da5cb5b1461018d575b600080fd5b3480156100d357600080fd5b506100dc6102cd565b6040516100e991906112f7565b60405180910390f35b3480156100fe57600080fd5b506101076102d3565b005b610123600480360381019061011e9190611343565b610522565b005b34801561013157600080fd5b5061014c600480360381019061014791906113ce565b6107d2565b60405161015991906112f7565b60405180910390f35b34801561016e57600080fd5b506101776107ea565b60405161018491906112f7565b60405180910390f35b34801561019957600080fd5b506101a26107f4565b6040516101af919061140a565b60405180910390f35b3480156101c457600080fd5b506101cd61081a565b005b3480156101db57600080fd5b506101e4610a06565b6040516101f1919061140a565b60405180910390f35b34801561020657600080fd5b50610221600480360381019061021c919061145b565b610ac0565b005b34801561022f57600080fd5b50610238610b5c565b005b34801561024657600080fd5b5061024f610d1c565b60405161025c91906112f7565b60405180910390f35b34801561027157600080fd5b5061027a610d22565b604051610287919061140a565b60405180910390f35b34801561029c57600080fd5b506102b760048036038101906102b29190611343565b610d48565b6040516102c4919061140a565b60405180910390f35b60025481565b600160009054906101000a900473ffffffffffffffffffffffffffffffffffffffff1673ffffffffffffffffffffffffffffffffffffffff163373ffffffffffffffffffffffffffffffffffffffff1614610363576040517f08c379a000000000000000000000000000000000000000000000000000000000815260040161035a9061151e565b60405180910390fd5b600073ffffffffffffffffffffffffffffffffffffffff16600460009054906101000a900473ffffffffffffffffffffffffffffffffffffffff1673ffffffffffffffffffffffffffffffffffffffff16036103f4576040517f08c379a00000000000000000000000000000000000000000000000000000000081526004016103eb9061158a565b60405180910390fd5b600c60009054906101000a900460ff1615610444576040517f08c379a000000000000000000000000000000000000000000000000000000000815260040161043b906115f6565b60405180910390fd5b60006003546002546104569190611645565b90508047101561049b576040517f08c379a0000000000000000000000000000000000000000000000000000000008152600401610492906116f9565b60405180910390fd5b600460009054906101000a900473ffffffffffffffffffffffffffffffffffffffff1673ffffffffffffffffffffffffffffffffffffffff166108fc829081150290604051600060405180830381858888f19350505050158015610503573d6000803e3d6000fd5b506001600c60006101000a81548160ff02191690831515021790555050565b60008111610565576040517f08c379a000000000000000000000000000000000000000000000000000000000815260040161055c9061178b565b60405180910390fd5b806002546105739190611645565b3410156105b5576040517f08c379a00000000000000000000000000000000000000000000000000000000081526004016105ac906117f7565b60405180910390fd5b806002546105c39190611645565b471015610605576040517f08c379a00000000000000000000000000000000000000000000000000000000081526004016105fc90611863565b60405180910390fd5b80600a60003373ffffffffffffffffffffffffffffffffffffffff1673ffffffffffffffffffffffffffffffffffffffff16815260200190815260200160002060008282546106549190611883565b92505081905550600b60003373ffffffffffffffffffffffffffffffffffffffff1673ffffffffffffffffffffffffffffffffffffffff16815260200190815260200160002060009054906101000a900460ff16610768576008339080600181540180825580915050600190039060005260206000200160009091909190916101000a81548173ffffffffffffffffffffffffffffffffffffffff021916908373ffffffffffffffffffffffffffffffffffffffff1602179055506001600b60003373ffffffffffffffffffffffffffffffffffffffff1673ffffffffffffffffffffffffffffffffffffffff16815260200190815260200160002060006101000a81548160ff0219169083151502179055505b806003600082825461077a9190611883565b925050819055503373ffffffffffffffffffffffffffffffffffffffff167f0668f5b446eb814fe35b3206f43f14bd8567ba04ddaf7a3ee56516929ab22ccb826040516107c791906112f7565b60405180910390a250565b600a6020528060005260406000206000915090505481565b6000600554905090565b600160009054906101000a900473ffffffffffffffffffffffffffffffffffffffff1681565b600160009054906101000a900473ffffffffffffffffffffffffffffffffffffffff1673ffffffffffffffffffffffffffffffffffffffff163373ffffffffffffffffffffffffffffffffffffffff16146108aa576040517f08c379a00000000000000000000000000000000000000000000000000000000081526004016108a19061151e565b60405180910390fd5b7f000000000000000000000000000000000000000000000000000000000000000073ffffffffffffffffffffffffffffffffffffffff1663a9059cbb600160009054906101000a900473ffffffffffffffffffffffffffffffffffffffff167f000000000000000000000000000000000000000000000000000000000000000073ffffffffffffffffffffffffffffffffffffffff166370a08231306040518263ffffffff1660e01b8152600401610962919061140a565b602060405180830381865afa15801561097f573d6000803e3d6000fd5b505050506040513d601f19601f820116820180604052508101906109a391906118cc565b6040518363ffffffff1660e01b81526004016109c09291906118f9565b6020604051808303816000875af11580156109df573d6000803e3d6000fd5b505050506040513d601f19601f82011682018060405250810190610a03919061195a565b50565b60008073ffffffffffffffffffffffffffffffffffffffff16600460009054906101000a900473ffffffffffffffffffffffffffffffffffffffff1673ffffffffffffffffffffffffffffffffffffffff1603610a98576040517f08c379a0000000000000000000000000000000000000000000000000000000008152600401610a8f9061158a565b60405180910390fd5b600460009054906101000a900473ffffffffffffffffffffffffffffffffffffffff16905090565b7f000000000000000000000000000000000000000000000000000000000000000073ffffffffffffffffffffffffffffffffffffffff163373ffffffffffffffffffffffffffffffffffffffff1614610b4e576040517f08c379a0000000000000000000000000000000000000000000000000000000008152600401610b45906119d3565b60405180910390fd5b610b588282610d87565b5050565b600160009054906101000a900473ffffffffffffffffffffffffffffffffffffffff1673ffffffffffffffffffffffffffffffffffffffff163373ffffffffffffffffffffffffffffffffffffffff1614610bec576040517f08c379a0000000000000000000000000000000000000000000000000000000008152600401610be39061151e565b60405180910390fd5b600073ffffffffffffffffffffffffffffffffffffffff16600460009054906101000a900473ffffffffffffffffffffffffffffffffffffffff1673ffffffffffffffffffffffffffffffffffffffff1614610c7d576040517f08c379a0000000000000000000000000000000000000000000000000000000008152600401610c7490611a3f565b60405180910390fd5b600060035411610cc2576040517f08c379a0000000000000000000000000000000000000000000000000000000008152600401610cb990611aab565b60405180910390fd5b600c60019054906101000a900460ff1615610d12576040517f08c379a0000000000000000000000000000000000000000000000000000000008152600401610d0990611b3d565b60405180910390fd5b610d1a610f2e565b565b60035481565b600460009054906101000a900473ffffffffffffffffffffffffffffffffffffffff1681565b60088181548110610d5857600080fd5b906000526020600020016000915054906101000a900473ffffffffffffffffffffffffffffffffffffffff1681565b6009548214610dcb576040517f08c379a0000000000000000000000000000000000000000000000000000000008152600401610dc290611ba9565b60405180910390fd5b60008111610e0e576040517f08c379a0000000000000000000000000000000000000000000000000000000008152600401610e0590611c15565b60405180910390fd5b80600581905550600060088054905082610e289190611c64565b905060088181548110610e3e57610e3d611c95565b5b9060005260206000200160009054906101000a900473ffffffffffffffffffffffffffffffffffffffff16600460006101000a81548173ffffffffffffffffffffffffffffffffffffffff021916908373ffffffffffffffffffffffffffffffffffffffff160217905550600460009054906101000a900473ffffffffffffffffffffffffffffffffffffffff1673ffffffffffffffffffffffffffffffffffffffff167fb1899e5911a12372a7fa329d3051f8358e8f5156f66bcf69707ea096419681b760405160405180910390a26000600c60016101000a81548160ff021916908315150217905550505050565b6007547f000000000000000000000000000000000000000000000000000000000000000073ffffffffffffffffffffffffffffffffffffffff166370a08231306040518263ffffffff1660e01b8152600401610f8a919061140a565b602060405180830381865afa158015610fa7573d6000803e3d6000fd5b505050506040513d601f19601f82011682018060405250810190610fcb91906118cc565b101561100c576040517f08c379a000000000000000000000000000000000000000000000000000000000815260040161100390611d10565b60405180910390fd5b6000801b60065403611053576040517f08c379a000000000000000000000000000000000000000000000000000000000815260040161104a90611d7c565b60405180910390fd5b600060035411611098576040517f08c379a000000000000000000000000000000000000000000000000000000000815260040161108f90611aab565b60405180910390fd5b600c60019054906101000a900460ff16156110e8576040517f08c379a00000000000000000000000000000000000000000000000000000000081526004016110df90611b3d565b60405180910390fd5b60006110f860065460075461111f565b9050806009819055506001600c60016101000a81548160ff02191690831515021790555050565b60007f000000000000000000000000000000000000000000000000000000000000000073ffffffffffffffffffffffffffffffffffffffff16634000aea07f000000000000000000000000000000000000000000000000000000000000000084866000604051602001611193929190611dab565b6040516020818303038152906040526040518463ffffffff1660e01b81526004016111c093929190611e64565b6020604051808303816000875af11580156111df573d6000803e3d6000fd5b505050506040513d601f19601f82011682018060405250810190611203919061195a565b506000611225846000306000808981526020019081526020016000205461126f565b90506001600080868152602001908152602001600020546112469190611883565b6000808681526020019081526020016000208190555061126684826112ab565b91505092915050565b6000848484846040516020016112889493929190611ea2565b6040516020818303038152906040528051906020012060001c9050949350505050565b600082826040516020016112c0929190611f29565b60405160208183030381529060405280519060200120905092915050565b6000819050919050565b6112f1816112de565b82525050565b600060208201905061130c60008301846112e8565b92915050565b600080fd5b611320816112de565b811461132b57600080fd5b50565b60008135905061133d81611317565b92915050565b60006020828403121561135957611358611312565b5b60006113678482850161132e565b91505092915050565b600073ffffffffffffffffffffffffffffffffffffffff82169050919050565b600061139b82611370565b9050919050565b6113ab81611390565b81146113b657600080fd5b50565b6000813590506113c8816113a2565b92915050565b6000602082840312156113e4576113e3611312565b5b60006113f2848285016113b9565b91505092915050565b61140481611390565b82525050565b600060208201905061141f60008301846113fb565b92915050565b6000819050919050565b61143881611425565b811461144357600080fd5b50565b6000813590506114558161142f565b92915050565b6000806040838503121561147257611471611312565b5b600061148085828601611446565b92505060206114918582860161132e565b9150509250929050565b600082825260208201905092915050565b7f4f6e6c7920746865206f776e65722063616e2063616c6c20746869732066756e60008201527f6374696f6e000000000000000000000000000000000000000000000000000000602082015250565b600061150860258361149b565b9150611513826114ac565b604082019050919050565b60006020820190508181036000830152611537816114fb565b9050919050565b7f57696e6e657220686173206e6f74206265656e20647261776e20796574000000600082015250565b6000611574601d8361149b565b915061157f8261153e565b602082019050919050565b600060208201905081810360008301526115a381611567565b9050919050565b7f5072697a652068617320616c7265616479206265656e2077697468647261776e600082015250565b60006115e060208361149b565b91506115eb826115aa565b602082019050919050565b6000602082019050818103600083015261160f816115d3565b9050919050565b7f4e487b7100000000000000000000000000000000000000000000000000000000600052601160045260246000fd5b6000611650826112de565b915061165b836112de565b9250828202611669816112de565b915082820484148315176116805761167f611616565b5b5092915050565b7f4e6f7420656e6f75676820457468657220746f2070617920746865207072697a60008201527f6500000000000000000000000000000000000000000000000000000000000000602082015250565b60006116e360218361149b565b91506116ee82611687565b604082019050919050565b60006020820190508181036000830152611712816116d6565b9050919050565b7f4e756d626572206f66207469636b6574732073686f756c64206265206772656160008201527f746572207468616e203000000000000000000000000000000000000000000000602082015250565b6000611775602a8361149b565b915061178082611719565b604082019050919050565b600060208201905081810360008301526117a481611768565b9050919050565b7f4e6f7420656e6f7567682065746865722073656e740000000000000000000000600082015250565b60006117e160158361149b565b91506117ec826117ab565b602082019050919050565b60006020820190508181036000830152611810816117d4565b9050919050565b7f436f6e74726163742068617320696e73756666696369656e742066756e647300600082015250565b600061184d601f8361149b565b915061185882611817565b602082019050919050565b6000602082019050818103600083015261187c81611840565b9050919050565b600061188e826112de565b9150611899836112de565b92508282019050808211156118b1576118b0611616565b5b92915050565b6000815190506118c681611317565b92915050565b6000602082840312156118e2576118e1611312565b5b60006118f0848285016118b7565b91505092915050565b600060408201905061190e60008301856113fb565b61191b60208301846112e8565b9392505050565b60008115159050919050565b61193781611922565b811461194257600080fd5b50565b6000815190506119548161192e565b92915050565b6000602082840312156119705761196f611312565b5b600061197e84828501611945565b91505092915050565b7f4f6e6c7920565246436f6f7264696e61746f722063616e2066756c66696c6c00600082015250565b60006119bd601f8361149b565b91506119c882611987565b602082019050919050565b600060208201905081810360008301526119ec816119b0565b9050919050565b7f57696e6e657220616c72656164792073656c6563746564000000000000000000600082015250565b6000611a2960178361149b565b9150611a34826119f3565b602082019050919050565b60006020820190508181036000830152611a5881611a1c565b9050919050565b7f4e6f207469636b65747320707572636861736564207965740000000000000000600082015250565b6000611a9560188361149b565b9150611aa082611a5f565b602082019050919050565b60006020820190508181036000830152611ac481611a88565b9050919050565b7f52616e646f6d206e756d626572207265717565737420616c726561647920696e60008201527f2070726f67726573730000000000000000000000000000000000000000000000602082015250565b6000611b2760298361149b565b9150611b3282611acb565b604082019050919050565b60006020820190508181036000830152611b5681611b1a565b9050919050565b7f57726f6e67207265717565737449640000000000000000000000000000000000600082015250565b6000611b93600f8361149b565b9150611b9e82611b5d565b602082019050919050565b60006020820190508181036000830152611bc281611b86565b9050919050565b7f52616e646f6d206e756d626572206e6f742067656e6572617465640000000000600082015250565b6000611bff601b8361149b565b9150611c0a82611bc9565b602082019050919050565b60006020820190508181036000830152611c2e81611bf2565b9050919050565b7f4e487b7100000000000000000000000000000000000000000000000000000000600052601260045260246000fd5b6000611c6f826112de565b9150611c7a836112de565b925082611c8a57611c89611c35565b5b828206905092915050565b7f4e487b7100000000000000000000000000000000000000000000000000000000600052603260045260246000fd5b7f4e6f7420656e6f756768204c494e4b20746f2070617920666565000000000000600082015250565b6000611cfa601a8361149b565b9150611d0582611cc4565b602082019050919050565b60006020820190508181036000830152611d2981611ced565b9050919050565b7f4d75737420686176652076616c6964206b657948617368000000000000000000600082015250565b6000611d6660178361149b565b9150611d7182611d30565b602082019050919050565b60006020820190508181036000830152611d9581611d59565b9050919050565b611da581611425565b82525050565b6000604082019050611dc06000830185611d9c565b611dcd60208301846112e8565b9392505050565b600081519050919050565b600082825260208201905092915050565b60005b83811015611e0e578082015181840152602081019050611df3565b60008484015250505050565b6000601f19601f8301169050919050565b6000611e3682611dd4565b611e408185611ddf565b9350611e50818560208601611df0565b611e5981611e1a565b840191505092915050565b6000606082019050611e7960008301866113fb565b611e8660208301856112e8565b8181036040830152611e988184611e2b565b9050949350505050565b6000608082019050611eb76000830187611d9c565b611ec460208301866112e8565b611ed160408301856113fb565b611ede60608301846112e8565b95945050505050565b6000819050919050565b611f02611efd82611425565b611ee7565b82525050565b6000819050919050565b611f23611f1e826112de565b611f08565b82525050565b6000611f358285611ef1565b602082019150611f458284611f12565b602082019150819050939250505056fea26469706673582212203d08a966c897c8af6489a72340526bec73f580dc4de79ceef4afd17376dd1c4b64736f6c63430008130033",
					"opcodes": "PUSH1 0xC0 PUSH1 0x40 MSTORE PUSH1 0x0 PUSH1 0xC PUSH1 0x0 PUSH2 0x100 EXP DUP2 SLOAD DUP2 PUSH1 0xFF MUL NOT AND SWAP1 DUP4 ISZERO ISZERO MUL OR SWAP1 SSTORE POP PUSH1 0x0 PUSH1 0xC PUSH1 0x1 PUSH2 0x100 EXP DUP2 SLOAD DUP2 PUSH1 0xFF MUL NOT AND SWAP1 DUP4 ISZERO ISZERO MUL OR SWAP1 SSTORE POP CALLVALUE DUP1 ISZERO PUSH3 0x47 JUMPI PUSH1 0x0 DUP1 REVERT JUMPDEST POP PUSH1 0x40 MLOAD PUSH3 0x226F CODESIZE SUB DUP1 PUSH3 0x226F DUP4 CODECOPY DUP2 DUP2 ADD PUSH1 0x40 MSTORE DUP2 ADD SWAP1 PUSH3 0x6D SWAP2 SWAP1 PUSH3 0x21A JUMP JUMPDEST DUP5 DUP5 DUP2 PUSH20 0xFFFFFFFFFFFFFFFFFFFFFFFFFFFFFFFFFFFFFFFF AND PUSH1 0xA0 DUP2 PUSH20 0xFFFFFFFFFFFFFFFFFFFFFFFFFFFFFFFFFFFFFFFF AND DUP2 MSTORE POP POP DUP1 PUSH20 0xFFFFFFFFFFFFFFFFFFFFFFFFFFFFFFFFFFFFFFFF AND PUSH1 0x80 DUP2 PUSH20 0xFFFFFFFFFFFFFFFFFFFFFFFFFFFFFFFFFFFFFFFF AND DUP2 MSTORE POP POP POP POP CALLER PUSH1 0x1 PUSH1 0x0 PUSH2 0x100 EXP DUP2 SLOAD DUP2 PUSH20 0xFFFFFFFFFFFFFFFFFFFFFFFFFFFFFFFFFFFFFFFF MUL NOT AND SWAP1 DUP4 PUSH20 0xFFFFFFFFFFFFFFFFFFFFFFFFFFFFFFFFFFFFFFFF AND MUL OR SWAP1 SSTORE POP DUP3 PUSH1 0x6 DUP2 SWAP1 SSTORE POP DUP2 PUSH1 0x7 DUP2 SWAP1 SSTORE POP DUP1 PUSH1 0x2 DUP2 SWAP1 SSTORE POP POP POP POP POP POP PUSH3 0x2A2 JUMP JUMPDEST PUSH1 0x0 DUP1 REVERT JUMPDEST PUSH1 0x0 PUSH20 0xFFFFFFFFFFFFFFFFFFFFFFFFFFFFFFFFFFFFFFFF DUP3 AND SWAP1 POP SWAP2 SWAP1 POP JUMP JUMPDEST PUSH1 0x0 PUSH3 0x16C DUP3 PUSH3 0x13F JUMP JUMPDEST SWAP1 POP SWAP2 SWAP1 POP JUMP JUMPDEST PUSH3 0x17E DUP2 PUSH3 0x15F JUMP JUMPDEST DUP2 EQ PUSH3 0x18A JUMPI PUSH1 0x0 DUP1 REVERT JUMPDEST POP JUMP JUMPDEST PUSH1 0x0 DUP2 MLOAD SWAP1 POP PUSH3 0x19E DUP2 PUSH3 0x173 JUMP JUMPDEST SWAP3 SWAP2 POP POP JUMP JUMPDEST PUSH1 0x0 DUP2 SWAP1 POP SWAP2 SWAP1 POP JUMP JUMPDEST PUSH3 0x1B9 DUP2 PUSH3 0x1A4 JUMP JUMPDEST DUP2 EQ PUSH3 0x1C5 JUMPI PUSH1 0x0 DUP1 REVERT JUMPDEST POP JUMP JUMPDEST PUSH1 0x0 DUP2 MLOAD SWAP1 POP PUSH3 0x1D9 DUP2 PUSH3 0x1AE JUMP JUMPDEST SWAP3 SWAP2 POP POP JUMP JUMPDEST PUSH1 0x0 DUP2 SWAP1 POP SWAP2 SWAP1 POP JUMP JUMPDEST PUSH3 0x1F4 DUP2 PUSH3 0x1DF JUMP JUMPDEST DUP2 EQ PUSH3 0x200 JUMPI PUSH1 0x0 DUP1 REVERT JUMPDEST POP JUMP JUMPDEST PUSH1 0x0 DUP2 MLOAD SWAP1 POP PUSH3 0x214 DUP2 PUSH3 0x1E9 JUMP JUMPDEST SWAP3 SWAP2 POP POP JUMP JUMPDEST PUSH1 0x0 DUP1 PUSH1 0x0 DUP1 PUSH1 0x0 PUSH1 0xA0 DUP7 DUP9 SUB SLT ISZERO PUSH3 0x239 JUMPI PUSH3 0x238 PUSH3 0x13A JUMP JUMPDEST JUMPDEST PUSH1 0x0 PUSH3 0x249 DUP9 DUP3 DUP10 ADD PUSH3 0x18D JUMP JUMPDEST SWAP6 POP POP PUSH1 0x20 PUSH3 0x25C DUP9 DUP3 DUP10 ADD PUSH3 0x18D JUMP JUMPDEST SWAP5 POP POP PUSH1 0x40 PUSH3 0x26F DUP9 DUP3 DUP10 ADD PUSH3 0x1C8 JUMP JUMPDEST SWAP4 POP POP PUSH1 0x60 PUSH3 0x282 DUP9 DUP3 DUP10 ADD PUSH3 0x203 JUMP JUMPDEST SWAP3 POP POP PUSH1 0x80 PUSH3 0x295 DUP9 DUP3 DUP10 ADD PUSH3 0x203 JUMP JUMPDEST SWAP2 POP POP SWAP3 SWAP6 POP SWAP3 SWAP6 SWAP1 SWAP4 POP JUMP JUMPDEST PUSH1 0x80 MLOAD PUSH1 0xA0 MLOAD PUSH2 0x1F8B PUSH3 0x2E4 PUSH1 0x0 CODECOPY PUSH1 0x0 DUP2 DUP2 PUSH2 0xAC2 ADD MSTORE PUSH2 0x115F ADD MSTORE PUSH1 0x0 DUP2 DUP2 PUSH2 0x8AC ADD MSTORE DUP2 DUP2 PUSH2 0x90B ADD MSTORE DUP2 DUP2 PUSH2 0xF33 ADD MSTORE PUSH2 0x1123 ADD MSTORE PUSH2 0x1F8B PUSH1 0x0 RETURN INVALID PUSH1 0x80 PUSH1 0x40 MSTORE PUSH1 0x4 CALLDATASIZE LT PUSH2 0xC2 JUMPI PUSH1 0x0 CALLDATALOAD PUSH1 0xE0 SHR DUP1 PUSH4 0x8DC654A2 GT PUSH2 0x7F JUMPI DUP1 PUSH4 0xB2185BB1 GT PUSH2 0x59 JUMPI DUP1 PUSH4 0xB2185BB1 EQ PUSH2 0x223 JUMPI DUP1 PUSH4 0xCFBD900F EQ PUSH2 0x23A JUMPI DUP1 PUSH4 0xDFBF53AE EQ PUSH2 0x265 JUMPI DUP1 PUSH4 0xF71D96CB EQ PUSH2 0x290 JUMPI PUSH2 0xC2 JUMP JUMPDEST DUP1 PUSH4 0x8DC654A2 EQ PUSH2 0x1B8 JUMPI DUP1 PUSH4 0x8E7EA5B2 EQ PUSH2 0x1CF JUMPI DUP1 PUSH4 0x94985DDD EQ PUSH2 0x1FA JUMPI PUSH2 0xC2 JUMP JUMPDEST DUP1 PUSH4 0x1209B1F6 EQ PUSH2 0xC7 JUMPI DUP1 PUSH4 0x48D37A58 EQ PUSH2 0xF2 JUMPI DUP1 PUSH4 0x67DD74CA EQ PUSH2 0x109 JUMPI DUP1 PUSH4 0x6DCBF2A3 EQ PUSH2 0x125 JUMPI DUP1 PUSH4 0x7390C786 EQ PUSH2 0x162 JUMPI DUP1 PUSH4 0x8DA5CB5B EQ PUSH2 0x18D JUMPI JUMPDEST PUSH1 0x0 DUP1 REVERT JUMPDEST CALLVALUE DUP1 ISZERO PUSH2 0xD3 JUMPI PUSH1 0x0 DUP1 REVERT JUMPDEST POP PUSH2 0xDC PUSH2 0x2CD JUMP JUMPDEST PUSH1 0x40 MLOAD PUSH2 0xE9 SWAP2 SWAP1 PUSH2 0x12F7 JUMP JUMPDEST PUSH1 0x40 MLOAD DUP1 SWAP2 SUB SWAP1 RETURN JUMPDEST CALLVALUE DUP1 ISZERO PUSH2 0xFE JUMPI PUSH1 0x0 DUP1 REVERT JUMPDEST POP PUSH2 0x107 PUSH2 0x2D3 JUMP JUMPDEST STOP JUMPDEST PUSH2 0x123 PUSH1 0x4 DUP1 CALLDATASIZE SUB DUP2 ADD SWAP1 PUSH2 0x11E SWAP2 SWAP1 PUSH2 0x1343 JUMP JUMPDEST PUSH2 0x522 JUMP JUMPDEST STOP JUMPDEST CALLVALUE DUP1 ISZERO PUSH2 0x131 JUMPI PUSH1 0x0 DUP1 REVERT JUMPDEST POP PUSH2 0x14C PUSH1 0x4 DUP1 CALLDATASIZE SUB DUP2 ADD SWAP1 PUSH2 0x147 SWAP2 SWAP1 PUSH2 0x13CE JUMP JUMPDEST PUSH2 0x7D2 JUMP JUMPDEST PUSH1 0x40 MLOAD PUSH2 0x159 SWAP2 SWAP1 PUSH2 0x12F7 JUMP JUMPDEST PUSH1 0x40 MLOAD DUP1 SWAP2 SUB SWAP1 RETURN JUMPDEST CALLVALUE DUP1 ISZERO PUSH2 0x16E JUMPI PUSH1 0x0 DUP1 REVERT JUMPDEST POP PUSH2 0x177 PUSH2 0x7EA JUMP JUMPDEST PUSH1 0x40 MLOAD PUSH2 0x184 SWAP2 SWAP1 PUSH2 0x12F7 JUMP JUMPDEST PUSH1 0x40 MLOAD DUP1 SWAP2 SUB SWAP1 RETURN JUMPDEST CALLVALUE DUP1 ISZERO PUSH2 0x199 JUMPI PUSH1 0x0 DUP1 REVERT JUMPDEST POP PUSH2 0x1A2 PUSH2 0x7F4 JUMP JUMPDEST PUSH1 0x40 MLOAD PUSH2 0x1AF SWAP2 SWAP1 PUSH2 0x140A JUMP JUMPDEST PUSH1 0x40 MLOAD DUP1 SWAP2 SUB SWAP1 RETURN JUMPDEST CALLVALUE DUP1 ISZERO PUSH2 0x1C4 JUMPI PUSH1 0x0 DUP1 REVERT JUMPDEST POP PUSH2 0x1CD PUSH2 0x81A JUMP JUMPDEST STOP JUMPDEST CALLVALUE DUP1 ISZERO PUSH2 0x1DB JUMPI PUSH1 0x0 DUP1 REVERT JUMPDEST POP PUSH2 0x1E4 PUSH2 0xA06 JUMP JUMPDEST PUSH1 0x40 MLOAD PUSH2 0x1F1 SWAP2 SWAP1 PUSH2 0x140A JUMP JUMPDEST PUSH1 0x40 MLOAD DUP1 SWAP2 SUB SWAP1 RETURN JUMPDEST CALLVALUE DUP1 ISZERO PUSH2 0x206 JUMPI PUSH1 0x0 DUP1 REVERT JUMPDEST POP PUSH2 0x221 PUSH1 0x4 DUP1 CALLDATASIZE SUB DUP2 ADD SWAP1 PUSH2 0x21C SWAP2 SWAP1 PUSH2 0x145B JUMP JUMPDEST PUSH2 0xAC0 JUMP JUMPDEST STOP JUMPDEST CALLVALUE DUP1 ISZERO PUSH2 0x22F JUMPI PUSH1 0x0 DUP1 REVERT JUMPDEST POP PUSH2 0x238 PUSH2 0xB5C JUMP JUMPDEST STOP JUMPDEST CALLVALUE DUP1 ISZERO PUSH2 0x246 JUMPI PUSH1 0x0 DUP1 REVERT JUMPDEST POP PUSH2 0x24F PUSH2 0xD1C JUMP JUMPDEST PUSH1 0x40 MLOAD PUSH2 0x25C SWAP2 SWAP1 PUSH2 0x12F7 JUMP JUMPDEST PUSH1 0x40 MLOAD DUP1 SWAP2 SUB SWAP1 RETURN JUMPDEST CALLVALUE DUP1 ISZERO PUSH2 0x271 JUMPI PUSH1 0x0 DUP1 REVERT JUMPDEST POP PUSH2 0x27A PUSH2 0xD22 JUMP JUMPDEST PUSH1 0x40 MLOAD PUSH2 0x287 SWAP2 SWAP1 PUSH2 0x140A JUMP JUMPDEST PUSH1 0x40 MLOAD DUP1 SWAP2 SUB SWAP1 RETURN JUMPDEST CALLVALUE DUP1 ISZERO PUSH2 0x29C JUMPI PUSH1 0x0 DUP1 REVERT JUMPDEST POP PUSH2 0x2B7 PUSH1 0x4 DUP1 CALLDATASIZE SUB DUP2 ADD SWAP1 PUSH2 0x2B2 SWAP2 SWAP1 PUSH2 0x1343 JUMP JUMPDEST PUSH2 0xD48 JUMP JUMPDEST PUSH1 0x40 MLOAD PUSH2 0x2C4 SWAP2 SWAP1 PUSH2 0x140A JUMP JUMPDEST PUSH1 0x40 MLOAD DUP1 SWAP2 SUB SWAP1 RETURN JUMPDEST PUSH1 0x2 SLOAD DUP2 JUMP JUMPDEST PUSH1 0x1 PUSH1 0x0 SWAP1 SLOAD SWAP1 PUSH2 0x100 EXP SWAP1 DIV PUSH20 0xFFFFFFFFFFFFFFFFFFFFFFFFFFFFFFFFFFFFFFFF AND PUSH20 0xFFFFFFFFFFFFFFFFFFFFFFFFFFFFFFFFFFFFFFFF AND CALLER PUSH20 0xFFFFFFFFFFFFFFFFFFFFFFFFFFFFFFFFFFFFFFFF AND EQ PUSH2 0x363 JUMPI PUSH1 0x40 MLOAD PUSH32 0x8C379A000000000000000000000000000000000000000000000000000000000 DUP2 MSTORE PUSH1 0x4 ADD PUSH2 0x35A SWAP1 PUSH2 0x151E JUMP JUMPDEST PUSH1 0x40 MLOAD DUP1 SWAP2 SUB SWAP1 REVERT JUMPDEST PUSH1 0x0 PUSH20 0xFFFFFFFFFFFFFFFFFFFFFFFFFFFFFFFFFFFFFFFF AND PUSH1 0x4 PUSH1 0x0 SWAP1 SLOAD SWAP1 PUSH2 0x100 EXP SWAP1 DIV PUSH20 0xFFFFFFFFFFFFFFFFFFFFFFFFFFFFFFFFFFFFFFFF AND PUSH20 0xFFFFFFFFFFFFFFFFFFFFFFFFFFFFFFFFFFFFFFFF AND SUB PUSH2 0x3F4 JUMPI PUSH1 0x40 MLOAD PUSH32 0x8C379A000000000000000000000000000000000000000000000000000000000 DUP2 MSTORE PUSH1 0x4 ADD PUSH2 0x3EB SWAP1 PUSH2 0x158A JUMP JUMPDEST PUSH1 0x40 MLOAD DUP1 SWAP2 SUB SWAP1 REVERT JUMPDEST PUSH1 0xC PUSH1 0x0 SWAP1 SLOAD SWAP1 PUSH2 0x100 EXP SWAP1 DIV PUSH1 0xFF AND ISZERO PUSH2 0x444 JUMPI PUSH1 0x40 MLOAD PUSH32 0x8C379A000000000000000000000000000000000000000000000000000000000 DUP2 MSTORE PUSH1 0x4 ADD PUSH2 0x43B SWAP1 PUSH2 0x15F6 JUMP JUMPDEST PUSH1 0x40 MLOAD DUP1 SWAP2 SUB SWAP1 REVERT JUMPDEST PUSH1 0x0 PUSH1 0x3 SLOAD PUSH1 0x2 SLOAD PUSH2 0x456 SWAP2 SWAP1 PUSH2 0x1645 JUMP JUMPDEST SWAP1 POP DUP1 SELFBALANCE LT ISZERO PUSH2 0x49B JUMPI PUSH1 0x40 MLOAD PUSH32 0x8C379A000000000000000000000000000000000000000000000000000000000 DUP2 MSTORE PUSH1 0x4 ADD PUSH2 0x492 SWAP1 PUSH2 0x16F9 JUMP JUMPDEST PUSH1 0x40 MLOAD DUP1 SWAP2 SUB SWAP1 REVERT JUMPDEST PUSH1 0x4 PUSH1 0x0 SWAP1 SLOAD SWAP1 PUSH2 0x100 EXP SWAP1 DIV PUSH20 0xFFFFFFFFFFFFFFFFFFFFFFFFFFFFFFFFFFFFFFFF AND PUSH20 0xFFFFFFFFFFFFFFFFFFFFFFFFFFFFFFFFFFFFFFFF AND PUSH2 0x8FC DUP3 SWAP1 DUP2 ISZERO MUL SWAP1 PUSH1 0x40 MLOAD PUSH1 0x0 PUSH1 0x40 MLOAD DUP1 DUP4 SUB DUP2 DUP6 DUP9 DUP9 CALL SWAP4 POP POP POP POP ISZERO DUP1 ISZERO PUSH2 0x503 JUMPI RETURNDATASIZE PUSH1 0x0 DUP1 RETURNDATACOPY RETURNDATASIZE PUSH1 0x0 REVERT JUMPDEST POP PUSH1 0x1 PUSH1 0xC PUSH1 0x0 PUSH2 0x100 EXP DUP2 SLOAD DUP2 PUSH1 0xFF MUL NOT AND SWAP1 DUP4 ISZERO ISZERO MUL OR SWAP1 SSTORE POP POP JUMP JUMPDEST PUSH1 0x0 DUP2 GT PUSH2 0x565 JUMPI PUSH1 0x40 MLOAD PUSH32 0x8C379A000000000000000000000000000000000000000000000000000000000 DUP2 MSTORE PUSH1 0x4 ADD PUSH2 0x55C SWAP1 PUSH2 0x178B JUMP JUMPDEST PUSH1 0x40 MLOAD DUP1 SWAP2 SUB SWAP1 REVERT JUMPDEST DUP1 PUSH1 0x2 SLOAD PUSH2 0x573 SWAP2 SWAP1 PUSH2 0x1645 JUMP JUMPDEST CALLVALUE LT ISZERO PUSH2 0x5B5 JUMPI PUSH1 0x40 MLOAD PUSH32 0x8C379A000000000000000000000000000000000000000000000000000000000 DUP2 MSTORE PUSH1 0x4 ADD PUSH2 0x5AC SWAP1 PUSH2 0x17F7 JUMP JUMPDEST PUSH1 0x40 MLOAD DUP1 SWAP2 SUB SWAP1 REVERT JUMPDEST DUP1 PUSH1 0x2 SLOAD PUSH2 0x5C3 SWAP2 SWAP1 PUSH2 0x1645 JUMP JUMPDEST SELFBALANCE LT ISZERO PUSH2 0x605 JUMPI PUSH1 0x40 MLOAD PUSH32 0x8C379A000000000000000000000000000000000000000000000000000000000 DUP2 MSTORE PUSH1 0x4 ADD PUSH2 0x5FC SWAP1 PUSH2 0x1863 JUMP JUMPDEST PUSH1 0x40 MLOAD DUP1 SWAP2 SUB SWAP1 REVERT JUMPDEST DUP1 PUSH1 0xA PUSH1 0x0 CALLER PUSH20 0xFFFFFFFFFFFFFFFFFFFFFFFFFFFFFFFFFFFFFFFF AND PUSH20 0xFFFFFFFFFFFFFFFFFFFFFFFFFFFFFFFFFFFFFFFF AND DUP2 MSTORE PUSH1 0x20 ADD SWAP1 DUP2 MSTORE PUSH1 0x20 ADD PUSH1 0x0 KECCAK256 PUSH1 0x0 DUP3 DUP3 SLOAD PUSH2 0x654 SWAP2 SWAP1 PUSH2 0x1883 JUMP JUMPDEST SWAP3 POP POP DUP2 SWAP1 SSTORE POP PUSH1 0xB PUSH1 0x0 CALLER PUSH20 0xFFFFFFFFFFFFFFFFFFFFFFFFFFFFFFFFFFFFFFFF AND PUSH20 0xFFFFFFFFFFFFFFFFFFFFFFFFFFFFFFFFFFFFFFFF AND DUP2 MSTORE PUSH1 0x20 ADD SWAP1 DUP2 MSTORE PUSH1 0x20 ADD PUSH1 0x0 KECCAK256 PUSH1 0x0 SWAP1 SLOAD SWAP1 PUSH2 0x100 EXP SWAP1 DIV PUSH1 0xFF AND PUSH2 0x768 JUMPI PUSH1 0x8 CALLER SWAP1 DUP1 PUSH1 0x1 DUP2 SLOAD ADD DUP1 DUP3 SSTORE DUP1 SWAP2 POP POP PUSH1 0x1 SWAP1 SUB SWAP1 PUSH1 0x0 MSTORE PUSH1 0x20 PUSH1 0x0 KECCAK256 ADD PUSH1 0x0 SWAP1 SWAP2 SWAP1 SWAP2 SWAP1 SWAP2 PUSH2 0x100 EXP DUP2 SLOAD DUP2 PUSH20 0xFFFFFFFFFFFFFFFFFFFFFFFFFFFFFFFFFFFFFFFF MUL NOT AND SWAP1 DUP4 PUSH20 0xFFFFFFFFFFFFFFFFFFFFFFFFFFFFFFFFFFFFFFFF AND MUL OR SWAP1 SSTORE POP PUSH1 0x1 PUSH1 0xB PUSH1 0x0 CALLER PUSH20 0xFFFFFFFFFFFFFFFFFFFFFFFFFFFFFFFFFFFFFFFF AND PUSH20 0xFFFFFFFFFFFFFFFFFFFFFFFFFFFFFFFFFFFFFFFF AND DUP2 MSTORE PUSH1 0x20 ADD SWAP1 DUP2 MSTORE PUSH1 0x20 ADD PUSH1 0x0 KECCAK256 PUSH1 0x0 PUSH2 0x100 EXP DUP2 SLOAD DUP2 PUSH1 0xFF MUL NOT AND SWAP1 DUP4 ISZERO ISZERO MUL OR SWAP1 SSTORE POP JUMPDEST DUP1 PUSH1 0x3 PUSH1 0x0 DUP3 DUP3 SLOAD PUSH2 0x77A SWAP2 SWAP1 PUSH2 0x1883 JUMP JUMPDEST SWAP3 POP POP DUP2 SWAP1 SSTORE POP CALLER PUSH20 0xFFFFFFFFFFFFFFFFFFFFFFFFFFFFFFFFFFFFFFFF AND PUSH32 0x668F5B446EB814FE35B3206F43F14BD8567BA04DDAF7A3EE56516929AB22CCB DUP3 PUSH1 0x40 MLOAD PUSH2 0x7C7 SWAP2 SWAP1 PUSH2 0x12F7 JUMP JUMPDEST PUSH1 0x40 MLOAD DUP1 SWAP2 SUB SWAP1 LOG2 POP JUMP JUMPDEST PUSH1 0xA PUSH1 0x20 MSTORE DUP1 PUSH1 0x0 MSTORE PUSH1 0x40 PUSH1 0x0 KECCAK256 PUSH1 0x0 SWAP2 POP SWAP1 POP SLOAD DUP2 JUMP JUMPDEST PUSH1 0x0 PUSH1 0x5 SLOAD SWAP1 POP SWAP1 JUMP JUMPDEST PUSH1 0x1 PUSH1 0x0 SWAP1 SLOAD SWAP1 PUSH2 0x100 EXP SWAP1 DIV PUSH20 0xFFFFFFFFFFFFFFFFFFFFFFFFFFFFFFFFFFFFFFFF AND DUP2 JUMP JUMPDEST PUSH1 0x1 PUSH1 0x0 SWAP1 SLOAD SWAP1 PUSH2 0x100 EXP SWAP1 DIV PUSH20 0xFFFFFFFFFFFFFFFFFFFFFFFFFFFFFFFFFFFFFFFF AND PUSH20 0xFFFFFFFFFFFFFFFFFFFFFFFFFFFFFFFFFFFFFFFF AND CALLER PUSH20 0xFFFFFFFFFFFFFFFFFFFFFFFFFFFFFFFFFFFFFFFF AND EQ PUSH2 0x8AA JUMPI PUSH1 0x40 MLOAD PUSH32 0x8C379A000000000000000000000000000000000000000000000000000000000 DUP2 MSTORE PUSH1 0x4 ADD PUSH2 0x8A1 SWAP1 PUSH2 0x151E JUMP JUMPDEST PUSH1 0x40 MLOAD DUP1 SWAP2 SUB SWAP1 REVERT JUMPDEST PUSH32 0x0 PUSH20 0xFFFFFFFFFFFFFFFFFFFFFFFFFFFFFFFFFFFFFFFF AND PUSH4 0xA9059CBB PUSH1 0x1 PUSH1 0x0 SWAP1 SLOAD SWAP1 PUSH2 0x100 EXP SWAP1 DIV PUSH20 0xFFFFFFFFFFFFFFFFFFFFFFFFFFFFFFFFFFFFFFFF AND PUSH32 0x0 PUSH20 0xFFFFFFFFFFFFFFFFFFFFFFFFFFFFFFFFFFFFFFFF AND PUSH4 0x70A08231 ADDRESS PUSH1 0x40 MLOAD DUP3 PUSH4 0xFFFFFFFF AND PUSH1 0xE0 SHL DUP2 MSTORE PUSH1 0x4 ADD PUSH2 0x962 SWAP2 SWAP1 PUSH2 0x140A JUMP JUMPDEST PUSH1 0x20 PUSH1 0x40 MLOAD DUP1 DUP4 SUB DUP2 DUP7 GAS STATICCALL ISZERO DUP1 ISZERO PUSH2 0x97F JUMPI RETURNDATASIZE PUSH1 0x0 DUP1 RETURNDATACOPY RETURNDATASIZE PUSH1 0x0 REVERT JUMPDEST POP POP POP POP PUSH1 0x40 MLOAD RETURNDATASIZE PUSH1 0x1F NOT PUSH1 0x1F DUP3 ADD AND DUP3 ADD DUP1 PUSH1 0x40 MSTORE POP DUP2 ADD SWAP1 PUSH2 0x9A3 SWAP2 SWAP1 PUSH2 0x18CC JUMP JUMPDEST PUSH1 0x40 MLOAD DUP4 PUSH4 0xFFFFFFFF AND PUSH1 0xE0 SHL DUP2 MSTORE PUSH1 0x4 ADD PUSH2 0x9C0 SWAP3 SWAP2 SWAP1 PUSH2 0x18F9 JUMP JUMPDEST PUSH1 0x20 PUSH1 0x40 MLOAD DUP1 DUP4 SUB DUP2 PUSH1 0x0 DUP8 GAS CALL ISZERO DUP1 ISZERO PUSH2 0x9DF JUMPI RETURNDATASIZE PUSH1 0x0 DUP1 RETURNDATACOPY RETURNDATASIZE PUSH1 0x0 REVERT JUMPDEST POP POP POP POP PUSH1 0x40 MLOAD RETURNDATASIZE PUSH1 0x1F NOT PUSH1 0x1F DUP3 ADD AND DUP3 ADD DUP1 PUSH1 0x40 MSTORE POP DUP2 ADD SWAP1 PUSH2 0xA03 SWAP2 SWAP1 PUSH2 0x195A JUMP JUMPDEST POP JUMP JUMPDEST PUSH1 0x0 DUP1 PUSH20 0xFFFFFFFFFFFFFFFFFFFFFFFFFFFFFFFFFFFFFFFF AND PUSH1 0x4 PUSH1 0x0 SWAP1 SLOAD SWAP1 PUSH2 0x100 EXP SWAP1 DIV PUSH20 0xFFFFFFFFFFFFFFFFFFFFFFFFFFFFFFFFFFFFFFFF AND PUSH20 0xFFFFFFFFFFFFFFFFFFFFFFFFFFFFFFFFFFFFFFFF AND SUB PUSH2 0xA98 JUMPI PUSH1 0x40 MLOAD PUSH32 0x8C379A000000000000000000000000000000000000000000000000000000000 DUP2 MSTORE PUSH1 0x4 ADD PUSH2 0xA8F SWAP1 PUSH2 0x158A JUMP JUMPDEST PUSH1 0x40 MLOAD DUP1 SWAP2 SUB SWAP1 REVERT JUMPDEST PUSH1 0x4 PUSH1 0x0 SWAP1 SLOAD SWAP1 PUSH2 0x100 EXP SWAP1 DIV PUSH20 0xFFFFFFFFFFFFFFFFFFFFFFFFFFFFFFFFFFFFFFFF AND SWAP1 POP SWAP1 JUMP JUMPDEST PUSH32 0x0 PUSH20 0xFFFFFFFFFFFFFFFFFFFFFFFFFFFFFFFFFFFFFFFF AND CALLER PUSH20 0xFFFFFFFFFFFFFFFFFFFFFFFFFFFFFFFFFFFFFFFF AND EQ PUSH2 0xB4E JUMPI PUSH1 0x40 MLOAD PUSH32 0x8C379A000000000000000000000000000000000000000000000000000000000 DUP2 MSTORE PUSH1 0x4 ADD PUSH2 0xB45 SWAP1 PUSH2 0x19D3 JUMP JUMPDEST PUSH1 0x40 MLOAD DUP1 SWAP2 SUB SWAP1 REVERT JUMPDEST PUSH2 0xB58 DUP3 DUP3 PUSH2 0xD87 JUMP JUMPDEST POP POP JUMP JUMPDEST PUSH1 0x1 PUSH1 0x0 SWAP1 SLOAD SWAP1 PUSH2 0x100 EXP SWAP1 DIV PUSH20 0xFFFFFFFFFFFFFFFFFFFFFFFFFFFFFFFFFFFFFFFF AND PUSH20 0xFFFFFFFFFFFFFFFFFFFFFFFFFFFFFFFFFFFFFFFF AND CALLER PUSH20 0xFFFFFFFFFFFFFFFFFFFFFFFFFFFFFFFFFFFFFFFF AND EQ PUSH2 0xBEC JUMPI PUSH1 0x40 MLOAD PUSH32 0x8C379A000000000000000000000000000000000000000000000000000000000 DUP2 MSTORE PUSH1 0x4 ADD PUSH2 0xBE3 SWAP1 PUSH2 0x151E JUMP JUMPDEST PUSH1 0x40 MLOAD DUP1 SWAP2 SUB SWAP1 REVERT JUMPDEST PUSH1 0x0 PUSH20 0xFFFFFFFFFFFFFFFFFFFFFFFFFFFFFFFFFFFFFFFF AND PUSH1 0x4 PUSH1 0x0 SWAP1 SLOAD SWAP1 PUSH2 0x100 EXP SWAP1 DIV PUSH20 0xFFFFFFFFFFFFFFFFFFFFFFFFFFFFFFFFFFFFFFFF AND PUSH20 0xFFFFFFFFFFFFFFFFFFFFFFFFFFFFFFFFFFFFFFFF AND EQ PUSH2 0xC7D JUMPI PUSH1 0x40 MLOAD PUSH32 0x8C379A000000000000000000000000000000000000000000000000000000000 DUP2 MSTORE PUSH1 0x4 ADD PUSH2 0xC74 SWAP1 PUSH2 0x1A3F JUMP JUMPDEST PUSH1 0x40 MLOAD DUP1 SWAP2 SUB SWAP1 REVERT JUMPDEST PUSH1 0x0 PUSH1 0x3 SLOAD GT PUSH2 0xCC2 JUMPI PUSH1 0x40 MLOAD PUSH32 0x8C379A000000000000000000000000000000000000000000000000000000000 DUP2 MSTORE PUSH1 0x4 ADD PUSH2 0xCB9 SWAP1 PUSH2 0x1AAB JUMP JUMPDEST PUSH1 0x40 MLOAD DUP1 SWAP2 SUB SWAP1 REVERT JUMPDEST PUSH1 0xC PUSH1 0x1 SWAP1 SLOAD SWAP1 PUSH2 0x100 EXP SWAP1 DIV PUSH1 0xFF AND ISZERO PUSH2 0xD12 JUMPI PUSH1 0x40 MLOAD PUSH32 0x8C379A000000000000000000000000000000000000000000000000000000000 DUP2 MSTORE PUSH1 0x4 ADD PUSH2 0xD09 SWAP1 PUSH2 0x1B3D JUMP JUMPDEST PUSH1 0x40 MLOAD DUP1 SWAP2 SUB SWAP1 REVERT JUMPDEST PUSH2 0xD1A PUSH2 0xF2E JUMP JUMPDEST JUMP JUMPDEST PUSH1 0x3 SLOAD DUP2 JUMP JUMPDEST PUSH1 0x4 PUSH1 0x0 SWAP1 SLOAD SWAP1 PUSH2 0x100 EXP SWAP1 DIV PUSH20 0xFFFFFFFFFFFFFFFFFFFFFFFFFFFFFFFFFFFFFFFF AND DUP2 JUMP JUMPDEST PUSH1 0x8 DUP2 DUP2 SLOAD DUP2 LT PUSH2 0xD58 JUMPI PUSH1 0x0 DUP1 REVERT JUMPDEST SWAP1 PUSH1 0x0 MSTORE PUSH1 0x20 PUSH1 0x0 KECCAK256 ADD PUSH1 0x0 SWAP2 POP SLOAD SWAP1 PUSH2 0x100 EXP SWAP1 DIV PUSH20 0xFFFFFFFFFFFFFFFFFFFFFFFFFFFFFFFFFFFFFFFF AND DUP2 JUMP JUMPDEST PUSH1 0x9 SLOAD DUP3 EQ PUSH2 0xDCB JUMPI PUSH1 0x40 MLOAD PUSH32 0x8C379A000000000000000000000000000000000000000000000000000000000 DUP2 MSTORE PUSH1 0x4 ADD PUSH2 0xDC2 SWAP1 PUSH2 0x1BA9 JUMP JUMPDEST PUSH1 0x40 MLOAD DUP1 SWAP2 SUB SWAP1 REVERT JUMPDEST PUSH1 0x0 DUP2 GT PUSH2 0xE0E JUMPI PUSH1 0x40 MLOAD PUSH32 0x8C379A000000000000000000000000000000000000000000000000000000000 DUP2 MSTORE PUSH1 0x4 ADD PUSH2 0xE05 SWAP1 PUSH2 0x1C15 JUMP JUMPDEST PUSH1 0x40 MLOAD DUP1 SWAP2 SUB SWAP1 REVERT JUMPDEST DUP1 PUSH1 0x5 DUP2 SWAP1 SSTORE POP PUSH1 0x0 PUSH1 0x8 DUP1 SLOAD SWAP1 POP DUP3 PUSH2 0xE28 SWAP2 SWAP1 PUSH2 0x1C64 JUMP JUMPDEST SWAP1 POP PUSH1 0x8 DUP2 DUP2 SLOAD DUP2 LT PUSH2 0xE3E JUMPI PUSH2 0xE3D PUSH2 0x1C95 JUMP JUMPDEST JUMPDEST SWAP1 PUSH1 0x0 MSTORE PUSH1 0x20 PUSH1 0x0 KECCAK256 ADD PUSH1 0x0 SWAP1 SLOAD SWAP1 PUSH2 0x100 EXP SWAP1 DIV PUSH20 0xFFFFFFFFFFFFFFFFFFFFFFFFFFFFFFFFFFFFFFFF AND PUSH1 0x4 PUSH1 0x0 PUSH2 0x100 EXP DUP2 SLOAD DUP2 PUSH20 0xFFFFFFFFFFFFFFFFFFFFFFFFFFFFFFFFFFFFFFFF MUL NOT AND SWAP1 DUP4 PUSH20 0xFFFFFFFFFFFFFFFFFFFFFFFFFFFFFFFFFFFFFFFF AND MUL OR SWAP1 SSTORE POP PUSH1 0x4 PUSH1 0x0 SWAP1 SLOAD SWAP1 PUSH2 0x100 EXP SWAP1 DIV PUSH20 0xFFFFFFFFFFFFFFFFFFFFFFFFFFFFFFFFFFFFFFFF AND PUSH20 0xFFFFFFFFFFFFFFFFFFFFFFFFFFFFFFFFFFFFFFFF AND PUSH32 0xB1899E5911A12372A7FA329D3051F8358E8F5156F66BCF69707EA096419681B7 PUSH1 0x40 MLOAD PUSH1 0x40 MLOAD DUP1 SWAP2 SUB SWAP1 LOG2 PUSH1 0x0 PUSH1 0xC PUSH1 0x1 PUSH2 0x100 EXP DUP2 SLOAD DUP2 PUSH1 0xFF MUL NOT AND SWAP1 DUP4 ISZERO ISZERO MUL OR SWAP1 SSTORE POP POP POP POP JUMP JUMPDEST PUSH1 0x7 SLOAD PUSH32 0x0 PUSH20 0xFFFFFFFFFFFFFFFFFFFFFFFFFFFFFFFFFFFFFFFF AND PUSH4 0x70A08231 ADDRESS PUSH1 0x40 MLOAD DUP3 PUSH4 0xFFFFFFFF AND PUSH1 0xE0 SHL DUP2 MSTORE PUSH1 0x4 ADD PUSH2 0xF8A SWAP2 SWAP1 PUSH2 0x140A JUMP JUMPDEST PUSH1 0x20 PUSH1 0x40 MLOAD DUP1 DUP4 SUB DUP2 DUP7 GAS STATICCALL ISZERO DUP1 ISZERO PUSH2 0xFA7 JUMPI RETURNDATASIZE PUSH1 0x0 DUP1 RETURNDATACOPY RETURNDATASIZE PUSH1 0x0 REVERT JUMPDEST POP POP POP POP PUSH1 0x40 MLOAD RETURNDATASIZE PUSH1 0x1F NOT PUSH1 0x1F DUP3 ADD AND DUP3 ADD DUP1 PUSH1 0x40 MSTORE POP DUP2 ADD SWAP1 PUSH2 0xFCB SWAP2 SWAP1 PUSH2 0x18CC JUMP JUMPDEST LT ISZERO PUSH2 0x100C JUMPI PUSH1 0x40 MLOAD PUSH32 0x8C379A000000000000000000000000000000000000000000000000000000000 DUP2 MSTORE PUSH1 0x4 ADD PUSH2 0x1003 SWAP1 PUSH2 0x1D10 JUMP JUMPDEST PUSH1 0x40 MLOAD DUP1 SWAP2 SUB SWAP1 REVERT JUMPDEST PUSH1 0x0 DUP1 SHL PUSH1 0x6 SLOAD SUB PUSH2 0x1053 JUMPI PUSH1 0x40 MLOAD PUSH32 0x8C379A000000000000000000000000000000000000000000000000000000000 DUP2 MSTORE PUSH1 0x4 ADD PUSH2 0x104A SWAP1 PUSH2 0x1D7C JUMP JUMPDEST PUSH1 0x40 MLOAD DUP1 SWAP2 SUB SWAP1 REVERT JUMPDEST PUSH1 0x0 PUSH1 0x3 SLOAD GT PUSH2 0x1098 JUMPI PUSH1 0x40 MLOAD PUSH32 0x8C379A000000000000000000000000000000000000000000000000000000000 DUP2 MSTORE PUSH1 0x4 ADD PUSH2 0x108F SWAP1 PUSH2 0x1AAB JUMP JUMPDEST PUSH1 0x40 MLOAD DUP1 SWAP2 SUB SWAP1 REVERT JUMPDEST PUSH1 0xC PUSH1 0x1 SWAP1 SLOAD SWAP1 PUSH2 0x100 EXP SWAP1 DIV PUSH1 0xFF AND ISZERO PUSH2 0x10E8 JUMPI PUSH1 0x40 MLOAD PUSH32 0x8C379A000000000000000000000000000000000000000000000000000000000 DUP2 MSTORE PUSH1 0x4 ADD PUSH2 0x10DF SWAP1 PUSH2 0x1B3D JUMP JUMPDEST PUSH1 0x40 MLOAD DUP1 SWAP2 SUB SWAP1 REVERT JUMPDEST PUSH1 0x0 PUSH2 0x10F8 PUSH1 0x6 SLOAD PUSH1 0x7 SLOAD PUSH2 0x111F JUMP JUMPDEST SWAP1 POP DUP1 PUSH1 0x9 DUP2 SWAP1 SSTORE POP PUSH1 0x1 PUSH1 0xC PUSH1 0x1 PUSH2 0x100 EXP DUP2 SLOAD DUP2 PUSH1 0xFF MUL NOT AND SWAP1 DUP4 ISZERO ISZERO MUL OR SWAP1 SSTORE POP POP JUMP JUMPDEST PUSH1 0x0 PUSH32 0x0 PUSH20 0xFFFFFFFFFFFFFFFFFFFFFFFFFFFFFFFFFFFFFFFF AND PUSH4 0x4000AEA0 PUSH32 0x0 DUP5 DUP7 PUSH1 0x0 PUSH1 0x40 MLOAD PUSH1 0x20 ADD PUSH2 0x1193 SWAP3 SWAP2 SWAP1 PUSH2 0x1DAB JUMP JUMPDEST PUSH1 0x40 MLOAD PUSH1 0x20 DUP2 DUP4 SUB SUB DUP2 MSTORE SWAP1 PUSH1 0x40 MSTORE PUSH1 0x40 MLOAD DUP5 PUSH4 0xFFFFFFFF AND PUSH1 0xE0 SHL DUP2 MSTORE PUSH1 0x4 ADD PUSH2 0x11C0 SWAP4 SWAP3 SWAP2 SWAP1 PUSH2 0x1E64 JUMP JUMPDEST PUSH1 0x20 PUSH1 0x40 MLOAD DUP1 DUP4 SUB DUP2 PUSH1 0x0 DUP8 GAS CALL ISZERO DUP1 ISZERO PUSH2 0x11DF JUMPI RETURNDATASIZE PUSH1 0x0 DUP1 RETURNDATACOPY RETURNDATASIZE PUSH1 0x0 REVERT JUMPDEST POP POP POP POP PUSH1 0x40 MLOAD RETURNDATASIZE PUSH1 0x1F NOT PUSH1 0x1F DUP3 ADD AND DUP3 ADD DUP1 PUSH1 0x40 MSTORE POP DUP2 ADD SWAP1 PUSH2 0x1203 SWAP2 SWAP1 PUSH2 0x195A JUMP JUMPDEST POP PUSH1 0x0 PUSH2 0x1225 DUP5 PUSH1 0x0 ADDRESS PUSH1 0x0 DUP1 DUP10 DUP2 MSTORE PUSH1 0x20 ADD SWAP1 DUP2 MSTORE PUSH1 0x20 ADD PUSH1 0x0 KECCAK256 SLOAD PUSH2 0x126F JUMP JUMPDEST SWAP1 POP PUSH1 0x1 PUSH1 0x0 DUP1 DUP7 DUP2 MSTORE PUSH1 0x20 ADD SWAP1 DUP2 MSTORE PUSH1 0x20 ADD PUSH1 0x0 KECCAK256 SLOAD PUSH2 0x1246 SWAP2 SWAP1 PUSH2 0x1883 JUMP JUMPDEST PUSH1 0x0 DUP1 DUP7 DUP2 MSTORE PUSH1 0x20 ADD SWAP1 DUP2 MSTORE PUSH1 0x20 ADD PUSH1 0x0 KECCAK256 DUP2 SWAP1 SSTORE POP PUSH2 0x1266 DUP5 DUP3 PUSH2 0x12AB JUMP JUMPDEST SWAP2 POP POP SWAP3 SWAP2 POP POP JUMP JUMPDEST PUSH1 0x0 DUP5 DUP5 DUP5 DUP5 PUSH1 0x40 MLOAD PUSH1 0x20 ADD PUSH2 0x1288 SWAP5 SWAP4 SWAP3 SWAP2 SWAP1 PUSH2 0x1EA2 JUMP JUMPDEST PUSH1 0x40 MLOAD PUSH1 0x20 DUP2 DUP4 SUB SUB DUP2 MSTORE SWAP1 PUSH1 0x40 MSTORE DUP1 MLOAD SWAP1 PUSH1 0x20 ADD KECCAK256 PUSH1 0x0 SHR SWAP1 POP SWAP5 SWAP4 POP POP POP POP JUMP JUMPDEST PUSH1 0x0 DUP3 DUP3 PUSH1 0x40 MLOAD PUSH1 0x20 ADD PUSH2 0x12C0 SWAP3 SWAP2 SWAP1 PUSH2 0x1F29 JUMP JUMPDEST PUSH1 0x40 MLOAD PUSH1 0x20 DUP2 DUP4 SUB SUB DUP2 MSTORE SWAP1 PUSH1 0x40 MSTORE DUP1 MLOAD SWAP1 PUSH1 0x20 ADD KECCAK256 SWAP1 POP SWAP3 SWAP2 POP POP JUMP JUMPDEST PUSH1 0x0 DUP2 SWAP1 POP SWAP2 SWAP1 POP JUMP JUMPDEST PUSH2 0x12F1 DUP2 PUSH2 0x12DE JUMP JUMPDEST DUP3 MSTORE POP POP JUMP JUMPDEST PUSH1 0x0 PUSH1 0x20 DUP3 ADD SWAP1 POP PUSH2 0x130C PUSH1 0x0 DUP4 ADD DUP5 PUSH2 0x12E8 JUMP JUMPDEST SWAP3 SWAP2 POP POP JUMP JUMPDEST PUSH1 0x0 DUP1 REVERT JUMPDEST PUSH2 0x1320 DUP2 PUSH2 0x12DE JUMP JUMPDEST DUP2 EQ PUSH2 0x132B JUMPI PUSH1 0x0 DUP1 REVERT JUMPDEST POP JUMP JUMPDEST PUSH1 0x0 DUP2 CALLDATALOAD SWAP1 POP PUSH2 0x133D DUP2 PUSH2 0x1317 JUMP JUMPDEST SWAP3 SWAP2 POP POP JUMP JUMPDEST PUSH1 0x0 PUSH1 0x20 DUP3 DUP5 SUB SLT ISZERO PUSH2 0x1359 JUMPI PUSH2 0x1358 PUSH2 0x1312 JUMP JUMPDEST JUMPDEST PUSH1 0x0 PUSH2 0x1367 DUP5 DUP3 DUP6 ADD PUSH2 0x132E JUMP JUMPDEST SWAP2 POP POP SWAP3 SWAP2 POP POP JUMP JUMPDEST PUSH1 0x0 PUSH20 0xFFFFFFFFFFFFFFFFFFFFFFFFFFFFFFFFFFFFFFFF DUP3 AND SWAP1 POP SWAP2 SWAP1 POP JUMP JUMPDEST PUSH1 0x0 PUSH2 0x139B DUP3 PUSH2 0x1370 JUMP JUMPDEST SWAP1 POP SWAP2 SWAP1 POP JUMP JUMPDEST PUSH2 0x13AB DUP2 PUSH2 0x1390 JUMP JUMPDEST DUP2 EQ PUSH2 0x13B6 JUMPI PUSH1 0x0 DUP1 REVERT JUMPDEST POP JUMP JUMPDEST PUSH1 0x0 DUP2 CALLDATALOAD SWAP1 POP PUSH2 0x13C8 DUP2 PUSH2 0x13A2 JUMP JUMPDEST SWAP3 SWAP2 POP POP JUMP JUMPDEST PUSH1 0x0 PUSH1 0x20 DUP3 DUP5 SUB SLT ISZERO PUSH2 0x13E4 JUMPI PUSH2 0x13E3 PUSH2 0x1312 JUMP JUMPDEST JUMPDEST PUSH1 0x0 PUSH2 0x13F2 DUP5 DUP3 DUP6 ADD PUSH2 0x13B9 JUMP JUMPDEST SWAP2 POP POP SWAP3 SWAP2 POP POP JUMP JUMPDEST PUSH2 0x1404 DUP2 PUSH2 0x1390 JUMP JUMPDEST DUP3 MSTORE POP POP JUMP JUMPDEST PUSH1 0x0 PUSH1 0x20 DUP3 ADD SWAP1 POP PUSH2 0x141F PUSH1 0x0 DUP4 ADD DUP5 PUSH2 0x13FB JUMP JUMPDEST SWAP3 SWAP2 POP POP JUMP JUMPDEST PUSH1 0x0 DUP2 SWAP1 POP SWAP2 SWAP1 POP JUMP JUMPDEST PUSH2 0x1438 DUP2 PUSH2 0x1425 JUMP JUMPDEST DUP2 EQ PUSH2 0x1443 JUMPI PUSH1 0x0 DUP1 REVERT JUMPDEST POP JUMP JUMPDEST PUSH1 0x0 DUP2 CALLDATALOAD SWAP1 POP PUSH2 0x1455 DUP2 PUSH2 0x142F JUMP JUMPDEST SWAP3 SWAP2 POP POP JUMP JUMPDEST PUSH1 0x0 DUP1 PUSH1 0x40 DUP4 DUP6 SUB SLT ISZERO PUSH2 0x1472 JUMPI PUSH2 0x1471 PUSH2 0x1312 JUMP JUMPDEST JUMPDEST PUSH1 0x0 PUSH2 0x1480 DUP6 DUP3 DUP7 ADD PUSH2 0x1446 JUMP JUMPDEST SWAP3 POP POP PUSH1 0x20 PUSH2 0x1491 DUP6 DUP3 DUP7 ADD PUSH2 0x132E JUMP JUMPDEST SWAP2 POP POP SWAP3 POP SWAP3 SWAP1 POP JUMP JUMPDEST PUSH1 0x0 DUP3 DUP3 MSTORE PUSH1 0x20 DUP3 ADD SWAP1 POP SWAP3 SWAP2 POP POP JUMP JUMPDEST PUSH32 0x4F6E6C7920746865206F776E65722063616E2063616C6C20746869732066756E PUSH1 0x0 DUP3 ADD MSTORE PUSH32 0x6374696F6E000000000000000000000000000000000000000000000000000000 PUSH1 0x20 DUP3 ADD MSTORE POP JUMP JUMPDEST PUSH1 0x0 PUSH2 0x1508 PUSH1 0x25 DUP4 PUSH2 0x149B JUMP JUMPDEST SWAP2 POP PUSH2 0x1513 DUP3 PUSH2 0x14AC JUMP JUMPDEST PUSH1 0x40 DUP3 ADD SWAP1 POP SWAP2 SWAP1 POP JUMP JUMPDEST PUSH1 0x0 PUSH1 0x20 DUP3 ADD SWAP1 POP DUP2 DUP2 SUB PUSH1 0x0 DUP4 ADD MSTORE PUSH2 0x1537 DUP2 PUSH2 0x14FB JUMP JUMPDEST SWAP1 POP SWAP2 SWAP1 POP JUMP JUMPDEST PUSH32 0x57696E6E657220686173206E6F74206265656E20647261776E20796574000000 PUSH1 0x0 DUP3 ADD MSTORE POP JUMP JUMPDEST PUSH1 0x0 PUSH2 0x1574 PUSH1 0x1D DUP4 PUSH2 0x149B JUMP JUMPDEST SWAP2 POP PUSH2 0x157F DUP3 PUSH2 0x153E JUMP JUMPDEST PUSH1 0x20 DUP3 ADD SWAP1 POP SWAP2 SWAP1 POP JUMP JUMPDEST PUSH1 0x0 PUSH1 0x20 DUP3 ADD SWAP1 POP DUP2 DUP2 SUB PUSH1 0x0 DUP4 ADD MSTORE PUSH2 0x15A3 DUP2 PUSH2 0x1567 JUMP JUMPDEST SWAP1 POP SWAP2 SWAP1 POP JUMP JUMPDEST PUSH32 0x5072697A652068617320616C7265616479206265656E2077697468647261776E PUSH1 0x0 DUP3 ADD MSTORE POP JUMP JUMPDEST PUSH1 0x0 PUSH2 0x15E0 PUSH1 0x20 DUP4 PUSH2 0x149B JUMP JUMPDEST SWAP2 POP PUSH2 0x15EB DUP3 PUSH2 0x15AA JUMP JUMPDEST PUSH1 0x20 DUP3 ADD SWAP1 POP SWAP2 SWAP1 POP JUMP JUMPDEST PUSH1 0x0 PUSH1 0x20 DUP3 ADD SWAP1 POP DUP2 DUP2 SUB PUSH1 0x0 DUP4 ADD MSTORE PUSH2 0x160F DUP2 PUSH2 0x15D3 JUMP JUMPDEST SWAP1 POP SWAP2 SWAP1 POP JUMP JUMPDEST PUSH32 0x4E487B7100000000000000000000000000000000000000000000000000000000 PUSH1 0x0 MSTORE PUSH1 0x11 PUSH1 0x4 MSTORE PUSH1 0x24 PUSH1 0x0 REVERT JUMPDEST PUSH1 0x0 PUSH2 0x1650 DUP3 PUSH2 0x12DE JUMP JUMPDEST SWAP2 POP PUSH2 0x165B DUP4 PUSH2 0x12DE JUMP JUMPDEST SWAP3 POP DUP3 DUP3 MUL PUSH2 0x1669 DUP2 PUSH2 0x12DE JUMP JUMPDEST SWAP2 POP DUP3 DUP3 DIV DUP5 EQ DUP4 ISZERO OR PUSH2 0x1680 JUMPI PUSH2 0x167F PUSH2 0x1616 JUMP JUMPDEST JUMPDEST POP SWAP3 SWAP2 POP POP JUMP JUMPDEST PUSH32 0x4E6F7420656E6F75676820457468657220746F2070617920746865207072697A PUSH1 0x0 DUP3 ADD MSTORE PUSH32 0x6500000000000000000000000000000000000000000000000000000000000000 PUSH1 0x20 DUP3 ADD MSTORE POP JUMP JUMPDEST PUSH1 0x0 PUSH2 0x16E3 PUSH1 0x21 DUP4 PUSH2 0x149B JUMP JUMPDEST SWAP2 POP PUSH2 0x16EE DUP3 PUSH2 0x1687 JUMP JUMPDEST PUSH1 0x40 DUP3 ADD SWAP1 POP SWAP2 SWAP1 POP JUMP JUMPDEST PUSH1 0x0 PUSH1 0x20 DUP3 ADD SWAP1 POP DUP2 DUP2 SUB PUSH1 0x0 DUP4 ADD MSTORE PUSH2 0x1712 DUP2 PUSH2 0x16D6 JUMP JUMPDEST SWAP1 POP SWAP2 SWAP1 POP JUMP JUMPDEST PUSH32 0x4E756D626572206F66207469636B6574732073686F756C642062652067726561 PUSH1 0x0 DUP3 ADD MSTORE PUSH32 0x746572207468616E203000000000000000000000000000000000000000000000 PUSH1 0x20 DUP3 ADD MSTORE POP JUMP JUMPDEST PUSH1 0x0 PUSH2 0x1775 PUSH1 0x2A DUP4 PUSH2 0x149B JUMP JUMPDEST SWAP2 POP PUSH2 0x1780 DUP3 PUSH2 0x1719 JUMP JUMPDEST PUSH1 0x40 DUP3 ADD SWAP1 POP SWAP2 SWAP1 POP JUMP JUMPDEST PUSH1 0x0 PUSH1 0x20 DUP3 ADD SWAP1 POP DUP2 DUP2 SUB PUSH1 0x0 DUP4 ADD MSTORE PUSH2 0x17A4 DUP2 PUSH2 0x1768 JUMP JUMPDEST SWAP1 POP SWAP2 SWAP1 POP JUMP JUMPDEST PUSH32 0x4E6F7420656E6F7567682065746865722073656E740000000000000000000000 PUSH1 0x0 DUP3 ADD MSTORE POP JUMP JUMPDEST PUSH1 0x0 PUSH2 0x17E1 PUSH1 0x15 DUP4 PUSH2 0x149B JUMP JUMPDEST SWAP2 POP PUSH2 0x17EC DUP3 PUSH2 0x17AB JUMP JUMPDEST PUSH1 0x20 DUP3 ADD SWAP1 POP SWAP2 SWAP1 POP JUMP JUMPDEST PUSH1 0x0 PUSH1 0x20 DUP3 ADD SWAP1 POP DUP2 DUP2 SUB PUSH1 0x0 DUP4 ADD MSTORE PUSH2 0x1810 DUP2 PUSH2 0x17D4 JUMP JUMPDEST SWAP1 POP SWAP2 SWAP1 POP JUMP JUMPDEST PUSH32 0x436F6E74726163742068617320696E73756666696369656E742066756E647300 PUSH1 0x0 DUP3 ADD MSTORE POP JUMP JUMPDEST PUSH1 0x0 PUSH2 0x184D PUSH1 0x1F DUP4 PUSH2 0x149B JUMP JUMPDEST SWAP2 POP PUSH2 0x1858 DUP3 PUSH2 0x1817 JUMP JUMPDEST PUSH1 0x20 DUP3 ADD SWAP1 POP SWAP2 SWAP1 POP JUMP JUMPDEST PUSH1 0x0 PUSH1 0x20 DUP3 ADD SWAP1 POP DUP2 DUP2 SUB PUSH1 0x0 DUP4 ADD MSTORE PUSH2 0x187C DUP2 PUSH2 0x1840 JUMP JUMPDEST SWAP1 POP SWAP2 SWAP1 POP JUMP JUMPDEST PUSH1 0x0 PUSH2 0x188E DUP3 PUSH2 0x12DE JUMP JUMPDEST SWAP2 POP PUSH2 0x1899 DUP4 PUSH2 0x12DE JUMP JUMPDEST SWAP3 POP DUP3 DUP3 ADD SWAP1 POP DUP1 DUP3 GT ISZERO PUSH2 0x18B1 JUMPI PUSH2 0x18B0 PUSH2 0x1616 JUMP JUMPDEST JUMPDEST SWAP3 SWAP2 POP POP JUMP JUMPDEST PUSH1 0x0 DUP2 MLOAD SWAP1 POP PUSH2 0x18C6 DUP2 PUSH2 0x1317 JUMP JUMPDEST SWAP3 SWAP2 POP POP JUMP JUMPDEST PUSH1 0x0 PUSH1 0x20 DUP3 DUP5 SUB SLT ISZERO PUSH2 0x18E2 JUMPI PUSH2 0x18E1 PUSH2 0x1312 JUMP JUMPDEST JUMPDEST PUSH1 0x0 PUSH2 0x18F0 DUP5 DUP3 DUP6 ADD PUSH2 0x18B7 JUMP JUMPDEST SWAP2 POP POP SWAP3 SWAP2 POP POP JUMP JUMPDEST PUSH1 0x0 PUSH1 0x40 DUP3 ADD SWAP1 POP PUSH2 0x190E PUSH1 0x0 DUP4 ADD DUP6 PUSH2 0x13FB JUMP JUMPDEST PUSH2 0x191B PUSH1 0x20 DUP4 ADD DUP5 PUSH2 0x12E8 JUMP JUMPDEST SWAP4 SWAP3 POP POP POP JUMP JUMPDEST PUSH1 0x0 DUP2 ISZERO ISZERO SWAP1 POP SWAP2 SWAP1 POP JUMP JUMPDEST PUSH2 0x1937 DUP2 PUSH2 0x1922 JUMP JUMPDEST DUP2 EQ PUSH2 0x1942 JUMPI PUSH1 0x0 DUP1 REVERT JUMPDEST POP JUMP JUMPDEST PUSH1 0x0 DUP2 MLOAD SWAP1 POP PUSH2 0x1954 DUP2 PUSH2 0x192E JUMP JUMPDEST SWAP3 SWAP2 POP POP JUMP JUMPDEST PUSH1 0x0 PUSH1 0x20 DUP3 DUP5 SUB SLT ISZERO PUSH2 0x1970 JUMPI PUSH2 0x196F PUSH2 0x1312 JUMP JUMPDEST JUMPDEST PUSH1 0x0 PUSH2 0x197E DUP5 DUP3 DUP6 ADD PUSH2 0x1945 JUMP JUMPDEST SWAP2 POP POP SWAP3 SWAP2 POP POP JUMP JUMPDEST PUSH32 0x4F6E6C7920565246436F6F7264696E61746F722063616E2066756C66696C6C00 PUSH1 0x0 DUP3 ADD MSTORE POP JUMP JUMPDEST PUSH1 0x0 PUSH2 0x19BD PUSH1 0x1F DUP4 PUSH2 0x149B JUMP JUMPDEST SWAP2 POP PUSH2 0x19C8 DUP3 PUSH2 0x1987 JUMP JUMPDEST PUSH1 0x20 DUP3 ADD SWAP1 POP SWAP2 SWAP1 POP JUMP JUMPDEST PUSH1 0x0 PUSH1 0x20 DUP3 ADD SWAP1 POP DUP2 DUP2 SUB PUSH1 0x0 DUP4 ADD MSTORE PUSH2 0x19EC DUP2 PUSH2 0x19B0 JUMP JUMPDEST SWAP1 POP SWAP2 SWAP1 POP JUMP JUMPDEST PUSH32 0x57696E6E657220616C72656164792073656C6563746564000000000000000000 PUSH1 0x0 DUP3 ADD MSTORE POP JUMP JUMPDEST PUSH1 0x0 PUSH2 0x1A29 PUSH1 0x17 DUP4 PUSH2 0x149B JUMP JUMPDEST SWAP2 POP PUSH2 0x1A34 DUP3 PUSH2 0x19F3 JUMP JUMPDEST PUSH1 0x20 DUP3 ADD SWAP1 POP SWAP2 SWAP1 POP JUMP JUMPDEST PUSH1 0x0 PUSH1 0x20 DUP3 ADD SWAP1 POP DUP2 DUP2 SUB PUSH1 0x0 DUP4 ADD MSTORE PUSH2 0x1A58 DUP2 PUSH2 0x1A1C JUMP JUMPDEST SWAP1 POP SWAP2 SWAP1 POP JUMP JUMPDEST PUSH32 0x4E6F207469636B65747320707572636861736564207965740000000000000000 PUSH1 0x0 DUP3 ADD MSTORE POP JUMP JUMPDEST PUSH1 0x0 PUSH2 0x1A95 PUSH1 0x18 DUP4 PUSH2 0x149B JUMP JUMPDEST SWAP2 POP PUSH2 0x1AA0 DUP3 PUSH2 0x1A5F JUMP JUMPDEST PUSH1 0x20 DUP3 ADD SWAP1 POP SWAP2 SWAP1 POP JUMP JUMPDEST PUSH1 0x0 PUSH1 0x20 DUP3 ADD SWAP1 POP DUP2 DUP2 SUB PUSH1 0x0 DUP4 ADD MSTORE PUSH2 0x1AC4 DUP2 PUSH2 0x1A88 JUMP JUMPDEST SWAP1 POP SWAP2 SWAP1 POP JUMP JUMPDEST PUSH32 0x52616E646F6D206E756D626572207265717565737420616C726561647920696E PUSH1 0x0 DUP3 ADD MSTORE PUSH32 0x2070726F67726573730000000000000000000000000000000000000000000000 PUSH1 0x20 DUP3 ADD MSTORE POP JUMP JUMPDEST PUSH1 0x0 PUSH2 0x1B27 PUSH1 0x29 DUP4 PUSH2 0x149B JUMP JUMPDEST SWAP2 POP PUSH2 0x1B32 DUP3 PUSH2 0x1ACB JUMP JUMPDEST PUSH1 0x40 DUP3 ADD SWAP1 POP SWAP2 SWAP1 POP JUMP JUMPDEST PUSH1 0x0 PUSH1 0x20 DUP3 ADD SWAP1 POP DUP2 DUP2 SUB PUSH1 0x0 DUP4 ADD MSTORE PUSH2 0x1B56 DUP2 PUSH2 0x1B1A JUMP JUMPDEST SWAP1 POP SWAP2 SWAP1 POP JUMP JUMPDEST PUSH32 0x57726F6E67207265717565737449640000000000000000000000000000000000 PUSH1 0x0 DUP3 ADD MSTORE POP JUMP JUMPDEST PUSH1 0x0 PUSH2 0x1B93 PUSH1 0xF DUP4 PUSH2 0x149B JUMP JUMPDEST SWAP2 POP PUSH2 0x1B9E DUP3 PUSH2 0x1B5D JUMP JUMPDEST PUSH1 0x20 DUP3 ADD SWAP1 POP SWAP2 SWAP1 POP JUMP JUMPDEST PUSH1 0x0 PUSH1 0x20 DUP3 ADD SWAP1 POP DUP2 DUP2 SUB PUSH1 0x0 DUP4 ADD MSTORE PUSH2 0x1BC2 DUP2 PUSH2 0x1B86 JUMP JUMPDEST SWAP1 POP SWAP2 SWAP1 POP JUMP JUMPDEST PUSH32 0x52616E646F6D206E756D626572206E6F742067656E6572617465640000000000 PUSH1 0x0 DUP3 ADD MSTORE POP JUMP JUMPDEST PUSH1 0x0 PUSH2 0x1BFF PUSH1 0x1B DUP4 PUSH2 0x149B JUMP JUMPDEST SWAP2 POP PUSH2 0x1C0A DUP3 PUSH2 0x1BC9 JUMP JUMPDEST PUSH1 0x20 DUP3 ADD SWAP1 POP SWAP2 SWAP1 POP JUMP JUMPDEST PUSH1 0x0 PUSH1 0x20 DUP3 ADD SWAP1 POP DUP2 DUP2 SUB PUSH1 0x0 DUP4 ADD MSTORE PUSH2 0x1C2E DUP2 PUSH2 0x1BF2 JUMP JUMPDEST SWAP1 POP SWAP2 SWAP1 POP JUMP JUMPDEST PUSH32 0x4E487B7100000000000000000000000000000000000000000000000000000000 PUSH1 0x0 MSTORE PUSH1 0x12 PUSH1 0x4 MSTORE PUSH1 0x24 PUSH1 0x0 REVERT JUMPDEST PUSH1 0x0 PUSH2 0x1C6F DUP3 PUSH2 0x12DE JUMP JUMPDEST SWAP2 POP PUSH2 0x1C7A DUP4 PUSH2 0x12DE JUMP JUMPDEST SWAP3 POP DUP3 PUSH2 0x1C8A JUMPI PUSH2 0x1C89 PUSH2 0x1C35 JUMP JUMPDEST JUMPDEST DUP3 DUP3 MOD SWAP1 POP SWAP3 SWAP2 POP POP JUMP JUMPDEST PUSH32 0x4E487B7100000000000000000000000000000000000000000000000000000000 PUSH1 0x0 MSTORE PUSH1 0x32 PUSH1 0x4 MSTORE PUSH1 0x24 PUSH1 0x0 REVERT JUMPDEST PUSH32 0x4E6F7420656E6F756768204C494E4B20746F2070617920666565000000000000 PUSH1 0x0 DUP3 ADD MSTORE POP JUMP JUMPDEST PUSH1 0x0 PUSH2 0x1CFA PUSH1 0x1A DUP4 PUSH2 0x149B JUMP JUMPDEST SWAP2 POP PUSH2 0x1D05 DUP3 PUSH2 0x1CC4 JUMP JUMPDEST PUSH1 0x20 DUP3 ADD SWAP1 POP SWAP2 SWAP1 POP JUMP JUMPDEST PUSH1 0x0 PUSH1 0x20 DUP3 ADD SWAP1 POP DUP2 DUP2 SUB PUSH1 0x0 DUP4 ADD MSTORE PUSH2 0x1D29 DUP2 PUSH2 0x1CED JUMP JUMPDEST SWAP1 POP SWAP2 SWAP1 POP JUMP JUMPDEST PUSH32 0x4D75737420686176652076616C6964206B657948617368000000000000000000 PUSH1 0x0 DUP3 ADD MSTORE POP JUMP JUMPDEST PUSH1 0x0 PUSH2 0x1D66 PUSH1 0x17 DUP4 PUSH2 0x149B JUMP JUMPDEST SWAP2 POP PUSH2 0x1D71 DUP3 PUSH2 0x1D30 JUMP JUMPDEST PUSH1 0x20 DUP3 ADD SWAP1 POP SWAP2 SWAP1 POP JUMP JUMPDEST PUSH1 0x0 PUSH1 0x20 DUP3 ADD SWAP1 POP DUP2 DUP2 SUB PUSH1 0x0 DUP4 ADD MSTORE PUSH2 0x1D95 DUP2 PUSH2 0x1D59 JUMP JUMPDEST SWAP1 POP SWAP2 SWAP1 POP JUMP JUMPDEST PUSH2 0x1DA5 DUP2 PUSH2 0x1425 JUMP JUMPDEST DUP3 MSTORE POP POP JUMP JUMPDEST PUSH1 0x0 PUSH1 0x40 DUP3 ADD SWAP1 POP PUSH2 0x1DC0 PUSH1 0x0 DUP4 ADD DUP6 PUSH2 0x1D9C JUMP JUMPDEST PUSH2 0x1DCD PUSH1 0x20 DUP4 ADD DUP5 PUSH2 0x12E8 JUMP JUMPDEST SWAP4 SWAP3 POP POP POP JUMP JUMPDEST PUSH1 0x0 DUP2 MLOAD SWAP1 POP SWAP2 SWAP1 POP JUMP JUMPDEST PUSH1 0x0 DUP3 DUP3 MSTORE PUSH1 0x20 DUP3 ADD SWAP1 POP SWAP3 SWAP2 POP POP JUMP JUMPDEST PUSH1 0x0 JUMPDEST DUP4 DUP2 LT ISZERO PUSH2 0x1E0E JUMPI DUP1 DUP3 ADD MLOAD DUP2 DUP5 ADD MSTORE PUSH1 0x20 DUP2 ADD SWAP1 POP PUSH2 0x1DF3 JUMP JUMPDEST PUSH1 0x0 DUP5 DUP5 ADD MSTORE POP POP POP POP JUMP JUMPDEST PUSH1 0x0 PUSH1 0x1F NOT PUSH1 0x1F DUP4 ADD AND SWAP1 POP SWAP2 SWAP1 POP JUMP JUMPDEST PUSH1 0x0 PUSH2 0x1E36 DUP3 PUSH2 0x1DD4 JUMP JUMPDEST PUSH2 0x1E40 DUP2 DUP6 PUSH2 0x1DDF JUMP JUMPDEST SWAP4 POP PUSH2 0x1E50 DUP2 DUP6 PUSH1 0x20 DUP7 ADD PUSH2 0x1DF0 JUMP JUMPDEST PUSH2 0x1E59 DUP2 PUSH2 0x1E1A JUMP JUMPDEST DUP5 ADD SWAP2 POP POP SWAP3 SWAP2 POP POP JUMP JUMPDEST PUSH1 0x0 PUSH1 0x60 DUP3 ADD SWAP1 POP PUSH2 0x1E79 PUSH1 0x0 DUP4 ADD DUP7 PUSH2 0x13FB JUMP JUMPDEST PUSH2 0x1E86 PUSH1 0x20 DUP4 ADD DUP6 PUSH2 0x12E8 JUMP JUMPDEST DUP2 DUP2 SUB PUSH1 0x40 DUP4 ADD MSTORE PUSH2 0x1E98 DUP2 DUP5 PUSH2 0x1E2B JUMP JUMPDEST SWAP1 POP SWAP5 SWAP4 POP POP POP POP JUMP JUMPDEST PUSH1 0x0 PUSH1 0x80 DUP3 ADD SWAP1 POP PUSH2 0x1EB7 PUSH1 0x0 DUP4 ADD DUP8 PUSH2 0x1D9C JUMP JUMPDEST PUSH2 0x1EC4 PUSH1 0x20 DUP4 ADD DUP7 PUSH2 0x12E8 JUMP JUMPDEST PUSH2 0x1ED1 PUSH1 0x40 DUP4 ADD DUP6 PUSH2 0x13FB JUMP JUMPDEST PUSH2 0x1EDE PUSH1 0x60 DUP4 ADD DUP5 PUSH2 0x12E8 JUMP JUMPDEST SWAP6 SWAP5 POP POP POP POP POP JUMP JUMPDEST PUSH1 0x0 DUP2 SWAP1 POP SWAP2 SWAP1 POP JUMP JUMPDEST PUSH2 0x1F02 PUSH2 0x1EFD DUP3 PUSH2 0x1425 JUMP JUMPDEST PUSH2 0x1EE7 JUMP JUMPDEST DUP3 MSTORE POP POP JUMP JUMPDEST PUSH1 0x0 DUP2 SWAP1 POP SWAP2 SWAP1 POP JUMP JUMPDEST PUSH2 0x1F23 PUSH2 0x1F1E DUP3 PUSH2 0x12DE JUMP JUMPDEST PUSH2 0x1F08 JUMP JUMPDEST DUP3 MSTORE POP POP JUMP JUMPDEST PUSH1 0x0 PUSH2 0x1F35 DUP3 DUP6 PUSH2 0x1EF1 JUMP JUMPDEST PUSH1 0x20 DUP3 ADD SWAP2 POP PUSH2 0x1F45 DUP3 DUP5 PUSH2 0x1F12 JUMP JUMPDEST PUSH1 0x20 DUP3 ADD SWAP2 POP DUP2 SWAP1 POP SWAP4 SWAP3 POP POP POP JUMP INVALID LOG2 PUSH5 0x6970667358 0x22 SLT KECCAK256 RETURNDATASIZE ADDMOD 0xA9 PUSH7 0xC897C8AF6489A7 0x23 BLOCKHASH MSTORE PUSH12 0xEC73F580DC4DE79CEEF4AFD1 PUSH20 0x76DD1C4B64736F6C634300081300330000000000 "
				},
				"gasEstimates": {
					"creation": {
						"codeDepositCost": "1615000",
						"executionCost": "infinite",
						"totalCost": "infinite"
					},
					"external": {
						"buyTicket(uint256)": "infinite",
						"drawWinner()": "infinite",
						"getRandomResult()": "2526",
						"getWinner()": "4738",
						"owner()": "2625",
						"players(uint256)": "5044",
						"rawFulfillRandomness(bytes32,uint256)": "infinite",
						"ticketCount()": "2473",
						"ticketPrice()": "2430",
						"tickets(address)": "2881",
						"winner()": "2580",
						"withdrawLink()": "infinite",
						"withdrawPrize()": "infinite"
					},
					"internal": {
						"fulfillRandomness(bytes32,uint256)": "infinite",
						"getRandomNumber()": "infinite"
					}
				},
				"methodIdentifiers": {
					"buyTicket(uint256)": "67dd74ca",
					"drawWinner()": "b2185bb1",
					"getRandomResult()": "7390c786",
					"getWinner()": "8e7ea5b2",
					"owner()": "8da5cb5b",
					"players(uint256)": "f71d96cb",
					"rawFulfillRandomness(bytes32,uint256)": "94985ddd",
					"ticketCount()": "cfbd900f",
					"ticketPrice()": "1209b1f6",
					"tickets(address)": "6dcbf2a3",
					"winner()": "dfbf53ae",
					"withdrawLink()": "8dc654a2",
					"withdrawPrize()": "48d37a58"
				}
			},
			"storageLayout": {
				"storage": [
					{
						"astId": 79,
						"contract": "SimpleLottery.sol:SimpleLottery",
						"label": "nonces",
						"offset": 0,
						"slot": "0",
						"type": "t_mapping(t_bytes32,t_uint256)"
					},
					{
						"astId": 273,
						"contract": "SimpleLottery.sol:SimpleLottery",
						"label": "owner",
						"offset": 0,
						"slot": "1",
						"type": "t_address"
					},
					{
						"astId": 275,
						"contract": "SimpleLottery.sol:SimpleLottery",
						"label": "ticketPrice",
						"offset": 0,
						"slot": "2",
						"type": "t_uint256"
					},
					{
						"astId": 277,
						"contract": "SimpleLottery.sol:SimpleLottery",
						"label": "ticketCount",
						"offset": 0,
						"slot": "3",
						"type": "t_uint256"
					},
					{
						"astId": 279,
						"contract": "SimpleLottery.sol:SimpleLottery",
						"label": "winner",
						"offset": 0,
						"slot": "4",
						"type": "t_address"
					},
					{
						"astId": 281,
						"contract": "SimpleLottery.sol:SimpleLottery",
						"label": "randomResult",
						"offset": 0,
						"slot": "5",
						"type": "t_uint256"
					},
					{
						"astId": 283,
						"contract": "SimpleLottery.sol:SimpleLottery",
						"label": "keyHash",
						"offset": 0,
						"slot": "6",
						"type": "t_bytes32"
					},
					{
						"astId": 285,
						"contract": "SimpleLottery.sol:SimpleLottery",
						"label": "fee",
						"offset": 0,
						"slot": "7",
						"type": "t_uint256"
					},
					{
						"astId": 288,
						"contract": "SimpleLottery.sol:SimpleLottery",
						"label": "players",
						"offset": 0,
						"slot": "8",
						"type": "t_array(t_address)dyn_storage"
					},
					{
						"astId": 290,
						"contract": "SimpleLottery.sol:SimpleLottery",
						"label": "requestRandomnessId",
						"offset": 0,
						"slot": "9",
						"type": "t_bytes32"
					},
					{
						"astId": 294,
						"contract": "SimpleLottery.sol:SimpleLottery",
						"label": "tickets",
						"offset": 0,
						"slot": "10",
						"type": "t_mapping(t_address,t_uint256)"
					},
					{
						"astId": 298,
						"contract": "SimpleLottery.sol:SimpleLottery",
						"label": "uniquePlayers",
						"offset": 0,
						"slot": "11",
						"type": "t_mapping(t_address,t_bool)"
					},
					{
						"astId": 301,
						"contract": "SimpleLottery.sol:SimpleLottery",
						"label": "prizeWithdrawn",
						"offset": 0,
						"slot": "12",
						"type": "t_bool"
					},
					{
						"astId": 304,
						"contract": "SimpleLottery.sol:SimpleLottery",
						"label": "randomRequestInProgress",
						"offset": 1,
						"slot": "12",
						"type": "t_bool"
					}
				],
				"types": {
					"t_address": {
						"encoding": "inplace",
						"label": "address",
						"numberOfBytes": "20"
					},
					"t_array(t_address)dyn_storage": {
						"base": "t_address",
						"encoding": "dynamic_array",
						"label": "address[]",
						"numberOfBytes": "32"
					},
					"t_bool": {
						"encoding": "inplace",
						"label": "bool",
						"numberOfBytes": "1"
					},
					"t_bytes32": {
						"encoding": "inplace",
						"label": "bytes32",
						"numberOfBytes": "32"
					},
					"t_mapping(t_address,t_bool)": {
						"encoding": "mapping",
						"key": "t_address",
						"label": "mapping(address => bool)",
						"numberOfBytes": "32",
						"value": "t_bool"
					},
					"t_mapping(t_address,t_uint256)": {
						"encoding": "mapping",
						"key": "t_address",
						"label": "mapping(address => uint256)",
						"numberOfBytes": "32",
						"value": "t_uint256"
					},
					"t_mapping(t_bytes32,t_uint256)": {
						"encoding": "mapping",
						"key": "t_bytes32",
						"label": "mapping(bytes32 => uint256)",
						"numberOfBytes": "32",
						"value": "t_uint256"
					},
					"t_uint256": {
						"encoding": "inplace",
						"label": "uint256",
						"numberOfBytes": "32"
					}
				}
			},
			"userdoc": {
				"kind": "user",
				"methods": {
					"buyTicket(uint256)": {
						"notice": "The function requires sending enough ether to cover the ticket price multiplied by the number of tickets."
					},
					"drawWinner()": {
						"notice": "Only the owner of the contract can call this function, and the winner cannot be drawn again."
					},
					"withdrawPrize()": {
						"notice": "The winner must have been drawn before calling this function."
					}
				},
				"version": 1
			}
		}
	}
}