{
	"SimpleLottery.sol": {
		"SimpleLottery": {
			"abi": [
				{
					"inputs": [
						{
							"internalType": "address",
							"name": "vrfCoordinator",
							"type": "address"
						},
						{
							"internalType": "address",
							"name": "linkToken",
							"type": "address"
						},
						{
							"internalType": "bytes32",
							"name": "_keyHash",
							"type": "bytes32"
						},
						{
							"internalType": "uint256",
							"name": "_fee",
							"type": "uint256"
						},
						{
							"internalType": "uint256",
							"name": "_ticketPrice",
							"type": "uint256"
						}
					],
					"stateMutability": "nonpayable",
					"type": "constructor"
				},
				{
					"anonymous": false,
					"inputs": [
						{
							"indexed": true,
							"internalType": "address",
							"name": "player",
							"type": "address"
						},
						{
							"indexed": false,
							"internalType": "uint256",
							"name": "tickets",
							"type": "uint256"
						}
					],
					"name": "TicketPurchased",
					"type": "event"
				},
				{
					"anonymous": false,
					"inputs": [
						{
							"indexed": true,
							"internalType": "address",
							"name": "winner",
							"type": "address"
						}
					],
					"name": "WinnerDrawn",
					"type": "event"
				},
				{
					"inputs": [
						{
							"internalType": "uint256",
							"name": "numberOfTickets",
							"type": "uint256"
						}
					],
					"name": "buyTicket",
					"outputs": [],
					"stateMutability": "payable",
					"type": "function"
				},
				{
					"inputs": [],
					"name": "drawWinner",
					"outputs": [],
					"stateMutability": "nonpayable",
					"type": "function"
				},
				{
					"inputs": [],
					"name": "getRandomResult",
					"outputs": [
						{
							"internalType": "uint256",
							"name": "",
							"type": "uint256"
						}
					],
					"stateMutability": "view",
					"type": "function"
				},
				{
					"inputs": [],
					"name": "getWinner",
					"outputs": [
						{
							"internalType": "address",
							"name": "",
							"type": "address"
						}
					],
					"stateMutability": "view",
					"type": "function"
				},
				{
					"inputs": [],
					"name": "owner",
					"outputs": [
						{
							"internalType": "address",
							"name": "",
							"type": "address"
						}
					],
					"stateMutability": "view",
					"type": "function"
				},
				{
					"inputs": [
						{
							"internalType": "uint256",
							"name": "",
							"type": "uint256"
						}
					],
					"name": "players",
					"outputs": [
						{
							"internalType": "address",
							"name": "",
							"type": "address"
						}
					],
					"stateMutability": "view",
					"type": "function"
				},
				{
					"inputs": [
						{
							"internalType": "bytes32",
							"name": "requestId",
							"type": "bytes32"
						},
						{
							"internalType": "uint256",
							"name": "randomness",
							"type": "uint256"
						}
					],
					"name": "rawFulfillRandomness",
					"outputs": [],
					"stateMutability": "nonpayable",
					"type": "function"
				},
				{
					"inputs": [],
					"name": "ticketCount",
					"outputs": [
						{
							"internalType": "uint256",
							"name": "",
							"type": "uint256"
						}
					],
					"stateMutability": "view",
					"type": "function"
				},
				{
					"inputs": [],
					"name": "ticketPrice",
					"outputs": [
						{
							"internalType": "uint256",
							"name": "",
							"type": "uint256"
						}
					],
					"stateMutability": "view",
					"type": "function"
				},
				{
					"inputs": [
						{
							"internalType": "address",
							"name": "",
							"type": "address"
						}
					],
					"name": "tickets",
					"outputs": [
						{
							"internalType": "uint256",
							"name": "",
							"type": "uint256"
						}
					],
					"stateMutability": "view",
					"type": "function"
				},
				{
					"inputs": [],
					"name": "winner",
					"outputs": [
						{
							"internalType": "address",
							"name": "",
							"type": "address"
						}
					],
					"stateMutability": "view",
					"type": "function"
				},
				{
					"inputs": [],
					"name": "withdrawLink",
					"outputs": [],
					"stateMutability": "nonpayable",
					"type": "function"
				},
				{
					"inputs": [],
					"name": "withdrawPrize",
					"outputs": [],
					"stateMutability": "nonpayable",
					"type": "function"
				}
			],
			"devdoc": {
				"kind": "dev",
				"methods": {
					"buyTicket(uint256)": {
						"details": "Allows players to purchase tickets for the lottery.",
						"params": {
							"numberOfTickets": "The number of tickets to purchase."
						}
					},
					"constructor": {
						"details": "Initializes the SimpleLottery contract.",
						"params": {
							"_fee": "The fee required to request randomness from Chainlink VRF.",
							"_keyHash": "The Chainlink VRF key hash.",
							"_ticketPrice": "The price per ticket in wei.",
							"linkToken": "The address of the LINK token contract used for payments to Chainlink VRF.",
							"vrfCoordinator": "The address of the Chainlink VRF coordinator contract."
						}
					},
					"drawWinner()": {
						"details": "Draws the winner of the lottery using a random number from Chainlink VRF."
					},
					"getRandomResult()": {
						"details": "Returns the latest random number generated by Chainlink VRF.",
						"returns": {
							"_0": "The latest random number."
						}
					},
					"getWinner()": {
						"details": "Returns the address of the current winner.",
						"returns": {
							"_0": "The address of the winner if the winner has been drawn, otherwise reverts with an error message."
						}
					},
					"withdrawLink()": {
						"details": "Allows the owner to withdraw any remaining LINK tokens in the contract."
					},
					"withdrawPrize()": {
						"details": "Allows the owner to withdraw the prize amount to the winner."
					}
				},
				"title": "SimpleLottery - A simple lottery contract using Chainlink VRF for randomness.",
				"version": 1
			},
			"evm": {
				"assembly": "    /* \"SimpleLottery.sol\":213:6423  contract SimpleLottery is VRFConsumerBase {... */\n  mstore(0x40, 0xc0)\n    /* \"SimpleLottery.sol\":1666:1994  constructor(... */\n  callvalue\n  dup1\n  iszero\n  tag_1\n  jumpi\n  0x00\n  dup1\n  revert\ntag_1:\n  pop\n  mload(0x40)\n  sub(codesize, bytecodeSize)\n  dup1\n  bytecodeSize\n  dup4\n  codecopy\n  dup2\n  dup2\n  add\n  0x40\n  mstore\n  dup2\n  add\n  swap1\n  tag_2\n  swap2\n  swap1\n  tag_3\n  jump\t// in\ntag_2:\n    /* \"SimpleLottery.sol\":1843:1857  vrfCoordinator */\n  dup5\n    /* \"SimpleLottery.sol\":1859:1868  linkToken */\n  dup5\n    /* \"@chainlink/contracts/src/v0.8/VRFConsumerBase.sol\":9323:9338  _vrfCoordinator */\n  dup2\n    /* \"@chainlink/contracts/src/v0.8/VRFConsumerBase.sol\":9306:9338  vrfCoordinator = _vrfCoordinator */\n  0xffffffffffffffffffffffffffffffffffffffff\n  and\n  0xa0\n  dup2\n  0xffffffffffffffffffffffffffffffffffffffff\n  and\n  dup2\n  mstore\n  pop\n  pop\n    /* \"@chainlink/contracts/src/v0.8/VRFConsumerBase.sol\":9370:9375  _link */\n  dup1\n    /* \"@chainlink/contracts/src/v0.8/VRFConsumerBase.sol\":9344:9376  LINK = LinkTokenInterface(_link) */\n  0xffffffffffffffffffffffffffffffffffffffff\n  and\n  0x80\n  dup2\n  0xffffffffffffffffffffffffffffffffffffffff\n  and\n  dup2\n  mstore\n  pop\n  pop\n    /* \"@chainlink/contracts/src/v0.8/VRFConsumerBase.sol\":9248:9381  constructor(address _vrfCoordinator, address _link) {... */\n  pop\n  pop\n    /* \"SimpleLottery.sol\":1889:1899  msg.sender */\n  caller\n    /* \"SimpleLottery.sol\":1881:1886  owner */\n  0x01\n  0x00\n    /* \"SimpleLottery.sol\":1881:1899  owner = msg.sender */\n  0x0100\n  exp\n  dup2\n  sload\n  dup2\n  0xffffffffffffffffffffffffffffffffffffffff\n  mul\n  not\n  and\n  swap1\n  dup4\n  0xffffffffffffffffffffffffffffffffffffffff\n  and\n  mul\n  or\n  swap1\n  sstore\n  pop\n    /* \"SimpleLottery.sol\":1920:1928  _keyHash */\n  dup3\n    /* \"SimpleLottery.sol\":1910:1917  keyHash */\n  0x06\n    /* \"SimpleLottery.sol\":1910:1928  keyHash = _keyHash */\n  dup2\n  swap1\n  sstore\n  pop\n    /* \"SimpleLottery.sol\":1945:1949  _fee */\n  dup2\n    /* \"SimpleLottery.sol\":1939:1942  fee */\n  0x07\n    /* \"SimpleLottery.sol\":1939:1949  fee = _fee */\n  dup2\n  swap1\n  sstore\n  pop\n    /* \"SimpleLottery.sol\":1974:1986  _ticketPrice */\n  dup1\n    /* \"SimpleLottery.sol\":1960:1971  ticketPrice */\n  0x02\n    /* \"SimpleLottery.sol\":1960:1986  ticketPrice = _ticketPrice */\n  dup2\n  swap1\n  sstore\n  pop\n    /* \"SimpleLottery.sol\":1666:1994  constructor(... */\n  pop\n  pop\n  pop\n  pop\n  pop\n    /* \"SimpleLottery.sol\":213:6423  contract SimpleLottery is VRFConsumerBase {... */\n  jump(tag_8)\n    /* \"#utility.yul\":88:205   */\ntag_10:\n    /* \"#utility.yul\":197:198   */\n  0x00\n    /* \"#utility.yul\":194:195   */\n  dup1\n    /* \"#utility.yul\":187:199   */\n  revert\n    /* \"#utility.yul\":334:460   */\ntag_12:\n    /* \"#utility.yul\":371:378   */\n  0x00\n    /* \"#utility.yul\":411:453   */\n  0xffffffffffffffffffffffffffffffffffffffff\n    /* \"#utility.yul\":404:409   */\n  dup3\n    /* \"#utility.yul\":400:454   */\n  and\n    /* \"#utility.yul\":389:454   */\n  swap1\n  pop\n    /* \"#utility.yul\":334:460   */\n  swap2\n  swap1\n  pop\n  jump\t// out\n    /* \"#utility.yul\":466:562   */\ntag_13:\n    /* \"#utility.yul\":503:510   */\n  0x00\n    /* \"#utility.yul\":532:556   */\n  tag_28\n    /* \"#utility.yul\":550:555   */\n  dup3\n    /* \"#utility.yul\":532:556   */\n  tag_12\n  jump\t// in\ntag_28:\n    /* \"#utility.yul\":521:556   */\n  swap1\n  pop\n    /* \"#utility.yul\":466:562   */\n  swap2\n  swap1\n  pop\n  jump\t// out\n    /* \"#utility.yul\":568:690   */\ntag_14:\n    /* \"#utility.yul\":641:665   */\n  tag_30\n    /* \"#utility.yul\":659:664   */\n  dup2\n    /* \"#utility.yul\":641:665   */\n  tag_13\n  jump\t// in\ntag_30:\n    /* \"#utility.yul\":634:639   */\n  dup2\n    /* \"#utility.yul\":631:666   */\n  eq\n    /* \"#utility.yul\":621:684   */\n  tag_31\n  jumpi\n    /* \"#utility.yul\":680:681   */\n  0x00\n    /* \"#utility.yul\":677:678   */\n  dup1\n    /* \"#utility.yul\":670:682   */\n  revert\n    /* \"#utility.yul\":621:684   */\ntag_31:\n    /* \"#utility.yul\":568:690   */\n  pop\n  jump\t// out\n    /* \"#utility.yul\":696:839   */\ntag_15:\n    /* \"#utility.yul\":753:758   */\n  0x00\n    /* \"#utility.yul\":784:790   */\n  dup2\n    /* \"#utility.yul\":778:791   */\n  mload\n    /* \"#utility.yul\":769:791   */\n  swap1\n  pop\n    /* \"#utility.yul\":800:833   */\n  tag_33\n    /* \"#utility.yul\":827:832   */\n  dup2\n    /* \"#utility.yul\":800:833   */\n  tag_14\n  jump\t// in\ntag_33:\n    /* \"#utility.yul\":696:839   */\n  swap3\n  swap2\n  pop\n  pop\n  jump\t// out\n    /* \"#utility.yul\":845:922   */\ntag_16:\n    /* \"#utility.yul\":882:889   */\n  0x00\n    /* \"#utility.yul\":911:916   */\n  dup2\n    /* \"#utility.yul\":900:916   */\n  swap1\n  pop\n    /* \"#utility.yul\":845:922   */\n  swap2\n  swap1\n  pop\n  jump\t// out\n    /* \"#utility.yul\":928:1050   */\ntag_17:\n    /* \"#utility.yul\":1001:1025   */\n  tag_36\n    /* \"#utility.yul\":1019:1024   */\n  dup2\n    /* \"#utility.yul\":1001:1025   */\n  tag_16\n  jump\t// in\ntag_36:\n    /* \"#utility.yul\":994:999   */\n  dup2\n    /* \"#utility.yul\":991:1026   */\n  eq\n    /* \"#utility.yul\":981:1044   */\n  tag_37\n  jumpi\n    /* \"#utility.yul\":1040:1041   */\n  0x00\n    /* \"#utility.yul\":1037:1038   */\n  dup1\n    /* \"#utility.yul\":1030:1042   */\n  revert\n    /* \"#utility.yul\":981:1044   */\ntag_37:\n    /* \"#utility.yul\":928:1050   */\n  pop\n  jump\t// out\n    /* \"#utility.yul\":1056:1199   */\ntag_18:\n    /* \"#utility.yul\":1113:1118   */\n  0x00\n    /* \"#utility.yul\":1144:1150   */\n  dup2\n    /* \"#utility.yul\":1138:1151   */\n  mload\n    /* \"#utility.yul\":1129:1151   */\n  swap1\n  pop\n    /* \"#utility.yul\":1160:1193   */\n  tag_39\n    /* \"#utility.yul\":1187:1192   */\n  dup2\n    /* \"#utility.yul\":1160:1193   */\n  tag_17\n  jump\t// in\ntag_39:\n    /* \"#utility.yul\":1056:1199   */\n  swap3\n  swap2\n  pop\n  pop\n  jump\t// out\n    /* \"#utility.yul\":1205:1282   */\ntag_19:\n    /* \"#utility.yul\":1242:1249   */\n  0x00\n    /* \"#utility.yul\":1271:1276   */\n  dup2\n    /* \"#utility.yul\":1260:1276   */\n  swap1\n  pop\n    /* \"#utility.yul\":1205:1282   */\n  swap2\n  swap1\n  pop\n  jump\t// out\n    /* \"#utility.yul\":1288:1410   */\ntag_20:\n    /* \"#utility.yul\":1361:1385   */\n  tag_42\n    /* \"#utility.yul\":1379:1384   */\n  dup2\n    /* \"#utility.yul\":1361:1385   */\n  tag_19\n  jump\t// in\ntag_42:\n    /* \"#utility.yul\":1354:1359   */\n  dup2\n    /* \"#utility.yul\":1351:1386   */\n  eq\n    /* \"#utility.yul\":1341:1404   */\n  tag_43\n  jumpi\n    /* \"#utility.yul\":1400:1401   */\n  0x00\n    /* \"#utility.yul\":1397:1398   */\n  dup1\n    /* \"#utility.yul\":1390:1402   */\n  revert\n    /* \"#utility.yul\":1341:1404   */\ntag_43:\n    /* \"#utility.yul\":1288:1410   */\n  pop\n  jump\t// out\n    /* \"#utility.yul\":1416:1559   */\ntag_21:\n    /* \"#utility.yul\":1473:1478   */\n  0x00\n    /* \"#utility.yul\":1504:1510   */\n  dup2\n    /* \"#utility.yul\":1498:1511   */\n  mload\n    /* \"#utility.yul\":1489:1511   */\n  swap1\n  pop\n    /* \"#utility.yul\":1520:1553   */\n  tag_45\n    /* \"#utility.yul\":1547:1552   */\n  dup2\n    /* \"#utility.yul\":1520:1553   */\n  tag_20\n  jump\t// in\ntag_45:\n    /* \"#utility.yul\":1416:1559   */\n  swap3\n  swap2\n  pop\n  pop\n  jump\t// out\n    /* \"#utility.yul\":1565:2542   */\ntag_3:\n    /* \"#utility.yul\":1671:1677   */\n  0x00\n    /* \"#utility.yul\":1679:1685   */\n  dup1\n    /* \"#utility.yul\":1687:1693   */\n  0x00\n    /* \"#utility.yul\":1695:1701   */\n  dup1\n    /* \"#utility.yul\":1703:1709   */\n  0x00\n    /* \"#utility.yul\":1752:1755   */\n  0xa0\n    /* \"#utility.yul\":1740:1749   */\n  dup7\n    /* \"#utility.yul\":1731:1738   */\n  dup9\n    /* \"#utility.yul\":1727:1750   */\n  sub\n    /* \"#utility.yul\":1723:1756   */\n  slt\n    /* \"#utility.yul\":1720:1840   */\n  iszero\n  tag_47\n  jumpi\n    /* \"#utility.yul\":1759:1838   */\n  tag_48\n  tag_10\n  jump\t// in\ntag_48:\n    /* \"#utility.yul\":1720:1840   */\ntag_47:\n    /* \"#utility.yul\":1879:1880   */\n  0x00\n    /* \"#utility.yul\":1904:1968   */\n  tag_49\n    /* \"#utility.yul\":1960:1967   */\n  dup9\n    /* \"#utility.yul\":1951:1957   */\n  dup3\n    /* \"#utility.yul\":1940:1949   */\n  dup10\n    /* \"#utility.yul\":1936:1958   */\n  add\n    /* \"#utility.yul\":1904:1968   */\n  tag_15\n  jump\t// in\ntag_49:\n    /* \"#utility.yul\":1894:1968   */\n  swap6\n  pop\n    /* \"#utility.yul\":1850:1978   */\n  pop\n    /* \"#utility.yul\":2017:2019   */\n  0x20\n    /* \"#utility.yul\":2043:2107   */\n  tag_50\n    /* \"#utility.yul\":2099:2106   */\n  dup9\n    /* \"#utility.yul\":2090:2096   */\n  dup3\n    /* \"#utility.yul\":2079:2088   */\n  dup10\n    /* \"#utility.yul\":2075:2097   */\n  add\n    /* \"#utility.yul\":2043:2107   */\n  tag_15\n  jump\t// in\ntag_50:\n    /* \"#utility.yul\":2033:2107   */\n  swap5\n  pop\n    /* \"#utility.yul\":1988:2117   */\n  pop\n    /* \"#utility.yul\":2156:2158   */\n  0x40\n    /* \"#utility.yul\":2182:2246   */\n  tag_51\n    /* \"#utility.yul\":2238:2245   */\n  dup9\n    /* \"#utility.yul\":2229:2235   */\n  dup3\n    /* \"#utility.yul\":2218:2227   */\n  dup10\n    /* \"#utility.yul\":2214:2236   */\n  add\n    /* \"#utility.yul\":2182:2246   */\n  tag_18\n  jump\t// in\ntag_51:\n    /* \"#utility.yul\":2172:2246   */\n  swap4\n  pop\n    /* \"#utility.yul\":2127:2256   */\n  pop\n    /* \"#utility.yul\":2295:2297   */\n  0x60\n    /* \"#utility.yul\":2321:2385   */\n  tag_52\n    /* \"#utility.yul\":2377:2384   */\n  dup9\n    /* \"#utility.yul\":2368:2374   */\n  dup3\n    /* \"#utility.yul\":2357:2366   */\n  dup10\n    /* \"#utility.yul\":2353:2375   */\n  add\n    /* \"#utility.yul\":2321:2385   */\n  tag_21\n  jump\t// in\ntag_52:\n    /* \"#utility.yul\":2311:2385   */\n  swap3\n  pop\n    /* \"#utility.yul\":2266:2395   */\n  pop\n    /* \"#utility.yul\":2434:2437   */\n  0x80\n    /* \"#utility.yul\":2461:2525   */\n  tag_53\n    /* \"#utility.yul\":2517:2524   */\n  dup9\n    /* \"#utility.yul\":2508:2514   */\n  dup3\n    /* \"#utility.yul\":2497:2506   */\n  dup10\n    /* \"#utility.yul\":2493:2515   */\n  add\n    /* \"#utility.yul\":2461:2525   */\n  tag_21\n  jump\t// in\ntag_53:\n    /* \"#utility.yul\":2451:2525   */\n  swap2\n  pop\n    /* \"#utility.yul\":2405:2535   */\n  pop\n    /* \"#utility.yul\":1565:2542   */\n  swap3\n  swap6\n  pop\n  swap3\n  swap6\n  swap1\n  swap4\n  pop\n  jump\t// out\n    /* \"SimpleLottery.sol\":213:6423  contract SimpleLottery is VRFConsumerBase {... */\ntag_8:\n  mload(0x80)\n  mload(0xa0)\n  codecopy(0x00, dataOffset(sub_0), dataSize(sub_0))\n  0x00\n  assignImmutable(\"0x6dbb33232cde86c8a04f90a8bed9fc1c5ef520188a14538d96eb100d69bc2a94\")\n  0x00\n  assignImmutable(\"0xb2219b801710730437d0358146c829b62297a059eceaa0b40b27aea2daecf595\")\n  return(0x00, dataSize(sub_0))\nstop\n\nsub_0: assembly {\n        /* \"SimpleLottery.sol\":213:6423  contract SimpleLottery is VRFConsumerBase {... */\n      mstore(0x40, 0x80)\n      jumpi(tag_1, lt(calldatasize, 0x04))\n      shr(0xe0, calldataload(0x00))\n      dup1\n      0x8dc654a2\n      gt\n      tag_15\n      jumpi\n      dup1\n      0xb2185bb1\n      gt\n      tag_16\n      jumpi\n      dup1\n      0xb2185bb1\n      eq\n      tag_11\n      jumpi\n      dup1\n      0xcfbd900f\n      eq\n      tag_12\n      jumpi\n      dup1\n      0xdfbf53ae\n      eq\n      tag_13\n      jumpi\n      dup1\n      0xf71d96cb\n      eq\n      tag_14\n      jumpi\n      jump(tag_1)\n    tag_16:\n      dup1\n      0x8dc654a2\n      eq\n      tag_8\n      jumpi\n      dup1\n      0x8e7ea5b2\n      eq\n      tag_9\n      jumpi\n      dup1\n      0x94985ddd\n      eq\n      tag_10\n      jumpi\n      jump(tag_1)\n    tag_15:\n      dup1\n      0x1209b1f6\n      eq\n      tag_2\n      jumpi\n      dup1\n      0x48d37a58\n      eq\n      tag_3\n      jumpi\n      dup1\n      0x67dd74ca\n      eq\n      tag_4\n      jumpi\n      dup1\n      0x6dcbf2a3\n      eq\n      tag_5\n      jumpi\n      dup1\n      0x7390c786\n      eq\n      tag_6\n      jumpi\n      dup1\n      0x8da5cb5b\n      eq\n      tag_7\n      jumpi\n    tag_1:\n      0x00\n      dup1\n      revert\n        /* \"SimpleLottery.sol\":314:340  uint256 public ticketPrice */\n    tag_2:\n      callvalue\n      dup1\n      iszero\n      tag_17\n      jumpi\n      0x00\n      dup1\n      revert\n    tag_17:\n      pop\n      tag_18\n      tag_19\n      jump\t// in\n    tag_18:\n      mload(0x40)\n      tag_20\n      swap2\n      swap1\n      tag_21\n      jump\t// in\n    tag_20:\n      mload(0x40)\n      dup1\n      swap2\n      sub\n      swap1\n      return\n        /* \"SimpleLottery.sol\":4400:4791  function withdrawPrize() external onlyOwner {... */\n    tag_3:\n      callvalue\n      dup1\n      iszero\n      tag_22\n      jumpi\n      0x00\n      dup1\n      revert\n    tag_22:\n      pop\n      tag_23\n      tag_24\n      jump\t// in\n    tag_23:\n      stop\n        /* \"SimpleLottery.sol\":2511:3245  function buyTicket(uint256 numberOfTickets) external payable {... */\n    tag_4:\n      tag_25\n      0x04\n      dup1\n      calldatasize\n      sub\n      dup2\n      add\n      swap1\n      tag_26\n      swap2\n      swap1\n      tag_27\n      jump\t// in\n    tag_26:\n      tag_28\n      jump\t// in\n    tag_25:\n      stop\n        /* \"SimpleLottery.sol\":802:844  mapping(address => uint256) public tickets */\n    tag_5:\n      callvalue\n      dup1\n      iszero\n      tag_29\n      jumpi\n      0x00\n      dup1\n      revert\n    tag_29:\n      pop\n      tag_30\n      0x04\n      dup1\n      calldatasize\n      sub\n      dup2\n      add\n      swap1\n      tag_31\n      swap2\n      swap1\n      tag_32\n      jump\t// in\n    tag_31:\n      tag_33\n      jump\t// in\n    tag_30:\n      mload(0x40)\n      tag_34\n      swap2\n      swap1\n      tag_21\n      jump\t// in\n    tag_34:\n      mload(0x40)\n      dup1\n      swap2\n      sub\n      swap1\n      return\n        /* \"SimpleLottery.sol\":6323:6420  function getRandomResult() external view returns (uint256) {... */\n    tag_6:\n      callvalue\n      dup1\n      iszero\n      tag_35\n      jumpi\n      0x00\n      dup1\n      revert\n    tag_35:\n      pop\n      tag_36\n      tag_37\n      jump\t// in\n    tag_36:\n      mload(0x40)\n      tag_38\n      swap2\n      swap1\n      tag_21\n      jump\t// in\n    tag_38:\n      mload(0x40)\n      dup1\n      swap2\n      sub\n      swap1\n      return\n        /* \"SimpleLottery.sol\":262:282  address public owner */\n    tag_7:\n      callvalue\n      dup1\n      iszero\n      tag_39\n      jumpi\n      0x00\n      dup1\n      revert\n    tag_39:\n      pop\n      tag_40\n      tag_41\n      jump\t// in\n    tag_40:\n      mload(0x40)\n      tag_42\n      swap2\n      swap1\n      tag_43\n      jump\t// in\n    tag_42:\n      mload(0x40)\n      dup1\n      swap2\n      sub\n      swap1\n      return\n        /* \"SimpleLottery.sol\":4078:4238  function withdrawLink() external onlyOwner {... */\n    tag_8:\n      callvalue\n      dup1\n      iszero\n      tag_44\n      jumpi\n      0x00\n      dup1\n      revert\n    tag_44:\n      pop\n      tag_45\n      tag_46\n      jump\t// in\n    tag_45:\n      stop\n        /* \"SimpleLottery.sol\":3826:3984  function getWinner() external view returns (address) {... */\n    tag_9:\n      callvalue\n      dup1\n      iszero\n      tag_47\n      jumpi\n      0x00\n      dup1\n      revert\n    tag_47:\n      pop\n      tag_48\n      tag_49\n      jump\t// in\n    tag_48:\n      mload(0x40)\n      tag_50\n      swap2\n      swap1\n      tag_43\n      jump\t// in\n    tag_50:\n      mload(0x40)\n      dup1\n      swap2\n      sub\n      swap1\n      return\n        /* \"@chainlink/contracts/src/v0.8/VRFConsumerBase.sol\":9576:9783  function rawFulfillRandomness(bytes32 requestId, uint256 randomness) external {... */\n    tag_10:\n      callvalue\n      dup1\n      iszero\n      tag_51\n      jumpi\n      0x00\n      dup1\n      revert\n    tag_51:\n      pop\n      tag_52\n      0x04\n      dup1\n      calldatasize\n      sub\n      dup2\n      add\n      swap1\n      tag_53\n      swap2\n      swap1\n      tag_54\n      jump\t// in\n    tag_53:\n      tag_55\n      jump\t// in\n    tag_52:\n      stop\n        /* \"SimpleLottery.sol\":3451:3645  function drawWinner() external onlyOwner notWinnerSelected {... */\n    tag_11:\n      callvalue\n      dup1\n      iszero\n      tag_56\n      jumpi\n      0x00\n      dup1\n      revert\n    tag_56:\n      pop\n      tag_57\n      tag_58\n      jump\t// in\n    tag_57:\n      stop\n        /* \"SimpleLottery.sol\":374:400  uint256 public ticketCount */\n    tag_12:\n      callvalue\n      dup1\n      iszero\n      tag_59\n      jumpi\n      0x00\n      dup1\n      revert\n    tag_59:\n      pop\n      tag_60\n      tag_61\n      jump\t// in\n    tag_60:\n      mload(0x40)\n      tag_62\n      swap2\n      swap1\n      tag_21\n      jump\t// in\n    tag_62:\n      mload(0x40)\n      dup1\n      swap2\n      sub\n      swap1\n      return\n        /* \"SimpleLottery.sol\":439:460  address public winner */\n    tag_13:\n      callvalue\n      dup1\n      iszero\n      tag_63\n      jumpi\n      0x00\n      dup1\n      revert\n    tag_63:\n      pop\n      tag_64\n      tag_65\n      jump\t// in\n    tag_64:\n      mload(0x40)\n      tag_66\n      swap2\n      swap1\n      tag_43\n      jump\t// in\n    tag_66:\n      mload(0x40)\n      dup1\n      swap2\n      sub\n      swap1\n      return\n        /* \"SimpleLottery.sol\":666:690  address[] public players */\n    tag_14:\n      callvalue\n      dup1\n      iszero\n      tag_67\n      jumpi\n      0x00\n      dup1\n      revert\n    tag_67:\n      pop\n      tag_68\n      0x04\n      dup1\n      calldatasize\n      sub\n      dup2\n      add\n      swap1\n      tag_69\n      swap2\n      swap1\n      tag_27\n      jump\t// in\n    tag_69:\n      tag_70\n      jump\t// in\n    tag_68:\n      mload(0x40)\n      tag_71\n      swap2\n      swap1\n      tag_43\n      jump\t// in\n    tag_71:\n      mload(0x40)\n      dup1\n      swap2\n      sub\n      swap1\n      return\n        /* \"SimpleLottery.sol\":314:340  uint256 public ticketPrice */\n    tag_19:\n      sload(0x02)\n      dup2\n      jump\t// out\n        /* \"SimpleLottery.sol\":4400:4791  function withdrawPrize() external onlyOwner {... */\n    tag_24:\n        /* \"SimpleLottery.sol\":2056:2061  owner */\n      0x01\n      0x00\n      swap1\n      sload\n      swap1\n      0x0100\n      exp\n      swap1\n      div\n      0xffffffffffffffffffffffffffffffffffffffff\n      and\n        /* \"SimpleLottery.sol\":2042:2061  msg.sender == owner */\n      0xffffffffffffffffffffffffffffffffffffffff\n      and\n        /* \"SimpleLottery.sol\":2042:2052  msg.sender */\n      caller\n        /* \"SimpleLottery.sol\":2042:2061  msg.sender == owner */\n      0xffffffffffffffffffffffffffffffffffffffff\n      and\n      eq\n        /* \"SimpleLottery.sol\":2034:2103  require(msg.sender == owner, \"Only the owner can call this function\") */\n      tag_73\n      jumpi\n      mload(0x40)\n      0x08c379a000000000000000000000000000000000000000000000000000000000\n      dup2\n      mstore\n      0x04\n      add\n      tag_74\n      swap1\n      tag_75\n      jump\t// in\n    tag_74:\n      mload(0x40)\n      dup1\n      swap2\n      sub\n      swap1\n      revert\n    tag_73:\n        /* \"SimpleLottery.sol\":4481:4482  0 */\n      0x00\n        /* \"SimpleLottery.sol\":4463:4483  winner != address(0) */\n      0xffffffffffffffffffffffffffffffffffffffff\n      and\n        /* \"SimpleLottery.sol\":4463:4469  winner */\n      0x04\n      0x00\n      swap1\n      sload\n      swap1\n      0x0100\n      exp\n      swap1\n      div\n      0xffffffffffffffffffffffffffffffffffffffff\n      and\n        /* \"SimpleLottery.sol\":4463:4483  winner != address(0) */\n      0xffffffffffffffffffffffffffffffffffffffff\n      and\n      sub\n        /* \"SimpleLottery.sol\":4455:4517  require(winner != address(0), \"Winner has not been drawn yet\") */\n      tag_77\n      jumpi\n      mload(0x40)\n      0x08c379a000000000000000000000000000000000000000000000000000000000\n      dup2\n      mstore\n      0x04\n      add\n      tag_78\n      swap1\n      tag_79\n      jump\t// in\n    tag_78:\n      mload(0x40)\n      dup1\n      swap2\n      sub\n      swap1\n      revert\n    tag_77:\n        /* \"SimpleLottery.sol\":4528:4547  uint256 prizeAmount */\n      0x00\n        /* \"SimpleLottery.sol\":4564:4575  ticketCount */\n      sload(0x03)\n        /* \"SimpleLottery.sol\":4550:4561  ticketPrice */\n      sload(0x02)\n        /* \"SimpleLottery.sol\":4550:4575  ticketPrice * ticketCount */\n      tag_80\n      swap2\n      swap1\n      tag_81\n      jump\t// in\n    tag_80:\n        /* \"SimpleLottery.sol\":4528:4575  uint256 prizeAmount = ticketPrice * ticketCount */\n      swap1\n      pop\n        /* \"SimpleLottery.sol\":4650:4661  prizeAmount */\n      dup1\n        /* \"SimpleLottery.sol\":4625:4646  address(this).balance */\n      selfbalance\n        /* \"SimpleLottery.sol\":4625:4661  address(this).balance >= prizeAmount */\n      lt\n      iszero\n        /* \"SimpleLottery.sol\":4617:4699  require(address(this).balance >= prizeAmount, \"Not enough Ether to pay the prize\") */\n      tag_82\n      jumpi\n      mload(0x40)\n      0x08c379a000000000000000000000000000000000000000000000000000000000\n      dup2\n      mstore\n      0x04\n      add\n      tag_83\n      swap1\n      tag_84\n      jump\t// in\n    tag_83:\n      mload(0x40)\n      dup1\n      swap2\n      sub\n      swap1\n      revert\n    tag_82:\n        /* \"SimpleLottery.sol\":4718:4724  winner */\n      0x04\n      0x00\n      swap1\n      sload\n      swap1\n      0x0100\n      exp\n      swap1\n      div\n      0xffffffffffffffffffffffffffffffffffffffff\n      and\n        /* \"SimpleLottery.sol\":4710:4734  payable(winner).transfer */\n      0xffffffffffffffffffffffffffffffffffffffff\n      and\n        /* \"SimpleLottery.sol\":4710:4747  payable(winner).transfer(prizeAmount) */\n      0x08fc\n        /* \"SimpleLottery.sol\":4735:4746  prizeAmount */\n      dup3\n        /* \"SimpleLottery.sol\":4710:4747  payable(winner).transfer(prizeAmount) */\n      swap1\n      dup2\n      iszero\n      mul\n      swap1\n      mload(0x40)\n      0x00\n      mload(0x40)\n      dup1\n      dup4\n      sub\n      dup2\n      dup6\n      dup9\n      dup9\n      call\n      swap4\n      pop\n      pop\n      pop\n      pop\n      iszero\n      dup1\n      iszero\n      tag_86\n      jumpi\n      returndatasize\n      0x00\n      dup1\n      returndatacopy\n      revert(0x00, returndatasize)\n    tag_86:\n      pop\n        /* \"SimpleLottery.sol\":4444:4791  {... */\n      pop\n        /* \"SimpleLottery.sol\":4400:4791  function withdrawPrize() external onlyOwner {... */\n      jump\t// out\n        /* \"SimpleLottery.sol\":2511:3245  function buyTicket(uint256 numberOfTickets) external payable {... */\n    tag_28:\n        /* \"SimpleLottery.sol\":2609:2610  0 */\n      0x00\n        /* \"SimpleLottery.sol\":2591:2606  numberOfTickets */\n      dup2\n        /* \"SimpleLottery.sol\":2591:2610  numberOfTickets > 0 */\n      gt\n        /* \"SimpleLottery.sol\":2583:2657  require(numberOfTickets > 0, \"Number of tickets should be greater than 0\") */\n      tag_88\n      jumpi\n      mload(0x40)\n      0x08c379a000000000000000000000000000000000000000000000000000000000\n      dup2\n      mstore\n      0x04\n      add\n      tag_89\n      swap1\n      tag_90\n      jump\t// in\n    tag_89:\n      mload(0x40)\n      dup1\n      swap2\n      sub\n      swap1\n      revert\n    tag_88:\n        /* \"SimpleLottery.sol\":2703:2718  numberOfTickets */\n      dup1\n        /* \"SimpleLottery.sol\":2689:2700  ticketPrice */\n      sload(0x02)\n        /* \"SimpleLottery.sol\":2689:2718  ticketPrice * numberOfTickets */\n      tag_91\n      swap2\n      swap1\n      tag_81\n      jump\t// in\n    tag_91:\n        /* \"SimpleLottery.sol\":2676:2685  msg.value */\n      callvalue\n        /* \"SimpleLottery.sol\":2676:2718  msg.value >= ticketPrice * numberOfTickets */\n      lt\n      iszero\n        /* \"SimpleLottery.sol\":2668:2744  require(msg.value >= ticketPrice * numberOfTickets, \"Not enough ether sent\") */\n      tag_92\n      jumpi\n      mload(0x40)\n      0x08c379a000000000000000000000000000000000000000000000000000000000\n      dup2\n      mstore\n      0x04\n      add\n      tag_93\n      swap1\n      tag_94\n      jump\t// in\n    tag_93:\n      mload(0x40)\n      dup1\n      swap2\n      sub\n      swap1\n      revert\n    tag_92:\n        /* \"SimpleLottery.sol\":2780:2795  numberOfTickets */\n      dup1\n        /* \"SimpleLottery.sol\":2757:2764  tickets */\n      0x0a\n        /* \"SimpleLottery.sol\":2757:2776  tickets[msg.sender] */\n      0x00\n        /* \"SimpleLottery.sol\":2765:2775  msg.sender */\n      caller\n        /* \"SimpleLottery.sol\":2757:2776  tickets[msg.sender] */\n      0xffffffffffffffffffffffffffffffffffffffff\n      and\n      0xffffffffffffffffffffffffffffffffffffffff\n      and\n      dup2\n      mstore\n      0x20\n      add\n      swap1\n      dup2\n      mstore\n      0x20\n      add\n      0x00\n      keccak256\n      0x00\n        /* \"SimpleLottery.sol\":2757:2795  tickets[msg.sender] += numberOfTickets */\n      dup3\n      dup3\n      sload\n      tag_95\n      swap2\n      swap1\n      tag_96\n      jump\t// in\n    tag_95:\n      swap3\n      pop\n      pop\n      dup2\n      swap1\n      sstore\n      pop\n        /* \"SimpleLottery.sol\":2866:2879  uniquePlayers */\n      0x0b\n        /* \"SimpleLottery.sol\":2866:2891  uniquePlayers[msg.sender] */\n      0x00\n        /* \"SimpleLottery.sol\":2880:2890  msg.sender */\n      caller\n        /* \"SimpleLottery.sol\":2866:2891  uniquePlayers[msg.sender] */\n      0xffffffffffffffffffffffffffffffffffffffff\n      and\n      0xffffffffffffffffffffffffffffffffffffffff\n      and\n      dup2\n      mstore\n      0x20\n      add\n      swap1\n      dup2\n      mstore\n      0x20\n      add\n      0x00\n      keccak256\n      0x00\n      swap1\n      sload\n      swap1\n      0x0100\n      exp\n      swap1\n      div\n      0xff\n      and\n        /* \"SimpleLottery.sol\":2862:3090  if(!uniquePlayers[msg.sender]){ // If the player is not added to the array yet... */\n      tag_97\n      jumpi\n        /* \"SimpleLottery.sol\":2954:2961  players */\n      0x08\n        /* \"SimpleLottery.sol\":2967:2977  msg.sender */\n      caller\n        /* \"SimpleLottery.sol\":2954:2978  players.push(msg.sender) */\n      swap1\n      dup1\n      0x01\n      dup2\n      sload\n      add\n      dup1\n      dup3\n      sstore\n      dup1\n      swap2\n      pop\n      pop\n      0x01\n      swap1\n      sub\n      swap1\n      0x00\n      mstore\n      keccak256(0x00, 0x20)\n      add\n      0x00\n      swap1\n      swap2\n      swap1\n      swap2\n      swap1\n      swap2\n      0x0100\n      exp\n      dup2\n      sload\n      dup2\n      0xffffffffffffffffffffffffffffffffffffffff\n      mul\n      not\n      and\n      swap1\n      dup4\n      0xffffffffffffffffffffffffffffffffffffffff\n      and\n      mul\n      or\n      swap1\n      sstore\n      pop\n        /* \"SimpleLottery.sol\":3051:3055  true */\n      0x01\n        /* \"SimpleLottery.sol\":3023:3036  uniquePlayers */\n      0x0b\n        /* \"SimpleLottery.sol\":3023:3048  uniquePlayers[msg.sender] */\n      0x00\n        /* \"SimpleLottery.sol\":3037:3047  msg.sender */\n      caller\n        /* \"SimpleLottery.sol\":3023:3048  uniquePlayers[msg.sender] */\n      0xffffffffffffffffffffffffffffffffffffffff\n      and\n      0xffffffffffffffffffffffffffffffffffffffff\n      and\n      dup2\n      mstore\n      0x20\n      add\n      swap1\n      dup2\n      mstore\n      0x20\n      add\n      0x00\n      keccak256\n      0x00\n        /* \"SimpleLottery.sol\":3023:3055  uniquePlayers[msg.sender] = true */\n      0x0100\n      exp\n      dup2\n      sload\n      dup2\n      0xff\n      mul\n      not\n      and\n      swap1\n      dup4\n      iszero\n      iszero\n      mul\n      or\n      swap1\n      sstore\n      pop\n        /* \"SimpleLottery.sol\":2862:3090  if(!uniquePlayers[msg.sender]){ // If the player is not added to the array yet... */\n    tag_97:\n        /* \"SimpleLottery.sol\":3115:3130  numberOfTickets */\n      dup1\n        /* \"SimpleLottery.sol\":3100:3111  ticketCount */\n      0x03\n      0x00\n        /* \"SimpleLottery.sol\":3100:3130  ticketCount += numberOfTickets */\n      dup3\n      dup3\n      sload\n      tag_99\n      swap2\n      swap1\n      tag_96\n      jump\t// in\n    tag_99:\n      swap3\n      pop\n      pop\n      dup2\n      swap1\n      sstore\n      pop\n        /* \"SimpleLottery.sol\":3209:3219  msg.sender */\n      caller\n        /* \"SimpleLottery.sol\":3193:3237  TicketPurchased(msg.sender, numberOfTickets) */\n      0xffffffffffffffffffffffffffffffffffffffff\n      and\n      0x0668f5b446eb814fe35b3206f43f14bd8567ba04ddaf7a3ee56516929ab22ccb\n        /* \"SimpleLottery.sol\":3221:3236  numberOfTickets */\n      dup3\n        /* \"SimpleLottery.sol\":3193:3237  TicketPurchased(msg.sender, numberOfTickets) */\n      mload(0x40)\n      tag_100\n      swap2\n      swap1\n      tag_21\n      jump\t// in\n    tag_100:\n      mload(0x40)\n      dup1\n      swap2\n      sub\n      swap1\n      log2\n        /* \"SimpleLottery.sol\":2511:3245  function buyTicket(uint256 numberOfTickets) external payable {... */\n      pop\n      jump\t// out\n        /* \"SimpleLottery.sol\":802:844  mapping(address => uint256) public tickets */\n    tag_33:\n      mstore(0x20, 0x0a)\n      dup1\n      0x00\n      mstore\n      keccak256(0x00, 0x40)\n      0x00\n      swap2\n      pop\n      swap1\n      pop\n      sload\n      dup2\n      jump\t// out\n        /* \"SimpleLottery.sol\":6323:6420  function getRandomResult() external view returns (uint256) {... */\n    tag_37:\n        /* \"SimpleLottery.sol\":6373:6380  uint256 */\n      0x00\n        /* \"SimpleLottery.sol\":6400:6412  randomResult */\n      sload(0x05)\n        /* \"SimpleLottery.sol\":6393:6412  return randomResult */\n      swap1\n      pop\n        /* \"SimpleLottery.sol\":6323:6420  function getRandomResult() external view returns (uint256) {... */\n      swap1\n      jump\t// out\n        /* \"SimpleLottery.sol\":262:282  address public owner */\n    tag_41:\n      0x01\n      0x00\n      swap1\n      sload\n      swap1\n      0x0100\n      exp\n      swap1\n      div\n      0xffffffffffffffffffffffffffffffffffffffff\n      and\n      dup2\n      jump\t// out\n        /* \"SimpleLottery.sol\":4078:4238  function withdrawLink() external onlyOwner {... */\n    tag_46:\n        /* \"SimpleLottery.sol\":2056:2061  owner */\n      0x01\n      0x00\n      swap1\n      sload\n      swap1\n      0x0100\n      exp\n      swap1\n      div\n      0xffffffffffffffffffffffffffffffffffffffff\n      and\n        /* \"SimpleLottery.sol\":2042:2061  msg.sender == owner */\n      0xffffffffffffffffffffffffffffffffffffffff\n      and\n        /* \"SimpleLottery.sol\":2042:2052  msg.sender */\n      caller\n        /* \"SimpleLottery.sol\":2042:2061  msg.sender == owner */\n      0xffffffffffffffffffffffffffffffffffffffff\n      and\n      eq\n        /* \"SimpleLottery.sol\":2034:2103  require(msg.sender == owner, \"Only the owner can call this function\") */\n      tag_103\n      jumpi\n      mload(0x40)\n      0x08c379a000000000000000000000000000000000000000000000000000000000\n      dup2\n      mstore\n      0x04\n      add\n      tag_104\n      swap1\n      tag_75\n      jump\t// in\n    tag_104:\n      mload(0x40)\n      dup1\n      swap2\n      sub\n      swap1\n      revert\n    tag_103:\n        /* \"SimpleLottery.sol\":4132:4136  LINK */\n      immutable(\"0xb2219b801710730437d0358146c829b62297a059eceaa0b40b27aea2daecf595\")\n        /* \"SimpleLottery.sol\":4132:4145  LINK.transfer */\n      0xffffffffffffffffffffffffffffffffffffffff\n      and\n      0xa9059cbb\n        /* \"SimpleLottery.sol\":4146:4151  owner */\n      0x01\n      0x00\n      swap1\n      sload\n      swap1\n      0x0100\n      exp\n      swap1\n      div\n      0xffffffffffffffffffffffffffffffffffffffff\n      and\n        /* \"SimpleLottery.sol\":4153:4157  LINK */\n      immutable(\"0xb2219b801710730437d0358146c829b62297a059eceaa0b40b27aea2daecf595\")\n        /* \"SimpleLottery.sol\":4153:4167  LINK.balanceOf */\n      0xffffffffffffffffffffffffffffffffffffffff\n      and\n      0x70a08231\n        /* \"SimpleLottery.sol\":4176:4180  this */\n      address\n        /* \"SimpleLottery.sol\":4153:4182  LINK.balanceOf(address(this)) */\n      mload(0x40)\n      dup3\n      0xffffffff\n      and\n      0xe0\n      shl\n      dup2\n      mstore\n      0x04\n      add\n      tag_106\n      swap2\n      swap1\n      tag_43\n      jump\t// in\n    tag_106:\n      0x20\n      mload(0x40)\n      dup1\n      dup4\n      sub\n      dup2\n      dup7\n      gas\n      staticcall\n      iszero\n      dup1\n      iszero\n      tag_108\n      jumpi\n      returndatasize\n      0x00\n      dup1\n      returndatacopy\n      revert(0x00, returndatasize)\n    tag_108:\n      pop\n      pop\n      pop\n      pop\n      mload(0x40)\n      returndatasize\n      not(0x1f)\n      0x1f\n      dup3\n      add\n      and\n      dup3\n      add\n      dup1\n      0x40\n      mstore\n      pop\n      dup2\n      add\n      swap1\n      tag_109\n      swap2\n      swap1\n      tag_110\n      jump\t// in\n    tag_109:\n        /* \"SimpleLottery.sol\":4132:4183  LINK.transfer(owner, LINK.balanceOf(address(this))) */\n      mload(0x40)\n      dup4\n      0xffffffff\n      and\n      0xe0\n      shl\n      dup2\n      mstore\n      0x04\n      add\n      tag_111\n      swap3\n      swap2\n      swap1\n      tag_112\n      jump\t// in\n    tag_111:\n      0x20\n      mload(0x40)\n      dup1\n      dup4\n      sub\n      dup2\n      0x00\n      dup8\n      gas\n      call\n      iszero\n      dup1\n      iszero\n      tag_114\n      jumpi\n      returndatasize\n      0x00\n      dup1\n      returndatacopy\n      revert(0x00, returndatasize)\n    tag_114:\n      pop\n      pop\n      pop\n      pop\n      mload(0x40)\n      returndatasize\n      not(0x1f)\n      0x1f\n      dup3\n      add\n      and\n      dup3\n      add\n      dup1\n      0x40\n      mstore\n      pop\n      dup2\n      add\n      swap1\n      tag_115\n      swap2\n      swap1\n      tag_116\n      jump\t// in\n    tag_115:\n      pop\n        /* \"SimpleLottery.sol\":4078:4238  function withdrawLink() external onlyOwner {... */\n      jump\t// out\n        /* \"SimpleLottery.sol\":3826:3984  function getWinner() external view returns (address) {... */\n    tag_49:\n        /* \"SimpleLottery.sol\":3870:3877  address */\n      0x00\n        /* \"SimpleLottery.sol\":3916:3917  0 */\n      dup1\n        /* \"SimpleLottery.sol\":3898:3918  winner != address(0) */\n      0xffffffffffffffffffffffffffffffffffffffff\n      and\n        /* \"SimpleLottery.sol\":3898:3904  winner */\n      0x04\n      0x00\n      swap1\n      sload\n      swap1\n      0x0100\n      exp\n      swap1\n      div\n      0xffffffffffffffffffffffffffffffffffffffff\n      and\n        /* \"SimpleLottery.sol\":3898:3918  winner != address(0) */\n      0xffffffffffffffffffffffffffffffffffffffff\n      and\n      sub\n        /* \"SimpleLottery.sol\":3890:3952  require(winner != address(0), \"Winner has not been drawn yet\") */\n      tag_118\n      jumpi\n      mload(0x40)\n      0x08c379a000000000000000000000000000000000000000000000000000000000\n      dup2\n      mstore\n      0x04\n      add\n      tag_119\n      swap1\n      tag_79\n      jump\t// in\n    tag_119:\n      mload(0x40)\n      dup1\n      swap2\n      sub\n      swap1\n      revert\n    tag_118:\n        /* \"SimpleLottery.sol\":3970:3976  winner */\n      0x04\n      0x00\n      swap1\n      sload\n      swap1\n      0x0100\n      exp\n      swap1\n      div\n      0xffffffffffffffffffffffffffffffffffffffff\n      and\n        /* \"SimpleLottery.sol\":3963:3976  return winner */\n      swap1\n      pop\n        /* \"SimpleLottery.sol\":3826:3984  function getWinner() external view returns (address) {... */\n      swap1\n      jump\t// out\n        /* \"@chainlink/contracts/src/v0.8/VRFConsumerBase.sol\":9576:9783  function rawFulfillRandomness(bytes32 requestId, uint256 randomness) external {... */\n    tag_55:\n        /* \"@chainlink/contracts/src/v0.8/VRFConsumerBase.sol\":9682:9696  vrfCoordinator */\n      immutable(\"0x6dbb33232cde86c8a04f90a8bed9fc1c5ef520188a14538d96eb100d69bc2a94\")\n        /* \"@chainlink/contracts/src/v0.8/VRFConsumerBase.sol\":9668:9696  msg.sender == vrfCoordinator */\n      0xffffffffffffffffffffffffffffffffffffffff\n      and\n        /* \"@chainlink/contracts/src/v0.8/VRFConsumerBase.sol\":9668:9678  msg.sender */\n      caller\n        /* \"@chainlink/contracts/src/v0.8/VRFConsumerBase.sol\":9668:9696  msg.sender == vrfCoordinator */\n      0xffffffffffffffffffffffffffffffffffffffff\n      and\n      eq\n        /* \"@chainlink/contracts/src/v0.8/VRFConsumerBase.sol\":9660:9732  require(msg.sender == vrfCoordinator, \"Only VRFCoordinator can fulfill\") */\n      tag_121\n      jumpi\n      mload(0x40)\n      0x08c379a000000000000000000000000000000000000000000000000000000000\n      dup2\n      mstore\n      0x04\n      add\n      tag_122\n      swap1\n      tag_123\n      jump\t// in\n    tag_122:\n      mload(0x40)\n      dup1\n      swap2\n      sub\n      swap1\n      revert\n    tag_121:\n        /* \"@chainlink/contracts/src/v0.8/VRFConsumerBase.sol\":9738:9778  fulfillRandomness(requestId, randomness) */\n      tag_124\n        /* \"@chainlink/contracts/src/v0.8/VRFConsumerBase.sol\":9756:9765  requestId */\n      dup3\n        /* \"@chainlink/contracts/src/v0.8/VRFConsumerBase.sol\":9767:9777  randomness */\n      dup3\n        /* \"@chainlink/contracts/src/v0.8/VRFConsumerBase.sol\":9738:9755  fulfillRandomness */\n      tag_125\n        /* \"@chainlink/contracts/src/v0.8/VRFConsumerBase.sol\":9738:9778  fulfillRandomness(requestId, randomness) */\n      jump\t// in\n    tag_124:\n        /* \"@chainlink/contracts/src/v0.8/VRFConsumerBase.sol\":9576:9783  function rawFulfillRandomness(bytes32 requestId, uint256 randomness) external {... */\n      pop\n      pop\n      jump\t// out\n        /* \"SimpleLottery.sol\":3451:3645  function drawWinner() external onlyOwner notWinnerSelected {... */\n    tag_58:\n        /* \"SimpleLottery.sol\":2056:2061  owner */\n      0x01\n      0x00\n      swap1\n      sload\n      swap1\n      0x0100\n      exp\n      swap1\n      div\n      0xffffffffffffffffffffffffffffffffffffffff\n      and\n        /* \"SimpleLottery.sol\":2042:2061  msg.sender == owner */\n      0xffffffffffffffffffffffffffffffffffffffff\n      and\n        /* \"SimpleLottery.sol\":2042:2052  msg.sender */\n      caller\n        /* \"SimpleLottery.sol\":2042:2061  msg.sender == owner */\n      0xffffffffffffffffffffffffffffffffffffffff\n      and\n      eq\n        /* \"SimpleLottery.sol\":2034:2103  require(msg.sender == owner, \"Only the owner can call this function\") */\n      tag_127\n      jumpi\n      mload(0x40)\n      0x08c379a000000000000000000000000000000000000000000000000000000000\n      dup2\n      mstore\n      0x04\n      add\n      tag_128\n      swap1\n      tag_75\n      jump\t// in\n    tag_128:\n      mload(0x40)\n      dup1\n      swap2\n      sub\n      swap1\n      revert\n    tag_127:\n        /* \"SimpleLottery.sol\":2197:2198  0 */\n      0x00\n        /* \"SimpleLottery.sol\":2179:2199  winner == address(0) */\n      0xffffffffffffffffffffffffffffffffffffffff\n      and\n        /* \"SimpleLottery.sol\":2179:2185  winner */\n      0x04\n      0x00\n      swap1\n      sload\n      swap1\n      0x0100\n      exp\n      swap1\n      div\n      0xffffffffffffffffffffffffffffffffffffffff\n      and\n        /* \"SimpleLottery.sol\":2179:2199  winner == address(0) */\n      0xffffffffffffffffffffffffffffffffffffffff\n      and\n      eq\n        /* \"SimpleLottery.sol\":2171:2227  require(winner == address(0), \"Winner already selected\") */\n      tag_130\n      jumpi\n      mload(0x40)\n      0x08c379a000000000000000000000000000000000000000000000000000000000\n      dup2\n      mstore\n      0x04\n      add\n      tag_131\n      swap1\n      tag_132\n      jump\t// in\n    tag_131:\n      mload(0x40)\n      dup1\n      swap2\n      sub\n      swap1\n      revert\n    tag_130:\n        /* \"SimpleLottery.sol\":3539:3540  0 */\n      0x00\n        /* \"SimpleLottery.sol\":3525:3536  ticketCount */\n      sload(0x03)\n        /* \"SimpleLottery.sol\":3525:3540  ticketCount > 0 */\n      gt\n        /* \"SimpleLottery.sol\":3517:3569  require(ticketCount > 0, \"No tickets purchased yet\") */\n      tag_134\n      jumpi\n      mload(0x40)\n      0x08c379a000000000000000000000000000000000000000000000000000000000\n      dup2\n      mstore\n      0x04\n      add\n      tag_135\n      swap1\n      tag_136\n      jump\t// in\n    tag_135:\n      mload(0x40)\n      dup1\n      swap2\n      sub\n      swap1\n      revert\n    tag_134:\n        /* \"SimpleLottery.sol\":3578:3595  getRandomNumber() */\n      tag_137\n        /* \"SimpleLottery.sol\":3578:3593  getRandomNumber */\n      tag_138\n        /* \"SimpleLottery.sol\":3578:3595  getRandomNumber() */\n      jump\t// in\n    tag_137:\n        /* \"SimpleLottery.sol\":3451:3645  function drawWinner() external onlyOwner notWinnerSelected {... */\n      jump\t// out\n        /* \"SimpleLottery.sol\":374:400  uint256 public ticketCount */\n    tag_61:\n      sload(0x03)\n      dup2\n      jump\t// out\n        /* \"SimpleLottery.sol\":439:460  address public winner */\n    tag_65:\n      0x04\n      0x00\n      swap1\n      sload\n      swap1\n      0x0100\n      exp\n      swap1\n      div\n      0xffffffffffffffffffffffffffffffffffffffff\n      and\n      dup2\n      jump\t// out\n        /* \"SimpleLottery.sol\":666:690  address[] public players */\n    tag_70:\n      0x08\n      dup2\n      dup2\n      sload\n      dup2\n      lt\n      tag_139\n      jumpi\n      0x00\n      dup1\n      revert\n    tag_139:\n      swap1\n      0x00\n      mstore\n      keccak256(0x00, 0x20)\n      add\n      0x00\n      swap2\n      pop\n      sload\n      swap1\n      0x0100\n      exp\n      swap1\n      div\n      0xffffffffffffffffffffffffffffffffffffffff\n      and\n      dup2\n      jump\t// out\n        /* \"SimpleLottery.sol\":5578:6197  function fulfillRandomness(bytes32 requestId, uint256 randomness) internal override {... */\n    tag_125:\n        /* \"SimpleLottery.sol\":5782:5801  requestRandomnessId */\n      sload(0x09)\n        /* \"SimpleLottery.sol\":5769:5778  requestId */\n      dup3\n        /* \"SimpleLottery.sol\":5769:5801  requestId == requestRandomnessId */\n      eq\n        /* \"SimpleLottery.sol\":5761:5821  require(requestId == requestRandomnessId, \"Wrong requestId\") */\n      tag_142\n      jumpi\n      mload(0x40)\n      0x08c379a000000000000000000000000000000000000000000000000000000000\n      dup2\n      mstore\n      0x04\n      add\n      tag_143\n      swap1\n      tag_144\n      jump\t// in\n    tag_143:\n      mload(0x40)\n      dup1\n      swap2\n      sub\n      swap1\n      revert\n    tag_142:\n        /* \"SimpleLottery.sol\":5853:5854  0 */\n      0x00\n        /* \"SimpleLottery.sol\":5840:5850  randomness */\n      dup2\n        /* \"SimpleLottery.sol\":5840:5854  randomness > 0 */\n      gt\n        /* \"SimpleLottery.sol\":5832:5886  require(randomness > 0, \"Random number not generated\") */\n      tag_145\n      jumpi\n      mload(0x40)\n      0x08c379a000000000000000000000000000000000000000000000000000000000\n      dup2\n      mstore\n      0x04\n      add\n      tag_146\n      swap1\n      tag_147\n      jump\t// in\n    tag_146:\n      mload(0x40)\n      dup1\n      swap2\n      sub\n      swap1\n      revert\n    tag_145:\n        /* \"SimpleLottery.sol\":5912:5922  randomness */\n      dup1\n        /* \"SimpleLottery.sol\":5897:5909  randomResult */\n      0x05\n        /* \"SimpleLottery.sol\":5897:5922  randomResult = randomness */\n      dup2\n      swap1\n      sstore\n      pop\n        /* \"SimpleLottery.sol\":5978:5997  uint256 winnerIndex */\n      0x00\n        /* \"SimpleLottery.sol\":6013:6020  players */\n      0x08\n        /* \"SimpleLottery.sol\":6013:6027  players.length */\n      dup1\n      sload\n      swap1\n      pop\n        /* \"SimpleLottery.sol\":6000:6010  randomness */\n      dup3\n        /* \"SimpleLottery.sol\":6000:6027  randomness % players.length */\n      tag_148\n      swap2\n      swap1\n      tag_149\n      jump\t// in\n    tag_148:\n        /* \"SimpleLottery.sol\":5978:6027  uint256 winnerIndex = randomness % players.length */\n      swap1\n      pop\n        /* \"SimpleLottery.sol\":6088:6095  players */\n      0x08\n        /* \"SimpleLottery.sol\":6096:6107  winnerIndex */\n      dup2\n        /* \"SimpleLottery.sol\":6088:6108  players[winnerIndex] */\n      dup2\n      sload\n      dup2\n      lt\n      tag_150\n      jumpi\n      tag_151\n      tag_152\n      jump\t// in\n    tag_151:\n    tag_150:\n      swap1\n      0x00\n      mstore\n      keccak256(0x00, 0x20)\n      add\n      0x00\n      swap1\n      sload\n      swap1\n      0x0100\n      exp\n      swap1\n      div\n      0xffffffffffffffffffffffffffffffffffffffff\n      and\n        /* \"SimpleLottery.sol\":6079:6085  winner */\n      0x04\n      0x00\n        /* \"SimpleLottery.sol\":6079:6108  winner = players[winnerIndex] */\n      0x0100\n      exp\n      dup2\n      sload\n      dup2\n      0xffffffffffffffffffffffffffffffffffffffff\n      mul\n      not\n      and\n      swap1\n      dup4\n      0xffffffffffffffffffffffffffffffffffffffff\n      and\n      mul\n      or\n      swap1\n      sstore\n      pop\n        /* \"SimpleLottery.sol\":6180:6186  winner */\n      0x04\n      0x00\n      swap1\n      sload\n      swap1\n      0x0100\n      exp\n      swap1\n      div\n      0xffffffffffffffffffffffffffffffffffffffff\n      and\n        /* \"SimpleLottery.sol\":6168:6187  WinnerDrawn(winner) */\n      0xffffffffffffffffffffffffffffffffffffffff\n      and\n      0xb1899e5911a12372a7fa329d3051f8358e8f5156f66bcf69707ea096419681b7\n      mload(0x40)\n      mload(0x40)\n      dup1\n      swap2\n      sub\n      swap1\n      log2\n        /* \"SimpleLottery.sol\":5662:6197  {... */\n      pop\n        /* \"SimpleLottery.sol\":5578:6197  function fulfillRandomness(bytes32 requestId, uint256 randomness) internal override {... */\n      pop\n      pop\n      jump\t// out\n        /* \"SimpleLottery.sol\":4864:5327  function getRandomNumber() internal  {... */\n    tag_138:\n        /* \"SimpleLottery.sol\":4953:4956  fee */\n      sload(0x07)\n        /* \"SimpleLottery.sol\":4920:4924  LINK */\n      immutable(\"0xb2219b801710730437d0358146c829b62297a059eceaa0b40b27aea2daecf595\")\n        /* \"SimpleLottery.sol\":4920:4934  LINK.balanceOf */\n      0xffffffffffffffffffffffffffffffffffffffff\n      and\n      0x70a08231\n        /* \"SimpleLottery.sol\":4943:4947  this */\n      address\n        /* \"SimpleLottery.sol\":4920:4949  LINK.balanceOf(address(this)) */\n      mload(0x40)\n      dup3\n      0xffffffff\n      and\n      0xe0\n      shl\n      dup2\n      mstore\n      0x04\n      add\n      tag_155\n      swap2\n      swap1\n      tag_43\n      jump\t// in\n    tag_155:\n      0x20\n      mload(0x40)\n      dup1\n      dup4\n      sub\n      dup2\n      dup7\n      gas\n      staticcall\n      iszero\n      dup1\n      iszero\n      tag_157\n      jumpi\n      returndatasize\n      0x00\n      dup1\n      returndatacopy\n      revert(0x00, returndatasize)\n    tag_157:\n      pop\n      pop\n      pop\n      pop\n      mload(0x40)\n      returndatasize\n      not(0x1f)\n      0x1f\n      dup3\n      add\n      and\n      dup3\n      add\n      dup1\n      0x40\n      mstore\n      pop\n      dup2\n      add\n      swap1\n      tag_158\n      swap2\n      swap1\n      tag_110\n      jump\t// in\n    tag_158:\n        /* \"SimpleLottery.sol\":4920:4956  LINK.balanceOf(address(this)) >= fee */\n      lt\n      iszero\n        /* \"SimpleLottery.sol\":4912:4987  require(LINK.balanceOf(address(this)) >= fee, \"Not enough LINK to pay fee\") */\n      tag_159\n      jumpi\n      mload(0x40)\n      0x08c379a000000000000000000000000000000000000000000000000000000000\n      dup2\n      mstore\n      0x04\n      add\n      tag_160\n      swap1\n      tag_161\n      jump\t// in\n    tag_160:\n      mload(0x40)\n      dup1\n      swap2\n      sub\n      swap1\n      revert\n    tag_159:\n        /* \"SimpleLottery.sol\":5025:5026  0 */\n      0x00\n        /* \"SimpleLottery.sol\":5017:5027  bytes32(0) */\n      dup1\n      shl\n        /* \"SimpleLottery.sol\":5006:5013  keyHash */\n      sload(0x06)\n        /* \"SimpleLottery.sol\":5006:5027  keyHash != bytes32(0) */\n      sub\n        /* \"SimpleLottery.sol\":4998:5055  require(keyHash != bytes32(0), \"Must have valid keyHash\") */\n      tag_162\n      jumpi\n      mload(0x40)\n      0x08c379a000000000000000000000000000000000000000000000000000000000\n      dup2\n      mstore\n      0x04\n      add\n      tag_163\n      swap1\n      tag_164\n      jump\t// in\n    tag_163:\n      mload(0x40)\n      dup1\n      swap2\n      sub\n      swap1\n      revert\n    tag_162:\n        /* \"SimpleLottery.sol\":5088:5089  0 */\n      0x00\n        /* \"SimpleLottery.sol\":5074:5085  ticketCount */\n      sload(0x03)\n        /* \"SimpleLottery.sol\":5074:5089  ticketCount > 0 */\n      gt\n        /* \"SimpleLottery.sol\":5066:5118  require(ticketCount > 0, \"No tickets purchased yet\") */\n      tag_165\n      jumpi\n      mload(0x40)\n      0x08c379a000000000000000000000000000000000000000000000000000000000\n      dup2\n      mstore\n      0x04\n      add\n      tag_166\n      swap1\n      tag_136\n      jump\t// in\n    tag_166:\n      mload(0x40)\n      dup1\n      swap2\n      sub\n      swap1\n      revert\n    tag_165:\n        /* \"SimpleLottery.sol\":5131:5148  bytes32 requestId */\n      0x00\n        /* \"SimpleLottery.sol\":5151:5182  requestRandomness(keyHash, fee) */\n      tag_167\n        /* \"SimpleLottery.sol\":5169:5176  keyHash */\n      sload(0x06)\n        /* \"SimpleLottery.sol\":5178:5181  fee */\n      sload(0x07)\n        /* \"SimpleLottery.sol\":5151:5168  requestRandomness */\n      tag_168\n        /* \"SimpleLottery.sol\":5151:5182  requestRandomness(keyHash, fee) */\n      jump\t// in\n    tag_167:\n        /* \"SimpleLottery.sol\":5131:5182  bytes32 requestId = requestRandomness(keyHash, fee) */\n      swap1\n      pop\n        /* \"SimpleLottery.sol\":5261:5270  requestId */\n      dup1\n        /* \"SimpleLottery.sol\":5239:5258  requestRandomnessId */\n      0x09\n        /* \"SimpleLottery.sol\":5239:5270  requestRandomnessId = requestId */\n      dup2\n      swap1\n      sstore\n      pop\n        /* \"SimpleLottery.sol\":4901:5327  {... */\n      pop\n        /* \"SimpleLottery.sol\":4864:5327  function getRandomNumber() internal  {... */\n      jump\t// out\n        /* \"@chainlink/contracts/src/v0.8/VRFConsumerBase.sol\":7732:8752  function requestRandomness(bytes32 _keyHash, uint256 _fee) internal returns (bytes32 requestId) {... */\n    tag_168:\n        /* \"@chainlink/contracts/src/v0.8/VRFConsumerBase.sol\":7809:7826  bytes32 requestId */\n      0x00\n        /* \"@chainlink/contracts/src/v0.8/VRFConsumerBase.sol\":7834:7838  LINK */\n      immutable(\"0xb2219b801710730437d0358146c829b62297a059eceaa0b40b27aea2daecf595\")\n        /* \"@chainlink/contracts/src/v0.8/VRFConsumerBase.sol\":7834:7854  LINK.transferAndCall */\n      0xffffffffffffffffffffffffffffffffffffffff\n      and\n      0x4000aea0\n        /* \"@chainlink/contracts/src/v0.8/VRFConsumerBase.sol\":7855:7869  vrfCoordinator */\n      immutable(\"0x6dbb33232cde86c8a04f90a8bed9fc1c5ef520188a14538d96eb100d69bc2a94\")\n        /* \"@chainlink/contracts/src/v0.8/VRFConsumerBase.sol\":7871:7875  _fee */\n      dup5\n        /* \"@chainlink/contracts/src/v0.8/VRFConsumerBase.sol\":7888:7896  _keyHash */\n      dup7\n        /* \"@chainlink/contracts/src/v0.8/VRFConsumerBase.sol\":6589:6590  0 */\n      0x00\n        /* \"@chainlink/contracts/src/v0.8/VRFConsumerBase.sol\":7877:7920  abi.encode(_keyHash, USER_SEED_PLACEHOLDER) */\n      add(0x20, mload(0x40))\n      tag_170\n      swap3\n      swap2\n      swap1\n      tag_171\n      jump\t// in\n    tag_170:\n      mload(0x40)\n      0x20\n      dup2\n      dup4\n      sub\n      sub\n      dup2\n      mstore\n      swap1\n      0x40\n      mstore\n        /* \"@chainlink/contracts/src/v0.8/VRFConsumerBase.sol\":7834:7921  LINK.transferAndCall(vrfCoordinator, _fee, abi.encode(_keyHash, USER_SEED_PLACEHOLDER)) */\n      mload(0x40)\n      dup5\n      0xffffffff\n      and\n      0xe0\n      shl\n      dup2\n      mstore\n      0x04\n      add\n      tag_172\n      swap4\n      swap3\n      swap2\n      swap1\n      tag_173\n      jump\t// in\n    tag_172:\n      0x20\n      mload(0x40)\n      dup1\n      dup4\n      sub\n      dup2\n      0x00\n      dup8\n      gas\n      call\n      iszero\n      dup1\n      iszero\n      tag_175\n      jumpi\n      returndatasize\n      0x00\n      dup1\n      returndatacopy\n      revert(0x00, returndatasize)\n    tag_175:\n      pop\n      pop\n      pop\n      pop\n      mload(0x40)\n      returndatasize\n      not(0x1f)\n      0x1f\n      dup3\n      add\n      and\n      dup3\n      add\n      dup1\n      0x40\n      mstore\n      pop\n      dup2\n      add\n      swap1\n      tag_176\n      swap2\n      swap1\n      tag_116\n      jump\t// in\n    tag_176:\n      pop\n        /* \"@chainlink/contracts/src/v0.8/VRFConsumerBase.sol\":8152:8167  uint256 vRFSeed */\n      0x00\n        /* \"@chainlink/contracts/src/v0.8/VRFConsumerBase.sol\":8170:8252  makeVRFInputSeed(_keyHash, USER_SEED_PLACEHOLDER, address(this), nonces[_keyHash]) */\n      tag_177\n        /* \"@chainlink/contracts/src/v0.8/VRFConsumerBase.sol\":8187:8195  _keyHash */\n      dup5\n        /* \"@chainlink/contracts/src/v0.8/VRFConsumerBase.sol\":6589:6590  0 */\n      0x00\n        /* \"@chainlink/contracts/src/v0.8/VRFConsumerBase.sol\":8228:8232  this */\n      address\n        /* \"@chainlink/contracts/src/v0.8/VRFConsumerBase.sol\":8235:8241  nonces */\n      0x00\n        /* \"@chainlink/contracts/src/v0.8/VRFConsumerBase.sol\":8235:8251  nonces[_keyHash] */\n      dup1\n        /* \"@chainlink/contracts/src/v0.8/VRFConsumerBase.sol\":8242:8250  _keyHash */\n      dup10\n        /* \"@chainlink/contracts/src/v0.8/VRFConsumerBase.sol\":8235:8251  nonces[_keyHash] */\n      dup2\n      mstore\n      0x20\n      add\n      swap1\n      dup2\n      mstore\n      0x20\n      add\n      0x00\n      keccak256\n      sload\n        /* \"@chainlink/contracts/src/v0.8/VRFConsumerBase.sol\":8170:8186  makeVRFInputSeed */\n      tag_178\n        /* \"@chainlink/contracts/src/v0.8/VRFConsumerBase.sol\":8170:8252  makeVRFInputSeed(_keyHash, USER_SEED_PLACEHOLDER, address(this), nonces[_keyHash]) */\n      jump\t// in\n    tag_177:\n        /* \"@chainlink/contracts/src/v0.8/VRFConsumerBase.sol\":8152:8252  uint256 vRFSeed = makeVRFInputSeed(_keyHash, USER_SEED_PLACEHOLDER, address(this), nonces[_keyHash]) */\n      swap1\n      pop\n        /* \"@chainlink/contracts/src/v0.8/VRFConsumerBase.sol\":8701:8702  1 */\n      0x01\n        /* \"@chainlink/contracts/src/v0.8/VRFConsumerBase.sol\":8682:8688  nonces */\n      0x00\n        /* \"@chainlink/contracts/src/v0.8/VRFConsumerBase.sol\":8682:8698  nonces[_keyHash] */\n      dup1\n        /* \"@chainlink/contracts/src/v0.8/VRFConsumerBase.sol\":8689:8697  _keyHash */\n      dup7\n        /* \"@chainlink/contracts/src/v0.8/VRFConsumerBase.sol\":8682:8698  nonces[_keyHash] */\n      dup2\n      mstore\n      0x20\n      add\n      swap1\n      dup2\n      mstore\n      0x20\n      add\n      0x00\n      keccak256\n      sload\n        /* \"@chainlink/contracts/src/v0.8/VRFConsumerBase.sol\":8682:8702  nonces[_keyHash] + 1 */\n      tag_179\n      swap2\n      swap1\n      tag_96\n      jump\t// in\n    tag_179:\n        /* \"@chainlink/contracts/src/v0.8/VRFConsumerBase.sol\":8663:8669  nonces */\n      0x00\n        /* \"@chainlink/contracts/src/v0.8/VRFConsumerBase.sol\":8663:8679  nonces[_keyHash] */\n      dup1\n        /* \"@chainlink/contracts/src/v0.8/VRFConsumerBase.sol\":8670:8678  _keyHash */\n      dup7\n        /* \"@chainlink/contracts/src/v0.8/VRFConsumerBase.sol\":8663:8679  nonces[_keyHash] */\n      dup2\n      mstore\n      0x20\n      add\n      swap1\n      dup2\n      mstore\n      0x20\n      add\n      0x00\n      keccak256\n        /* \"@chainlink/contracts/src/v0.8/VRFConsumerBase.sol\":8663:8702  nonces[_keyHash] = nonces[_keyHash] + 1 */\n      dup2\n      swap1\n      sstore\n      pop\n        /* \"@chainlink/contracts/src/v0.8/VRFConsumerBase.sol\":8715:8747  makeRequestId(_keyHash, vRFSeed) */\n      tag_180\n        /* \"@chainlink/contracts/src/v0.8/VRFConsumerBase.sol\":8729:8737  _keyHash */\n      dup5\n        /* \"@chainlink/contracts/src/v0.8/VRFConsumerBase.sol\":8739:8746  vRFSeed */\n      dup3\n        /* \"@chainlink/contracts/src/v0.8/VRFConsumerBase.sol\":8715:8728  makeRequestId */\n      tag_181\n        /* \"@chainlink/contracts/src/v0.8/VRFConsumerBase.sol\":8715:8747  makeRequestId(_keyHash, vRFSeed) */\n      jump\t// in\n    tag_180:\n        /* \"@chainlink/contracts/src/v0.8/VRFConsumerBase.sol\":8708:8747  return makeRequestId(_keyHash, vRFSeed) */\n      swap2\n      pop\n      pop\n        /* \"@chainlink/contracts/src/v0.8/VRFConsumerBase.sol\":7732:8752  function requestRandomness(bytes32 _keyHash, uint256 _fee) internal returns (bytes32 requestId) {... */\n      swap3\n      swap2\n      pop\n      pop\n      jump\t// out\n        /* \"@chainlink/contracts/src/v0.8/VRFRequestIDBase.sol\":796:1036  function makeVRFInputSeed(... */\n    tag_178:\n        /* \"@chainlink/contracts/src/v0.8/VRFRequestIDBase.sol\":938:945  uint256 */\n      0x00\n        /* \"@chainlink/contracts/src/v0.8/VRFRequestIDBase.sol\":989:997  _keyHash */\n      dup5\n        /* \"@chainlink/contracts/src/v0.8/VRFRequestIDBase.sol\":999:1008  _userSeed */\n      dup5\n        /* \"@chainlink/contracts/src/v0.8/VRFRequestIDBase.sol\":1010:1020  _requester */\n      dup5\n        /* \"@chainlink/contracts/src/v0.8/VRFRequestIDBase.sol\":1022:1028  _nonce */\n      dup5\n        /* \"@chainlink/contracts/src/v0.8/VRFRequestIDBase.sol\":978:1029  abi.encode(_keyHash, _userSeed, _requester, _nonce) */\n      add(0x20, mload(0x40))\n      tag_183\n      swap5\n      swap4\n      swap3\n      swap2\n      swap1\n      tag_184\n      jump\t// in\n    tag_183:\n      mload(0x40)\n      0x20\n      dup2\n      dup4\n      sub\n      sub\n      dup2\n      mstore\n      swap1\n      0x40\n      mstore\n        /* \"@chainlink/contracts/src/v0.8/VRFRequestIDBase.sol\":968:1030  keccak256(abi.encode(_keyHash, _userSeed, _requester, _nonce)) */\n      dup1\n      mload\n      swap1\n      0x20\n      add\n      keccak256\n        /* \"@chainlink/contracts/src/v0.8/VRFRequestIDBase.sol\":960:1031  uint256(keccak256(abi.encode(_keyHash, _userSeed, _requester, _nonce))) */\n      0x00\n      shr\n        /* \"@chainlink/contracts/src/v0.8/VRFRequestIDBase.sol\":953:1031  return uint256(keccak256(abi.encode(_keyHash, _userSeed, _requester, _nonce))) */\n      swap1\n      pop\n        /* \"@chainlink/contracts/src/v0.8/VRFRequestIDBase.sol\":796:1036  function makeVRFInputSeed(... */\n      swap5\n      swap4\n      pop\n      pop\n      pop\n      pop\n      jump\t// out\n        /* \"@chainlink/contracts/src/v0.8/VRFRequestIDBase.sol\":1416:1582  function makeRequestId(bytes32 _keyHash, uint256 _vRFInputSeed) internal pure returns (bytes32) {... */\n    tag_181:\n        /* \"@chainlink/contracts/src/v0.8/VRFRequestIDBase.sol\":1503:1510  bytes32 */\n      0x00\n        /* \"@chainlink/contracts/src/v0.8/VRFRequestIDBase.sol\":1552:1560  _keyHash */\n      dup3\n        /* \"@chainlink/contracts/src/v0.8/VRFRequestIDBase.sol\":1562:1575  _vRFInputSeed */\n      dup3\n        /* \"@chainlink/contracts/src/v0.8/VRFRequestIDBase.sol\":1535:1576  abi.encodePacked(_keyHash, _vRFInputSeed) */\n      add(0x20, mload(0x40))\n      tag_186\n      swap3\n      swap2\n      swap1\n      tag_187\n      jump\t// in\n    tag_186:\n      mload(0x40)\n      0x20\n      dup2\n      dup4\n      sub\n      sub\n      dup2\n      mstore\n      swap1\n      0x40\n      mstore\n        /* \"@chainlink/contracts/src/v0.8/VRFRequestIDBase.sol\":1525:1577  keccak256(abi.encodePacked(_keyHash, _vRFInputSeed)) */\n      dup1\n      mload\n      swap1\n      0x20\n      add\n      keccak256\n        /* \"@chainlink/contracts/src/v0.8/VRFRequestIDBase.sol\":1518:1577  return keccak256(abi.encodePacked(_keyHash, _vRFInputSeed)) */\n      swap1\n      pop\n        /* \"@chainlink/contracts/src/v0.8/VRFRequestIDBase.sol\":1416:1582  function makeRequestId(bytes32 _keyHash, uint256 _vRFInputSeed) internal pure returns (bytes32) {... */\n      swap3\n      swap2\n      pop\n      pop\n      jump\t// out\n        /* \"#utility.yul\":7:84   */\n    tag_188:\n        /* \"#utility.yul\":44:51   */\n      0x00\n        /* \"#utility.yul\":73:78   */\n      dup2\n        /* \"#utility.yul\":62:78   */\n      swap1\n      pop\n        /* \"#utility.yul\":7:84   */\n      swap2\n      swap1\n      pop\n      jump\t// out\n        /* \"#utility.yul\":90:208   */\n    tag_189:\n        /* \"#utility.yul\":177:201   */\n      tag_247\n        /* \"#utility.yul\":195:200   */\n      dup2\n        /* \"#utility.yul\":177:201   */\n      tag_188\n      jump\t// in\n    tag_247:\n        /* \"#utility.yul\":172:175   */\n      dup3\n        /* \"#utility.yul\":165:202   */\n      mstore\n        /* \"#utility.yul\":90:208   */\n      pop\n      pop\n      jump\t// out\n        /* \"#utility.yul\":214:436   */\n    tag_21:\n        /* \"#utility.yul\":307:311   */\n      0x00\n        /* \"#utility.yul\":345:347   */\n      0x20\n        /* \"#utility.yul\":334:343   */\n      dup3\n        /* \"#utility.yul\":330:348   */\n      add\n        /* \"#utility.yul\":322:348   */\n      swap1\n      pop\n        /* \"#utility.yul\":358:429   */\n      tag_249\n        /* \"#utility.yul\":426:427   */\n      0x00\n        /* \"#utility.yul\":415:424   */\n      dup4\n        /* \"#utility.yul\":411:428   */\n      add\n        /* \"#utility.yul\":402:408   */\n      dup5\n        /* \"#utility.yul\":358:429   */\n      tag_189\n      jump\t// in\n    tag_249:\n        /* \"#utility.yul\":214:436   */\n      swap3\n      swap2\n      pop\n      pop\n      jump\t// out\n        /* \"#utility.yul\":523:640   */\n    tag_191:\n        /* \"#utility.yul\":632:633   */\n      0x00\n        /* \"#utility.yul\":629:630   */\n      dup1\n        /* \"#utility.yul\":622:634   */\n      revert\n        /* \"#utility.yul\":769:891   */\n    tag_193:\n        /* \"#utility.yul\":842:866   */\n      tag_254\n        /* \"#utility.yul\":860:865   */\n      dup2\n        /* \"#utility.yul\":842:866   */\n      tag_188\n      jump\t// in\n    tag_254:\n        /* \"#utility.yul\":835:840   */\n      dup2\n        /* \"#utility.yul\":832:867   */\n      eq\n        /* \"#utility.yul\":822:885   */\n      tag_255\n      jumpi\n        /* \"#utility.yul\":881:882   */\n      0x00\n        /* \"#utility.yul\":878:879   */\n      dup1\n        /* \"#utility.yul\":871:883   */\n      revert\n        /* \"#utility.yul\":822:885   */\n    tag_255:\n        /* \"#utility.yul\":769:891   */\n      pop\n      jump\t// out\n        /* \"#utility.yul\":897:1036   */\n    tag_194:\n        /* \"#utility.yul\":943:948   */\n      0x00\n        /* \"#utility.yul\":981:987   */\n      dup2\n        /* \"#utility.yul\":968:988   */\n      calldataload\n        /* \"#utility.yul\":959:988   */\n      swap1\n      pop\n        /* \"#utility.yul\":997:1030   */\n      tag_257\n        /* \"#utility.yul\":1024:1029   */\n      dup2\n        /* \"#utility.yul\":997:1030   */\n      tag_193\n      jump\t// in\n    tag_257:\n        /* \"#utility.yul\":897:1036   */\n      swap3\n      swap2\n      pop\n      pop\n      jump\t// out\n        /* \"#utility.yul\":1042:1371   */\n    tag_27:\n        /* \"#utility.yul\":1101:1107   */\n      0x00\n        /* \"#utility.yul\":1150:1152   */\n      0x20\n        /* \"#utility.yul\":1138:1147   */\n      dup3\n        /* \"#utility.yul\":1129:1136   */\n      dup5\n        /* \"#utility.yul\":1125:1148   */\n      sub\n        /* \"#utility.yul\":1121:1153   */\n      slt\n        /* \"#utility.yul\":1118:1237   */\n      iszero\n      tag_259\n      jumpi\n        /* \"#utility.yul\":1156:1235   */\n      tag_260\n      tag_191\n      jump\t// in\n    tag_260:\n        /* \"#utility.yul\":1118:1237   */\n    tag_259:\n        /* \"#utility.yul\":1276:1277   */\n      0x00\n        /* \"#utility.yul\":1301:1354   */\n      tag_261\n        /* \"#utility.yul\":1346:1353   */\n      dup5\n        /* \"#utility.yul\":1337:1343   */\n      dup3\n        /* \"#utility.yul\":1326:1335   */\n      dup6\n        /* \"#utility.yul\":1322:1344   */\n      add\n        /* \"#utility.yul\":1301:1354   */\n      tag_194\n      jump\t// in\n    tag_261:\n        /* \"#utility.yul\":1291:1354   */\n      swap2\n      pop\n        /* \"#utility.yul\":1247:1364   */\n      pop\n        /* \"#utility.yul\":1042:1371   */\n      swap3\n      swap2\n      pop\n      pop\n      jump\t// out\n        /* \"#utility.yul\":1377:1503   */\n    tag_195:\n        /* \"#utility.yul\":1414:1421   */\n      0x00\n        /* \"#utility.yul\":1454:1496   */\n      0xffffffffffffffffffffffffffffffffffffffff\n        /* \"#utility.yul\":1447:1452   */\n      dup3\n        /* \"#utility.yul\":1443:1497   */\n      and\n        /* \"#utility.yul\":1432:1497   */\n      swap1\n      pop\n        /* \"#utility.yul\":1377:1503   */\n      swap2\n      swap1\n      pop\n      jump\t// out\n        /* \"#utility.yul\":1509:1605   */\n    tag_196:\n        /* \"#utility.yul\":1546:1553   */\n      0x00\n        /* \"#utility.yul\":1575:1599   */\n      tag_264\n        /* \"#utility.yul\":1593:1598   */\n      dup3\n        /* \"#utility.yul\":1575:1599   */\n      tag_195\n      jump\t// in\n    tag_264:\n        /* \"#utility.yul\":1564:1599   */\n      swap1\n      pop\n        /* \"#utility.yul\":1509:1605   */\n      swap2\n      swap1\n      pop\n      jump\t// out\n        /* \"#utility.yul\":1611:1733   */\n    tag_197:\n        /* \"#utility.yul\":1684:1708   */\n      tag_266\n        /* \"#utility.yul\":1702:1707   */\n      dup2\n        /* \"#utility.yul\":1684:1708   */\n      tag_196\n      jump\t// in\n    tag_266:\n        /* \"#utility.yul\":1677:1682   */\n      dup2\n        /* \"#utility.yul\":1674:1709   */\n      eq\n        /* \"#utility.yul\":1664:1727   */\n      tag_267\n      jumpi\n        /* \"#utility.yul\":1723:1724   */\n      0x00\n        /* \"#utility.yul\":1720:1721   */\n      dup1\n        /* \"#utility.yul\":1713:1725   */\n      revert\n        /* \"#utility.yul\":1664:1727   */\n    tag_267:\n        /* \"#utility.yul\":1611:1733   */\n      pop\n      jump\t// out\n        /* \"#utility.yul\":1739:1878   */\n    tag_198:\n        /* \"#utility.yul\":1785:1790   */\n      0x00\n        /* \"#utility.yul\":1823:1829   */\n      dup2\n        /* \"#utility.yul\":1810:1830   */\n      calldataload\n        /* \"#utility.yul\":1801:1830   */\n      swap1\n      pop\n        /* \"#utility.yul\":1839:1872   */\n      tag_269\n        /* \"#utility.yul\":1866:1871   */\n      dup2\n        /* \"#utility.yul\":1839:1872   */\n      tag_197\n      jump\t// in\n    tag_269:\n        /* \"#utility.yul\":1739:1878   */\n      swap3\n      swap2\n      pop\n      pop\n      jump\t// out\n        /* \"#utility.yul\":1884:2213   */\n    tag_32:\n        /* \"#utility.yul\":1943:1949   */\n      0x00\n        /* \"#utility.yul\":1992:1994   */\n      0x20\n        /* \"#utility.yul\":1980:1989   */\n      dup3\n        /* \"#utility.yul\":1971:1978   */\n      dup5\n        /* \"#utility.yul\":1967:1990   */\n      sub\n        /* \"#utility.yul\":1963:1995   */\n      slt\n        /* \"#utility.yul\":1960:2079   */\n      iszero\n      tag_271\n      jumpi\n        /* \"#utility.yul\":1998:2077   */\n      tag_272\n      tag_191\n      jump\t// in\n    tag_272:\n        /* \"#utility.yul\":1960:2079   */\n    tag_271:\n        /* \"#utility.yul\":2118:2119   */\n      0x00\n        /* \"#utility.yul\":2143:2196   */\n      tag_273\n        /* \"#utility.yul\":2188:2195   */\n      dup5\n        /* \"#utility.yul\":2179:2185   */\n      dup3\n        /* \"#utility.yul\":2168:2177   */\n      dup6\n        /* \"#utility.yul\":2164:2186   */\n      add\n        /* \"#utility.yul\":2143:2196   */\n      tag_198\n      jump\t// in\n    tag_273:\n        /* \"#utility.yul\":2133:2196   */\n      swap2\n      pop\n        /* \"#utility.yul\":2089:2206   */\n      pop\n        /* \"#utility.yul\":1884:2213   */\n      swap3\n      swap2\n      pop\n      pop\n      jump\t// out\n        /* \"#utility.yul\":2219:2337   */\n    tag_199:\n        /* \"#utility.yul\":2306:2330   */\n      tag_275\n        /* \"#utility.yul\":2324:2329   */\n      dup2\n        /* \"#utility.yul\":2306:2330   */\n      tag_196\n      jump\t// in\n    tag_275:\n        /* \"#utility.yul\":2301:2304   */\n      dup3\n        /* \"#utility.yul\":2294:2331   */\n      mstore\n        /* \"#utility.yul\":2219:2337   */\n      pop\n      pop\n      jump\t// out\n        /* \"#utility.yul\":2343:2565   */\n    tag_43:\n        /* \"#utility.yul\":2436:2440   */\n      0x00\n        /* \"#utility.yul\":2474:2476   */\n      0x20\n        /* \"#utility.yul\":2463:2472   */\n      dup3\n        /* \"#utility.yul\":2459:2477   */\n      add\n        /* \"#utility.yul\":2451:2477   */\n      swap1\n      pop\n        /* \"#utility.yul\":2487:2558   */\n      tag_277\n        /* \"#utility.yul\":2555:2556   */\n      0x00\n        /* \"#utility.yul\":2544:2553   */\n      dup4\n        /* \"#utility.yul\":2540:2557   */\n      add\n        /* \"#utility.yul\":2531:2537   */\n      dup5\n        /* \"#utility.yul\":2487:2558   */\n      tag_199\n      jump\t// in\n    tag_277:\n        /* \"#utility.yul\":2343:2565   */\n      swap3\n      swap2\n      pop\n      pop\n      jump\t// out\n        /* \"#utility.yul\":2571:2648   */\n    tag_200:\n        /* \"#utility.yul\":2608:2615   */\n      0x00\n        /* \"#utility.yul\":2637:2642   */\n      dup2\n        /* \"#utility.yul\":2626:2642   */\n      swap1\n      pop\n        /* \"#utility.yul\":2571:2648   */\n      swap2\n      swap1\n      pop\n      jump\t// out\n        /* \"#utility.yul\":2654:2776   */\n    tag_201:\n        /* \"#utility.yul\":2727:2751   */\n      tag_280\n        /* \"#utility.yul\":2745:2750   */\n      dup2\n        /* \"#utility.yul\":2727:2751   */\n      tag_200\n      jump\t// in\n    tag_280:\n        /* \"#utility.yul\":2720:2725   */\n      dup2\n        /* \"#utility.yul\":2717:2752   */\n      eq\n        /* \"#utility.yul\":2707:2770   */\n      tag_281\n      jumpi\n        /* \"#utility.yul\":2766:2767   */\n      0x00\n        /* \"#utility.yul\":2763:2764   */\n      dup1\n        /* \"#utility.yul\":2756:2768   */\n      revert\n        /* \"#utility.yul\":2707:2770   */\n    tag_281:\n        /* \"#utility.yul\":2654:2776   */\n      pop\n      jump\t// out\n        /* \"#utility.yul\":2782:2921   */\n    tag_202:\n        /* \"#utility.yul\":2828:2833   */\n      0x00\n        /* \"#utility.yul\":2866:2872   */\n      dup2\n        /* \"#utility.yul\":2853:2873   */\n      calldataload\n        /* \"#utility.yul\":2844:2873   */\n      swap1\n      pop\n        /* \"#utility.yul\":2882:2915   */\n      tag_283\n        /* \"#utility.yul\":2909:2914   */\n      dup2\n        /* \"#utility.yul\":2882:2915   */\n      tag_201\n      jump\t// in\n    tag_283:\n        /* \"#utility.yul\":2782:2921   */\n      swap3\n      swap2\n      pop\n      pop\n      jump\t// out\n        /* \"#utility.yul\":2927:3401   */\n    tag_54:\n        /* \"#utility.yul\":2995:3001   */\n      0x00\n        /* \"#utility.yul\":3003:3009   */\n      dup1\n        /* \"#utility.yul\":3052:3054   */\n      0x40\n        /* \"#utility.yul\":3040:3049   */\n      dup4\n        /* \"#utility.yul\":3031:3038   */\n      dup6\n        /* \"#utility.yul\":3027:3050   */\n      sub\n        /* \"#utility.yul\":3023:3055   */\n      slt\n        /* \"#utility.yul\":3020:3139   */\n      iszero\n      tag_285\n      jumpi\n        /* \"#utility.yul\":3058:3137   */\n      tag_286\n      tag_191\n      jump\t// in\n    tag_286:\n        /* \"#utility.yul\":3020:3139   */\n    tag_285:\n        /* \"#utility.yul\":3178:3179   */\n      0x00\n        /* \"#utility.yul\":3203:3256   */\n      tag_287\n        /* \"#utility.yul\":3248:3255   */\n      dup6\n        /* \"#utility.yul\":3239:3245   */\n      dup3\n        /* \"#utility.yul\":3228:3237   */\n      dup7\n        /* \"#utility.yul\":3224:3246   */\n      add\n        /* \"#utility.yul\":3203:3256   */\n      tag_202\n      jump\t// in\n    tag_287:\n        /* \"#utility.yul\":3193:3256   */\n      swap3\n      pop\n        /* \"#utility.yul\":3149:3266   */\n      pop\n        /* \"#utility.yul\":3305:3307   */\n      0x20\n        /* \"#utility.yul\":3331:3384   */\n      tag_288\n        /* \"#utility.yul\":3376:3383   */\n      dup6\n        /* \"#utility.yul\":3367:3373   */\n      dup3\n        /* \"#utility.yul\":3356:3365   */\n      dup7\n        /* \"#utility.yul\":3352:3374   */\n      add\n        /* \"#utility.yul\":3331:3384   */\n      tag_194\n      jump\t// in\n    tag_288:\n        /* \"#utility.yul\":3321:3384   */\n      swap2\n      pop\n        /* \"#utility.yul\":3276:3394   */\n      pop\n        /* \"#utility.yul\":2927:3401   */\n      swap3\n      pop\n      swap3\n      swap1\n      pop\n      jump\t// out\n        /* \"#utility.yul\":3407:3576   */\n    tag_203:\n        /* \"#utility.yul\":3491:3502   */\n      0x00\n        /* \"#utility.yul\":3525:3531   */\n      dup3\n        /* \"#utility.yul\":3520:3523   */\n      dup3\n        /* \"#utility.yul\":3513:3532   */\n      mstore\n        /* \"#utility.yul\":3565:3569   */\n      0x20\n        /* \"#utility.yul\":3560:3563   */\n      dup3\n        /* \"#utility.yul\":3556:3570   */\n      add\n        /* \"#utility.yul\":3541:3570   */\n      swap1\n      pop\n        /* \"#utility.yul\":3407:3576   */\n      swap3\n      swap2\n      pop\n      pop\n      jump\t// out\n        /* \"#utility.yul\":3582:3806   */\n    tag_204:\n        /* \"#utility.yul\":3722:3756   */\n      0x4f6e6c7920746865206f776e65722063616e2063616c6c20746869732066756e\n        /* \"#utility.yul\":3718:3719   */\n      0x00\n        /* \"#utility.yul\":3710:3716   */\n      dup3\n        /* \"#utility.yul\":3706:3720   */\n      add\n        /* \"#utility.yul\":3699:3757   */\n      mstore\n        /* \"#utility.yul\":3791:3798   */\n      0x6374696f6e000000000000000000000000000000000000000000000000000000\n        /* \"#utility.yul\":3786:3788   */\n      0x20\n        /* \"#utility.yul\":3778:3784   */\n      dup3\n        /* \"#utility.yul\":3774:3789   */\n      add\n        /* \"#utility.yul\":3767:3799   */\n      mstore\n        /* \"#utility.yul\":3582:3806   */\n      pop\n      jump\t// out\n        /* \"#utility.yul\":3812:4178   */\n    tag_205:\n        /* \"#utility.yul\":3954:3957   */\n      0x00\n        /* \"#utility.yul\":3975:4042   */\n      tag_292\n        /* \"#utility.yul\":4039:4041   */\n      0x25\n        /* \"#utility.yul\":4034:4037   */\n      dup4\n        /* \"#utility.yul\":3975:4042   */\n      tag_203\n      jump\t// in\n    tag_292:\n        /* \"#utility.yul\":3968:4042   */\n      swap2\n      pop\n        /* \"#utility.yul\":4051:4144   */\n      tag_293\n        /* \"#utility.yul\":4140:4143   */\n      dup3\n        /* \"#utility.yul\":4051:4144   */\n      tag_204\n      jump\t// in\n    tag_293:\n        /* \"#utility.yul\":4169:4171   */\n      0x40\n        /* \"#utility.yul\":4164:4167   */\n      dup3\n        /* \"#utility.yul\":4160:4172   */\n      add\n        /* \"#utility.yul\":4153:4172   */\n      swap1\n      pop\n        /* \"#utility.yul\":3812:4178   */\n      swap2\n      swap1\n      pop\n      jump\t// out\n        /* \"#utility.yul\":4184:4603   */\n    tag_75:\n        /* \"#utility.yul\":4350:4354   */\n      0x00\n        /* \"#utility.yul\":4388:4390   */\n      0x20\n        /* \"#utility.yul\":4377:4386   */\n      dup3\n        /* \"#utility.yul\":4373:4391   */\n      add\n        /* \"#utility.yul\":4365:4391   */\n      swap1\n      pop\n        /* \"#utility.yul\":4437:4446   */\n      dup2\n        /* \"#utility.yul\":4431:4435   */\n      dup2\n        /* \"#utility.yul\":4427:4447   */\n      sub\n        /* \"#utility.yul\":4423:4424   */\n      0x00\n        /* \"#utility.yul\":4412:4421   */\n      dup4\n        /* \"#utility.yul\":4408:4425   */\n      add\n        /* \"#utility.yul\":4401:4448   */\n      mstore\n        /* \"#utility.yul\":4465:4596   */\n      tag_295\n        /* \"#utility.yul\":4591:4595   */\n      dup2\n        /* \"#utility.yul\":4465:4596   */\n      tag_205\n      jump\t// in\n    tag_295:\n        /* \"#utility.yul\":4457:4596   */\n      swap1\n      pop\n        /* \"#utility.yul\":4184:4603   */\n      swap2\n      swap1\n      pop\n      jump\t// out\n        /* \"#utility.yul\":4609:4788   */\n    tag_206:\n        /* \"#utility.yul\":4749:4780   */\n      0x57696e6e657220686173206e6f74206265656e20647261776e20796574000000\n        /* \"#utility.yul\":4745:4746   */\n      0x00\n        /* \"#utility.yul\":4737:4743   */\n      dup3\n        /* \"#utility.yul\":4733:4747   */\n      add\n        /* \"#utility.yul\":4726:4781   */\n      mstore\n        /* \"#utility.yul\":4609:4788   */\n      pop\n      jump\t// out\n        /* \"#utility.yul\":4794:5160   */\n    tag_207:\n        /* \"#utility.yul\":4936:4939   */\n      0x00\n        /* \"#utility.yul\":4957:5024   */\n      tag_298\n        /* \"#utility.yul\":5021:5023   */\n      0x1d\n        /* \"#utility.yul\":5016:5019   */\n      dup4\n        /* \"#utility.yul\":4957:5024   */\n      tag_203\n      jump\t// in\n    tag_298:\n        /* \"#utility.yul\":4950:5024   */\n      swap2\n      pop\n        /* \"#utility.yul\":5033:5126   */\n      tag_299\n        /* \"#utility.yul\":5122:5125   */\n      dup3\n        /* \"#utility.yul\":5033:5126   */\n      tag_206\n      jump\t// in\n    tag_299:\n        /* \"#utility.yul\":5151:5153   */\n      0x20\n        /* \"#utility.yul\":5146:5149   */\n      dup3\n        /* \"#utility.yul\":5142:5154   */\n      add\n        /* \"#utility.yul\":5135:5154   */\n      swap1\n      pop\n        /* \"#utility.yul\":4794:5160   */\n      swap2\n      swap1\n      pop\n      jump\t// out\n        /* \"#utility.yul\":5166:5585   */\n    tag_79:\n        /* \"#utility.yul\":5332:5336   */\n      0x00\n        /* \"#utility.yul\":5370:5372   */\n      0x20\n        /* \"#utility.yul\":5359:5368   */\n      dup3\n        /* \"#utility.yul\":5355:5373   */\n      add\n        /* \"#utility.yul\":5347:5373   */\n      swap1\n      pop\n        /* \"#utility.yul\":5419:5428   */\n      dup2\n        /* \"#utility.yul\":5413:5417   */\n      dup2\n        /* \"#utility.yul\":5409:5429   */\n      sub\n        /* \"#utility.yul\":5405:5406   */\n      0x00\n        /* \"#utility.yul\":5394:5403   */\n      dup4\n        /* \"#utility.yul\":5390:5407   */\n      add\n        /* \"#utility.yul\":5383:5430   */\n      mstore\n        /* \"#utility.yul\":5447:5578   */\n      tag_301\n        /* \"#utility.yul\":5573:5577   */\n      dup2\n        /* \"#utility.yul\":5447:5578   */\n      tag_207\n      jump\t// in\n    tag_301:\n        /* \"#utility.yul\":5439:5578   */\n      swap1\n      pop\n        /* \"#utility.yul\":5166:5585   */\n      swap2\n      swap1\n      pop\n      jump\t// out\n        /* \"#utility.yul\":5591:5771   */\n    tag_208:\n        /* \"#utility.yul\":5639:5716   */\n      0x4e487b7100000000000000000000000000000000000000000000000000000000\n        /* \"#utility.yul\":5636:5637   */\n      0x00\n        /* \"#utility.yul\":5629:5717   */\n      mstore\n        /* \"#utility.yul\":5736:5740   */\n      0x11\n        /* \"#utility.yul\":5733:5734   */\n      0x04\n        /* \"#utility.yul\":5726:5741   */\n      mstore\n        /* \"#utility.yul\":5760:5764   */\n      0x24\n        /* \"#utility.yul\":5757:5758   */\n      0x00\n        /* \"#utility.yul\":5750:5765   */\n      revert\n        /* \"#utility.yul\":5777:6187   */\n    tag_81:\n        /* \"#utility.yul\":5817:5824   */\n      0x00\n        /* \"#utility.yul\":5840:5860   */\n      tag_304\n        /* \"#utility.yul\":5858:5859   */\n      dup3\n        /* \"#utility.yul\":5840:5860   */\n      tag_188\n      jump\t// in\n    tag_304:\n        /* \"#utility.yul\":5835:5860   */\n      swap2\n      pop\n        /* \"#utility.yul\":5874:5894   */\n      tag_305\n        /* \"#utility.yul\":5892:5893   */\n      dup4\n        /* \"#utility.yul\":5874:5894   */\n      tag_188\n      jump\t// in\n    tag_305:\n        /* \"#utility.yul\":5869:5894   */\n      swap3\n      pop\n        /* \"#utility.yul\":5929:5930   */\n      dup3\n        /* \"#utility.yul\":5926:5927   */\n      dup3\n        /* \"#utility.yul\":5922:5931   */\n      mul\n        /* \"#utility.yul\":5951:5981   */\n      tag_306\n        /* \"#utility.yul\":5969:5980   */\n      dup2\n        /* \"#utility.yul\":5951:5981   */\n      tag_188\n      jump\t// in\n    tag_306:\n        /* \"#utility.yul\":5940:5981   */\n      swap2\n      pop\n        /* \"#utility.yul\":6130:6131   */\n      dup3\n        /* \"#utility.yul\":6121:6128   */\n      dup3\n        /* \"#utility.yul\":6117:6132   */\n      div\n        /* \"#utility.yul\":6114:6115   */\n      dup5\n        /* \"#utility.yul\":6111:6133   */\n      eq\n        /* \"#utility.yul\":6091:6092   */\n      dup4\n        /* \"#utility.yul\":6084:6093   */\n      iszero\n        /* \"#utility.yul\":6064:6147   */\n      or\n        /* \"#utility.yul\":6041:6180   */\n      tag_307\n      jumpi\n        /* \"#utility.yul\":6160:6178   */\n      tag_308\n      tag_208\n      jump\t// in\n    tag_308:\n        /* \"#utility.yul\":6041:6180   */\n    tag_307:\n        /* \"#utility.yul\":5825:6187   */\n      pop\n        /* \"#utility.yul\":5777:6187   */\n      swap3\n      swap2\n      pop\n      pop\n      jump\t// out\n        /* \"#utility.yul\":6193:6413   */\n    tag_209:\n        /* \"#utility.yul\":6333:6367   */\n      0x4e6f7420656e6f75676820457468657220746f2070617920746865207072697a\n        /* \"#utility.yul\":6329:6330   */\n      0x00\n        /* \"#utility.yul\":6321:6327   */\n      dup3\n        /* \"#utility.yul\":6317:6331   */\n      add\n        /* \"#utility.yul\":6310:6368   */\n      mstore\n        /* \"#utility.yul\":6402:6405   */\n      0x6500000000000000000000000000000000000000000000000000000000000000\n        /* \"#utility.yul\":6397:6399   */\n      0x20\n        /* \"#utility.yul\":6389:6395   */\n      dup3\n        /* \"#utility.yul\":6385:6400   */\n      add\n        /* \"#utility.yul\":6378:6406   */\n      mstore\n        /* \"#utility.yul\":6193:6413   */\n      pop\n      jump\t// out\n        /* \"#utility.yul\":6419:6785   */\n    tag_210:\n        /* \"#utility.yul\":6561:6564   */\n      0x00\n        /* \"#utility.yul\":6582:6649   */\n      tag_311\n        /* \"#utility.yul\":6646:6648   */\n      0x21\n        /* \"#utility.yul\":6641:6644   */\n      dup4\n        /* \"#utility.yul\":6582:6649   */\n      tag_203\n      jump\t// in\n    tag_311:\n        /* \"#utility.yul\":6575:6649   */\n      swap2\n      pop\n        /* \"#utility.yul\":6658:6751   */\n      tag_312\n        /* \"#utility.yul\":6747:6750   */\n      dup3\n        /* \"#utility.yul\":6658:6751   */\n      tag_209\n      jump\t// in\n    tag_312:\n        /* \"#utility.yul\":6776:6778   */\n      0x40\n        /* \"#utility.yul\":6771:6774   */\n      dup3\n        /* \"#utility.yul\":6767:6779   */\n      add\n        /* \"#utility.yul\":6760:6779   */\n      swap1\n      pop\n        /* \"#utility.yul\":6419:6785   */\n      swap2\n      swap1\n      pop\n      jump\t// out\n        /* \"#utility.yul\":6791:7210   */\n    tag_84:\n        /* \"#utility.yul\":6957:6961   */\n      0x00\n        /* \"#utility.yul\":6995:6997   */\n      0x20\n        /* \"#utility.yul\":6984:6993   */\n      dup3\n        /* \"#utility.yul\":6980:6998   */\n      add\n        /* \"#utility.yul\":6972:6998   */\n      swap1\n      pop\n        /* \"#utility.yul\":7044:7053   */\n      dup2\n        /* \"#utility.yul\":7038:7042   */\n      dup2\n        /* \"#utility.yul\":7034:7054   */\n      sub\n        /* \"#utility.yul\":7030:7031   */\n      0x00\n        /* \"#utility.yul\":7019:7028   */\n      dup4\n        /* \"#utility.yul\":7015:7032   */\n      add\n        /* \"#utility.yul\":7008:7055   */\n      mstore\n        /* \"#utility.yul\":7072:7203   */\n      tag_314\n        /* \"#utility.yul\":7198:7202   */\n      dup2\n        /* \"#utility.yul\":7072:7203   */\n      tag_210\n      jump\t// in\n    tag_314:\n        /* \"#utility.yul\":7064:7203   */\n      swap1\n      pop\n        /* \"#utility.yul\":6791:7210   */\n      swap2\n      swap1\n      pop\n      jump\t// out\n        /* \"#utility.yul\":7216:7445   */\n    tag_211:\n        /* \"#utility.yul\":7356:7390   */\n      0x4e756d626572206f66207469636b6574732073686f756c642062652067726561\n        /* \"#utility.yul\":7352:7353   */\n      0x00\n        /* \"#utility.yul\":7344:7350   */\n      dup3\n        /* \"#utility.yul\":7340:7354   */\n      add\n        /* \"#utility.yul\":7333:7391   */\n      mstore\n        /* \"#utility.yul\":7425:7437   */\n      0x746572207468616e203000000000000000000000000000000000000000000000\n        /* \"#utility.yul\":7420:7422   */\n      0x20\n        /* \"#utility.yul\":7412:7418   */\n      dup3\n        /* \"#utility.yul\":7408:7423   */\n      add\n        /* \"#utility.yul\":7401:7438   */\n      mstore\n        /* \"#utility.yul\":7216:7445   */\n      pop\n      jump\t// out\n        /* \"#utility.yul\":7451:7817   */\n    tag_212:\n        /* \"#utility.yul\":7593:7596   */\n      0x00\n        /* \"#utility.yul\":7614:7681   */\n      tag_317\n        /* \"#utility.yul\":7678:7680   */\n      0x2a\n        /* \"#utility.yul\":7673:7676   */\n      dup4\n        /* \"#utility.yul\":7614:7681   */\n      tag_203\n      jump\t// in\n    tag_317:\n        /* \"#utility.yul\":7607:7681   */\n      swap2\n      pop\n        /* \"#utility.yul\":7690:7783   */\n      tag_318\n        /* \"#utility.yul\":7779:7782   */\n      dup3\n        /* \"#utility.yul\":7690:7783   */\n      tag_211\n      jump\t// in\n    tag_318:\n        /* \"#utility.yul\":7808:7810   */\n      0x40\n        /* \"#utility.yul\":7803:7806   */\n      dup3\n        /* \"#utility.yul\":7799:7811   */\n      add\n        /* \"#utility.yul\":7792:7811   */\n      swap1\n      pop\n        /* \"#utility.yul\":7451:7817   */\n      swap2\n      swap1\n      pop\n      jump\t// out\n        /* \"#utility.yul\":7823:8242   */\n    tag_90:\n        /* \"#utility.yul\":7989:7993   */\n      0x00\n        /* \"#utility.yul\":8027:8029   */\n      0x20\n        /* \"#utility.yul\":8016:8025   */\n      dup3\n        /* \"#utility.yul\":8012:8030   */\n      add\n        /* \"#utility.yul\":8004:8030   */\n      swap1\n      pop\n        /* \"#utility.yul\":8076:8085   */\n      dup2\n        /* \"#utility.yul\":8070:8074   */\n      dup2\n        /* \"#utility.yul\":8066:8086   */\n      sub\n        /* \"#utility.yul\":8062:8063   */\n      0x00\n        /* \"#utility.yul\":8051:8060   */\n      dup4\n        /* \"#utility.yul\":8047:8064   */\n      add\n        /* \"#utility.yul\":8040:8087   */\n      mstore\n        /* \"#utility.yul\":8104:8235   */\n      tag_320\n        /* \"#utility.yul\":8230:8234   */\n      dup2\n        /* \"#utility.yul\":8104:8235   */\n      tag_212\n      jump\t// in\n    tag_320:\n        /* \"#utility.yul\":8096:8235   */\n      swap1\n      pop\n        /* \"#utility.yul\":7823:8242   */\n      swap2\n      swap1\n      pop\n      jump\t// out\n        /* \"#utility.yul\":8248:8419   */\n    tag_213:\n        /* \"#utility.yul\":8388:8411   */\n      0x4e6f7420656e6f7567682065746865722073656e740000000000000000000000\n        /* \"#utility.yul\":8384:8385   */\n      0x00\n        /* \"#utility.yul\":8376:8382   */\n      dup3\n        /* \"#utility.yul\":8372:8386   */\n      add\n        /* \"#utility.yul\":8365:8412   */\n      mstore\n        /* \"#utility.yul\":8248:8419   */\n      pop\n      jump\t// out\n        /* \"#utility.yul\":8425:8791   */\n    tag_214:\n        /* \"#utility.yul\":8567:8570   */\n      0x00\n        /* \"#utility.yul\":8588:8655   */\n      tag_323\n        /* \"#utility.yul\":8652:8654   */\n      0x15\n        /* \"#utility.yul\":8647:8650   */\n      dup4\n        /* \"#utility.yul\":8588:8655   */\n      tag_203\n      jump\t// in\n    tag_323:\n        /* \"#utility.yul\":8581:8655   */\n      swap2\n      pop\n        /* \"#utility.yul\":8664:8757   */\n      tag_324\n        /* \"#utility.yul\":8753:8756   */\n      dup3\n        /* \"#utility.yul\":8664:8757   */\n      tag_213\n      jump\t// in\n    tag_324:\n        /* \"#utility.yul\":8782:8784   */\n      0x20\n        /* \"#utility.yul\":8777:8780   */\n      dup3\n        /* \"#utility.yul\":8773:8785   */\n      add\n        /* \"#utility.yul\":8766:8785   */\n      swap1\n      pop\n        /* \"#utility.yul\":8425:8791   */\n      swap2\n      swap1\n      pop\n      jump\t// out\n        /* \"#utility.yul\":8797:9216   */\n    tag_94:\n        /* \"#utility.yul\":8963:8967   */\n      0x00\n        /* \"#utility.yul\":9001:9003   */\n      0x20\n        /* \"#utility.yul\":8990:8999   */\n      dup3\n        /* \"#utility.yul\":8986:9004   */\n      add\n        /* \"#utility.yul\":8978:9004   */\n      swap1\n      pop\n        /* \"#utility.yul\":9050:9059   */\n      dup2\n        /* \"#utility.yul\":9044:9048   */\n      dup2\n        /* \"#utility.yul\":9040:9060   */\n      sub\n        /* \"#utility.yul\":9036:9037   */\n      0x00\n        /* \"#utility.yul\":9025:9034   */\n      dup4\n        /* \"#utility.yul\":9021:9038   */\n      add\n        /* \"#utility.yul\":9014:9061   */\n      mstore\n        /* \"#utility.yul\":9078:9209   */\n      tag_326\n        /* \"#utility.yul\":9204:9208   */\n      dup2\n        /* \"#utility.yul\":9078:9209   */\n      tag_214\n      jump\t// in\n    tag_326:\n        /* \"#utility.yul\":9070:9209   */\n      swap1\n      pop\n        /* \"#utility.yul\":8797:9216   */\n      swap2\n      swap1\n      pop\n      jump\t// out\n        /* \"#utility.yul\":9222:9413   */\n    tag_96:\n        /* \"#utility.yul\":9262:9265   */\n      0x00\n        /* \"#utility.yul\":9281:9301   */\n      tag_328\n        /* \"#utility.yul\":9299:9300   */\n      dup3\n        /* \"#utility.yul\":9281:9301   */\n      tag_188\n      jump\t// in\n    tag_328:\n        /* \"#utility.yul\":9276:9301   */\n      swap2\n      pop\n        /* \"#utility.yul\":9315:9335   */\n      tag_329\n        /* \"#utility.yul\":9333:9334   */\n      dup4\n        /* \"#utility.yul\":9315:9335   */\n      tag_188\n      jump\t// in\n    tag_329:\n        /* \"#utility.yul\":9310:9335   */\n      swap3\n      pop\n        /* \"#utility.yul\":9358:9359   */\n      dup3\n        /* \"#utility.yul\":9355:9356   */\n      dup3\n        /* \"#utility.yul\":9351:9360   */\n      add\n        /* \"#utility.yul\":9344:9360   */\n      swap1\n      pop\n        /* \"#utility.yul\":9379:9382   */\n      dup1\n        /* \"#utility.yul\":9376:9377   */\n      dup3\n        /* \"#utility.yul\":9373:9383   */\n      gt\n        /* \"#utility.yul\":9370:9406   */\n      iszero\n      tag_330\n      jumpi\n        /* \"#utility.yul\":9386:9404   */\n      tag_331\n      tag_208\n      jump\t// in\n    tag_331:\n        /* \"#utility.yul\":9370:9406   */\n    tag_330:\n        /* \"#utility.yul\":9222:9413   */\n      swap3\n      swap2\n      pop\n      pop\n      jump\t// out\n        /* \"#utility.yul\":9419:9562   */\n    tag_215:\n        /* \"#utility.yul\":9476:9481   */\n      0x00\n        /* \"#utility.yul\":9507:9513   */\n      dup2\n        /* \"#utility.yul\":9501:9514   */\n      mload\n        /* \"#utility.yul\":9492:9514   */\n      swap1\n      pop\n        /* \"#utility.yul\":9523:9556   */\n      tag_333\n        /* \"#utility.yul\":9550:9555   */\n      dup2\n        /* \"#utility.yul\":9523:9556   */\n      tag_193\n      jump\t// in\n    tag_333:\n        /* \"#utility.yul\":9419:9562   */\n      swap3\n      swap2\n      pop\n      pop\n      jump\t// out\n        /* \"#utility.yul\":9568:9919   */\n    tag_110:\n        /* \"#utility.yul\":9638:9644   */\n      0x00\n        /* \"#utility.yul\":9687:9689   */\n      0x20\n        /* \"#utility.yul\":9675:9684   */\n      dup3\n        /* \"#utility.yul\":9666:9673   */\n      dup5\n        /* \"#utility.yul\":9662:9685   */\n      sub\n        /* \"#utility.yul\":9658:9690   */\n      slt\n        /* \"#utility.yul\":9655:9774   */\n      iszero\n      tag_335\n      jumpi\n        /* \"#utility.yul\":9693:9772   */\n      tag_336\n      tag_191\n      jump\t// in\n    tag_336:\n        /* \"#utility.yul\":9655:9774   */\n    tag_335:\n        /* \"#utility.yul\":9813:9814   */\n      0x00\n        /* \"#utility.yul\":9838:9902   */\n      tag_337\n        /* \"#utility.yul\":9894:9901   */\n      dup5\n        /* \"#utility.yul\":9885:9891   */\n      dup3\n        /* \"#utility.yul\":9874:9883   */\n      dup6\n        /* \"#utility.yul\":9870:9892   */\n      add\n        /* \"#utility.yul\":9838:9902   */\n      tag_215\n      jump\t// in\n    tag_337:\n        /* \"#utility.yul\":9828:9902   */\n      swap2\n      pop\n        /* \"#utility.yul\":9784:9912   */\n      pop\n        /* \"#utility.yul\":9568:9919   */\n      swap3\n      swap2\n      pop\n      pop\n      jump\t// out\n        /* \"#utility.yul\":9925:10257   */\n    tag_112:\n        /* \"#utility.yul\":10046:10050   */\n      0x00\n        /* \"#utility.yul\":10084:10086   */\n      0x40\n        /* \"#utility.yul\":10073:10082   */\n      dup3\n        /* \"#utility.yul\":10069:10087   */\n      add\n        /* \"#utility.yul\":10061:10087   */\n      swap1\n      pop\n        /* \"#utility.yul\":10097:10168   */\n      tag_339\n        /* \"#utility.yul\":10165:10166   */\n      0x00\n        /* \"#utility.yul\":10154:10163   */\n      dup4\n        /* \"#utility.yul\":10150:10167   */\n      add\n        /* \"#utility.yul\":10141:10147   */\n      dup6\n        /* \"#utility.yul\":10097:10168   */\n      tag_199\n      jump\t// in\n    tag_339:\n        /* \"#utility.yul\":10178:10250   */\n      tag_340\n        /* \"#utility.yul\":10246:10248   */\n      0x20\n        /* \"#utility.yul\":10235:10244   */\n      dup4\n        /* \"#utility.yul\":10231:10249   */\n      add\n        /* \"#utility.yul\":10222:10228   */\n      dup5\n        /* \"#utility.yul\":10178:10250   */\n      tag_189\n      jump\t// in\n    tag_340:\n        /* \"#utility.yul\":9925:10257   */\n      swap4\n      swap3\n      pop\n      pop\n      pop\n      jump\t// out\n        /* \"#utility.yul\":10263:10353   */\n    tag_216:\n        /* \"#utility.yul\":10297:10304   */\n      0x00\n        /* \"#utility.yul\":10340:10345   */\n      dup2\n        /* \"#utility.yul\":10333:10346   */\n      iszero\n        /* \"#utility.yul\":10326:10347   */\n      iszero\n        /* \"#utility.yul\":10315:10347   */\n      swap1\n      pop\n        /* \"#utility.yul\":10263:10353   */\n      swap2\n      swap1\n      pop\n      jump\t// out\n        /* \"#utility.yul\":10359:10475   */\n    tag_217:\n        /* \"#utility.yul\":10429:10450   */\n      tag_343\n        /* \"#utility.yul\":10444:10449   */\n      dup2\n        /* \"#utility.yul\":10429:10450   */\n      tag_216\n      jump\t// in\n    tag_343:\n        /* \"#utility.yul\":10422:10427   */\n      dup2\n        /* \"#utility.yul\":10419:10451   */\n      eq\n        /* \"#utility.yul\":10409:10469   */\n      tag_344\n      jumpi\n        /* \"#utility.yul\":10465:10466   */\n      0x00\n        /* \"#utility.yul\":10462:10463   */\n      dup1\n        /* \"#utility.yul\":10455:10467   */\n      revert\n        /* \"#utility.yul\":10409:10469   */\n    tag_344:\n        /* \"#utility.yul\":10359:10475   */\n      pop\n      jump\t// out\n        /* \"#utility.yul\":10481:10618   */\n    tag_218:\n        /* \"#utility.yul\":10535:10540   */\n      0x00\n        /* \"#utility.yul\":10566:10572   */\n      dup2\n        /* \"#utility.yul\":10560:10573   */\n      mload\n        /* \"#utility.yul\":10551:10573   */\n      swap1\n      pop\n        /* \"#utility.yul\":10582:10612   */\n      tag_346\n        /* \"#utility.yul\":10606:10611   */\n      dup2\n        /* \"#utility.yul\":10582:10612   */\n      tag_217\n      jump\t// in\n    tag_346:\n        /* \"#utility.yul\":10481:10618   */\n      swap3\n      swap2\n      pop\n      pop\n      jump\t// out\n        /* \"#utility.yul\":10624:10969   */\n    tag_116:\n        /* \"#utility.yul\":10691:10697   */\n      0x00\n        /* \"#utility.yul\":10740:10742   */\n      0x20\n        /* \"#utility.yul\":10728:10737   */\n      dup3\n        /* \"#utility.yul\":10719:10726   */\n      dup5\n        /* \"#utility.yul\":10715:10738   */\n      sub\n        /* \"#utility.yul\":10711:10743   */\n      slt\n        /* \"#utility.yul\":10708:10827   */\n      iszero\n      tag_348\n      jumpi\n        /* \"#utility.yul\":10746:10825   */\n      tag_349\n      tag_191\n      jump\t// in\n    tag_349:\n        /* \"#utility.yul\":10708:10827   */\n    tag_348:\n        /* \"#utility.yul\":10866:10867   */\n      0x00\n        /* \"#utility.yul\":10891:10952   */\n      tag_350\n        /* \"#utility.yul\":10944:10951   */\n      dup5\n        /* \"#utility.yul\":10935:10941   */\n      dup3\n        /* \"#utility.yul\":10924:10933   */\n      dup6\n        /* \"#utility.yul\":10920:10942   */\n      add\n        /* \"#utility.yul\":10891:10952   */\n      tag_218\n      jump\t// in\n    tag_350:\n        /* \"#utility.yul\":10881:10952   */\n      swap2\n      pop\n        /* \"#utility.yul\":10837:10962   */\n      pop\n        /* \"#utility.yul\":10624:10969   */\n      swap3\n      swap2\n      pop\n      pop\n      jump\t// out\n        /* \"#utility.yul\":10975:11156   */\n    tag_219:\n        /* \"#utility.yul\":11115:11148   */\n      0x4f6e6c7920565246436f6f7264696e61746f722063616e2066756c66696c6c00\n        /* \"#utility.yul\":11111:11112   */\n      0x00\n        /* \"#utility.yul\":11103:11109   */\n      dup3\n        /* \"#utility.yul\":11099:11113   */\n      add\n        /* \"#utility.yul\":11092:11149   */\n      mstore\n        /* \"#utility.yul\":10975:11156   */\n      pop\n      jump\t// out\n        /* \"#utility.yul\":11162:11528   */\n    tag_220:\n        /* \"#utility.yul\":11304:11307   */\n      0x00\n        /* \"#utility.yul\":11325:11392   */\n      tag_353\n        /* \"#utility.yul\":11389:11391   */\n      0x1f\n        /* \"#utility.yul\":11384:11387   */\n      dup4\n        /* \"#utility.yul\":11325:11392   */\n      tag_203\n      jump\t// in\n    tag_353:\n        /* \"#utility.yul\":11318:11392   */\n      swap2\n      pop\n        /* \"#utility.yul\":11401:11494   */\n      tag_354\n        /* \"#utility.yul\":11490:11493   */\n      dup3\n        /* \"#utility.yul\":11401:11494   */\n      tag_219\n      jump\t// in\n    tag_354:\n        /* \"#utility.yul\":11519:11521   */\n      0x20\n        /* \"#utility.yul\":11514:11517   */\n      dup3\n        /* \"#utility.yul\":11510:11522   */\n      add\n        /* \"#utility.yul\":11503:11522   */\n      swap1\n      pop\n        /* \"#utility.yul\":11162:11528   */\n      swap2\n      swap1\n      pop\n      jump\t// out\n        /* \"#utility.yul\":11534:11953   */\n    tag_123:\n        /* \"#utility.yul\":11700:11704   */\n      0x00\n        /* \"#utility.yul\":11738:11740   */\n      0x20\n        /* \"#utility.yul\":11727:11736   */\n      dup3\n        /* \"#utility.yul\":11723:11741   */\n      add\n        /* \"#utility.yul\":11715:11741   */\n      swap1\n      pop\n        /* \"#utility.yul\":11787:11796   */\n      dup2\n        /* \"#utility.yul\":11781:11785   */\n      dup2\n        /* \"#utility.yul\":11777:11797   */\n      sub\n        /* \"#utility.yul\":11773:11774   */\n      0x00\n        /* \"#utility.yul\":11762:11771   */\n      dup4\n        /* \"#utility.yul\":11758:11775   */\n      add\n        /* \"#utility.yul\":11751:11798   */\n      mstore\n        /* \"#utility.yul\":11815:11946   */\n      tag_356\n        /* \"#utility.yul\":11941:11945   */\n      dup2\n        /* \"#utility.yul\":11815:11946   */\n      tag_220\n      jump\t// in\n    tag_356:\n        /* \"#utility.yul\":11807:11946   */\n      swap1\n      pop\n        /* \"#utility.yul\":11534:11953   */\n      swap2\n      swap1\n      pop\n      jump\t// out\n        /* \"#utility.yul\":11959:12132   */\n    tag_221:\n        /* \"#utility.yul\":12099:12124   */\n      0x57696e6e657220616c72656164792073656c6563746564000000000000000000\n        /* \"#utility.yul\":12095:12096   */\n      0x00\n        /* \"#utility.yul\":12087:12093   */\n      dup3\n        /* \"#utility.yul\":12083:12097   */\n      add\n        /* \"#utility.yul\":12076:12125   */\n      mstore\n        /* \"#utility.yul\":11959:12132   */\n      pop\n      jump\t// out\n        /* \"#utility.yul\":12138:12504   */\n    tag_222:\n        /* \"#utility.yul\":12280:12283   */\n      0x00\n        /* \"#utility.yul\":12301:12368   */\n      tag_359\n        /* \"#utility.yul\":12365:12367   */\n      0x17\n        /* \"#utility.yul\":12360:12363   */\n      dup4\n        /* \"#utility.yul\":12301:12368   */\n      tag_203\n      jump\t// in\n    tag_359:\n        /* \"#utility.yul\":12294:12368   */\n      swap2\n      pop\n        /* \"#utility.yul\":12377:12470   */\n      tag_360\n        /* \"#utility.yul\":12466:12469   */\n      dup3\n        /* \"#utility.yul\":12377:12470   */\n      tag_221\n      jump\t// in\n    tag_360:\n        /* \"#utility.yul\":12495:12497   */\n      0x20\n        /* \"#utility.yul\":12490:12493   */\n      dup3\n        /* \"#utility.yul\":12486:12498   */\n      add\n        /* \"#utility.yul\":12479:12498   */\n      swap1\n      pop\n        /* \"#utility.yul\":12138:12504   */\n      swap2\n      swap1\n      pop\n      jump\t// out\n        /* \"#utility.yul\":12510:12929   */\n    tag_132:\n        /* \"#utility.yul\":12676:12680   */\n      0x00\n        /* \"#utility.yul\":12714:12716   */\n      0x20\n        /* \"#utility.yul\":12703:12712   */\n      dup3\n        /* \"#utility.yul\":12699:12717   */\n      add\n        /* \"#utility.yul\":12691:12717   */\n      swap1\n      pop\n        /* \"#utility.yul\":12763:12772   */\n      dup2\n        /* \"#utility.yul\":12757:12761   */\n      dup2\n        /* \"#utility.yul\":12753:12773   */\n      sub\n        /* \"#utility.yul\":12749:12750   */\n      0x00\n        /* \"#utility.yul\":12738:12747   */\n      dup4\n        /* \"#utility.yul\":12734:12751   */\n      add\n        /* \"#utility.yul\":12727:12774   */\n      mstore\n        /* \"#utility.yul\":12791:12922   */\n      tag_362\n        /* \"#utility.yul\":12917:12921   */\n      dup2\n        /* \"#utility.yul\":12791:12922   */\n      tag_222\n      jump\t// in\n    tag_362:\n        /* \"#utility.yul\":12783:12922   */\n      swap1\n      pop\n        /* \"#utility.yul\":12510:12929   */\n      swap2\n      swap1\n      pop\n      jump\t// out\n        /* \"#utility.yul\":12935:13109   */\n    tag_223:\n        /* \"#utility.yul\":13075:13101   */\n      0x4e6f207469636b65747320707572636861736564207965740000000000000000\n        /* \"#utility.yul\":13071:13072   */\n      0x00\n        /* \"#utility.yul\":13063:13069   */\n      dup3\n        /* \"#utility.yul\":13059:13073   */\n      add\n        /* \"#utility.yul\":13052:13102   */\n      mstore\n        /* \"#utility.yul\":12935:13109   */\n      pop\n      jump\t// out\n        /* \"#utility.yul\":13115:13481   */\n    tag_224:\n        /* \"#utility.yul\":13257:13260   */\n      0x00\n        /* \"#utility.yul\":13278:13345   */\n      tag_365\n        /* \"#utility.yul\":13342:13344   */\n      0x18\n        /* \"#utility.yul\":13337:13340   */\n      dup4\n        /* \"#utility.yul\":13278:13345   */\n      tag_203\n      jump\t// in\n    tag_365:\n        /* \"#utility.yul\":13271:13345   */\n      swap2\n      pop\n        /* \"#utility.yul\":13354:13447   */\n      tag_366\n        /* \"#utility.yul\":13443:13446   */\n      dup3\n        /* \"#utility.yul\":13354:13447   */\n      tag_223\n      jump\t// in\n    tag_366:\n        /* \"#utility.yul\":13472:13474   */\n      0x20\n        /* \"#utility.yul\":13467:13470   */\n      dup3\n        /* \"#utility.yul\":13463:13475   */\n      add\n        /* \"#utility.yul\":13456:13475   */\n      swap1\n      pop\n        /* \"#utility.yul\":13115:13481   */\n      swap2\n      swap1\n      pop\n      jump\t// out\n        /* \"#utility.yul\":13487:13906   */\n    tag_136:\n        /* \"#utility.yul\":13653:13657   */\n      0x00\n        /* \"#utility.yul\":13691:13693   */\n      0x20\n        /* \"#utility.yul\":13680:13689   */\n      dup3\n        /* \"#utility.yul\":13676:13694   */\n      add\n        /* \"#utility.yul\":13668:13694   */\n      swap1\n      pop\n        /* \"#utility.yul\":13740:13749   */\n      dup2\n        /* \"#utility.yul\":13734:13738   */\n      dup2\n        /* \"#utility.yul\":13730:13750   */\n      sub\n        /* \"#utility.yul\":13726:13727   */\n      0x00\n        /* \"#utility.yul\":13715:13724   */\n      dup4\n        /* \"#utility.yul\":13711:13728   */\n      add\n        /* \"#utility.yul\":13704:13751   */\n      mstore\n        /* \"#utility.yul\":13768:13899   */\n      tag_368\n        /* \"#utility.yul\":13894:13898   */\n      dup2\n        /* \"#utility.yul\":13768:13899   */\n      tag_224\n      jump\t// in\n    tag_368:\n        /* \"#utility.yul\":13760:13899   */\n      swap1\n      pop\n        /* \"#utility.yul\":13487:13906   */\n      swap2\n      swap1\n      pop\n      jump\t// out\n        /* \"#utility.yul\":13912:14077   */\n    tag_225:\n        /* \"#utility.yul\":14052:14069   */\n      0x57726f6e67207265717565737449640000000000000000000000000000000000\n        /* \"#utility.yul\":14048:14049   */\n      0x00\n        /* \"#utility.yul\":14040:14046   */\n      dup3\n        /* \"#utility.yul\":14036:14050   */\n      add\n        /* \"#utility.yul\":14029:14070   */\n      mstore\n        /* \"#utility.yul\":13912:14077   */\n      pop\n      jump\t// out\n        /* \"#utility.yul\":14083:14449   */\n    tag_226:\n        /* \"#utility.yul\":14225:14228   */\n      0x00\n        /* \"#utility.yul\":14246:14313   */\n      tag_371\n        /* \"#utility.yul\":14310:14312   */\n      0x0f\n        /* \"#utility.yul\":14305:14308   */\n      dup4\n        /* \"#utility.yul\":14246:14313   */\n      tag_203\n      jump\t// in\n    tag_371:\n        /* \"#utility.yul\":14239:14313   */\n      swap2\n      pop\n        /* \"#utility.yul\":14322:14415   */\n      tag_372\n        /* \"#utility.yul\":14411:14414   */\n      dup3\n        /* \"#utility.yul\":14322:14415   */\n      tag_225\n      jump\t// in\n    tag_372:\n        /* \"#utility.yul\":14440:14442   */\n      0x20\n        /* \"#utility.yul\":14435:14438   */\n      dup3\n        /* \"#utility.yul\":14431:14443   */\n      add\n        /* \"#utility.yul\":14424:14443   */\n      swap1\n      pop\n        /* \"#utility.yul\":14083:14449   */\n      swap2\n      swap1\n      pop\n      jump\t// out\n        /* \"#utility.yul\":14455:14874   */\n    tag_144:\n        /* \"#utility.yul\":14621:14625   */\n      0x00\n        /* \"#utility.yul\":14659:14661   */\n      0x20\n        /* \"#utility.yul\":14648:14657   */\n      dup3\n        /* \"#utility.yul\":14644:14662   */\n      add\n        /* \"#utility.yul\":14636:14662   */\n      swap1\n      pop\n        /* \"#utility.yul\":14708:14717   */\n      dup2\n        /* \"#utility.yul\":14702:14706   */\n      dup2\n        /* \"#utility.yul\":14698:14718   */\n      sub\n        /* \"#utility.yul\":14694:14695   */\n      0x00\n        /* \"#utility.yul\":14683:14692   */\n      dup4\n        /* \"#utility.yul\":14679:14696   */\n      add\n        /* \"#utility.yul\":14672:14719   */\n      mstore\n        /* \"#utility.yul\":14736:14867   */\n      tag_374\n        /* \"#utility.yul\":14862:14866   */\n      dup2\n        /* \"#utility.yul\":14736:14867   */\n      tag_226\n      jump\t// in\n    tag_374:\n        /* \"#utility.yul\":14728:14867   */\n      swap1\n      pop\n        /* \"#utility.yul\":14455:14874   */\n      swap2\n      swap1\n      pop\n      jump\t// out\n        /* \"#utility.yul\":14880:15057   */\n    tag_227:\n        /* \"#utility.yul\":15020:15049   */\n      0x52616e646f6d206e756d626572206e6f742067656e6572617465640000000000\n        /* \"#utility.yul\":15016:15017   */\n      0x00\n        /* \"#utility.yul\":15008:15014   */\n      dup3\n        /* \"#utility.yul\":15004:15018   */\n      add\n        /* \"#utility.yul\":14997:15050   */\n      mstore\n        /* \"#utility.yul\":14880:15057   */\n      pop\n      jump\t// out\n        /* \"#utility.yul\":15063:15429   */\n    tag_228:\n        /* \"#utility.yul\":15205:15208   */\n      0x00\n        /* \"#utility.yul\":15226:15293   */\n      tag_377\n        /* \"#utility.yul\":15290:15292   */\n      0x1b\n        /* \"#utility.yul\":15285:15288   */\n      dup4\n        /* \"#utility.yul\":15226:15293   */\n      tag_203\n      jump\t// in\n    tag_377:\n        /* \"#utility.yul\":15219:15293   */\n      swap2\n      pop\n        /* \"#utility.yul\":15302:15395   */\n      tag_378\n        /* \"#utility.yul\":15391:15394   */\n      dup3\n        /* \"#utility.yul\":15302:15395   */\n      tag_227\n      jump\t// in\n    tag_378:\n        /* \"#utility.yul\":15420:15422   */\n      0x20\n        /* \"#utility.yul\":15415:15418   */\n      dup3\n        /* \"#utility.yul\":15411:15423   */\n      add\n        /* \"#utility.yul\":15404:15423   */\n      swap1\n      pop\n        /* \"#utility.yul\":15063:15429   */\n      swap2\n      swap1\n      pop\n      jump\t// out\n        /* \"#utility.yul\":15435:15854   */\n    tag_147:\n        /* \"#utility.yul\":15601:15605   */\n      0x00\n        /* \"#utility.yul\":15639:15641   */\n      0x20\n        /* \"#utility.yul\":15628:15637   */\n      dup3\n        /* \"#utility.yul\":15624:15642   */\n      add\n        /* \"#utility.yul\":15616:15642   */\n      swap1\n      pop\n        /* \"#utility.yul\":15688:15697   */\n      dup2\n        /* \"#utility.yul\":15682:15686   */\n      dup2\n        /* \"#utility.yul\":15678:15698   */\n      sub\n        /* \"#utility.yul\":15674:15675   */\n      0x00\n        /* \"#utility.yul\":15663:15672   */\n      dup4\n        /* \"#utility.yul\":15659:15676   */\n      add\n        /* \"#utility.yul\":15652:15699   */\n      mstore\n        /* \"#utility.yul\":15716:15847   */\n      tag_380\n        /* \"#utility.yul\":15842:15846   */\n      dup2\n        /* \"#utility.yul\":15716:15847   */\n      tag_228\n      jump\t// in\n    tag_380:\n        /* \"#utility.yul\":15708:15847   */\n      swap1\n      pop\n        /* \"#utility.yul\":15435:15854   */\n      swap2\n      swap1\n      pop\n      jump\t// out\n        /* \"#utility.yul\":15860:16040   */\n    tag_229:\n        /* \"#utility.yul\":15908:15985   */\n      0x4e487b7100000000000000000000000000000000000000000000000000000000\n        /* \"#utility.yul\":15905:15906   */\n      0x00\n        /* \"#utility.yul\":15898:15986   */\n      mstore\n        /* \"#utility.yul\":16005:16009   */\n      0x12\n        /* \"#utility.yul\":16002:16003   */\n      0x04\n        /* \"#utility.yul\":15995:16010   */\n      mstore\n        /* \"#utility.yul\":16029:16033   */\n      0x24\n        /* \"#utility.yul\":16026:16027   */\n      0x00\n        /* \"#utility.yul\":16019:16034   */\n      revert\n        /* \"#utility.yul\":16046:16222   */\n    tag_149:\n        /* \"#utility.yul\":16078:16079   */\n      0x00\n        /* \"#utility.yul\":16095:16115   */\n      tag_383\n        /* \"#utility.yul\":16113:16114   */\n      dup3\n        /* \"#utility.yul\":16095:16115   */\n      tag_188\n      jump\t// in\n    tag_383:\n        /* \"#utility.yul\":16090:16115   */\n      swap2\n      pop\n        /* \"#utility.yul\":16129:16149   */\n      tag_384\n        /* \"#utility.yul\":16147:16148   */\n      dup4\n        /* \"#utility.yul\":16129:16149   */\n      tag_188\n      jump\t// in\n    tag_384:\n        /* \"#utility.yul\":16124:16149   */\n      swap3\n      pop\n        /* \"#utility.yul\":16168:16169   */\n      dup3\n        /* \"#utility.yul\":16158:16193   */\n      tag_385\n      jumpi\n        /* \"#utility.yul\":16173:16191   */\n      tag_386\n      tag_229\n      jump\t// in\n    tag_386:\n        /* \"#utility.yul\":16158:16193   */\n    tag_385:\n        /* \"#utility.yul\":16214:16215   */\n      dup3\n        /* \"#utility.yul\":16211:16212   */\n      dup3\n        /* \"#utility.yul\":16207:16216   */\n      mod\n        /* \"#utility.yul\":16202:16216   */\n      swap1\n      pop\n        /* \"#utility.yul\":16046:16222   */\n      swap3\n      swap2\n      pop\n      pop\n      jump\t// out\n        /* \"#utility.yul\":16228:16408   */\n    tag_152:\n        /* \"#utility.yul\":16276:16353   */\n      0x4e487b7100000000000000000000000000000000000000000000000000000000\n        /* \"#utility.yul\":16273:16274   */\n      0x00\n        /* \"#utility.yul\":16266:16354   */\n      mstore\n        /* \"#utility.yul\":16373:16377   */\n      0x32\n        /* \"#utility.yul\":16370:16371   */\n      0x04\n        /* \"#utility.yul\":16363:16378   */\n      mstore\n        /* \"#utility.yul\":16397:16401   */\n      0x24\n        /* \"#utility.yul\":16394:16395   */\n      0x00\n        /* \"#utility.yul\":16387:16402   */\n      revert\n        /* \"#utility.yul\":16414:16590   */\n    tag_230:\n        /* \"#utility.yul\":16554:16582   */\n      0x4e6f7420656e6f756768204c494e4b20746f2070617920666565000000000000\n        /* \"#utility.yul\":16550:16551   */\n      0x00\n        /* \"#utility.yul\":16542:16548   */\n      dup3\n        /* \"#utility.yul\":16538:16552   */\n      add\n        /* \"#utility.yul\":16531:16583   */\n      mstore\n        /* \"#utility.yul\":16414:16590   */\n      pop\n      jump\t// out\n        /* \"#utility.yul\":16596:16962   */\n    tag_231:\n        /* \"#utility.yul\":16738:16741   */\n      0x00\n        /* \"#utility.yul\":16759:16826   */\n      tag_390\n        /* \"#utility.yul\":16823:16825   */\n      0x1a\n        /* \"#utility.yul\":16818:16821   */\n      dup4\n        /* \"#utility.yul\":16759:16826   */\n      tag_203\n      jump\t// in\n    tag_390:\n        /* \"#utility.yul\":16752:16826   */\n      swap2\n      pop\n        /* \"#utility.yul\":16835:16928   */\n      tag_391\n        /* \"#utility.yul\":16924:16927   */\n      dup3\n        /* \"#utility.yul\":16835:16928   */\n      tag_230\n      jump\t// in\n    tag_391:\n        /* \"#utility.yul\":16953:16955   */\n      0x20\n        /* \"#utility.yul\":16948:16951   */\n      dup3\n        /* \"#utility.yul\":16944:16956   */\n      add\n        /* \"#utility.yul\":16937:16956   */\n      swap1\n      pop\n        /* \"#utility.yul\":16596:16962   */\n      swap2\n      swap1\n      pop\n      jump\t// out\n        /* \"#utility.yul\":16968:17387   */\n    tag_161:\n        /* \"#utility.yul\":17134:17138   */\n      0x00\n        /* \"#utility.yul\":17172:17174   */\n      0x20\n        /* \"#utility.yul\":17161:17170   */\n      dup3\n        /* \"#utility.yul\":17157:17175   */\n      add\n        /* \"#utility.yul\":17149:17175   */\n      swap1\n      pop\n        /* \"#utility.yul\":17221:17230   */\n      dup2\n        /* \"#utility.yul\":17215:17219   */\n      dup2\n        /* \"#utility.yul\":17211:17231   */\n      sub\n        /* \"#utility.yul\":17207:17208   */\n      0x00\n        /* \"#utility.yul\":17196:17205   */\n      dup4\n        /* \"#utility.yul\":17192:17209   */\n      add\n        /* \"#utility.yul\":17185:17232   */\n      mstore\n        /* \"#utility.yul\":17249:17380   */\n      tag_393\n        /* \"#utility.yul\":17375:17379   */\n      dup2\n        /* \"#utility.yul\":17249:17380   */\n      tag_231\n      jump\t// in\n    tag_393:\n        /* \"#utility.yul\":17241:17380   */\n      swap1\n      pop\n        /* \"#utility.yul\":16968:17387   */\n      swap2\n      swap1\n      pop\n      jump\t// out\n        /* \"#utility.yul\":17393:17566   */\n    tag_232:\n        /* \"#utility.yul\":17533:17558   */\n      0x4d75737420686176652076616c6964206b657948617368000000000000000000\n        /* \"#utility.yul\":17529:17530   */\n      0x00\n        /* \"#utility.yul\":17521:17527   */\n      dup3\n        /* \"#utility.yul\":17517:17531   */\n      add\n        /* \"#utility.yul\":17510:17559   */\n      mstore\n        /* \"#utility.yul\":17393:17566   */\n      pop\n      jump\t// out\n        /* \"#utility.yul\":17572:17938   */\n    tag_233:\n        /* \"#utility.yul\":17714:17717   */\n      0x00\n        /* \"#utility.yul\":17735:17802   */\n      tag_396\n        /* \"#utility.yul\":17799:17801   */\n      0x17\n        /* \"#utility.yul\":17794:17797   */\n      dup4\n        /* \"#utility.yul\":17735:17802   */\n      tag_203\n      jump\t// in\n    tag_396:\n        /* \"#utility.yul\":17728:17802   */\n      swap2\n      pop\n        /* \"#utility.yul\":17811:17904   */\n      tag_397\n        /* \"#utility.yul\":17900:17903   */\n      dup3\n        /* \"#utility.yul\":17811:17904   */\n      tag_232\n      jump\t// in\n    tag_397:\n        /* \"#utility.yul\":17929:17931   */\n      0x20\n        /* \"#utility.yul\":17924:17927   */\n      dup3\n        /* \"#utility.yul\":17920:17932   */\n      add\n        /* \"#utility.yul\":17913:17932   */\n      swap1\n      pop\n        /* \"#utility.yul\":17572:17938   */\n      swap2\n      swap1\n      pop\n      jump\t// out\n        /* \"#utility.yul\":17944:18363   */\n    tag_164:\n        /* \"#utility.yul\":18110:18114   */\n      0x00\n        /* \"#utility.yul\":18148:18150   */\n      0x20\n        /* \"#utility.yul\":18137:18146   */\n      dup3\n        /* \"#utility.yul\":18133:18151   */\n      add\n        /* \"#utility.yul\":18125:18151   */\n      swap1\n      pop\n        /* \"#utility.yul\":18197:18206   */\n      dup2\n        /* \"#utility.yul\":18191:18195   */\n      dup2\n        /* \"#utility.yul\":18187:18207   */\n      sub\n        /* \"#utility.yul\":18183:18184   */\n      0x00\n        /* \"#utility.yul\":18172:18181   */\n      dup4\n        /* \"#utility.yul\":18168:18185   */\n      add\n        /* \"#utility.yul\":18161:18208   */\n      mstore\n        /* \"#utility.yul\":18225:18356   */\n      tag_399\n        /* \"#utility.yul\":18351:18355   */\n      dup2\n        /* \"#utility.yul\":18225:18356   */\n      tag_233\n      jump\t// in\n    tag_399:\n        /* \"#utility.yul\":18217:18356   */\n      swap1\n      pop\n        /* \"#utility.yul\":17944:18363   */\n      swap2\n      swap1\n      pop\n      jump\t// out\n        /* \"#utility.yul\":18369:18487   */\n    tag_234:\n        /* \"#utility.yul\":18456:18480   */\n      tag_401\n        /* \"#utility.yul\":18474:18479   */\n      dup2\n        /* \"#utility.yul\":18456:18480   */\n      tag_200\n      jump\t// in\n    tag_401:\n        /* \"#utility.yul\":18451:18454   */\n      dup3\n        /* \"#utility.yul\":18444:18481   */\n      mstore\n        /* \"#utility.yul\":18369:18487   */\n      pop\n      pop\n      jump\t// out\n        /* \"#utility.yul\":18493:18825   */\n    tag_171:\n        /* \"#utility.yul\":18614:18618   */\n      0x00\n        /* \"#utility.yul\":18652:18654   */\n      0x40\n        /* \"#utility.yul\":18641:18650   */\n      dup3\n        /* \"#utility.yul\":18637:18655   */\n      add\n        /* \"#utility.yul\":18629:18655   */\n      swap1\n      pop\n        /* \"#utility.yul\":18665:18736   */\n      tag_403\n        /* \"#utility.yul\":18733:18734   */\n      0x00\n        /* \"#utility.yul\":18722:18731   */\n      dup4\n        /* \"#utility.yul\":18718:18735   */\n      add\n        /* \"#utility.yul\":18709:18715   */\n      dup6\n        /* \"#utility.yul\":18665:18736   */\n      tag_234\n      jump\t// in\n    tag_403:\n        /* \"#utility.yul\":18746:18818   */\n      tag_404\n        /* \"#utility.yul\":18814:18816   */\n      0x20\n        /* \"#utility.yul\":18803:18812   */\n      dup4\n        /* \"#utility.yul\":18799:18817   */\n      add\n        /* \"#utility.yul\":18790:18796   */\n      dup5\n        /* \"#utility.yul\":18746:18818   */\n      tag_189\n      jump\t// in\n    tag_404:\n        /* \"#utility.yul\":18493:18825   */\n      swap4\n      swap3\n      pop\n      pop\n      pop\n      jump\t// out\n        /* \"#utility.yul\":18831:18929   */\n    tag_235:\n        /* \"#utility.yul\":18882:18888   */\n      0x00\n        /* \"#utility.yul\":18916:18921   */\n      dup2\n        /* \"#utility.yul\":18910:18922   */\n      mload\n        /* \"#utility.yul\":18900:18922   */\n      swap1\n      pop\n        /* \"#utility.yul\":18831:18929   */\n      swap2\n      swap1\n      pop\n      jump\t// out\n        /* \"#utility.yul\":18935:19103   */\n    tag_236:\n        /* \"#utility.yul\":19018:19029   */\n      0x00\n        /* \"#utility.yul\":19052:19058   */\n      dup3\n        /* \"#utility.yul\":19047:19050   */\n      dup3\n        /* \"#utility.yul\":19040:19059   */\n      mstore\n        /* \"#utility.yul\":19092:19096   */\n      0x20\n        /* \"#utility.yul\":19087:19090   */\n      dup3\n        /* \"#utility.yul\":19083:19097   */\n      add\n        /* \"#utility.yul\":19068:19097   */\n      swap1\n      pop\n        /* \"#utility.yul\":18935:19103   */\n      swap3\n      swap2\n      pop\n      pop\n      jump\t// out\n        /* \"#utility.yul\":19109:19355   */\n    tag_237:\n        /* \"#utility.yul\":19190:19191   */\n      0x00\n        /* \"#utility.yul\":19200:19313   */\n    tag_408:\n        /* \"#utility.yul\":19214:19220   */\n      dup4\n        /* \"#utility.yul\":19211:19212   */\n      dup2\n        /* \"#utility.yul\":19208:19221   */\n      lt\n        /* \"#utility.yul\":19200:19313   */\n      iszero\n      tag_410\n      jumpi\n        /* \"#utility.yul\":19299:19300   */\n      dup1\n        /* \"#utility.yul\":19294:19297   */\n      dup3\n        /* \"#utility.yul\":19290:19301   */\n      add\n        /* \"#utility.yul\":19284:19302   */\n      mload\n        /* \"#utility.yul\":19280:19281   */\n      dup2\n        /* \"#utility.yul\":19275:19278   */\n      dup5\n        /* \"#utility.yul\":19271:19282   */\n      add\n        /* \"#utility.yul\":19264:19303   */\n      mstore\n        /* \"#utility.yul\":19236:19238   */\n      0x20\n        /* \"#utility.yul\":19233:19234   */\n      dup2\n        /* \"#utility.yul\":19229:19239   */\n      add\n        /* \"#utility.yul\":19224:19239   */\n      swap1\n      pop\n        /* \"#utility.yul\":19200:19313   */\n      jump(tag_408)\n    tag_410:\n        /* \"#utility.yul\":19347:19348   */\n      0x00\n        /* \"#utility.yul\":19338:19344   */\n      dup5\n        /* \"#utility.yul\":19333:19336   */\n      dup5\n        /* \"#utility.yul\":19329:19345   */\n      add\n        /* \"#utility.yul\":19322:19349   */\n      mstore\n        /* \"#utility.yul\":19171:19355   */\n      pop\n        /* \"#utility.yul\":19109:19355   */\n      pop\n      pop\n      pop\n      jump\t// out\n        /* \"#utility.yul\":19361:19463   */\n    tag_238:\n        /* \"#utility.yul\":19402:19408   */\n      0x00\n        /* \"#utility.yul\":19453:19455   */\n      0x1f\n        /* \"#utility.yul\":19449:19456   */\n      not\n        /* \"#utility.yul\":19444:19446   */\n      0x1f\n        /* \"#utility.yul\":19437:19442   */\n      dup4\n        /* \"#utility.yul\":19433:19447   */\n      add\n        /* \"#utility.yul\":19429:19457   */\n      and\n        /* \"#utility.yul\":19419:19457   */\n      swap1\n      pop\n        /* \"#utility.yul\":19361:19463   */\n      swap2\n      swap1\n      pop\n      jump\t// out\n        /* \"#utility.yul\":19469:19842   */\n    tag_239:\n        /* \"#utility.yul\":19555:19558   */\n      0x00\n        /* \"#utility.yul\":19583:19621   */\n      tag_413\n        /* \"#utility.yul\":19615:19620   */\n      dup3\n        /* \"#utility.yul\":19583:19621   */\n      tag_235\n      jump\t// in\n    tag_413:\n        /* \"#utility.yul\":19637:19707   */\n      tag_414\n        /* \"#utility.yul\":19700:19706   */\n      dup2\n        /* \"#utility.yul\":19695:19698   */\n      dup6\n        /* \"#utility.yul\":19637:19707   */\n      tag_236\n      jump\t// in\n    tag_414:\n        /* \"#utility.yul\":19630:19707   */\n      swap4\n      pop\n        /* \"#utility.yul\":19716:19781   */\n      tag_415\n        /* \"#utility.yul\":19774:19780   */\n      dup2\n        /* \"#utility.yul\":19769:19772   */\n      dup6\n        /* \"#utility.yul\":19762:19766   */\n      0x20\n        /* \"#utility.yul\":19755:19760   */\n      dup7\n        /* \"#utility.yul\":19751:19767   */\n      add\n        /* \"#utility.yul\":19716:19781   */\n      tag_237\n      jump\t// in\n    tag_415:\n        /* \"#utility.yul\":19806:19835   */\n      tag_416\n        /* \"#utility.yul\":19828:19834   */\n      dup2\n        /* \"#utility.yul\":19806:19835   */\n      tag_238\n      jump\t// in\n    tag_416:\n        /* \"#utility.yul\":19801:19804   */\n      dup5\n        /* \"#utility.yul\":19797:19836   */\n      add\n        /* \"#utility.yul\":19790:19836   */\n      swap2\n      pop\n        /* \"#utility.yul\":19559:19842   */\n      pop\n        /* \"#utility.yul\":19469:19842   */\n      swap3\n      swap2\n      pop\n      pop\n      jump\t// out\n        /* \"#utility.yul\":19848:20377   */\n    tag_173:\n        /* \"#utility.yul\":20015:20019   */\n      0x00\n        /* \"#utility.yul\":20053:20055   */\n      0x60\n        /* \"#utility.yul\":20042:20051   */\n      dup3\n        /* \"#utility.yul\":20038:20056   */\n      add\n        /* \"#utility.yul\":20030:20056   */\n      swap1\n      pop\n        /* \"#utility.yul\":20066:20137   */\n      tag_418\n        /* \"#utility.yul\":20134:20135   */\n      0x00\n        /* \"#utility.yul\":20123:20132   */\n      dup4\n        /* \"#utility.yul\":20119:20136   */\n      add\n        /* \"#utility.yul\":20110:20116   */\n      dup7\n        /* \"#utility.yul\":20066:20137   */\n      tag_199\n      jump\t// in\n    tag_418:\n        /* \"#utility.yul\":20147:20219   */\n      tag_419\n        /* \"#utility.yul\":20215:20217   */\n      0x20\n        /* \"#utility.yul\":20204:20213   */\n      dup4\n        /* \"#utility.yul\":20200:20218   */\n      add\n        /* \"#utility.yul\":20191:20197   */\n      dup6\n        /* \"#utility.yul\":20147:20219   */\n      tag_189\n      jump\t// in\n    tag_419:\n        /* \"#utility.yul\":20266:20275   */\n      dup2\n        /* \"#utility.yul\":20260:20264   */\n      dup2\n        /* \"#utility.yul\":20256:20276   */\n      sub\n        /* \"#utility.yul\":20251:20253   */\n      0x40\n        /* \"#utility.yul\":20240:20249   */\n      dup4\n        /* \"#utility.yul\":20236:20254   */\n      add\n        /* \"#utility.yul\":20229:20277   */\n      mstore\n        /* \"#utility.yul\":20294:20370   */\n      tag_420\n        /* \"#utility.yul\":20365:20369   */\n      dup2\n        /* \"#utility.yul\":20356:20362   */\n      dup5\n        /* \"#utility.yul\":20294:20370   */\n      tag_239\n      jump\t// in\n    tag_420:\n        /* \"#utility.yul\":20286:20370   */\n      swap1\n      pop\n        /* \"#utility.yul\":19848:20377   */\n      swap5\n      swap4\n      pop\n      pop\n      pop\n      pop\n      jump\t// out\n        /* \"#utility.yul\":20383:20936   */\n    tag_184:\n        /* \"#utility.yul\":20560:20564   */\n      0x00\n        /* \"#utility.yul\":20598:20601   */\n      0x80\n        /* \"#utility.yul\":20587:20596   */\n      dup3\n        /* \"#utility.yul\":20583:20602   */\n      add\n        /* \"#utility.yul\":20575:20602   */\n      swap1\n      pop\n        /* \"#utility.yul\":20612:20683   */\n      tag_422\n        /* \"#utility.yul\":20680:20681   */\n      0x00\n        /* \"#utility.yul\":20669:20678   */\n      dup4\n        /* \"#utility.yul\":20665:20682   */\n      add\n        /* \"#utility.yul\":20656:20662   */\n      dup8\n        /* \"#utility.yul\":20612:20683   */\n      tag_234\n      jump\t// in\n    tag_422:\n        /* \"#utility.yul\":20693:20765   */\n      tag_423\n        /* \"#utility.yul\":20761:20763   */\n      0x20\n        /* \"#utility.yul\":20750:20759   */\n      dup4\n        /* \"#utility.yul\":20746:20764   */\n      add\n        /* \"#utility.yul\":20737:20743   */\n      dup7\n        /* \"#utility.yul\":20693:20765   */\n      tag_189\n      jump\t// in\n    tag_423:\n        /* \"#utility.yul\":20775:20847   */\n      tag_424\n        /* \"#utility.yul\":20843:20845   */\n      0x40\n        /* \"#utility.yul\":20832:20841   */\n      dup4\n        /* \"#utility.yul\":20828:20846   */\n      add\n        /* \"#utility.yul\":20819:20825   */\n      dup6\n        /* \"#utility.yul\":20775:20847   */\n      tag_199\n      jump\t// in\n    tag_424:\n        /* \"#utility.yul\":20857:20929   */\n      tag_425\n        /* \"#utility.yul\":20925:20927   */\n      0x60\n        /* \"#utility.yul\":20914:20923   */\n      dup4\n        /* \"#utility.yul\":20910:20928   */\n      add\n        /* \"#utility.yul\":20901:20907   */\n      dup5\n        /* \"#utility.yul\":20857:20929   */\n      tag_189\n      jump\t// in\n    tag_425:\n        /* \"#utility.yul\":20383:20936   */\n      swap6\n      swap5\n      pop\n      pop\n      pop\n      pop\n      pop\n      jump\t// out\n        /* \"#utility.yul\":20942:21021   */\n    tag_240:\n        /* \"#utility.yul\":20981:20988   */\n      0x00\n        /* \"#utility.yul\":21010:21015   */\n      dup2\n        /* \"#utility.yul\":20999:21015   */\n      swap1\n      pop\n        /* \"#utility.yul\":20942:21021   */\n      swap2\n      swap1\n      pop\n      jump\t// out\n        /* \"#utility.yul\":21027:21184   */\n    tag_241:\n        /* \"#utility.yul\":21132:21177   */\n      tag_428\n        /* \"#utility.yul\":21152:21176   */\n      tag_429\n        /* \"#utility.yul\":21170:21175   */\n      dup3\n        /* \"#utility.yul\":21152:21176   */\n      tag_200\n      jump\t// in\n    tag_429:\n        /* \"#utility.yul\":21132:21177   */\n      tag_240\n      jump\t// in\n    tag_428:\n        /* \"#utility.yul\":21127:21130   */\n      dup3\n        /* \"#utility.yul\":21120:21178   */\n      mstore\n        /* \"#utility.yul\":21027:21184   */\n      pop\n      pop\n      jump\t// out\n        /* \"#utility.yul\":21190:21269   */\n    tag_242:\n        /* \"#utility.yul\":21229:21236   */\n      0x00\n        /* \"#utility.yul\":21258:21263   */\n      dup2\n        /* \"#utility.yul\":21247:21263   */\n      swap1\n      pop\n        /* \"#utility.yul\":21190:21269   */\n      swap2\n      swap1\n      pop\n      jump\t// out\n        /* \"#utility.yul\":21275:21432   */\n    tag_243:\n        /* \"#utility.yul\":21380:21425   */\n      tag_432\n        /* \"#utility.yul\":21400:21424   */\n      tag_433\n        /* \"#utility.yul\":21418:21423   */\n      dup3\n        /* \"#utility.yul\":21400:21424   */\n      tag_188\n      jump\t// in\n    tag_433:\n        /* \"#utility.yul\":21380:21425   */\n      tag_242\n      jump\t// in\n    tag_432:\n        /* \"#utility.yul\":21375:21378   */\n      dup3\n        /* \"#utility.yul\":21368:21426   */\n      mstore\n        /* \"#utility.yul\":21275:21432   */\n      pop\n      pop\n      jump\t// out\n        /* \"#utility.yul\":21438:21835   */\n    tag_187:\n        /* \"#utility.yul\":21578:21581   */\n      0x00\n        /* \"#utility.yul\":21593:21668   */\n      tag_435\n        /* \"#utility.yul\":21664:21667   */\n      dup3\n        /* \"#utility.yul\":21655:21661   */\n      dup6\n        /* \"#utility.yul\":21593:21668   */\n      tag_241\n      jump\t// in\n    tag_435:\n        /* \"#utility.yul\":21693:21695   */\n      0x20\n        /* \"#utility.yul\":21688:21691   */\n      dup3\n        /* \"#utility.yul\":21684:21696   */\n      add\n        /* \"#utility.yul\":21677:21696   */\n      swap2\n      pop\n        /* \"#utility.yul\":21706:21781   */\n      tag_436\n        /* \"#utility.yul\":21777:21780   */\n      dup3\n        /* \"#utility.yul\":21768:21774   */\n      dup5\n        /* \"#utility.yul\":21706:21781   */\n      tag_243\n      jump\t// in\n    tag_436:\n        /* \"#utility.yul\":21806:21808   */\n      0x20\n        /* \"#utility.yul\":21801:21804   */\n      dup3\n        /* \"#utility.yul\":21797:21809   */\n      add\n        /* \"#utility.yul\":21790:21809   */\n      swap2\n      pop\n        /* \"#utility.yul\":21826:21829   */\n      dup2\n        /* \"#utility.yul\":21819:21829   */\n      swap1\n      pop\n        /* \"#utility.yul\":21438:21835   */\n      swap4\n      swap3\n      pop\n      pop\n      pop\n      jump\t// out\n\n    auxdata: 0xa264697066735822122094df13c96e348592dd4f619fd7106d58ecc166f97e353fb6eb74d83780ebba3364736f6c63430008130033\n}\n",
				"bytecode": {
					"linkReferences": {},
					"object": "60c06040523480156200001157600080fd5b5060405162001f3e38038062001f3e8339818101604052810190620000379190620001e4565b84848173ffffffffffffffffffffffffffffffffffffffff1660a08173ffffffffffffffffffffffffffffffffffffffff16815250508073ffffffffffffffffffffffffffffffffffffffff1660808173ffffffffffffffffffffffffffffffffffffffff1681525050505033600160006101000a81548173ffffffffffffffffffffffffffffffffffffffff021916908373ffffffffffffffffffffffffffffffffffffffff16021790555082600681905550816007819055508060028190555050505050506200026c565b600080fd5b600073ffffffffffffffffffffffffffffffffffffffff82169050919050565b6000620001368262000109565b9050919050565b620001488162000129565b81146200015457600080fd5b50565b60008151905062000168816200013d565b92915050565b6000819050919050565b62000183816200016e565b81146200018f57600080fd5b50565b600081519050620001a38162000178565b92915050565b6000819050919050565b620001be81620001a9565b8114620001ca57600080fd5b50565b600081519050620001de81620001b3565b92915050565b600080600080600060a0868803121562000203576200020262000104565b5b6000620002138882890162000157565b9550506020620002268882890162000157565b9450506040620002398882890162000192565b93505060606200024c88828901620001cd565b92505060806200025f88828901620001cd565b9150509295509295909350565b60805160a051611c90620002ae60003960008181610a070152610fce0152600081816107f10152818161085001528181610e0d0152610f920152611c906000f3fe6080604052600436106100c25760003560e01c80638dc654a21161007f578063b2185bb111610059578063b2185bb114610223578063cfbd900f1461023a578063dfbf53ae14610265578063f71d96cb14610290576100c2565b80638dc654a2146101b85780638e7ea5b2146101cf57806394985ddd146101fa576100c2565b80631209b1f6146100c757806348d37a58146100f257806367dd74ca146101095780636dcbf2a3146101255780637390c786146101625780638da5cb5b1461018d575b600080fd5b3480156100d357600080fd5b506100dc6102cd565b6040516100e99190611166565b60405180910390f35b3480156100fe57600080fd5b506101076102d3565b005b610123600480360381019061011e91906111b2565b6104b7565b005b34801561013157600080fd5b5061014c6004803603810190610147919061123d565b610717565b6040516101599190611166565b60405180910390f35b34801561016e57600080fd5b5061017761072f565b6040516101849190611166565b60405180910390f35b34801561019957600080fd5b506101a2610739565b6040516101af9190611279565b60405180910390f35b3480156101c457600080fd5b506101cd61075f565b005b3480156101db57600080fd5b506101e461094b565b6040516101f19190611279565b60405180910390f35b34801561020657600080fd5b50610221600480360381019061021c91906112ca565b610a05565b005b34801561022f57600080fd5b50610238610aa1565b005b34801561024657600080fd5b5061024f610c11565b60405161025c9190611166565b60405180910390f35b34801561027157600080fd5b5061027a610c17565b6040516102879190611279565b60405180910390f35b34801561029c57600080fd5b506102b760048036038101906102b291906111b2565b610c3d565b6040516102c49190611279565b60405180910390f35b60025481565b600160009054906101000a900473ffffffffffffffffffffffffffffffffffffffff1673ffffffffffffffffffffffffffffffffffffffff163373ffffffffffffffffffffffffffffffffffffffff1614610363576040517f08c379a000000000000000000000000000000000000000000000000000000000815260040161035a9061138d565b60405180910390fd5b600073ffffffffffffffffffffffffffffffffffffffff16600460009054906101000a900473ffffffffffffffffffffffffffffffffffffffff1673ffffffffffffffffffffffffffffffffffffffff16036103f4576040517f08c379a00000000000000000000000000000000000000000000000000000000081526004016103eb906113f9565b60405180910390fd5b60006003546002546104069190611448565b90508047101561044b576040517f08c379a0000000000000000000000000000000000000000000000000000000008152600401610442906114fc565b60405180910390fd5b600460009054906101000a900473ffffffffffffffffffffffffffffffffffffffff1673ffffffffffffffffffffffffffffffffffffffff166108fc829081150290604051600060405180830381858888f193505050501580156104b3573d6000803e3d6000fd5b5050565b600081116104fa576040517f08c379a00000000000000000000000000000000000000000000000000000000081526004016104f19061158e565b60405180910390fd5b806002546105089190611448565b34101561054a576040517f08c379a0000000000000000000000000000000000000000000000000000000008152600401610541906115fa565b60405180910390fd5b80600a60003373ffffffffffffffffffffffffffffffffffffffff1673ffffffffffffffffffffffffffffffffffffffff1681526020019081526020016000206000828254610599919061161a565b92505081905550600b60003373ffffffffffffffffffffffffffffffffffffffff1673ffffffffffffffffffffffffffffffffffffffff16815260200190815260200160002060009054906101000a900460ff166106ad576008339080600181540180825580915050600190039060005260206000200160009091909190916101000a81548173ffffffffffffffffffffffffffffffffffffffff021916908373ffffffffffffffffffffffffffffffffffffffff1602179055506001600b60003373ffffffffffffffffffffffffffffffffffffffff1673ffffffffffffffffffffffffffffffffffffffff16815260200190815260200160002060006101000a81548160ff0219169083151502179055505b80600360008282546106bf919061161a565b925050819055503373ffffffffffffffffffffffffffffffffffffffff167f0668f5b446eb814fe35b3206f43f14bd8567ba04ddaf7a3ee56516929ab22ccb8260405161070c9190611166565b60405180910390a250565b600a6020528060005260406000206000915090505481565b6000600554905090565b600160009054906101000a900473ffffffffffffffffffffffffffffffffffffffff1681565b600160009054906101000a900473ffffffffffffffffffffffffffffffffffffffff1673ffffffffffffffffffffffffffffffffffffffff163373ffffffffffffffffffffffffffffffffffffffff16146107ef576040517f08c379a00000000000000000000000000000000000000000000000000000000081526004016107e69061138d565b60405180910390fd5b7f000000000000000000000000000000000000000000000000000000000000000073ffffffffffffffffffffffffffffffffffffffff1663a9059cbb600160009054906101000a900473ffffffffffffffffffffffffffffffffffffffff167f000000000000000000000000000000000000000000000000000000000000000073ffffffffffffffffffffffffffffffffffffffff166370a08231306040518263ffffffff1660e01b81526004016108a79190611279565b602060405180830381865afa1580156108c4573d6000803e3d6000fd5b505050506040513d601f19601f820116820180604052508101906108e89190611663565b6040518363ffffffff1660e01b8152600401610905929190611690565b6020604051808303816000875af1158015610924573d6000803e3d6000fd5b505050506040513d601f19601f8201168201806040525081019061094891906116f1565b50565b60008073ffffffffffffffffffffffffffffffffffffffff16600460009054906101000a900473ffffffffffffffffffffffffffffffffffffffff1673ffffffffffffffffffffffffffffffffffffffff16036109dd576040517f08c379a00000000000000000000000000000000000000000000000000000000081526004016109d4906113f9565b60405180910390fd5b600460009054906101000a900473ffffffffffffffffffffffffffffffffffffffff16905090565b7f000000000000000000000000000000000000000000000000000000000000000073ffffffffffffffffffffffffffffffffffffffff163373ffffffffffffffffffffffffffffffffffffffff1614610a93576040517f08c379a0000000000000000000000000000000000000000000000000000000008152600401610a8a9061176a565b60405180910390fd5b610a9d8282610c7c565b5050565b600160009054906101000a900473ffffffffffffffffffffffffffffffffffffffff1673ffffffffffffffffffffffffffffffffffffffff163373ffffffffffffffffffffffffffffffffffffffff1614610b31576040517f08c379a0000000000000000000000000000000000000000000000000000000008152600401610b289061138d565b60405180910390fd5b600073ffffffffffffffffffffffffffffffffffffffff16600460009054906101000a900473ffffffffffffffffffffffffffffffffffffffff1673ffffffffffffffffffffffffffffffffffffffff1614610bc2576040517f08c379a0000000000000000000000000000000000000000000000000000000008152600401610bb9906117d6565b60405180910390fd5b600060035411610c07576040517f08c379a0000000000000000000000000000000000000000000000000000000008152600401610bfe90611842565b60405180910390fd5b610c0f610e08565b565b60035481565b600460009054906101000a900473ffffffffffffffffffffffffffffffffffffffff1681565b60088181548110610c4d57600080fd5b906000526020600020016000915054906101000a900473ffffffffffffffffffffffffffffffffffffffff1681565b6009548214610cc0576040517f08c379a0000000000000000000000000000000000000000000000000000000008152600401610cb7906118ae565b60405180910390fd5b60008111610d03576040517f08c379a0000000000000000000000000000000000000000000000000000000008152600401610cfa9061191a565b60405180910390fd5b80600581905550600060088054905082610d1d9190611969565b905060088181548110610d3357610d3261199a565b5b9060005260206000200160009054906101000a900473ffffffffffffffffffffffffffffffffffffffff16600460006101000a81548173ffffffffffffffffffffffffffffffffffffffff021916908373ffffffffffffffffffffffffffffffffffffffff160217905550600460009054906101000a900473ffffffffffffffffffffffffffffffffffffffff1673ffffffffffffffffffffffffffffffffffffffff167fb1899e5911a12372a7fa329d3051f8358e8f5156f66bcf69707ea096419681b760405160405180910390a2505050565b6007547f000000000000000000000000000000000000000000000000000000000000000073ffffffffffffffffffffffffffffffffffffffff166370a08231306040518263ffffffff1660e01b8152600401610e649190611279565b602060405180830381865afa158015610e81573d6000803e3d6000fd5b505050506040513d601f19601f82011682018060405250810190610ea59190611663565b1015610ee6576040517f08c379a0000000000000000000000000000000000000000000000000000000008152600401610edd90611a15565b60405180910390fd5b6000801b60065403610f2d576040517f08c379a0000000000000000000000000000000000000000000000000000000008152600401610f2490611a81565b60405180910390fd5b600060035411610f72576040517f08c379a0000000000000000000000000000000000000000000000000000000008152600401610f6990611842565b60405180910390fd5b6000610f82600654600754610f8e565b90508060098190555050565b60007f000000000000000000000000000000000000000000000000000000000000000073ffffffffffffffffffffffffffffffffffffffff16634000aea07f000000000000000000000000000000000000000000000000000000000000000084866000604051602001611002929190611ab0565b6040516020818303038152906040526040518463ffffffff1660e01b815260040161102f93929190611b69565b6020604051808303816000875af115801561104e573d6000803e3d6000fd5b505050506040513d601f19601f8201168201806040525081019061107291906116f1565b50600061109484600030600080898152602001908152602001600020546110de565b90506001600080868152602001908152602001600020546110b5919061161a565b600080868152602001908152602001600020819055506110d5848261111a565b91505092915050565b6000848484846040516020016110f79493929190611ba7565b6040516020818303038152906040528051906020012060001c9050949350505050565b6000828260405160200161112f929190611c2e565b60405160208183030381529060405280519060200120905092915050565b6000819050919050565b6111608161114d565b82525050565b600060208201905061117b6000830184611157565b92915050565b600080fd5b61118f8161114d565b811461119a57600080fd5b50565b6000813590506111ac81611186565b92915050565b6000602082840312156111c8576111c7611181565b5b60006111d68482850161119d565b91505092915050565b600073ffffffffffffffffffffffffffffffffffffffff82169050919050565b600061120a826111df565b9050919050565b61121a816111ff565b811461122557600080fd5b50565b60008135905061123781611211565b92915050565b60006020828403121561125357611252611181565b5b600061126184828501611228565b91505092915050565b611273816111ff565b82525050565b600060208201905061128e600083018461126a565b92915050565b6000819050919050565b6112a781611294565b81146112b257600080fd5b50565b6000813590506112c48161129e565b92915050565b600080604083850312156112e1576112e0611181565b5b60006112ef858286016112b5565b92505060206113008582860161119d565b9150509250929050565b600082825260208201905092915050565b7f4f6e6c7920746865206f776e65722063616e2063616c6c20746869732066756e60008201527f6374696f6e000000000000000000000000000000000000000000000000000000602082015250565b600061137760258361130a565b91506113828261131b565b604082019050919050565b600060208201905081810360008301526113a68161136a565b9050919050565b7f57696e6e657220686173206e6f74206265656e20647261776e20796574000000600082015250565b60006113e3601d8361130a565b91506113ee826113ad565b602082019050919050565b60006020820190508181036000830152611412816113d6565b9050919050565b7f4e487b7100000000000000000000000000000000000000000000000000000000600052601160045260246000fd5b60006114538261114d565b915061145e8361114d565b925082820261146c8161114d565b9150828204841483151761148357611482611419565b5b5092915050565b7f4e6f7420656e6f75676820457468657220746f2070617920746865207072697a60008201527f6500000000000000000000000000000000000000000000000000000000000000602082015250565b60006114e660218361130a565b91506114f18261148a565b604082019050919050565b60006020820190508181036000830152611515816114d9565b9050919050565b7f4e756d626572206f66207469636b6574732073686f756c64206265206772656160008201527f746572207468616e203000000000000000000000000000000000000000000000602082015250565b6000611578602a8361130a565b91506115838261151c565b604082019050919050565b600060208201905081810360008301526115a78161156b565b9050919050565b7f4e6f7420656e6f7567682065746865722073656e740000000000000000000000600082015250565b60006115e460158361130a565b91506115ef826115ae565b602082019050919050565b60006020820190508181036000830152611613816115d7565b9050919050565b60006116258261114d565b91506116308361114d565b925082820190508082111561164857611647611419565b5b92915050565b60008151905061165d81611186565b92915050565b60006020828403121561167957611678611181565b5b60006116878482850161164e565b91505092915050565b60006040820190506116a5600083018561126a565b6116b26020830184611157565b9392505050565b60008115159050919050565b6116ce816116b9565b81146116d957600080fd5b50565b6000815190506116eb816116c5565b92915050565b60006020828403121561170757611706611181565b5b6000611715848285016116dc565b91505092915050565b7f4f6e6c7920565246436f6f7264696e61746f722063616e2066756c66696c6c00600082015250565b6000611754601f8361130a565b915061175f8261171e565b602082019050919050565b6000602082019050818103600083015261178381611747565b9050919050565b7f57696e6e657220616c72656164792073656c6563746564000000000000000000600082015250565b60006117c060178361130a565b91506117cb8261178a565b602082019050919050565b600060208201905081810360008301526117ef816117b3565b9050919050565b7f4e6f207469636b65747320707572636861736564207965740000000000000000600082015250565b600061182c60188361130a565b9150611837826117f6565b602082019050919050565b6000602082019050818103600083015261185b8161181f565b9050919050565b7f57726f6e67207265717565737449640000000000000000000000000000000000600082015250565b6000611898600f8361130a565b91506118a382611862565b602082019050919050565b600060208201905081810360008301526118c78161188b565b9050919050565b7f52616e646f6d206e756d626572206e6f742067656e6572617465640000000000600082015250565b6000611904601b8361130a565b915061190f826118ce565b602082019050919050565b60006020820190508181036000830152611933816118f7565b9050919050565b7f4e487b7100000000000000000000000000000000000000000000000000000000600052601260045260246000fd5b60006119748261114d565b915061197f8361114d565b92508261198f5761198e61193a565b5b828206905092915050565b7f4e487b7100000000000000000000000000000000000000000000000000000000600052603260045260246000fd5b7f4e6f7420656e6f756768204c494e4b20746f2070617920666565000000000000600082015250565b60006119ff601a8361130a565b9150611a0a826119c9565b602082019050919050565b60006020820190508181036000830152611a2e816119f2565b9050919050565b7f4d75737420686176652076616c6964206b657948617368000000000000000000600082015250565b6000611a6b60178361130a565b9150611a7682611a35565b602082019050919050565b60006020820190508181036000830152611a9a81611a5e565b9050919050565b611aaa81611294565b82525050565b6000604082019050611ac56000830185611aa1565b611ad26020830184611157565b9392505050565b600081519050919050565b600082825260208201905092915050565b60005b83811015611b13578082015181840152602081019050611af8565b60008484015250505050565b6000601f19601f8301169050919050565b6000611b3b82611ad9565b611b458185611ae4565b9350611b55818560208601611af5565b611b5e81611b1f565b840191505092915050565b6000606082019050611b7e600083018661126a565b611b8b6020830185611157565b8181036040830152611b9d8184611b30565b9050949350505050565b6000608082019050611bbc6000830187611aa1565b611bc96020830186611157565b611bd6604083018561126a565b611be36060830184611157565b95945050505050565b6000819050919050565b611c07611c0282611294565b611bec565b82525050565b6000819050919050565b611c28611c238261114d565b611c0d565b82525050565b6000611c3a8285611bf6565b602082019150611c4a8284611c17565b602082019150819050939250505056fea264697066735822122094df13c96e348592dd4f619fd7106d58ecc166f97e353fb6eb74d83780ebba3364736f6c63430008130033",
					"opcodes": "PUSH1 0xC0 PUSH1 0x40 MSTORE CALLVALUE DUP1 ISZERO PUSH3 0x11 JUMPI PUSH1 0x0 DUP1 REVERT JUMPDEST POP PUSH1 0x40 MLOAD PUSH3 0x1F3E CODESIZE SUB DUP1 PUSH3 0x1F3E DUP4 CODECOPY DUP2 DUP2 ADD PUSH1 0x40 MSTORE DUP2 ADD SWAP1 PUSH3 0x37 SWAP2 SWAP1 PUSH3 0x1E4 JUMP JUMPDEST DUP5 DUP5 DUP2 PUSH20 0xFFFFFFFFFFFFFFFFFFFFFFFFFFFFFFFFFFFFFFFF AND PUSH1 0xA0 DUP2 PUSH20 0xFFFFFFFFFFFFFFFFFFFFFFFFFFFFFFFFFFFFFFFF AND DUP2 MSTORE POP POP DUP1 PUSH20 0xFFFFFFFFFFFFFFFFFFFFFFFFFFFFFFFFFFFFFFFF AND PUSH1 0x80 DUP2 PUSH20 0xFFFFFFFFFFFFFFFFFFFFFFFFFFFFFFFFFFFFFFFF AND DUP2 MSTORE POP POP POP POP CALLER PUSH1 0x1 PUSH1 0x0 PUSH2 0x100 EXP DUP2 SLOAD DUP2 PUSH20 0xFFFFFFFFFFFFFFFFFFFFFFFFFFFFFFFFFFFFFFFF MUL NOT AND SWAP1 DUP4 PUSH20 0xFFFFFFFFFFFFFFFFFFFFFFFFFFFFFFFFFFFFFFFF AND MUL OR SWAP1 SSTORE POP DUP3 PUSH1 0x6 DUP2 SWAP1 SSTORE POP DUP2 PUSH1 0x7 DUP2 SWAP1 SSTORE POP DUP1 PUSH1 0x2 DUP2 SWAP1 SSTORE POP POP POP POP POP POP PUSH3 0x26C JUMP JUMPDEST PUSH1 0x0 DUP1 REVERT JUMPDEST PUSH1 0x0 PUSH20 0xFFFFFFFFFFFFFFFFFFFFFFFFFFFFFFFFFFFFFFFF DUP3 AND SWAP1 POP SWAP2 SWAP1 POP JUMP JUMPDEST PUSH1 0x0 PUSH3 0x136 DUP3 PUSH3 0x109 JUMP JUMPDEST SWAP1 POP SWAP2 SWAP1 POP JUMP JUMPDEST PUSH3 0x148 DUP2 PUSH3 0x129 JUMP JUMPDEST DUP2 EQ PUSH3 0x154 JUMPI PUSH1 0x0 DUP1 REVERT JUMPDEST POP JUMP JUMPDEST PUSH1 0x0 DUP2 MLOAD SWAP1 POP PUSH3 0x168 DUP2 PUSH3 0x13D JUMP JUMPDEST SWAP3 SWAP2 POP POP JUMP JUMPDEST PUSH1 0x0 DUP2 SWAP1 POP SWAP2 SWAP1 POP JUMP JUMPDEST PUSH3 0x183 DUP2 PUSH3 0x16E JUMP JUMPDEST DUP2 EQ PUSH3 0x18F JUMPI PUSH1 0x0 DUP1 REVERT JUMPDEST POP JUMP JUMPDEST PUSH1 0x0 DUP2 MLOAD SWAP1 POP PUSH3 0x1A3 DUP2 PUSH3 0x178 JUMP JUMPDEST SWAP3 SWAP2 POP POP JUMP JUMPDEST PUSH1 0x0 DUP2 SWAP1 POP SWAP2 SWAP1 POP JUMP JUMPDEST PUSH3 0x1BE DUP2 PUSH3 0x1A9 JUMP JUMPDEST DUP2 EQ PUSH3 0x1CA JUMPI PUSH1 0x0 DUP1 REVERT JUMPDEST POP JUMP JUMPDEST PUSH1 0x0 DUP2 MLOAD SWAP1 POP PUSH3 0x1DE DUP2 PUSH3 0x1B3 JUMP JUMPDEST SWAP3 SWAP2 POP POP JUMP JUMPDEST PUSH1 0x0 DUP1 PUSH1 0x0 DUP1 PUSH1 0x0 PUSH1 0xA0 DUP7 DUP9 SUB SLT ISZERO PUSH3 0x203 JUMPI PUSH3 0x202 PUSH3 0x104 JUMP JUMPDEST JUMPDEST PUSH1 0x0 PUSH3 0x213 DUP9 DUP3 DUP10 ADD PUSH3 0x157 JUMP JUMPDEST SWAP6 POP POP PUSH1 0x20 PUSH3 0x226 DUP9 DUP3 DUP10 ADD PUSH3 0x157 JUMP JUMPDEST SWAP5 POP POP PUSH1 0x40 PUSH3 0x239 DUP9 DUP3 DUP10 ADD PUSH3 0x192 JUMP JUMPDEST SWAP4 POP POP PUSH1 0x60 PUSH3 0x24C DUP9 DUP3 DUP10 ADD PUSH3 0x1CD JUMP JUMPDEST SWAP3 POP POP PUSH1 0x80 PUSH3 0x25F DUP9 DUP3 DUP10 ADD PUSH3 0x1CD JUMP JUMPDEST SWAP2 POP POP SWAP3 SWAP6 POP SWAP3 SWAP6 SWAP1 SWAP4 POP JUMP JUMPDEST PUSH1 0x80 MLOAD PUSH1 0xA0 MLOAD PUSH2 0x1C90 PUSH3 0x2AE PUSH1 0x0 CODECOPY PUSH1 0x0 DUP2 DUP2 PUSH2 0xA07 ADD MSTORE PUSH2 0xFCE ADD MSTORE PUSH1 0x0 DUP2 DUP2 PUSH2 0x7F1 ADD MSTORE DUP2 DUP2 PUSH2 0x850 ADD MSTORE DUP2 DUP2 PUSH2 0xE0D ADD MSTORE PUSH2 0xF92 ADD MSTORE PUSH2 0x1C90 PUSH1 0x0 RETURN INVALID PUSH1 0x80 PUSH1 0x40 MSTORE PUSH1 0x4 CALLDATASIZE LT PUSH2 0xC2 JUMPI PUSH1 0x0 CALLDATALOAD PUSH1 0xE0 SHR DUP1 PUSH4 0x8DC654A2 GT PUSH2 0x7F JUMPI DUP1 PUSH4 0xB2185BB1 GT PUSH2 0x59 JUMPI DUP1 PUSH4 0xB2185BB1 EQ PUSH2 0x223 JUMPI DUP1 PUSH4 0xCFBD900F EQ PUSH2 0x23A JUMPI DUP1 PUSH4 0xDFBF53AE EQ PUSH2 0x265 JUMPI DUP1 PUSH4 0xF71D96CB EQ PUSH2 0x290 JUMPI PUSH2 0xC2 JUMP JUMPDEST DUP1 PUSH4 0x8DC654A2 EQ PUSH2 0x1B8 JUMPI DUP1 PUSH4 0x8E7EA5B2 EQ PUSH2 0x1CF JUMPI DUP1 PUSH4 0x94985DDD EQ PUSH2 0x1FA JUMPI PUSH2 0xC2 JUMP JUMPDEST DUP1 PUSH4 0x1209B1F6 EQ PUSH2 0xC7 JUMPI DUP1 PUSH4 0x48D37A58 EQ PUSH2 0xF2 JUMPI DUP1 PUSH4 0x67DD74CA EQ PUSH2 0x109 JUMPI DUP1 PUSH4 0x6DCBF2A3 EQ PUSH2 0x125 JUMPI DUP1 PUSH4 0x7390C786 EQ PUSH2 0x162 JUMPI DUP1 PUSH4 0x8DA5CB5B EQ PUSH2 0x18D JUMPI JUMPDEST PUSH1 0x0 DUP1 REVERT JUMPDEST CALLVALUE DUP1 ISZERO PUSH2 0xD3 JUMPI PUSH1 0x0 DUP1 REVERT JUMPDEST POP PUSH2 0xDC PUSH2 0x2CD JUMP JUMPDEST PUSH1 0x40 MLOAD PUSH2 0xE9 SWAP2 SWAP1 PUSH2 0x1166 JUMP JUMPDEST PUSH1 0x40 MLOAD DUP1 SWAP2 SUB SWAP1 RETURN JUMPDEST CALLVALUE DUP1 ISZERO PUSH2 0xFE JUMPI PUSH1 0x0 DUP1 REVERT JUMPDEST POP PUSH2 0x107 PUSH2 0x2D3 JUMP JUMPDEST STOP JUMPDEST PUSH2 0x123 PUSH1 0x4 DUP1 CALLDATASIZE SUB DUP2 ADD SWAP1 PUSH2 0x11E SWAP2 SWAP1 PUSH2 0x11B2 JUMP JUMPDEST PUSH2 0x4B7 JUMP JUMPDEST STOP JUMPDEST CALLVALUE DUP1 ISZERO PUSH2 0x131 JUMPI PUSH1 0x0 DUP1 REVERT JUMPDEST POP PUSH2 0x14C PUSH1 0x4 DUP1 CALLDATASIZE SUB DUP2 ADD SWAP1 PUSH2 0x147 SWAP2 SWAP1 PUSH2 0x123D JUMP JUMPDEST PUSH2 0x717 JUMP JUMPDEST PUSH1 0x40 MLOAD PUSH2 0x159 SWAP2 SWAP1 PUSH2 0x1166 JUMP JUMPDEST PUSH1 0x40 MLOAD DUP1 SWAP2 SUB SWAP1 RETURN JUMPDEST CALLVALUE DUP1 ISZERO PUSH2 0x16E JUMPI PUSH1 0x0 DUP1 REVERT JUMPDEST POP PUSH2 0x177 PUSH2 0x72F JUMP JUMPDEST PUSH1 0x40 MLOAD PUSH2 0x184 SWAP2 SWAP1 PUSH2 0x1166 JUMP JUMPDEST PUSH1 0x40 MLOAD DUP1 SWAP2 SUB SWAP1 RETURN JUMPDEST CALLVALUE DUP1 ISZERO PUSH2 0x199 JUMPI PUSH1 0x0 DUP1 REVERT JUMPDEST POP PUSH2 0x1A2 PUSH2 0x739 JUMP JUMPDEST PUSH1 0x40 MLOAD PUSH2 0x1AF SWAP2 SWAP1 PUSH2 0x1279 JUMP JUMPDEST PUSH1 0x40 MLOAD DUP1 SWAP2 SUB SWAP1 RETURN JUMPDEST CALLVALUE DUP1 ISZERO PUSH2 0x1C4 JUMPI PUSH1 0x0 DUP1 REVERT JUMPDEST POP PUSH2 0x1CD PUSH2 0x75F JUMP JUMPDEST STOP JUMPDEST CALLVALUE DUP1 ISZERO PUSH2 0x1DB JUMPI PUSH1 0x0 DUP1 REVERT JUMPDEST POP PUSH2 0x1E4 PUSH2 0x94B JUMP JUMPDEST PUSH1 0x40 MLOAD PUSH2 0x1F1 SWAP2 SWAP1 PUSH2 0x1279 JUMP JUMPDEST PUSH1 0x40 MLOAD DUP1 SWAP2 SUB SWAP1 RETURN JUMPDEST CALLVALUE DUP1 ISZERO PUSH2 0x206 JUMPI PUSH1 0x0 DUP1 REVERT JUMPDEST POP PUSH2 0x221 PUSH1 0x4 DUP1 CALLDATASIZE SUB DUP2 ADD SWAP1 PUSH2 0x21C SWAP2 SWAP1 PUSH2 0x12CA JUMP JUMPDEST PUSH2 0xA05 JUMP JUMPDEST STOP JUMPDEST CALLVALUE DUP1 ISZERO PUSH2 0x22F JUMPI PUSH1 0x0 DUP1 REVERT JUMPDEST POP PUSH2 0x238 PUSH2 0xAA1 JUMP JUMPDEST STOP JUMPDEST CALLVALUE DUP1 ISZERO PUSH2 0x246 JUMPI PUSH1 0x0 DUP1 REVERT JUMPDEST POP PUSH2 0x24F PUSH2 0xC11 JUMP JUMPDEST PUSH1 0x40 MLOAD PUSH2 0x25C SWAP2 SWAP1 PUSH2 0x1166 JUMP JUMPDEST PUSH1 0x40 MLOAD DUP1 SWAP2 SUB SWAP1 RETURN JUMPDEST CALLVALUE DUP1 ISZERO PUSH2 0x271 JUMPI PUSH1 0x0 DUP1 REVERT JUMPDEST POP PUSH2 0x27A PUSH2 0xC17 JUMP JUMPDEST PUSH1 0x40 MLOAD PUSH2 0x287 SWAP2 SWAP1 PUSH2 0x1279 JUMP JUMPDEST PUSH1 0x40 MLOAD DUP1 SWAP2 SUB SWAP1 RETURN JUMPDEST CALLVALUE DUP1 ISZERO PUSH2 0x29C JUMPI PUSH1 0x0 DUP1 REVERT JUMPDEST POP PUSH2 0x2B7 PUSH1 0x4 DUP1 CALLDATASIZE SUB DUP2 ADD SWAP1 PUSH2 0x2B2 SWAP2 SWAP1 PUSH2 0x11B2 JUMP JUMPDEST PUSH2 0xC3D JUMP JUMPDEST PUSH1 0x40 MLOAD PUSH2 0x2C4 SWAP2 SWAP1 PUSH2 0x1279 JUMP JUMPDEST PUSH1 0x40 MLOAD DUP1 SWAP2 SUB SWAP1 RETURN JUMPDEST PUSH1 0x2 SLOAD DUP2 JUMP JUMPDEST PUSH1 0x1 PUSH1 0x0 SWAP1 SLOAD SWAP1 PUSH2 0x100 EXP SWAP1 DIV PUSH20 0xFFFFFFFFFFFFFFFFFFFFFFFFFFFFFFFFFFFFFFFF AND PUSH20 0xFFFFFFFFFFFFFFFFFFFFFFFFFFFFFFFFFFFFFFFF AND CALLER PUSH20 0xFFFFFFFFFFFFFFFFFFFFFFFFFFFFFFFFFFFFFFFF AND EQ PUSH2 0x363 JUMPI PUSH1 0x40 MLOAD PUSH32 0x8C379A000000000000000000000000000000000000000000000000000000000 DUP2 MSTORE PUSH1 0x4 ADD PUSH2 0x35A SWAP1 PUSH2 0x138D JUMP JUMPDEST PUSH1 0x40 MLOAD DUP1 SWAP2 SUB SWAP1 REVERT JUMPDEST PUSH1 0x0 PUSH20 0xFFFFFFFFFFFFFFFFFFFFFFFFFFFFFFFFFFFFFFFF AND PUSH1 0x4 PUSH1 0x0 SWAP1 SLOAD SWAP1 PUSH2 0x100 EXP SWAP1 DIV PUSH20 0xFFFFFFFFFFFFFFFFFFFFFFFFFFFFFFFFFFFFFFFF AND PUSH20 0xFFFFFFFFFFFFFFFFFFFFFFFFFFFFFFFFFFFFFFFF AND SUB PUSH2 0x3F4 JUMPI PUSH1 0x40 MLOAD PUSH32 0x8C379A000000000000000000000000000000000000000000000000000000000 DUP2 MSTORE PUSH1 0x4 ADD PUSH2 0x3EB SWAP1 PUSH2 0x13F9 JUMP JUMPDEST PUSH1 0x40 MLOAD DUP1 SWAP2 SUB SWAP1 REVERT JUMPDEST PUSH1 0x0 PUSH1 0x3 SLOAD PUSH1 0x2 SLOAD PUSH2 0x406 SWAP2 SWAP1 PUSH2 0x1448 JUMP JUMPDEST SWAP1 POP DUP1 SELFBALANCE LT ISZERO PUSH2 0x44B JUMPI PUSH1 0x40 MLOAD PUSH32 0x8C379A000000000000000000000000000000000000000000000000000000000 DUP2 MSTORE PUSH1 0x4 ADD PUSH2 0x442 SWAP1 PUSH2 0x14FC JUMP JUMPDEST PUSH1 0x40 MLOAD DUP1 SWAP2 SUB SWAP1 REVERT JUMPDEST PUSH1 0x4 PUSH1 0x0 SWAP1 SLOAD SWAP1 PUSH2 0x100 EXP SWAP1 DIV PUSH20 0xFFFFFFFFFFFFFFFFFFFFFFFFFFFFFFFFFFFFFFFF AND PUSH20 0xFFFFFFFFFFFFFFFFFFFFFFFFFFFFFFFFFFFFFFFF AND PUSH2 0x8FC DUP3 SWAP1 DUP2 ISZERO MUL SWAP1 PUSH1 0x40 MLOAD PUSH1 0x0 PUSH1 0x40 MLOAD DUP1 DUP4 SUB DUP2 DUP6 DUP9 DUP9 CALL SWAP4 POP POP POP POP ISZERO DUP1 ISZERO PUSH2 0x4B3 JUMPI RETURNDATASIZE PUSH1 0x0 DUP1 RETURNDATACOPY RETURNDATASIZE PUSH1 0x0 REVERT JUMPDEST POP POP JUMP JUMPDEST PUSH1 0x0 DUP2 GT PUSH2 0x4FA JUMPI PUSH1 0x40 MLOAD PUSH32 0x8C379A000000000000000000000000000000000000000000000000000000000 DUP2 MSTORE PUSH1 0x4 ADD PUSH2 0x4F1 SWAP1 PUSH2 0x158E JUMP JUMPDEST PUSH1 0x40 MLOAD DUP1 SWAP2 SUB SWAP1 REVERT JUMPDEST DUP1 PUSH1 0x2 SLOAD PUSH2 0x508 SWAP2 SWAP1 PUSH2 0x1448 JUMP JUMPDEST CALLVALUE LT ISZERO PUSH2 0x54A JUMPI PUSH1 0x40 MLOAD PUSH32 0x8C379A000000000000000000000000000000000000000000000000000000000 DUP2 MSTORE PUSH1 0x4 ADD PUSH2 0x541 SWAP1 PUSH2 0x15FA JUMP JUMPDEST PUSH1 0x40 MLOAD DUP1 SWAP2 SUB SWAP1 REVERT JUMPDEST DUP1 PUSH1 0xA PUSH1 0x0 CALLER PUSH20 0xFFFFFFFFFFFFFFFFFFFFFFFFFFFFFFFFFFFFFFFF AND PUSH20 0xFFFFFFFFFFFFFFFFFFFFFFFFFFFFFFFFFFFFFFFF AND DUP2 MSTORE PUSH1 0x20 ADD SWAP1 DUP2 MSTORE PUSH1 0x20 ADD PUSH1 0x0 KECCAK256 PUSH1 0x0 DUP3 DUP3 SLOAD PUSH2 0x599 SWAP2 SWAP1 PUSH2 0x161A JUMP JUMPDEST SWAP3 POP POP DUP2 SWAP1 SSTORE POP PUSH1 0xB PUSH1 0x0 CALLER PUSH20 0xFFFFFFFFFFFFFFFFFFFFFFFFFFFFFFFFFFFFFFFF AND PUSH20 0xFFFFFFFFFFFFFFFFFFFFFFFFFFFFFFFFFFFFFFFF AND DUP2 MSTORE PUSH1 0x20 ADD SWAP1 DUP2 MSTORE PUSH1 0x20 ADD PUSH1 0x0 KECCAK256 PUSH1 0x0 SWAP1 SLOAD SWAP1 PUSH2 0x100 EXP SWAP1 DIV PUSH1 0xFF AND PUSH2 0x6AD JUMPI PUSH1 0x8 CALLER SWAP1 DUP1 PUSH1 0x1 DUP2 SLOAD ADD DUP1 DUP3 SSTORE DUP1 SWAP2 POP POP PUSH1 0x1 SWAP1 SUB SWAP1 PUSH1 0x0 MSTORE PUSH1 0x20 PUSH1 0x0 KECCAK256 ADD PUSH1 0x0 SWAP1 SWAP2 SWAP1 SWAP2 SWAP1 SWAP2 PUSH2 0x100 EXP DUP2 SLOAD DUP2 PUSH20 0xFFFFFFFFFFFFFFFFFFFFFFFFFFFFFFFFFFFFFFFF MUL NOT AND SWAP1 DUP4 PUSH20 0xFFFFFFFFFFFFFFFFFFFFFFFFFFFFFFFFFFFFFFFF AND MUL OR SWAP1 SSTORE POP PUSH1 0x1 PUSH1 0xB PUSH1 0x0 CALLER PUSH20 0xFFFFFFFFFFFFFFFFFFFFFFFFFFFFFFFFFFFFFFFF AND PUSH20 0xFFFFFFFFFFFFFFFFFFFFFFFFFFFFFFFFFFFFFFFF AND DUP2 MSTORE PUSH1 0x20 ADD SWAP1 DUP2 MSTORE PUSH1 0x20 ADD PUSH1 0x0 KECCAK256 PUSH1 0x0 PUSH2 0x100 EXP DUP2 SLOAD DUP2 PUSH1 0xFF MUL NOT AND SWAP1 DUP4 ISZERO ISZERO MUL OR SWAP1 SSTORE POP JUMPDEST DUP1 PUSH1 0x3 PUSH1 0x0 DUP3 DUP3 SLOAD PUSH2 0x6BF SWAP2 SWAP1 PUSH2 0x161A JUMP JUMPDEST SWAP3 POP POP DUP2 SWAP1 SSTORE POP CALLER PUSH20 0xFFFFFFFFFFFFFFFFFFFFFFFFFFFFFFFFFFFFFFFF AND PUSH32 0x668F5B446EB814FE35B3206F43F14BD8567BA04DDAF7A3EE56516929AB22CCB DUP3 PUSH1 0x40 MLOAD PUSH2 0x70C SWAP2 SWAP1 PUSH2 0x1166 JUMP JUMPDEST PUSH1 0x40 MLOAD DUP1 SWAP2 SUB SWAP1 LOG2 POP JUMP JUMPDEST PUSH1 0xA PUSH1 0x20 MSTORE DUP1 PUSH1 0x0 MSTORE PUSH1 0x40 PUSH1 0x0 KECCAK256 PUSH1 0x0 SWAP2 POP SWAP1 POP SLOAD DUP2 JUMP JUMPDEST PUSH1 0x0 PUSH1 0x5 SLOAD SWAP1 POP SWAP1 JUMP JUMPDEST PUSH1 0x1 PUSH1 0x0 SWAP1 SLOAD SWAP1 PUSH2 0x100 EXP SWAP1 DIV PUSH20 0xFFFFFFFFFFFFFFFFFFFFFFFFFFFFFFFFFFFFFFFF AND DUP2 JUMP JUMPDEST PUSH1 0x1 PUSH1 0x0 SWAP1 SLOAD SWAP1 PUSH2 0x100 EXP SWAP1 DIV PUSH20 0xFFFFFFFFFFFFFFFFFFFFFFFFFFFFFFFFFFFFFFFF AND PUSH20 0xFFFFFFFFFFFFFFFFFFFFFFFFFFFFFFFFFFFFFFFF AND CALLER PUSH20 0xFFFFFFFFFFFFFFFFFFFFFFFFFFFFFFFFFFFFFFFF AND EQ PUSH2 0x7EF JUMPI PUSH1 0x40 MLOAD PUSH32 0x8C379A000000000000000000000000000000000000000000000000000000000 DUP2 MSTORE PUSH1 0x4 ADD PUSH2 0x7E6 SWAP1 PUSH2 0x138D JUMP JUMPDEST PUSH1 0x40 MLOAD DUP1 SWAP2 SUB SWAP1 REVERT JUMPDEST PUSH32 0x0 PUSH20 0xFFFFFFFFFFFFFFFFFFFFFFFFFFFFFFFFFFFFFFFF AND PUSH4 0xA9059CBB PUSH1 0x1 PUSH1 0x0 SWAP1 SLOAD SWAP1 PUSH2 0x100 EXP SWAP1 DIV PUSH20 0xFFFFFFFFFFFFFFFFFFFFFFFFFFFFFFFFFFFFFFFF AND PUSH32 0x0 PUSH20 0xFFFFFFFFFFFFFFFFFFFFFFFFFFFFFFFFFFFFFFFF AND PUSH4 0x70A08231 ADDRESS PUSH1 0x40 MLOAD DUP3 PUSH4 0xFFFFFFFF AND PUSH1 0xE0 SHL DUP2 MSTORE PUSH1 0x4 ADD PUSH2 0x8A7 SWAP2 SWAP1 PUSH2 0x1279 JUMP JUMPDEST PUSH1 0x20 PUSH1 0x40 MLOAD DUP1 DUP4 SUB DUP2 DUP7 GAS STATICCALL ISZERO DUP1 ISZERO PUSH2 0x8C4 JUMPI RETURNDATASIZE PUSH1 0x0 DUP1 RETURNDATACOPY RETURNDATASIZE PUSH1 0x0 REVERT JUMPDEST POP POP POP POP PUSH1 0x40 MLOAD RETURNDATASIZE PUSH1 0x1F NOT PUSH1 0x1F DUP3 ADD AND DUP3 ADD DUP1 PUSH1 0x40 MSTORE POP DUP2 ADD SWAP1 PUSH2 0x8E8 SWAP2 SWAP1 PUSH2 0x1663 JUMP JUMPDEST PUSH1 0x40 MLOAD DUP4 PUSH4 0xFFFFFFFF AND PUSH1 0xE0 SHL DUP2 MSTORE PUSH1 0x4 ADD PUSH2 0x905 SWAP3 SWAP2 SWAP1 PUSH2 0x1690 JUMP JUMPDEST PUSH1 0x20 PUSH1 0x40 MLOAD DUP1 DUP4 SUB DUP2 PUSH1 0x0 DUP8 GAS CALL ISZERO DUP1 ISZERO PUSH2 0x924 JUMPI RETURNDATASIZE PUSH1 0x0 DUP1 RETURNDATACOPY RETURNDATASIZE PUSH1 0x0 REVERT JUMPDEST POP POP POP POP PUSH1 0x40 MLOAD RETURNDATASIZE PUSH1 0x1F NOT PUSH1 0x1F DUP3 ADD AND DUP3 ADD DUP1 PUSH1 0x40 MSTORE POP DUP2 ADD SWAP1 PUSH2 0x948 SWAP2 SWAP1 PUSH2 0x16F1 JUMP JUMPDEST POP JUMP JUMPDEST PUSH1 0x0 DUP1 PUSH20 0xFFFFFFFFFFFFFFFFFFFFFFFFFFFFFFFFFFFFFFFF AND PUSH1 0x4 PUSH1 0x0 SWAP1 SLOAD SWAP1 PUSH2 0x100 EXP SWAP1 DIV PUSH20 0xFFFFFFFFFFFFFFFFFFFFFFFFFFFFFFFFFFFFFFFF AND PUSH20 0xFFFFFFFFFFFFFFFFFFFFFFFFFFFFFFFFFFFFFFFF AND SUB PUSH2 0x9DD JUMPI PUSH1 0x40 MLOAD PUSH32 0x8C379A000000000000000000000000000000000000000000000000000000000 DUP2 MSTORE PUSH1 0x4 ADD PUSH2 0x9D4 SWAP1 PUSH2 0x13F9 JUMP JUMPDEST PUSH1 0x40 MLOAD DUP1 SWAP2 SUB SWAP1 REVERT JUMPDEST PUSH1 0x4 PUSH1 0x0 SWAP1 SLOAD SWAP1 PUSH2 0x100 EXP SWAP1 DIV PUSH20 0xFFFFFFFFFFFFFFFFFFFFFFFFFFFFFFFFFFFFFFFF AND SWAP1 POP SWAP1 JUMP JUMPDEST PUSH32 0x0 PUSH20 0xFFFFFFFFFFFFFFFFFFFFFFFFFFFFFFFFFFFFFFFF AND CALLER PUSH20 0xFFFFFFFFFFFFFFFFFFFFFFFFFFFFFFFFFFFFFFFF AND EQ PUSH2 0xA93 JUMPI PUSH1 0x40 MLOAD PUSH32 0x8C379A000000000000000000000000000000000000000000000000000000000 DUP2 MSTORE PUSH1 0x4 ADD PUSH2 0xA8A SWAP1 PUSH2 0x176A JUMP JUMPDEST PUSH1 0x40 MLOAD DUP1 SWAP2 SUB SWAP1 REVERT JUMPDEST PUSH2 0xA9D DUP3 DUP3 PUSH2 0xC7C JUMP JUMPDEST POP POP JUMP JUMPDEST PUSH1 0x1 PUSH1 0x0 SWAP1 SLOAD SWAP1 PUSH2 0x100 EXP SWAP1 DIV PUSH20 0xFFFFFFFFFFFFFFFFFFFFFFFFFFFFFFFFFFFFFFFF AND PUSH20 0xFFFFFFFFFFFFFFFFFFFFFFFFFFFFFFFFFFFFFFFF AND CALLER PUSH20 0xFFFFFFFFFFFFFFFFFFFFFFFFFFFFFFFFFFFFFFFF AND EQ PUSH2 0xB31 JUMPI PUSH1 0x40 MLOAD PUSH32 0x8C379A000000000000000000000000000000000000000000000000000000000 DUP2 MSTORE PUSH1 0x4 ADD PUSH2 0xB28 SWAP1 PUSH2 0x138D JUMP JUMPDEST PUSH1 0x40 MLOAD DUP1 SWAP2 SUB SWAP1 REVERT JUMPDEST PUSH1 0x0 PUSH20 0xFFFFFFFFFFFFFFFFFFFFFFFFFFFFFFFFFFFFFFFF AND PUSH1 0x4 PUSH1 0x0 SWAP1 SLOAD SWAP1 PUSH2 0x100 EXP SWAP1 DIV PUSH20 0xFFFFFFFFFFFFFFFFFFFFFFFFFFFFFFFFFFFFFFFF AND PUSH20 0xFFFFFFFFFFFFFFFFFFFFFFFFFFFFFFFFFFFFFFFF AND EQ PUSH2 0xBC2 JUMPI PUSH1 0x40 MLOAD PUSH32 0x8C379A000000000000000000000000000000000000000000000000000000000 DUP2 MSTORE PUSH1 0x4 ADD PUSH2 0xBB9 SWAP1 PUSH2 0x17D6 JUMP JUMPDEST PUSH1 0x40 MLOAD DUP1 SWAP2 SUB SWAP1 REVERT JUMPDEST PUSH1 0x0 PUSH1 0x3 SLOAD GT PUSH2 0xC07 JUMPI PUSH1 0x40 MLOAD PUSH32 0x8C379A000000000000000000000000000000000000000000000000000000000 DUP2 MSTORE PUSH1 0x4 ADD PUSH2 0xBFE SWAP1 PUSH2 0x1842 JUMP JUMPDEST PUSH1 0x40 MLOAD DUP1 SWAP2 SUB SWAP1 REVERT JUMPDEST PUSH2 0xC0F PUSH2 0xE08 JUMP JUMPDEST JUMP JUMPDEST PUSH1 0x3 SLOAD DUP2 JUMP JUMPDEST PUSH1 0x4 PUSH1 0x0 SWAP1 SLOAD SWAP1 PUSH2 0x100 EXP SWAP1 DIV PUSH20 0xFFFFFFFFFFFFFFFFFFFFFFFFFFFFFFFFFFFFFFFF AND DUP2 JUMP JUMPDEST PUSH1 0x8 DUP2 DUP2 SLOAD DUP2 LT PUSH2 0xC4D JUMPI PUSH1 0x0 DUP1 REVERT JUMPDEST SWAP1 PUSH1 0x0 MSTORE PUSH1 0x20 PUSH1 0x0 KECCAK256 ADD PUSH1 0x0 SWAP2 POP SLOAD SWAP1 PUSH2 0x100 EXP SWAP1 DIV PUSH20 0xFFFFFFFFFFFFFFFFFFFFFFFFFFFFFFFFFFFFFFFF AND DUP2 JUMP JUMPDEST PUSH1 0x9 SLOAD DUP3 EQ PUSH2 0xCC0 JUMPI PUSH1 0x40 MLOAD PUSH32 0x8C379A000000000000000000000000000000000000000000000000000000000 DUP2 MSTORE PUSH1 0x4 ADD PUSH2 0xCB7 SWAP1 PUSH2 0x18AE JUMP JUMPDEST PUSH1 0x40 MLOAD DUP1 SWAP2 SUB SWAP1 REVERT JUMPDEST PUSH1 0x0 DUP2 GT PUSH2 0xD03 JUMPI PUSH1 0x40 MLOAD PUSH32 0x8C379A000000000000000000000000000000000000000000000000000000000 DUP2 MSTORE PUSH1 0x4 ADD PUSH2 0xCFA SWAP1 PUSH2 0x191A JUMP JUMPDEST PUSH1 0x40 MLOAD DUP1 SWAP2 SUB SWAP1 REVERT JUMPDEST DUP1 PUSH1 0x5 DUP2 SWAP1 SSTORE POP PUSH1 0x0 PUSH1 0x8 DUP1 SLOAD SWAP1 POP DUP3 PUSH2 0xD1D SWAP2 SWAP1 PUSH2 0x1969 JUMP JUMPDEST SWAP1 POP PUSH1 0x8 DUP2 DUP2 SLOAD DUP2 LT PUSH2 0xD33 JUMPI PUSH2 0xD32 PUSH2 0x199A JUMP JUMPDEST JUMPDEST SWAP1 PUSH1 0x0 MSTORE PUSH1 0x20 PUSH1 0x0 KECCAK256 ADD PUSH1 0x0 SWAP1 SLOAD SWAP1 PUSH2 0x100 EXP SWAP1 DIV PUSH20 0xFFFFFFFFFFFFFFFFFFFFFFFFFFFFFFFFFFFFFFFF AND PUSH1 0x4 PUSH1 0x0 PUSH2 0x100 EXP DUP2 SLOAD DUP2 PUSH20 0xFFFFFFFFFFFFFFFFFFFFFFFFFFFFFFFFFFFFFFFF MUL NOT AND SWAP1 DUP4 PUSH20 0xFFFFFFFFFFFFFFFFFFFFFFFFFFFFFFFFFFFFFFFF AND MUL OR SWAP1 SSTORE POP PUSH1 0x4 PUSH1 0x0 SWAP1 SLOAD SWAP1 PUSH2 0x100 EXP SWAP1 DIV PUSH20 0xFFFFFFFFFFFFFFFFFFFFFFFFFFFFFFFFFFFFFFFF AND PUSH20 0xFFFFFFFFFFFFFFFFFFFFFFFFFFFFFFFFFFFFFFFF AND PUSH32 0xB1899E5911A12372A7FA329D3051F8358E8F5156F66BCF69707EA096419681B7 PUSH1 0x40 MLOAD PUSH1 0x40 MLOAD DUP1 SWAP2 SUB SWAP1 LOG2 POP POP POP JUMP JUMPDEST PUSH1 0x7 SLOAD PUSH32 0x0 PUSH20 0xFFFFFFFFFFFFFFFFFFFFFFFFFFFFFFFFFFFFFFFF AND PUSH4 0x70A08231 ADDRESS PUSH1 0x40 MLOAD DUP3 PUSH4 0xFFFFFFFF AND PUSH1 0xE0 SHL DUP2 MSTORE PUSH1 0x4 ADD PUSH2 0xE64 SWAP2 SWAP1 PUSH2 0x1279 JUMP JUMPDEST PUSH1 0x20 PUSH1 0x40 MLOAD DUP1 DUP4 SUB DUP2 DUP7 GAS STATICCALL ISZERO DUP1 ISZERO PUSH2 0xE81 JUMPI RETURNDATASIZE PUSH1 0x0 DUP1 RETURNDATACOPY RETURNDATASIZE PUSH1 0x0 REVERT JUMPDEST POP POP POP POP PUSH1 0x40 MLOAD RETURNDATASIZE PUSH1 0x1F NOT PUSH1 0x1F DUP3 ADD AND DUP3 ADD DUP1 PUSH1 0x40 MSTORE POP DUP2 ADD SWAP1 PUSH2 0xEA5 SWAP2 SWAP1 PUSH2 0x1663 JUMP JUMPDEST LT ISZERO PUSH2 0xEE6 JUMPI PUSH1 0x40 MLOAD PUSH32 0x8C379A000000000000000000000000000000000000000000000000000000000 DUP2 MSTORE PUSH1 0x4 ADD PUSH2 0xEDD SWAP1 PUSH2 0x1A15 JUMP JUMPDEST PUSH1 0x40 MLOAD DUP1 SWAP2 SUB SWAP1 REVERT JUMPDEST PUSH1 0x0 DUP1 SHL PUSH1 0x6 SLOAD SUB PUSH2 0xF2D JUMPI PUSH1 0x40 MLOAD PUSH32 0x8C379A000000000000000000000000000000000000000000000000000000000 DUP2 MSTORE PUSH1 0x4 ADD PUSH2 0xF24 SWAP1 PUSH2 0x1A81 JUMP JUMPDEST PUSH1 0x40 MLOAD DUP1 SWAP2 SUB SWAP1 REVERT JUMPDEST PUSH1 0x0 PUSH1 0x3 SLOAD GT PUSH2 0xF72 JUMPI PUSH1 0x40 MLOAD PUSH32 0x8C379A000000000000000000000000000000000000000000000000000000000 DUP2 MSTORE PUSH1 0x4 ADD PUSH2 0xF69 SWAP1 PUSH2 0x1842 JUMP JUMPDEST PUSH1 0x40 MLOAD DUP1 SWAP2 SUB SWAP1 REVERT JUMPDEST PUSH1 0x0 PUSH2 0xF82 PUSH1 0x6 SLOAD PUSH1 0x7 SLOAD PUSH2 0xF8E JUMP JUMPDEST SWAP1 POP DUP1 PUSH1 0x9 DUP2 SWAP1 SSTORE POP POP JUMP JUMPDEST PUSH1 0x0 PUSH32 0x0 PUSH20 0xFFFFFFFFFFFFFFFFFFFFFFFFFFFFFFFFFFFFFFFF AND PUSH4 0x4000AEA0 PUSH32 0x0 DUP5 DUP7 PUSH1 0x0 PUSH1 0x40 MLOAD PUSH1 0x20 ADD PUSH2 0x1002 SWAP3 SWAP2 SWAP1 PUSH2 0x1AB0 JUMP JUMPDEST PUSH1 0x40 MLOAD PUSH1 0x20 DUP2 DUP4 SUB SUB DUP2 MSTORE SWAP1 PUSH1 0x40 MSTORE PUSH1 0x40 MLOAD DUP5 PUSH4 0xFFFFFFFF AND PUSH1 0xE0 SHL DUP2 MSTORE PUSH1 0x4 ADD PUSH2 0x102F SWAP4 SWAP3 SWAP2 SWAP1 PUSH2 0x1B69 JUMP JUMPDEST PUSH1 0x20 PUSH1 0x40 MLOAD DUP1 DUP4 SUB DUP2 PUSH1 0x0 DUP8 GAS CALL ISZERO DUP1 ISZERO PUSH2 0x104E JUMPI RETURNDATASIZE PUSH1 0x0 DUP1 RETURNDATACOPY RETURNDATASIZE PUSH1 0x0 REVERT JUMPDEST POP POP POP POP PUSH1 0x40 MLOAD RETURNDATASIZE PUSH1 0x1F NOT PUSH1 0x1F DUP3 ADD AND DUP3 ADD DUP1 PUSH1 0x40 MSTORE POP DUP2 ADD SWAP1 PUSH2 0x1072 SWAP2 SWAP1 PUSH2 0x16F1 JUMP JUMPDEST POP PUSH1 0x0 PUSH2 0x1094 DUP5 PUSH1 0x0 ADDRESS PUSH1 0x0 DUP1 DUP10 DUP2 MSTORE PUSH1 0x20 ADD SWAP1 DUP2 MSTORE PUSH1 0x20 ADD PUSH1 0x0 KECCAK256 SLOAD PUSH2 0x10DE JUMP JUMPDEST SWAP1 POP PUSH1 0x1 PUSH1 0x0 DUP1 DUP7 DUP2 MSTORE PUSH1 0x20 ADD SWAP1 DUP2 MSTORE PUSH1 0x20 ADD PUSH1 0x0 KECCAK256 SLOAD PUSH2 0x10B5 SWAP2 SWAP1 PUSH2 0x161A JUMP JUMPDEST PUSH1 0x0 DUP1 DUP7 DUP2 MSTORE PUSH1 0x20 ADD SWAP1 DUP2 MSTORE PUSH1 0x20 ADD PUSH1 0x0 KECCAK256 DUP2 SWAP1 SSTORE POP PUSH2 0x10D5 DUP5 DUP3 PUSH2 0x111A JUMP JUMPDEST SWAP2 POP POP SWAP3 SWAP2 POP POP JUMP JUMPDEST PUSH1 0x0 DUP5 DUP5 DUP5 DUP5 PUSH1 0x40 MLOAD PUSH1 0x20 ADD PUSH2 0x10F7 SWAP5 SWAP4 SWAP3 SWAP2 SWAP1 PUSH2 0x1BA7 JUMP JUMPDEST PUSH1 0x40 MLOAD PUSH1 0x20 DUP2 DUP4 SUB SUB DUP2 MSTORE SWAP1 PUSH1 0x40 MSTORE DUP1 MLOAD SWAP1 PUSH1 0x20 ADD KECCAK256 PUSH1 0x0 SHR SWAP1 POP SWAP5 SWAP4 POP POP POP POP JUMP JUMPDEST PUSH1 0x0 DUP3 DUP3 PUSH1 0x40 MLOAD PUSH1 0x20 ADD PUSH2 0x112F SWAP3 SWAP2 SWAP1 PUSH2 0x1C2E JUMP JUMPDEST PUSH1 0x40 MLOAD PUSH1 0x20 DUP2 DUP4 SUB SUB DUP2 MSTORE SWAP1 PUSH1 0x40 MSTORE DUP1 MLOAD SWAP1 PUSH1 0x20 ADD KECCAK256 SWAP1 POP SWAP3 SWAP2 POP POP JUMP JUMPDEST PUSH1 0x0 DUP2 SWAP1 POP SWAP2 SWAP1 POP JUMP JUMPDEST PUSH2 0x1160 DUP2 PUSH2 0x114D JUMP JUMPDEST DUP3 MSTORE POP POP JUMP JUMPDEST PUSH1 0x0 PUSH1 0x20 DUP3 ADD SWAP1 POP PUSH2 0x117B PUSH1 0x0 DUP4 ADD DUP5 PUSH2 0x1157 JUMP JUMPDEST SWAP3 SWAP2 POP POP JUMP JUMPDEST PUSH1 0x0 DUP1 REVERT JUMPDEST PUSH2 0x118F DUP2 PUSH2 0x114D JUMP JUMPDEST DUP2 EQ PUSH2 0x119A JUMPI PUSH1 0x0 DUP1 REVERT JUMPDEST POP JUMP JUMPDEST PUSH1 0x0 DUP2 CALLDATALOAD SWAP1 POP PUSH2 0x11AC DUP2 PUSH2 0x1186 JUMP JUMPDEST SWAP3 SWAP2 POP POP JUMP JUMPDEST PUSH1 0x0 PUSH1 0x20 DUP3 DUP5 SUB SLT ISZERO PUSH2 0x11C8 JUMPI PUSH2 0x11C7 PUSH2 0x1181 JUMP JUMPDEST JUMPDEST PUSH1 0x0 PUSH2 0x11D6 DUP5 DUP3 DUP6 ADD PUSH2 0x119D JUMP JUMPDEST SWAP2 POP POP SWAP3 SWAP2 POP POP JUMP JUMPDEST PUSH1 0x0 PUSH20 0xFFFFFFFFFFFFFFFFFFFFFFFFFFFFFFFFFFFFFFFF DUP3 AND SWAP1 POP SWAP2 SWAP1 POP JUMP JUMPDEST PUSH1 0x0 PUSH2 0x120A DUP3 PUSH2 0x11DF JUMP JUMPDEST SWAP1 POP SWAP2 SWAP1 POP JUMP JUMPDEST PUSH2 0x121A DUP2 PUSH2 0x11FF JUMP JUMPDEST DUP2 EQ PUSH2 0x1225 JUMPI PUSH1 0x0 DUP1 REVERT JUMPDEST POP JUMP JUMPDEST PUSH1 0x0 DUP2 CALLDATALOAD SWAP1 POP PUSH2 0x1237 DUP2 PUSH2 0x1211 JUMP JUMPDEST SWAP3 SWAP2 POP POP JUMP JUMPDEST PUSH1 0x0 PUSH1 0x20 DUP3 DUP5 SUB SLT ISZERO PUSH2 0x1253 JUMPI PUSH2 0x1252 PUSH2 0x1181 JUMP JUMPDEST JUMPDEST PUSH1 0x0 PUSH2 0x1261 DUP5 DUP3 DUP6 ADD PUSH2 0x1228 JUMP JUMPDEST SWAP2 POP POP SWAP3 SWAP2 POP POP JUMP JUMPDEST PUSH2 0x1273 DUP2 PUSH2 0x11FF JUMP JUMPDEST DUP3 MSTORE POP POP JUMP JUMPDEST PUSH1 0x0 PUSH1 0x20 DUP3 ADD SWAP1 POP PUSH2 0x128E PUSH1 0x0 DUP4 ADD DUP5 PUSH2 0x126A JUMP JUMPDEST SWAP3 SWAP2 POP POP JUMP JUMPDEST PUSH1 0x0 DUP2 SWAP1 POP SWAP2 SWAP1 POP JUMP JUMPDEST PUSH2 0x12A7 DUP2 PUSH2 0x1294 JUMP JUMPDEST DUP2 EQ PUSH2 0x12B2 JUMPI PUSH1 0x0 DUP1 REVERT JUMPDEST POP JUMP JUMPDEST PUSH1 0x0 DUP2 CALLDATALOAD SWAP1 POP PUSH2 0x12C4 DUP2 PUSH2 0x129E JUMP JUMPDEST SWAP3 SWAP2 POP POP JUMP JUMPDEST PUSH1 0x0 DUP1 PUSH1 0x40 DUP4 DUP6 SUB SLT ISZERO PUSH2 0x12E1 JUMPI PUSH2 0x12E0 PUSH2 0x1181 JUMP JUMPDEST JUMPDEST PUSH1 0x0 PUSH2 0x12EF DUP6 DUP3 DUP7 ADD PUSH2 0x12B5 JUMP JUMPDEST SWAP3 POP POP PUSH1 0x20 PUSH2 0x1300 DUP6 DUP3 DUP7 ADD PUSH2 0x119D JUMP JUMPDEST SWAP2 POP POP SWAP3 POP SWAP3 SWAP1 POP JUMP JUMPDEST PUSH1 0x0 DUP3 DUP3 MSTORE PUSH1 0x20 DUP3 ADD SWAP1 POP SWAP3 SWAP2 POP POP JUMP JUMPDEST PUSH32 0x4F6E6C7920746865206F776E65722063616E2063616C6C20746869732066756E PUSH1 0x0 DUP3 ADD MSTORE PUSH32 0x6374696F6E000000000000000000000000000000000000000000000000000000 PUSH1 0x20 DUP3 ADD MSTORE POP JUMP JUMPDEST PUSH1 0x0 PUSH2 0x1377 PUSH1 0x25 DUP4 PUSH2 0x130A JUMP JUMPDEST SWAP2 POP PUSH2 0x1382 DUP3 PUSH2 0x131B JUMP JUMPDEST PUSH1 0x40 DUP3 ADD SWAP1 POP SWAP2 SWAP1 POP JUMP JUMPDEST PUSH1 0x0 PUSH1 0x20 DUP3 ADD SWAP1 POP DUP2 DUP2 SUB PUSH1 0x0 DUP4 ADD MSTORE PUSH2 0x13A6 DUP2 PUSH2 0x136A JUMP JUMPDEST SWAP1 POP SWAP2 SWAP1 POP JUMP JUMPDEST PUSH32 0x57696E6E657220686173206E6F74206265656E20647261776E20796574000000 PUSH1 0x0 DUP3 ADD MSTORE POP JUMP JUMPDEST PUSH1 0x0 PUSH2 0x13E3 PUSH1 0x1D DUP4 PUSH2 0x130A JUMP JUMPDEST SWAP2 POP PUSH2 0x13EE DUP3 PUSH2 0x13AD JUMP JUMPDEST PUSH1 0x20 DUP3 ADD SWAP1 POP SWAP2 SWAP1 POP JUMP JUMPDEST PUSH1 0x0 PUSH1 0x20 DUP3 ADD SWAP1 POP DUP2 DUP2 SUB PUSH1 0x0 DUP4 ADD MSTORE PUSH2 0x1412 DUP2 PUSH2 0x13D6 JUMP JUMPDEST SWAP1 POP SWAP2 SWAP1 POP JUMP JUMPDEST PUSH32 0x4E487B7100000000000000000000000000000000000000000000000000000000 PUSH1 0x0 MSTORE PUSH1 0x11 PUSH1 0x4 MSTORE PUSH1 0x24 PUSH1 0x0 REVERT JUMPDEST PUSH1 0x0 PUSH2 0x1453 DUP3 PUSH2 0x114D JUMP JUMPDEST SWAP2 POP PUSH2 0x145E DUP4 PUSH2 0x114D JUMP JUMPDEST SWAP3 POP DUP3 DUP3 MUL PUSH2 0x146C DUP2 PUSH2 0x114D JUMP JUMPDEST SWAP2 POP DUP3 DUP3 DIV DUP5 EQ DUP4 ISZERO OR PUSH2 0x1483 JUMPI PUSH2 0x1482 PUSH2 0x1419 JUMP JUMPDEST JUMPDEST POP SWAP3 SWAP2 POP POP JUMP JUMPDEST PUSH32 0x4E6F7420656E6F75676820457468657220746F2070617920746865207072697A PUSH1 0x0 DUP3 ADD MSTORE PUSH32 0x6500000000000000000000000000000000000000000000000000000000000000 PUSH1 0x20 DUP3 ADD MSTORE POP JUMP JUMPDEST PUSH1 0x0 PUSH2 0x14E6 PUSH1 0x21 DUP4 PUSH2 0x130A JUMP JUMPDEST SWAP2 POP PUSH2 0x14F1 DUP3 PUSH2 0x148A JUMP JUMPDEST PUSH1 0x40 DUP3 ADD SWAP1 POP SWAP2 SWAP1 POP JUMP JUMPDEST PUSH1 0x0 PUSH1 0x20 DUP3 ADD SWAP1 POP DUP2 DUP2 SUB PUSH1 0x0 DUP4 ADD MSTORE PUSH2 0x1515 DUP2 PUSH2 0x14D9 JUMP JUMPDEST SWAP1 POP SWAP2 SWAP1 POP JUMP JUMPDEST PUSH32 0x4E756D626572206F66207469636B6574732073686F756C642062652067726561 PUSH1 0x0 DUP3 ADD MSTORE PUSH32 0x746572207468616E203000000000000000000000000000000000000000000000 PUSH1 0x20 DUP3 ADD MSTORE POP JUMP JUMPDEST PUSH1 0x0 PUSH2 0x1578 PUSH1 0x2A DUP4 PUSH2 0x130A JUMP JUMPDEST SWAP2 POP PUSH2 0x1583 DUP3 PUSH2 0x151C JUMP JUMPDEST PUSH1 0x40 DUP3 ADD SWAP1 POP SWAP2 SWAP1 POP JUMP JUMPDEST PUSH1 0x0 PUSH1 0x20 DUP3 ADD SWAP1 POP DUP2 DUP2 SUB PUSH1 0x0 DUP4 ADD MSTORE PUSH2 0x15A7 DUP2 PUSH2 0x156B JUMP JUMPDEST SWAP1 POP SWAP2 SWAP1 POP JUMP JUMPDEST PUSH32 0x4E6F7420656E6F7567682065746865722073656E740000000000000000000000 PUSH1 0x0 DUP3 ADD MSTORE POP JUMP JUMPDEST PUSH1 0x0 PUSH2 0x15E4 PUSH1 0x15 DUP4 PUSH2 0x130A JUMP JUMPDEST SWAP2 POP PUSH2 0x15EF DUP3 PUSH2 0x15AE JUMP JUMPDEST PUSH1 0x20 DUP3 ADD SWAP1 POP SWAP2 SWAP1 POP JUMP JUMPDEST PUSH1 0x0 PUSH1 0x20 DUP3 ADD SWAP1 POP DUP2 DUP2 SUB PUSH1 0x0 DUP4 ADD MSTORE PUSH2 0x1613 DUP2 PUSH2 0x15D7 JUMP JUMPDEST SWAP1 POP SWAP2 SWAP1 POP JUMP JUMPDEST PUSH1 0x0 PUSH2 0x1625 DUP3 PUSH2 0x114D JUMP JUMPDEST SWAP2 POP PUSH2 0x1630 DUP4 PUSH2 0x114D JUMP JUMPDEST SWAP3 POP DUP3 DUP3 ADD SWAP1 POP DUP1 DUP3 GT ISZERO PUSH2 0x1648 JUMPI PUSH2 0x1647 PUSH2 0x1419 JUMP JUMPDEST JUMPDEST SWAP3 SWAP2 POP POP JUMP JUMPDEST PUSH1 0x0 DUP2 MLOAD SWAP1 POP PUSH2 0x165D DUP2 PUSH2 0x1186 JUMP JUMPDEST SWAP3 SWAP2 POP POP JUMP JUMPDEST PUSH1 0x0 PUSH1 0x20 DUP3 DUP5 SUB SLT ISZERO PUSH2 0x1679 JUMPI PUSH2 0x1678 PUSH2 0x1181 JUMP JUMPDEST JUMPDEST PUSH1 0x0 PUSH2 0x1687 DUP5 DUP3 DUP6 ADD PUSH2 0x164E JUMP JUMPDEST SWAP2 POP POP SWAP3 SWAP2 POP POP JUMP JUMPDEST PUSH1 0x0 PUSH1 0x40 DUP3 ADD SWAP1 POP PUSH2 0x16A5 PUSH1 0x0 DUP4 ADD DUP6 PUSH2 0x126A JUMP JUMPDEST PUSH2 0x16B2 PUSH1 0x20 DUP4 ADD DUP5 PUSH2 0x1157 JUMP JUMPDEST SWAP4 SWAP3 POP POP POP JUMP JUMPDEST PUSH1 0x0 DUP2 ISZERO ISZERO SWAP1 POP SWAP2 SWAP1 POP JUMP JUMPDEST PUSH2 0x16CE DUP2 PUSH2 0x16B9 JUMP JUMPDEST DUP2 EQ PUSH2 0x16D9 JUMPI PUSH1 0x0 DUP1 REVERT JUMPDEST POP JUMP JUMPDEST PUSH1 0x0 DUP2 MLOAD SWAP1 POP PUSH2 0x16EB DUP2 PUSH2 0x16C5 JUMP JUMPDEST SWAP3 SWAP2 POP POP JUMP JUMPDEST PUSH1 0x0 PUSH1 0x20 DUP3 DUP5 SUB SLT ISZERO PUSH2 0x1707 JUMPI PUSH2 0x1706 PUSH2 0x1181 JUMP JUMPDEST JUMPDEST PUSH1 0x0 PUSH2 0x1715 DUP5 DUP3 DUP6 ADD PUSH2 0x16DC JUMP JUMPDEST SWAP2 POP POP SWAP3 SWAP2 POP POP JUMP JUMPDEST PUSH32 0x4F6E6C7920565246436F6F7264696E61746F722063616E2066756C66696C6C00 PUSH1 0x0 DUP3 ADD MSTORE POP JUMP JUMPDEST PUSH1 0x0 PUSH2 0x1754 PUSH1 0x1F DUP4 PUSH2 0x130A JUMP JUMPDEST SWAP2 POP PUSH2 0x175F DUP3 PUSH2 0x171E JUMP JUMPDEST PUSH1 0x20 DUP3 ADD SWAP1 POP SWAP2 SWAP1 POP JUMP JUMPDEST PUSH1 0x0 PUSH1 0x20 DUP3 ADD SWAP1 POP DUP2 DUP2 SUB PUSH1 0x0 DUP4 ADD MSTORE PUSH2 0x1783 DUP2 PUSH2 0x1747 JUMP JUMPDEST SWAP1 POP SWAP2 SWAP1 POP JUMP JUMPDEST PUSH32 0x57696E6E657220616C72656164792073656C6563746564000000000000000000 PUSH1 0x0 DUP3 ADD MSTORE POP JUMP JUMPDEST PUSH1 0x0 PUSH2 0x17C0 PUSH1 0x17 DUP4 PUSH2 0x130A JUMP JUMPDEST SWAP2 POP PUSH2 0x17CB DUP3 PUSH2 0x178A JUMP JUMPDEST PUSH1 0x20 DUP3 ADD SWAP1 POP SWAP2 SWAP1 POP JUMP JUMPDEST PUSH1 0x0 PUSH1 0x20 DUP3 ADD SWAP1 POP DUP2 DUP2 SUB PUSH1 0x0 DUP4 ADD MSTORE PUSH2 0x17EF DUP2 PUSH2 0x17B3 JUMP JUMPDEST SWAP1 POP SWAP2 SWAP1 POP JUMP JUMPDEST PUSH32 0x4E6F207469636B65747320707572636861736564207965740000000000000000 PUSH1 0x0 DUP3 ADD MSTORE POP JUMP JUMPDEST PUSH1 0x0 PUSH2 0x182C PUSH1 0x18 DUP4 PUSH2 0x130A JUMP JUMPDEST SWAP2 POP PUSH2 0x1837 DUP3 PUSH2 0x17F6 JUMP JUMPDEST PUSH1 0x20 DUP3 ADD SWAP1 POP SWAP2 SWAP1 POP JUMP JUMPDEST PUSH1 0x0 PUSH1 0x20 DUP3 ADD SWAP1 POP DUP2 DUP2 SUB PUSH1 0x0 DUP4 ADD MSTORE PUSH2 0x185B DUP2 PUSH2 0x181F JUMP JUMPDEST SWAP1 POP SWAP2 SWAP1 POP JUMP JUMPDEST PUSH32 0x57726F6E67207265717565737449640000000000000000000000000000000000 PUSH1 0x0 DUP3 ADD MSTORE POP JUMP JUMPDEST PUSH1 0x0 PUSH2 0x1898 PUSH1 0xF DUP4 PUSH2 0x130A JUMP JUMPDEST SWAP2 POP PUSH2 0x18A3 DUP3 PUSH2 0x1862 JUMP JUMPDEST PUSH1 0x20 DUP3 ADD SWAP1 POP SWAP2 SWAP1 POP JUMP JUMPDEST PUSH1 0x0 PUSH1 0x20 DUP3 ADD SWAP1 POP DUP2 DUP2 SUB PUSH1 0x0 DUP4 ADD MSTORE PUSH2 0x18C7 DUP2 PUSH2 0x188B JUMP JUMPDEST SWAP1 POP SWAP2 SWAP1 POP JUMP JUMPDEST PUSH32 0x52616E646F6D206E756D626572206E6F742067656E6572617465640000000000 PUSH1 0x0 DUP3 ADD MSTORE POP JUMP JUMPDEST PUSH1 0x0 PUSH2 0x1904 PUSH1 0x1B DUP4 PUSH2 0x130A JUMP JUMPDEST SWAP2 POP PUSH2 0x190F DUP3 PUSH2 0x18CE JUMP JUMPDEST PUSH1 0x20 DUP3 ADD SWAP1 POP SWAP2 SWAP1 POP JUMP JUMPDEST PUSH1 0x0 PUSH1 0x20 DUP3 ADD SWAP1 POP DUP2 DUP2 SUB PUSH1 0x0 DUP4 ADD MSTORE PUSH2 0x1933 DUP2 PUSH2 0x18F7 JUMP JUMPDEST SWAP1 POP SWAP2 SWAP1 POP JUMP JUMPDEST PUSH32 0x4E487B7100000000000000000000000000000000000000000000000000000000 PUSH1 0x0 MSTORE PUSH1 0x12 PUSH1 0x4 MSTORE PUSH1 0x24 PUSH1 0x0 REVERT JUMPDEST PUSH1 0x0 PUSH2 0x1974 DUP3 PUSH2 0x114D JUMP JUMPDEST SWAP2 POP PUSH2 0x197F DUP4 PUSH2 0x114D JUMP JUMPDEST SWAP3 POP DUP3 PUSH2 0x198F JUMPI PUSH2 0x198E PUSH2 0x193A JUMP JUMPDEST JUMPDEST DUP3 DUP3 MOD SWAP1 POP SWAP3 SWAP2 POP POP JUMP JUMPDEST PUSH32 0x4E487B7100000000000000000000000000000000000000000000000000000000 PUSH1 0x0 MSTORE PUSH1 0x32 PUSH1 0x4 MSTORE PUSH1 0x24 PUSH1 0x0 REVERT JUMPDEST PUSH32 0x4E6F7420656E6F756768204C494E4B20746F2070617920666565000000000000 PUSH1 0x0 DUP3 ADD MSTORE POP JUMP JUMPDEST PUSH1 0x0 PUSH2 0x19FF PUSH1 0x1A DUP4 PUSH2 0x130A JUMP JUMPDEST SWAP2 POP PUSH2 0x1A0A DUP3 PUSH2 0x19C9 JUMP JUMPDEST PUSH1 0x20 DUP3 ADD SWAP1 POP SWAP2 SWAP1 POP JUMP JUMPDEST PUSH1 0x0 PUSH1 0x20 DUP3 ADD SWAP1 POP DUP2 DUP2 SUB PUSH1 0x0 DUP4 ADD MSTORE PUSH2 0x1A2E DUP2 PUSH2 0x19F2 JUMP JUMPDEST SWAP1 POP SWAP2 SWAP1 POP JUMP JUMPDEST PUSH32 0x4D75737420686176652076616C6964206B657948617368000000000000000000 PUSH1 0x0 DUP3 ADD MSTORE POP JUMP JUMPDEST PUSH1 0x0 PUSH2 0x1A6B PUSH1 0x17 DUP4 PUSH2 0x130A JUMP JUMPDEST SWAP2 POP PUSH2 0x1A76 DUP3 PUSH2 0x1A35 JUMP JUMPDEST PUSH1 0x20 DUP3 ADD SWAP1 POP SWAP2 SWAP1 POP JUMP JUMPDEST PUSH1 0x0 PUSH1 0x20 DUP3 ADD SWAP1 POP DUP2 DUP2 SUB PUSH1 0x0 DUP4 ADD MSTORE PUSH2 0x1A9A DUP2 PUSH2 0x1A5E JUMP JUMPDEST SWAP1 POP SWAP2 SWAP1 POP JUMP JUMPDEST PUSH2 0x1AAA DUP2 PUSH2 0x1294 JUMP JUMPDEST DUP3 MSTORE POP POP JUMP JUMPDEST PUSH1 0x0 PUSH1 0x40 DUP3 ADD SWAP1 POP PUSH2 0x1AC5 PUSH1 0x0 DUP4 ADD DUP6 PUSH2 0x1AA1 JUMP JUMPDEST PUSH2 0x1AD2 PUSH1 0x20 DUP4 ADD DUP5 PUSH2 0x1157 JUMP JUMPDEST SWAP4 SWAP3 POP POP POP JUMP JUMPDEST PUSH1 0x0 DUP2 MLOAD SWAP1 POP SWAP2 SWAP1 POP JUMP JUMPDEST PUSH1 0x0 DUP3 DUP3 MSTORE PUSH1 0x20 DUP3 ADD SWAP1 POP SWAP3 SWAP2 POP POP JUMP JUMPDEST PUSH1 0x0 JUMPDEST DUP4 DUP2 LT ISZERO PUSH2 0x1B13 JUMPI DUP1 DUP3 ADD MLOAD DUP2 DUP5 ADD MSTORE PUSH1 0x20 DUP2 ADD SWAP1 POP PUSH2 0x1AF8 JUMP JUMPDEST PUSH1 0x0 DUP5 DUP5 ADD MSTORE POP POP POP POP JUMP JUMPDEST PUSH1 0x0 PUSH1 0x1F NOT PUSH1 0x1F DUP4 ADD AND SWAP1 POP SWAP2 SWAP1 POP JUMP JUMPDEST PUSH1 0x0 PUSH2 0x1B3B DUP3 PUSH2 0x1AD9 JUMP JUMPDEST PUSH2 0x1B45 DUP2 DUP6 PUSH2 0x1AE4 JUMP JUMPDEST SWAP4 POP PUSH2 0x1B55 DUP2 DUP6 PUSH1 0x20 DUP7 ADD PUSH2 0x1AF5 JUMP JUMPDEST PUSH2 0x1B5E DUP2 PUSH2 0x1B1F JUMP JUMPDEST DUP5 ADD SWAP2 POP POP SWAP3 SWAP2 POP POP JUMP JUMPDEST PUSH1 0x0 PUSH1 0x60 DUP3 ADD SWAP1 POP PUSH2 0x1B7E PUSH1 0x0 DUP4 ADD DUP7 PUSH2 0x126A JUMP JUMPDEST PUSH2 0x1B8B PUSH1 0x20 DUP4 ADD DUP6 PUSH2 0x1157 JUMP JUMPDEST DUP2 DUP2 SUB PUSH1 0x40 DUP4 ADD MSTORE PUSH2 0x1B9D DUP2 DUP5 PUSH2 0x1B30 JUMP JUMPDEST SWAP1 POP SWAP5 SWAP4 POP POP POP POP JUMP JUMPDEST PUSH1 0x0 PUSH1 0x80 DUP3 ADD SWAP1 POP PUSH2 0x1BBC PUSH1 0x0 DUP4 ADD DUP8 PUSH2 0x1AA1 JUMP JUMPDEST PUSH2 0x1BC9 PUSH1 0x20 DUP4 ADD DUP7 PUSH2 0x1157 JUMP JUMPDEST PUSH2 0x1BD6 PUSH1 0x40 DUP4 ADD DUP6 PUSH2 0x126A JUMP JUMPDEST PUSH2 0x1BE3 PUSH1 0x60 DUP4 ADD DUP5 PUSH2 0x1157 JUMP JUMPDEST SWAP6 SWAP5 POP POP POP POP POP JUMP JUMPDEST PUSH1 0x0 DUP2 SWAP1 POP SWAP2 SWAP1 POP JUMP JUMPDEST PUSH2 0x1C07 PUSH2 0x1C02 DUP3 PUSH2 0x1294 JUMP JUMPDEST PUSH2 0x1BEC JUMP JUMPDEST DUP3 MSTORE POP POP JUMP JUMPDEST PUSH1 0x0 DUP2 SWAP1 POP SWAP2 SWAP1 POP JUMP JUMPDEST PUSH2 0x1C28 PUSH2 0x1C23 DUP3 PUSH2 0x114D JUMP JUMPDEST PUSH2 0x1C0D JUMP JUMPDEST DUP3 MSTORE POP POP JUMP JUMPDEST PUSH1 0x0 PUSH2 0x1C3A DUP3 DUP6 PUSH2 0x1BF6 JUMP JUMPDEST PUSH1 0x20 DUP3 ADD SWAP2 POP PUSH2 0x1C4A DUP3 DUP5 PUSH2 0x1C17 JUMP JUMPDEST PUSH1 0x20 DUP3 ADD SWAP2 POP DUP2 SWAP1 POP SWAP4 SWAP3 POP POP POP JUMP INVALID LOG2 PUSH5 0x6970667358 0x22 SLT KECCAK256 SWAP5 0xDF SGT 0xC9 PUSH15 0x348592DD4F619FD7106D58ECC166F9 PUSH31 0x353FB6EB74D83780EBBA3364736F6C63430008130033000000000000000000 "
				},
				"gasEstimates": {
					"creation": {
						"codeDepositCost": "1462400",
						"executionCost": "infinite",
						"totalCost": "infinite"
					},
					"external": {
						"buyTicket(uint256)": "infinite",
						"drawWinner()": "infinite",
						"getRandomResult()": "2526",
						"getWinner()": "4738",
						"owner()": "2625",
						"players(uint256)": "5044",
						"rawFulfillRandomness(bytes32,uint256)": "infinite",
						"ticketCount()": "2473",
						"ticketPrice()": "2430",
						"tickets(address)": "2881",
						"winner()": "2580",
						"withdrawLink()": "infinite",
						"withdrawPrize()": "infinite"
					},
					"internal": {
						"fulfillRandomness(bytes32,uint256)": "infinite",
						"getRandomNumber()": "infinite"
					}
				},
				"methodIdentifiers": {
					"buyTicket(uint256)": "67dd74ca",
					"drawWinner()": "b2185bb1",
					"getRandomResult()": "7390c786",
					"getWinner()": "8e7ea5b2",
					"owner()": "8da5cb5b",
					"players(uint256)": "f71d96cb",
					"rawFulfillRandomness(bytes32,uint256)": "94985ddd",
					"ticketCount()": "cfbd900f",
					"ticketPrice()": "1209b1f6",
					"tickets(address)": "6dcbf2a3",
					"winner()": "dfbf53ae",
					"withdrawLink()": "8dc654a2",
					"withdrawPrize()": "48d37a58"
				}
			},
			"storageLayout": {
				"storage": [
					{
						"astId": 79,
						"contract": "SimpleLottery.sol:SimpleLottery",
						"label": "nonces",
						"offset": 0,
						"slot": "0",
						"type": "t_mapping(t_bytes32,t_uint256)"
					},
					{
						"astId": 273,
						"contract": "SimpleLottery.sol:SimpleLottery",
						"label": "owner",
						"offset": 0,
						"slot": "1",
						"type": "t_address"
					},
					{
						"astId": 275,
						"contract": "SimpleLottery.sol:SimpleLottery",
						"label": "ticketPrice",
						"offset": 0,
						"slot": "2",
						"type": "t_uint256"
					},
					{
						"astId": 277,
						"contract": "SimpleLottery.sol:SimpleLottery",
						"label": "ticketCount",
						"offset": 0,
						"slot": "3",
						"type": "t_uint256"
					},
					{
						"astId": 279,
						"contract": "SimpleLottery.sol:SimpleLottery",
						"label": "winner",
						"offset": 0,
						"slot": "4",
						"type": "t_address"
					},
					{
						"astId": 281,
						"contract": "SimpleLottery.sol:SimpleLottery",
						"label": "randomResult",
						"offset": 0,
						"slot": "5",
						"type": "t_uint256"
					},
					{
						"astId": 283,
						"contract": "SimpleLottery.sol:SimpleLottery",
						"label": "keyHash",
						"offset": 0,
						"slot": "6",
						"type": "t_bytes32"
					},
					{
						"astId": 285,
						"contract": "SimpleLottery.sol:SimpleLottery",
						"label": "fee",
						"offset": 0,
						"slot": "7",
						"type": "t_uint256"
					},
					{
						"astId": 288,
						"contract": "SimpleLottery.sol:SimpleLottery",
						"label": "players",
						"offset": 0,
						"slot": "8",
						"type": "t_array(t_address)dyn_storage"
					},
					{
						"astId": 290,
						"contract": "SimpleLottery.sol:SimpleLottery",
						"label": "requestRandomnessId",
						"offset": 0,
						"slot": "9",
						"type": "t_bytes32"
					},
					{
						"astId": 294,
						"contract": "SimpleLottery.sol:SimpleLottery",
						"label": "tickets",
						"offset": 0,
						"slot": "10",
						"type": "t_mapping(t_address,t_uint256)"
					},
					{
						"astId": 298,
						"contract": "SimpleLottery.sol:SimpleLottery",
						"label": "uniquePlayers",
						"offset": 0,
						"slot": "11",
						"type": "t_mapping(t_address,t_bool)"
					}
				],
				"types": {
					"t_address": {
						"encoding": "inplace",
						"label": "address",
						"numberOfBytes": "20"
					},
					"t_array(t_address)dyn_storage": {
						"base": "t_address",
						"encoding": "dynamic_array",
						"label": "address[]",
						"numberOfBytes": "32"
					},
					"t_bool": {
						"encoding": "inplace",
						"label": "bool",
						"numberOfBytes": "1"
					},
					"t_bytes32": {
						"encoding": "inplace",
						"label": "bytes32",
						"numberOfBytes": "32"
					},
					"t_mapping(t_address,t_bool)": {
						"encoding": "mapping",
						"key": "t_address",
						"label": "mapping(address => bool)",
						"numberOfBytes": "32",
						"value": "t_bool"
					},
					"t_mapping(t_address,t_uint256)": {
						"encoding": "mapping",
						"key": "t_address",
						"label": "mapping(address => uint256)",
						"numberOfBytes": "32",
						"value": "t_uint256"
					},
					"t_mapping(t_bytes32,t_uint256)": {
						"encoding": "mapping",
						"key": "t_bytes32",
						"label": "mapping(bytes32 => uint256)",
						"numberOfBytes": "32",
						"value": "t_uint256"
					},
					"t_uint256": {
						"encoding": "inplace",
						"label": "uint256",
						"numberOfBytes": "32"
					}
				}
			},
			"userdoc": {
				"kind": "user",
				"methods": {
					"buyTicket(uint256)": {
						"notice": "The function requires sending enough ether to cover the ticket price multiplied by the number of tickets."
					},
					"drawWinner()": {
						"notice": "Only the owner of the contract can call this function, and the winner cannot be drawn again."
					},
					"withdrawPrize()": {
						"notice": "The winner must have been drawn before calling this function."
					}
				},
				"version": 1
			}
		}
	}
}