{
	"data": {
		"bytecode": {
			"linkReferences": {},
			"object": "608060405260405180604001604052806c0b8f7b7b963b86f8a27ab0b28881526020016c061bab2e6f5d749cbb10189162815250600080820151816000015560208201518160010155505034801561005657600080fd5b50610fad806100666000396000f3fe608060405234801561001057600080fd5b50600436106100415760003560e01c806306ba17bc1461004657806332058281146100765780633a1dd7ac146100a6575b600080fd5b610060600480360381019061005b9190610a19565b6100d6565b60405161006d9190610a97565b60405180910390f35b610090600480360381019061008b9190610ae8565b6101a1565b60405161009d9190610b6a565b60405180910390f35b6100c060048036038101906100bb9190610b85565b6103c3565b6040516100cd9190610b6a565b60405180910390f35b6100de6108d9565b6100e7836103c3565b610126576040517f08c379a000000000000000000000000000000000000000000000000000000000815260040161011d90610c0f565b60405180910390fd5b600060405180604001604052806c0ded3dc4be6d0d1d91a46b371d81526020016c0ded3dc4be6d0d1d91a46b371d815250905060008490505b600084146101965760018085160361017e5761017b82826104e9565b91505b61018881826104e9565b9050600184901c935061015f565b819250505092915050565b60006101ac826103c3565b6101eb576040517f08c379a00000000000000000000000000000000000000000000000000000000081526004016101e290610c7b565b60405180910390fd5b600084141580156101fd575060008314155b801561021557506c0d0d3dc4be6d0d1d91a46b371e84105b80156102455750600160026c0d0d3dc4be6d0d1d91a46b371e6102389190610cf9565b6102429190610d2a565b83105b610284576040517f08c379a000000000000000000000000000000000000000000000000000000000815260040161027b90610daa565b60405180910390fd5b600061029d846c0d0d3dc4be6d0d1d91a46b371e61080a565b905060006c0d0d3dc4be6d0d1d91a46b371e806102bd576102bc610c9b565b5b826002896040516020016102d19190610deb565b6040516020818303038152906040526040516102ed9190610e77565b602060405180830381855afa15801561030a573d6000803e3d6000fd5b5050506040513d601f19601f8201168201806040525081019061032d9190610ea3565b60001c09905060006c0d0d3dc4be6d0d1d91a46b371e8061035157610350610c9b565b5b83880990506000610394610385600060405180604001604052908160008201548152602001600182015481525050856100d6565b61038f88856100d6565b6104e9565b90506c0d0d3dc4be6d0d1d91a46b371e886103af9190610ed0565b816000015114945050505050949350505050565b60006c0ded3dc4be6d0d1d91a46b371d82600001511015806103f657506c0ded3dc4be6d0d1d91a46b371d826020015110155b1561040457600090506104e4565b60006c0ded3dc4be6d0d1d91a46b371d8061042257610421610c9b565b5b8360200151846020015109905060006c0ded3dc4be6d0d1d91a46b371d8061044d5761044c610c9b565b5b60016c0ded3dc4be6d0d1d91a46b371d8061046b5761046a610c9b565b5b6c0ded3dc4be6d0d1d91a46b371d8061048757610486610c9b565b5b87600001516000096c0ded3dc4be6d0d1d91a46b371d806104ab576104aa610c9b565b5b6c0ded3dc4be6d0d1d91a46b371d806104c7576104c6610c9b565b5b89600001518a600001510989600001510908089050808214925050505b919050565b6104f16108d9565b6c0ded3dc4be6d0d1d91a46b371d836000015114801561052157506c0ded3dc4be6d0d1d91a46b371d8360200151145b1561052e57819050610804565b6c0ded3dc4be6d0d1d91a46b371d826000015114801561055e57506c0ded3dc4be6d0d1d91a46b371d8260200151145b1561056b57829050610804565b6000826000015184600001510361068a57826020015184602001510361064e576c0ded3dc4be6d0d1d91a46b371d806105a7576105a6610c9b565b5b6105e16c0ded3dc4be6d0d1d91a46b371d806105c6576105c5610c9b565b5b86602001516002096c0ded3dc4be6d0d1d91a46b371d61080a565b6c0ded3dc4be6d0d1d91a46b371d806105fd576105fc610c9b565b5b60006c0ded3dc4be6d0d1d91a46b371d8061061b5761061a610c9b565b5b6c0ded3dc4be6d0d1d91a46b371d8061063757610636610c9b565b5b89600001518a600001510960030908099050610685565b60405180604001604052806c0ded3dc4be6d0d1d91a46b371d81526020016c0ded3dc4be6d0d1d91a46b371d815250915050610804565b610700565b6c0ded3dc4be6d0d1d91a46b371d806106a6576106a5610c9b565b5b6106dc6106c9866000015186600001516c0ded3dc4be6d0d1d91a46b371d61089e565b6c0ded3dc4be6d0d1d91a46b371d61080a565b6106fc866020015186602001516c0ded3dc4be6d0d1d91a46b371d61089e565b0990505b60006c0ded3dc4be6d0d1d91a46b371d61076c6c0ded3dc4be6d0d1d91a46b371d8061072f5761072e610c9b565b5b8485096c0ded3dc4be6d0d1d91a46b371d8061074e5761074d610c9b565b5b87600001518960000151086c0ded3dc4be6d0d1d91a46b371d61089e565b6107769190610ed0565b905060006c0ded3dc4be6d0d1d91a46b371d6107dd6c0ded3dc4be6d0d1d91a46b371d806107a7576107a6610c9b565b5b6107c38960000151866c0ded3dc4be6d0d1d91a46b371d61089e565b860988602001516c0ded3dc4be6d0d1d91a46b371d61089e565b6107e79190610ed0565b905060405180604001604052808381526020018281525093505050505b92915050565b60008060009050600060019050600084905060005b600087146108915786826108339190610cf9565b905082868061084557610844610c9b565b5b878061085457610853610c9b565b5b858409886108629190610f01565b860880945081955050508681886108799190610f35565b836108849190610f01565b809850819350505061081f565b8394505050505092915050565b60008284116108c35783836108b39190610f01565b826108be9190610f01565b6108d0565b82846108cf9190610f01565b5b90509392505050565b604051806040016040528060008152602001600081525090565b6000604051905090565b600080fd5b600080fd5b6000601f19601f8301169050919050565b7f4e487b7100000000000000000000000000000000000000000000000000000000600052604160045260246000fd5b61095082610907565b810181811067ffffffffffffffff8211171561096f5761096e610918565b5b80604052505050565b60006109826108f3565b905061098e8282610947565b919050565b6000819050919050565b6109a681610993565b81146109b157600080fd5b50565b6000813590506109c38161099d565b92915050565b6000604082840312156109df576109de610902565b5b6109e96040610978565b905060006109f9848285016109b4565b6000830152506020610a0d848285016109b4565b60208301525092915050565b60008060608385031215610a3057610a2f6108fd565b5b6000610a3e858286016109c9565b9250506040610a4f858286016109b4565b9150509250929050565b610a6281610993565b82525050565b604082016000820151610a7e6000850182610a59565b506020820151610a916020850182610a59565b50505050565b6000604082019050610aac6000830184610a68565b92915050565b6000819050919050565b610ac581610ab2565b8114610ad057600080fd5b50565b600081359050610ae281610abc565b92915050565b60008060008060a08587031215610b0257610b016108fd565b5b6000610b1087828801610ad3565b9450506020610b21878288016109b4565b9350506040610b32878288016109b4565b9250506060610b43878288016109c9565b91505092959194509250565b60008115159050919050565b610b6481610b4f565b82525050565b6000602082019050610b7f6000830184610b5b565b92915050565b600060408284031215610b9b57610b9a6108fd565b5b6000610ba9848285016109c9565b91505092915050565b600082825260208201905092915050565b7f706f696e74206973206e6f74206f6e2074686520637572766500000000000000600082015250565b6000610bf9601983610bb2565b9150610c0482610bc3565b602082019050919050565b60006020820190508181036000830152610c2881610bec565b9050919050565b7f5075626c6963206b6579206973206e6f74206f6e207468652063757276650000600082015250565b6000610c65601e83610bb2565b9150610c7082610c2f565b602082019050919050565b60006020820190508181036000830152610c9481610c58565b9050919050565b7f4e487b7100000000000000000000000000000000000000000000000000000000600052601260045260246000fd5b7f4e487b7100000000000000000000000000000000000000000000000000000000600052601160045260246000fd5b6000610d0482610993565b9150610d0f83610993565b925082610d1f57610d1e610c9b565b5b828204905092915050565b6000610d3582610993565b9150610d4083610993565b9250828201905080821115610d5857610d57610cca565b5b92915050565b7f57726f6e67207369676e61747572650000000000000000000000000000000000600082015250565b6000610d94600f83610bb2565b9150610d9f82610d5e565b602082019050919050565b60006020820190508181036000830152610dc381610d87565b9050919050565b6000819050919050565b610de5610de082610ab2565b610dca565b82525050565b6000610df78284610dd4565b60208201915081905092915050565b600081519050919050565b600081905092915050565b60005b83811015610e3a578082015181840152602081019050610e1f565b60008484015250505050565b6000610e5182610e06565b610e5b8185610e11565b9350610e6b818560208601610e1c565b80840191505092915050565b6000610e838284610e46565b915081905092915050565b600081519050610e9d81610abc565b92915050565b600060208284031215610eb957610eb86108fd565b5b6000610ec784828501610e8e565b91505092915050565b6000610edb82610993565b9150610ee683610993565b925082610ef657610ef5610c9b565b5b828206905092915050565b6000610f0c82610993565b9150610f1783610993565b9250828203905081811115610f2f57610f2e610cca565b5b92915050565b6000610f4082610993565b9150610f4b83610993565b9250828202610f5981610993565b91508282048414831517610f7057610f6f610cca565b5b509291505056fea2646970667358221220594e3f01782faaf0b9719a0bc9ade5eff380d523c9bcb4cefb7b798e6e9f2fa564736f6c63430008130033",
			"opcodes": "PUSH1 0x80 PUSH1 0x40 MSTORE PUSH1 0x40 MLOAD DUP1 PUSH1 0x40 ADD PUSH1 0x40 MSTORE DUP1 PUSH13 0xB8F7B7B963B86F8A27AB0B288 DUP2 MSTORE PUSH1 0x20 ADD PUSH13 0x61BAB2E6F5D749CBB10189162 DUP2 MSTORE POP PUSH1 0x0 DUP1 DUP3 ADD MLOAD DUP2 PUSH1 0x0 ADD SSTORE PUSH1 0x20 DUP3 ADD MLOAD DUP2 PUSH1 0x1 ADD SSTORE POP POP CALLVALUE DUP1 ISZERO PUSH2 0x56 JUMPI PUSH1 0x0 DUP1 REVERT JUMPDEST POP PUSH2 0xFAD DUP1 PUSH2 0x66 PUSH1 0x0 CODECOPY PUSH1 0x0 RETURN INVALID PUSH1 0x80 PUSH1 0x40 MSTORE CALLVALUE DUP1 ISZERO PUSH2 0x10 JUMPI PUSH1 0x0 DUP1 REVERT JUMPDEST POP PUSH1 0x4 CALLDATASIZE LT PUSH2 0x41 JUMPI PUSH1 0x0 CALLDATALOAD PUSH1 0xE0 SHR DUP1 PUSH4 0x6BA17BC EQ PUSH2 0x46 JUMPI DUP1 PUSH4 0x32058281 EQ PUSH2 0x76 JUMPI DUP1 PUSH4 0x3A1DD7AC EQ PUSH2 0xA6 JUMPI JUMPDEST PUSH1 0x0 DUP1 REVERT JUMPDEST PUSH2 0x60 PUSH1 0x4 DUP1 CALLDATASIZE SUB DUP2 ADD SWAP1 PUSH2 0x5B SWAP2 SWAP1 PUSH2 0xA19 JUMP JUMPDEST PUSH2 0xD6 JUMP JUMPDEST PUSH1 0x40 MLOAD PUSH2 0x6D SWAP2 SWAP1 PUSH2 0xA97 JUMP JUMPDEST PUSH1 0x40 MLOAD DUP1 SWAP2 SUB SWAP1 RETURN JUMPDEST PUSH2 0x90 PUSH1 0x4 DUP1 CALLDATASIZE SUB DUP2 ADD SWAP1 PUSH2 0x8B SWAP2 SWAP1 PUSH2 0xAE8 JUMP JUMPDEST PUSH2 0x1A1 JUMP JUMPDEST PUSH1 0x40 MLOAD PUSH2 0x9D SWAP2 SWAP1 PUSH2 0xB6A JUMP JUMPDEST PUSH1 0x40 MLOAD DUP1 SWAP2 SUB SWAP1 RETURN JUMPDEST PUSH2 0xC0 PUSH1 0x4 DUP1 CALLDATASIZE SUB DUP2 ADD SWAP1 PUSH2 0xBB SWAP2 SWAP1 PUSH2 0xB85 JUMP JUMPDEST PUSH2 0x3C3 JUMP JUMPDEST PUSH1 0x40 MLOAD PUSH2 0xCD SWAP2 SWAP1 PUSH2 0xB6A JUMP JUMPDEST PUSH1 0x40 MLOAD DUP1 SWAP2 SUB SWAP1 RETURN JUMPDEST PUSH2 0xDE PUSH2 0x8D9 JUMP JUMPDEST PUSH2 0xE7 DUP4 PUSH2 0x3C3 JUMP JUMPDEST PUSH2 0x126 JUMPI PUSH1 0x40 MLOAD PUSH32 0x8C379A000000000000000000000000000000000000000000000000000000000 DUP2 MSTORE PUSH1 0x4 ADD PUSH2 0x11D SWAP1 PUSH2 0xC0F JUMP JUMPDEST PUSH1 0x40 MLOAD DUP1 SWAP2 SUB SWAP1 REVERT JUMPDEST PUSH1 0x0 PUSH1 0x40 MLOAD DUP1 PUSH1 0x40 ADD PUSH1 0x40 MSTORE DUP1 PUSH13 0xDED3DC4BE6D0D1D91A46B371D DUP2 MSTORE PUSH1 0x20 ADD PUSH13 0xDED3DC4BE6D0D1D91A46B371D DUP2 MSTORE POP SWAP1 POP PUSH1 0x0 DUP5 SWAP1 POP JUMPDEST PUSH1 0x0 DUP5 EQ PUSH2 0x196 JUMPI PUSH1 0x1 DUP1 DUP6 AND SUB PUSH2 0x17E JUMPI PUSH2 0x17B DUP3 DUP3 PUSH2 0x4E9 JUMP JUMPDEST SWAP2 POP JUMPDEST PUSH2 0x188 DUP2 DUP3 PUSH2 0x4E9 JUMP JUMPDEST SWAP1 POP PUSH1 0x1 DUP5 SWAP1 SHR SWAP4 POP PUSH2 0x15F JUMP JUMPDEST DUP2 SWAP3 POP POP POP SWAP3 SWAP2 POP POP JUMP JUMPDEST PUSH1 0x0 PUSH2 0x1AC DUP3 PUSH2 0x3C3 JUMP JUMPDEST PUSH2 0x1EB JUMPI PUSH1 0x40 MLOAD PUSH32 0x8C379A000000000000000000000000000000000000000000000000000000000 DUP2 MSTORE PUSH1 0x4 ADD PUSH2 0x1E2 SWAP1 PUSH2 0xC7B JUMP JUMPDEST PUSH1 0x40 MLOAD DUP1 SWAP2 SUB SWAP1 REVERT JUMPDEST PUSH1 0x0 DUP5 EQ ISZERO DUP1 ISZERO PUSH2 0x1FD JUMPI POP PUSH1 0x0 DUP4 EQ ISZERO JUMPDEST DUP1 ISZERO PUSH2 0x215 JUMPI POP PUSH13 0xD0D3DC4BE6D0D1D91A46B371E DUP5 LT JUMPDEST DUP1 ISZERO PUSH2 0x245 JUMPI POP PUSH1 0x1 PUSH1 0x2 PUSH13 0xD0D3DC4BE6D0D1D91A46B371E PUSH2 0x238 SWAP2 SWAP1 PUSH2 0xCF9 JUMP JUMPDEST PUSH2 0x242 SWAP2 SWAP1 PUSH2 0xD2A JUMP JUMPDEST DUP4 LT JUMPDEST PUSH2 0x284 JUMPI PUSH1 0x40 MLOAD PUSH32 0x8C379A000000000000000000000000000000000000000000000000000000000 DUP2 MSTORE PUSH1 0x4 ADD PUSH2 0x27B SWAP1 PUSH2 0xDAA JUMP JUMPDEST PUSH1 0x40 MLOAD DUP1 SWAP2 SUB SWAP1 REVERT JUMPDEST PUSH1 0x0 PUSH2 0x29D DUP5 PUSH13 0xD0D3DC4BE6D0D1D91A46B371E PUSH2 0x80A JUMP JUMPDEST SWAP1 POP PUSH1 0x0 PUSH13 0xD0D3DC4BE6D0D1D91A46B371E DUP1 PUSH2 0x2BD JUMPI PUSH2 0x2BC PUSH2 0xC9B JUMP JUMPDEST JUMPDEST DUP3 PUSH1 0x2 DUP10 PUSH1 0x40 MLOAD PUSH1 0x20 ADD PUSH2 0x2D1 SWAP2 SWAP1 PUSH2 0xDEB JUMP JUMPDEST PUSH1 0x40 MLOAD PUSH1 0x20 DUP2 DUP4 SUB SUB DUP2 MSTORE SWAP1 PUSH1 0x40 MSTORE PUSH1 0x40 MLOAD PUSH2 0x2ED SWAP2 SWAP1 PUSH2 0xE77 JUMP JUMPDEST PUSH1 0x20 PUSH1 0x40 MLOAD DUP1 DUP4 SUB DUP2 DUP6 GAS STATICCALL ISZERO DUP1 ISZERO PUSH2 0x30A JUMPI RETURNDATASIZE PUSH1 0x0 DUP1 RETURNDATACOPY RETURNDATASIZE PUSH1 0x0 REVERT JUMPDEST POP POP POP PUSH1 0x40 MLOAD RETURNDATASIZE PUSH1 0x1F NOT PUSH1 0x1F DUP3 ADD AND DUP3 ADD DUP1 PUSH1 0x40 MSTORE POP DUP2 ADD SWAP1 PUSH2 0x32D SWAP2 SWAP1 PUSH2 0xEA3 JUMP JUMPDEST PUSH1 0x0 SHR MULMOD SWAP1 POP PUSH1 0x0 PUSH13 0xD0D3DC4BE6D0D1D91A46B371E DUP1 PUSH2 0x351 JUMPI PUSH2 0x350 PUSH2 0xC9B JUMP JUMPDEST JUMPDEST DUP4 DUP9 MULMOD SWAP1 POP PUSH1 0x0 PUSH2 0x394 PUSH2 0x385 PUSH1 0x0 PUSH1 0x40 MLOAD DUP1 PUSH1 0x40 ADD PUSH1 0x40 MSTORE SWAP1 DUP2 PUSH1 0x0 DUP3 ADD SLOAD DUP2 MSTORE PUSH1 0x20 ADD PUSH1 0x1 DUP3 ADD SLOAD DUP2 MSTORE POP POP DUP6 PUSH2 0xD6 JUMP JUMPDEST PUSH2 0x38F DUP9 DUP6 PUSH2 0xD6 JUMP JUMPDEST PUSH2 0x4E9 JUMP JUMPDEST SWAP1 POP PUSH13 0xD0D3DC4BE6D0D1D91A46B371E DUP9 PUSH2 0x3AF SWAP2 SWAP1 PUSH2 0xED0 JUMP JUMPDEST DUP2 PUSH1 0x0 ADD MLOAD EQ SWAP5 POP POP POP POP POP SWAP5 SWAP4 POP POP POP POP JUMP JUMPDEST PUSH1 0x0 PUSH13 0xDED3DC4BE6D0D1D91A46B371D DUP3 PUSH1 0x0 ADD MLOAD LT ISZERO DUP1 PUSH2 0x3F6 JUMPI POP PUSH13 0xDED3DC4BE6D0D1D91A46B371D DUP3 PUSH1 0x20 ADD MLOAD LT ISZERO JUMPDEST ISZERO PUSH2 0x404 JUMPI PUSH1 0x0 SWAP1 POP PUSH2 0x4E4 JUMP JUMPDEST PUSH1 0x0 PUSH13 0xDED3DC4BE6D0D1D91A46B371D DUP1 PUSH2 0x422 JUMPI PUSH2 0x421 PUSH2 0xC9B JUMP JUMPDEST JUMPDEST DUP4 PUSH1 0x20 ADD MLOAD DUP5 PUSH1 0x20 ADD MLOAD MULMOD SWAP1 POP PUSH1 0x0 PUSH13 0xDED3DC4BE6D0D1D91A46B371D DUP1 PUSH2 0x44D JUMPI PUSH2 0x44C PUSH2 0xC9B JUMP JUMPDEST JUMPDEST PUSH1 0x1 PUSH13 0xDED3DC4BE6D0D1D91A46B371D DUP1 PUSH2 0x46B JUMPI PUSH2 0x46A PUSH2 0xC9B JUMP JUMPDEST JUMPDEST PUSH13 0xDED3DC4BE6D0D1D91A46B371D DUP1 PUSH2 0x487 JUMPI PUSH2 0x486 PUSH2 0xC9B JUMP JUMPDEST JUMPDEST DUP8 PUSH1 0x0 ADD MLOAD PUSH1 0x0 MULMOD PUSH13 0xDED3DC4BE6D0D1D91A46B371D DUP1 PUSH2 0x4AB JUMPI PUSH2 0x4AA PUSH2 0xC9B JUMP JUMPDEST JUMPDEST PUSH13 0xDED3DC4BE6D0D1D91A46B371D DUP1 PUSH2 0x4C7 JUMPI PUSH2 0x4C6 PUSH2 0xC9B JUMP JUMPDEST JUMPDEST DUP10 PUSH1 0x0 ADD MLOAD DUP11 PUSH1 0x0 ADD MLOAD MULMOD DUP10 PUSH1 0x0 ADD MLOAD MULMOD ADDMOD ADDMOD SWAP1 POP DUP1 DUP3 EQ SWAP3 POP POP POP JUMPDEST SWAP2 SWAP1 POP JUMP JUMPDEST PUSH2 0x4F1 PUSH2 0x8D9 JUMP JUMPDEST PUSH13 0xDED3DC4BE6D0D1D91A46B371D DUP4 PUSH1 0x0 ADD MLOAD EQ DUP1 ISZERO PUSH2 0x521 JUMPI POP PUSH13 0xDED3DC4BE6D0D1D91A46B371D DUP4 PUSH1 0x20 ADD MLOAD EQ JUMPDEST ISZERO PUSH2 0x52E JUMPI DUP2 SWAP1 POP PUSH2 0x804 JUMP JUMPDEST PUSH13 0xDED3DC4BE6D0D1D91A46B371D DUP3 PUSH1 0x0 ADD MLOAD EQ DUP1 ISZERO PUSH2 0x55E JUMPI POP PUSH13 0xDED3DC4BE6D0D1D91A46B371D DUP3 PUSH1 0x20 ADD MLOAD EQ JUMPDEST ISZERO PUSH2 0x56B JUMPI DUP3 SWAP1 POP PUSH2 0x804 JUMP JUMPDEST PUSH1 0x0 DUP3 PUSH1 0x0 ADD MLOAD DUP5 PUSH1 0x0 ADD MLOAD SUB PUSH2 0x68A JUMPI DUP3 PUSH1 0x20 ADD MLOAD DUP5 PUSH1 0x20 ADD MLOAD SUB PUSH2 0x64E JUMPI PUSH13 0xDED3DC4BE6D0D1D91A46B371D DUP1 PUSH2 0x5A7 JUMPI PUSH2 0x5A6 PUSH2 0xC9B JUMP JUMPDEST JUMPDEST PUSH2 0x5E1 PUSH13 0xDED3DC4BE6D0D1D91A46B371D DUP1 PUSH2 0x5C6 JUMPI PUSH2 0x5C5 PUSH2 0xC9B JUMP JUMPDEST JUMPDEST DUP7 PUSH1 0x20 ADD MLOAD PUSH1 0x2 MULMOD PUSH13 0xDED3DC4BE6D0D1D91A46B371D PUSH2 0x80A JUMP JUMPDEST PUSH13 0xDED3DC4BE6D0D1D91A46B371D DUP1 PUSH2 0x5FD JUMPI PUSH2 0x5FC PUSH2 0xC9B JUMP JUMPDEST JUMPDEST PUSH1 0x0 PUSH13 0xDED3DC4BE6D0D1D91A46B371D DUP1 PUSH2 0x61B JUMPI PUSH2 0x61A PUSH2 0xC9B JUMP JUMPDEST JUMPDEST PUSH13 0xDED3DC4BE6D0D1D91A46B371D DUP1 PUSH2 0x637 JUMPI PUSH2 0x636 PUSH2 0xC9B JUMP JUMPDEST JUMPDEST DUP10 PUSH1 0x0 ADD MLOAD DUP11 PUSH1 0x0 ADD MLOAD MULMOD PUSH1 0x3 MULMOD ADDMOD MULMOD SWAP1 POP PUSH2 0x685 JUMP JUMPDEST PUSH1 0x40 MLOAD DUP1 PUSH1 0x40 ADD PUSH1 0x40 MSTORE DUP1 PUSH13 0xDED3DC4BE6D0D1D91A46B371D DUP2 MSTORE PUSH1 0x20 ADD PUSH13 0xDED3DC4BE6D0D1D91A46B371D DUP2 MSTORE POP SWAP2 POP POP PUSH2 0x804 JUMP JUMPDEST PUSH2 0x700 JUMP JUMPDEST PUSH13 0xDED3DC4BE6D0D1D91A46B371D DUP1 PUSH2 0x6A6 JUMPI PUSH2 0x6A5 PUSH2 0xC9B JUMP JUMPDEST JUMPDEST PUSH2 0x6DC PUSH2 0x6C9 DUP7 PUSH1 0x0 ADD MLOAD DUP7 PUSH1 0x0 ADD MLOAD PUSH13 0xDED3DC4BE6D0D1D91A46B371D PUSH2 0x89E JUMP JUMPDEST PUSH13 0xDED3DC4BE6D0D1D91A46B371D PUSH2 0x80A JUMP JUMPDEST PUSH2 0x6FC DUP7 PUSH1 0x20 ADD MLOAD DUP7 PUSH1 0x20 ADD MLOAD PUSH13 0xDED3DC4BE6D0D1D91A46B371D PUSH2 0x89E JUMP JUMPDEST MULMOD SWAP1 POP JUMPDEST PUSH1 0x0 PUSH13 0xDED3DC4BE6D0D1D91A46B371D PUSH2 0x76C PUSH13 0xDED3DC4BE6D0D1D91A46B371D DUP1 PUSH2 0x72F JUMPI PUSH2 0x72E PUSH2 0xC9B JUMP JUMPDEST JUMPDEST DUP5 DUP6 MULMOD PUSH13 0xDED3DC4BE6D0D1D91A46B371D DUP1 PUSH2 0x74E JUMPI PUSH2 0x74D PUSH2 0xC9B JUMP JUMPDEST JUMPDEST DUP8 PUSH1 0x0 ADD MLOAD DUP10 PUSH1 0x0 ADD MLOAD ADDMOD PUSH13 0xDED3DC4BE6D0D1D91A46B371D PUSH2 0x89E JUMP JUMPDEST PUSH2 0x776 SWAP2 SWAP1 PUSH2 0xED0 JUMP JUMPDEST SWAP1 POP PUSH1 0x0 PUSH13 0xDED3DC4BE6D0D1D91A46B371D PUSH2 0x7DD PUSH13 0xDED3DC4BE6D0D1D91A46B371D DUP1 PUSH2 0x7A7 JUMPI PUSH2 0x7A6 PUSH2 0xC9B JUMP JUMPDEST JUMPDEST PUSH2 0x7C3 DUP10 PUSH1 0x0 ADD MLOAD DUP7 PUSH13 0xDED3DC4BE6D0D1D91A46B371D PUSH2 0x89E JUMP JUMPDEST DUP7 MULMOD DUP9 PUSH1 0x20 ADD MLOAD PUSH13 0xDED3DC4BE6D0D1D91A46B371D PUSH2 0x89E JUMP JUMPDEST PUSH2 0x7E7 SWAP2 SWAP1 PUSH2 0xED0 JUMP JUMPDEST SWAP1 POP PUSH1 0x40 MLOAD DUP1 PUSH1 0x40 ADD PUSH1 0x40 MSTORE DUP1 DUP4 DUP2 MSTORE PUSH1 0x20 ADD DUP3 DUP2 MSTORE POP SWAP4 POP POP POP POP JUMPDEST SWAP3 SWAP2 POP POP JUMP JUMPDEST PUSH1 0x0 DUP1 PUSH1 0x0 SWAP1 POP PUSH1 0x0 PUSH1 0x1 SWAP1 POP PUSH1 0x0 DUP5 SWAP1 POP PUSH1 0x0 JUMPDEST PUSH1 0x0 DUP8 EQ PUSH2 0x891 JUMPI DUP7 DUP3 PUSH2 0x833 SWAP2 SWAP1 PUSH2 0xCF9 JUMP JUMPDEST SWAP1 POP DUP3 DUP7 DUP1 PUSH2 0x845 JUMPI PUSH2 0x844 PUSH2 0xC9B JUMP JUMPDEST JUMPDEST DUP8 DUP1 PUSH2 0x854 JUMPI PUSH2 0x853 PUSH2 0xC9B JUMP JUMPDEST JUMPDEST DUP6 DUP5 MULMOD DUP9 PUSH2 0x862 SWAP2 SWAP1 PUSH2 0xF01 JUMP JUMPDEST DUP7 ADDMOD DUP1 SWAP5 POP DUP2 SWAP6 POP POP POP DUP7 DUP2 DUP9 PUSH2 0x879 SWAP2 SWAP1 PUSH2 0xF35 JUMP JUMPDEST DUP4 PUSH2 0x884 SWAP2 SWAP1 PUSH2 0xF01 JUMP JUMPDEST DUP1 SWAP9 POP DUP2 SWAP4 POP POP POP PUSH2 0x81F JUMP JUMPDEST DUP4 SWAP5 POP POP POP POP POP SWAP3 SWAP2 POP POP JUMP JUMPDEST PUSH1 0x0 DUP3 DUP5 GT PUSH2 0x8C3 JUMPI DUP4 DUP4 PUSH2 0x8B3 SWAP2 SWAP1 PUSH2 0xF01 JUMP JUMPDEST DUP3 PUSH2 0x8BE SWAP2 SWAP1 PUSH2 0xF01 JUMP JUMPDEST PUSH2 0x8D0 JUMP JUMPDEST DUP3 DUP5 PUSH2 0x8CF SWAP2 SWAP1 PUSH2 0xF01 JUMP JUMPDEST JUMPDEST SWAP1 POP SWAP4 SWAP3 POP POP POP JUMP JUMPDEST PUSH1 0x40 MLOAD DUP1 PUSH1 0x40 ADD PUSH1 0x40 MSTORE DUP1 PUSH1 0x0 DUP2 MSTORE PUSH1 0x20 ADD PUSH1 0x0 DUP2 MSTORE POP SWAP1 JUMP JUMPDEST PUSH1 0x0 PUSH1 0x40 MLOAD SWAP1 POP SWAP1 JUMP JUMPDEST PUSH1 0x0 DUP1 REVERT JUMPDEST PUSH1 0x0 DUP1 REVERT JUMPDEST PUSH1 0x0 PUSH1 0x1F NOT PUSH1 0x1F DUP4 ADD AND SWAP1 POP SWAP2 SWAP1 POP JUMP JUMPDEST PUSH32 0x4E487B7100000000000000000000000000000000000000000000000000000000 PUSH1 0x0 MSTORE PUSH1 0x41 PUSH1 0x4 MSTORE PUSH1 0x24 PUSH1 0x0 REVERT JUMPDEST PUSH2 0x950 DUP3 PUSH2 0x907 JUMP JUMPDEST DUP2 ADD DUP2 DUP2 LT PUSH8 0xFFFFFFFFFFFFFFFF DUP3 GT OR ISZERO PUSH2 0x96F JUMPI PUSH2 0x96E PUSH2 0x918 JUMP JUMPDEST JUMPDEST DUP1 PUSH1 0x40 MSTORE POP POP POP JUMP JUMPDEST PUSH1 0x0 PUSH2 0x982 PUSH2 0x8F3 JUMP JUMPDEST SWAP1 POP PUSH2 0x98E DUP3 DUP3 PUSH2 0x947 JUMP JUMPDEST SWAP2 SWAP1 POP JUMP JUMPDEST PUSH1 0x0 DUP2 SWAP1 POP SWAP2 SWAP1 POP JUMP JUMPDEST PUSH2 0x9A6 DUP2 PUSH2 0x993 JUMP JUMPDEST DUP2 EQ PUSH2 0x9B1 JUMPI PUSH1 0x0 DUP1 REVERT JUMPDEST POP JUMP JUMPDEST PUSH1 0x0 DUP2 CALLDATALOAD SWAP1 POP PUSH2 0x9C3 DUP2 PUSH2 0x99D JUMP JUMPDEST SWAP3 SWAP2 POP POP JUMP JUMPDEST PUSH1 0x0 PUSH1 0x40 DUP3 DUP5 SUB SLT ISZERO PUSH2 0x9DF JUMPI PUSH2 0x9DE PUSH2 0x902 JUMP JUMPDEST JUMPDEST PUSH2 0x9E9 PUSH1 0x40 PUSH2 0x978 JUMP JUMPDEST SWAP1 POP PUSH1 0x0 PUSH2 0x9F9 DUP5 DUP3 DUP6 ADD PUSH2 0x9B4 JUMP JUMPDEST PUSH1 0x0 DUP4 ADD MSTORE POP PUSH1 0x20 PUSH2 0xA0D DUP5 DUP3 DUP6 ADD PUSH2 0x9B4 JUMP JUMPDEST PUSH1 0x20 DUP4 ADD MSTORE POP SWAP3 SWAP2 POP POP JUMP JUMPDEST PUSH1 0x0 DUP1 PUSH1 0x60 DUP4 DUP6 SUB SLT ISZERO PUSH2 0xA30 JUMPI PUSH2 0xA2F PUSH2 0x8FD JUMP JUMPDEST JUMPDEST PUSH1 0x0 PUSH2 0xA3E DUP6 DUP3 DUP7 ADD PUSH2 0x9C9 JUMP JUMPDEST SWAP3 POP POP PUSH1 0x40 PUSH2 0xA4F DUP6 DUP3 DUP7 ADD PUSH2 0x9B4 JUMP JUMPDEST SWAP2 POP POP SWAP3 POP SWAP3 SWAP1 POP JUMP JUMPDEST PUSH2 0xA62 DUP2 PUSH2 0x993 JUMP JUMPDEST DUP3 MSTORE POP POP JUMP JUMPDEST PUSH1 0x40 DUP3 ADD PUSH1 0x0 DUP3 ADD MLOAD PUSH2 0xA7E PUSH1 0x0 DUP6 ADD DUP3 PUSH2 0xA59 JUMP JUMPDEST POP PUSH1 0x20 DUP3 ADD MLOAD PUSH2 0xA91 PUSH1 0x20 DUP6 ADD DUP3 PUSH2 0xA59 JUMP JUMPDEST POP POP POP POP JUMP JUMPDEST PUSH1 0x0 PUSH1 0x40 DUP3 ADD SWAP1 POP PUSH2 0xAAC PUSH1 0x0 DUP4 ADD DUP5 PUSH2 0xA68 JUMP JUMPDEST SWAP3 SWAP2 POP POP JUMP JUMPDEST PUSH1 0x0 DUP2 SWAP1 POP SWAP2 SWAP1 POP JUMP JUMPDEST PUSH2 0xAC5 DUP2 PUSH2 0xAB2 JUMP JUMPDEST DUP2 EQ PUSH2 0xAD0 JUMPI PUSH1 0x0 DUP1 REVERT JUMPDEST POP JUMP JUMPDEST PUSH1 0x0 DUP2 CALLDATALOAD SWAP1 POP PUSH2 0xAE2 DUP2 PUSH2 0xABC JUMP JUMPDEST SWAP3 SWAP2 POP POP JUMP JUMPDEST PUSH1 0x0 DUP1 PUSH1 0x0 DUP1 PUSH1 0xA0 DUP6 DUP8 SUB SLT ISZERO PUSH2 0xB02 JUMPI PUSH2 0xB01 PUSH2 0x8FD JUMP JUMPDEST JUMPDEST PUSH1 0x0 PUSH2 0xB10 DUP8 DUP3 DUP9 ADD PUSH2 0xAD3 JUMP JUMPDEST SWAP5 POP POP PUSH1 0x20 PUSH2 0xB21 DUP8 DUP3 DUP9 ADD PUSH2 0x9B4 JUMP JUMPDEST SWAP4 POP POP PUSH1 0x40 PUSH2 0xB32 DUP8 DUP3 DUP9 ADD PUSH2 0x9B4 JUMP JUMPDEST SWAP3 POP POP PUSH1 0x60 PUSH2 0xB43 DUP8 DUP3 DUP9 ADD PUSH2 0x9C9 JUMP JUMPDEST SWAP2 POP POP SWAP3 SWAP6 SWAP2 SWAP5 POP SWAP3 POP JUMP JUMPDEST PUSH1 0x0 DUP2 ISZERO ISZERO SWAP1 POP SWAP2 SWAP1 POP JUMP JUMPDEST PUSH2 0xB64 DUP2 PUSH2 0xB4F JUMP JUMPDEST DUP3 MSTORE POP POP JUMP JUMPDEST PUSH1 0x0 PUSH1 0x20 DUP3 ADD SWAP1 POP PUSH2 0xB7F PUSH1 0x0 DUP4 ADD DUP5 PUSH2 0xB5B JUMP JUMPDEST SWAP3 SWAP2 POP POP JUMP JUMPDEST PUSH1 0x0 PUSH1 0x40 DUP3 DUP5 SUB SLT ISZERO PUSH2 0xB9B JUMPI PUSH2 0xB9A PUSH2 0x8FD JUMP JUMPDEST JUMPDEST PUSH1 0x0 PUSH2 0xBA9 DUP5 DUP3 DUP6 ADD PUSH2 0x9C9 JUMP JUMPDEST SWAP2 POP POP SWAP3 SWAP2 POP POP JUMP JUMPDEST PUSH1 0x0 DUP3 DUP3 MSTORE PUSH1 0x20 DUP3 ADD SWAP1 POP SWAP3 SWAP2 POP POP JUMP JUMPDEST PUSH32 0x706F696E74206973206E6F74206F6E2074686520637572766500000000000000 PUSH1 0x0 DUP3 ADD MSTORE POP JUMP JUMPDEST PUSH1 0x0 PUSH2 0xBF9 PUSH1 0x19 DUP4 PUSH2 0xBB2 JUMP JUMPDEST SWAP2 POP PUSH2 0xC04 DUP3 PUSH2 0xBC3 JUMP JUMPDEST PUSH1 0x20 DUP3 ADD SWAP1 POP SWAP2 SWAP1 POP JUMP JUMPDEST PUSH1 0x0 PUSH1 0x20 DUP3 ADD SWAP1 POP DUP2 DUP2 SUB PUSH1 0x0 DUP4 ADD MSTORE PUSH2 0xC28 DUP2 PUSH2 0xBEC JUMP JUMPDEST SWAP1 POP SWAP2 SWAP1 POP JUMP JUMPDEST PUSH32 0x5075626C6963206B6579206973206E6F74206F6E207468652063757276650000 PUSH1 0x0 DUP3 ADD MSTORE POP JUMP JUMPDEST PUSH1 0x0 PUSH2 0xC65 PUSH1 0x1E DUP4 PUSH2 0xBB2 JUMP JUMPDEST SWAP2 POP PUSH2 0xC70 DUP3 PUSH2 0xC2F JUMP JUMPDEST PUSH1 0x20 DUP3 ADD SWAP1 POP SWAP2 SWAP1 POP JUMP JUMPDEST PUSH1 0x0 PUSH1 0x20 DUP3 ADD SWAP1 POP DUP2 DUP2 SUB PUSH1 0x0 DUP4 ADD MSTORE PUSH2 0xC94 DUP2 PUSH2 0xC58 JUMP JUMPDEST SWAP1 POP SWAP2 SWAP1 POP JUMP JUMPDEST PUSH32 0x4E487B7100000000000000000000000000000000000000000000000000000000 PUSH1 0x0 MSTORE PUSH1 0x12 PUSH1 0x4 MSTORE PUSH1 0x24 PUSH1 0x0 REVERT JUMPDEST PUSH32 0x4E487B7100000000000000000000000000000000000000000000000000000000 PUSH1 0x0 MSTORE PUSH1 0x11 PUSH1 0x4 MSTORE PUSH1 0x24 PUSH1 0x0 REVERT JUMPDEST PUSH1 0x0 PUSH2 0xD04 DUP3 PUSH2 0x993 JUMP JUMPDEST SWAP2 POP PUSH2 0xD0F DUP4 PUSH2 0x993 JUMP JUMPDEST SWAP3 POP DUP3 PUSH2 0xD1F JUMPI PUSH2 0xD1E PUSH2 0xC9B JUMP JUMPDEST JUMPDEST DUP3 DUP3 DIV SWAP1 POP SWAP3 SWAP2 POP POP JUMP JUMPDEST PUSH1 0x0 PUSH2 0xD35 DUP3 PUSH2 0x993 JUMP JUMPDEST SWAP2 POP PUSH2 0xD40 DUP4 PUSH2 0x993 JUMP JUMPDEST SWAP3 POP DUP3 DUP3 ADD SWAP1 POP DUP1 DUP3 GT ISZERO PUSH2 0xD58 JUMPI PUSH2 0xD57 PUSH2 0xCCA JUMP JUMPDEST JUMPDEST SWAP3 SWAP2 POP POP JUMP JUMPDEST PUSH32 0x57726F6E67207369676E61747572650000000000000000000000000000000000 PUSH1 0x0 DUP3 ADD MSTORE POP JUMP JUMPDEST PUSH1 0x0 PUSH2 0xD94 PUSH1 0xF DUP4 PUSH2 0xBB2 JUMP JUMPDEST SWAP2 POP PUSH2 0xD9F DUP3 PUSH2 0xD5E JUMP JUMPDEST PUSH1 0x20 DUP3 ADD SWAP1 POP SWAP2 SWAP1 POP JUMP JUMPDEST PUSH1 0x0 PUSH1 0x20 DUP3 ADD SWAP1 POP DUP2 DUP2 SUB PUSH1 0x0 DUP4 ADD MSTORE PUSH2 0xDC3 DUP2 PUSH2 0xD87 JUMP JUMPDEST SWAP1 POP SWAP2 SWAP1 POP JUMP JUMPDEST PUSH1 0x0 DUP2 SWAP1 POP SWAP2 SWAP1 POP JUMP JUMPDEST PUSH2 0xDE5 PUSH2 0xDE0 DUP3 PUSH2 0xAB2 JUMP JUMPDEST PUSH2 0xDCA JUMP JUMPDEST DUP3 MSTORE POP POP JUMP JUMPDEST PUSH1 0x0 PUSH2 0xDF7 DUP3 DUP5 PUSH2 0xDD4 JUMP JUMPDEST PUSH1 0x20 DUP3 ADD SWAP2 POP DUP2 SWAP1 POP SWAP3 SWAP2 POP POP JUMP JUMPDEST PUSH1 0x0 DUP2 MLOAD SWAP1 POP SWAP2 SWAP1 POP JUMP JUMPDEST PUSH1 0x0 DUP2 SWAP1 POP SWAP3 SWAP2 POP POP JUMP JUMPDEST PUSH1 0x0 JUMPDEST DUP4 DUP2 LT ISZERO PUSH2 0xE3A JUMPI DUP1 DUP3 ADD MLOAD DUP2 DUP5 ADD MSTORE PUSH1 0x20 DUP2 ADD SWAP1 POP PUSH2 0xE1F JUMP JUMPDEST PUSH1 0x0 DUP5 DUP5 ADD MSTORE POP POP POP POP JUMP JUMPDEST PUSH1 0x0 PUSH2 0xE51 DUP3 PUSH2 0xE06 JUMP JUMPDEST PUSH2 0xE5B DUP2 DUP6 PUSH2 0xE11 JUMP JUMPDEST SWAP4 POP PUSH2 0xE6B DUP2 DUP6 PUSH1 0x20 DUP7 ADD PUSH2 0xE1C JUMP JUMPDEST DUP1 DUP5 ADD SWAP2 POP POP SWAP3 SWAP2 POP POP JUMP JUMPDEST PUSH1 0x0 PUSH2 0xE83 DUP3 DUP5 PUSH2 0xE46 JUMP JUMPDEST SWAP2 POP DUP2 SWAP1 POP SWAP3 SWAP2 POP POP JUMP JUMPDEST PUSH1 0x0 DUP2 MLOAD SWAP1 POP PUSH2 0xE9D DUP2 PUSH2 0xABC JUMP JUMPDEST SWAP3 SWAP2 POP POP JUMP JUMPDEST PUSH1 0x0 PUSH1 0x20 DUP3 DUP5 SUB SLT ISZERO PUSH2 0xEB9 JUMPI PUSH2 0xEB8 PUSH2 0x8FD JUMP JUMPDEST JUMPDEST PUSH1 0x0 PUSH2 0xEC7 DUP5 DUP3 DUP6 ADD PUSH2 0xE8E JUMP JUMPDEST SWAP2 POP POP SWAP3 SWAP2 POP POP JUMP JUMPDEST PUSH1 0x0 PUSH2 0xEDB DUP3 PUSH2 0x993 JUMP JUMPDEST SWAP2 POP PUSH2 0xEE6 DUP4 PUSH2 0x993 JUMP JUMPDEST SWAP3 POP DUP3 PUSH2 0xEF6 JUMPI PUSH2 0xEF5 PUSH2 0xC9B JUMP JUMPDEST JUMPDEST DUP3 DUP3 MOD SWAP1 POP SWAP3 SWAP2 POP POP JUMP JUMPDEST PUSH1 0x0 PUSH2 0xF0C DUP3 PUSH2 0x993 JUMP JUMPDEST SWAP2 POP PUSH2 0xF17 DUP4 PUSH2 0x993 JUMP JUMPDEST SWAP3 POP DUP3 DUP3 SUB SWAP1 POP DUP2 DUP2 GT ISZERO PUSH2 0xF2F JUMPI PUSH2 0xF2E PUSH2 0xCCA JUMP JUMPDEST JUMPDEST SWAP3 SWAP2 POP POP JUMP JUMPDEST PUSH1 0x0 PUSH2 0xF40 DUP3 PUSH2 0x993 JUMP JUMPDEST SWAP2 POP PUSH2 0xF4B DUP4 PUSH2 0x993 JUMP JUMPDEST SWAP3 POP DUP3 DUP3 MUL PUSH2 0xF59 DUP2 PUSH2 0x993 JUMP JUMPDEST SWAP2 POP DUP3 DUP3 DIV DUP5 EQ DUP4 ISZERO OR PUSH2 0xF70 JUMPI PUSH2 0xF6F PUSH2 0xCCA JUMP JUMPDEST JUMPDEST POP SWAP3 SWAP2 POP POP JUMP INVALID LOG2 PUSH5 0x6970667358 0x22 SLT KECCAK256 MSIZE 0x4E EXTCODEHASH ADD PUSH25 0x2FAAF0B9719A0BC9ADE5EFF380D523C9BCB4CEFB7B798E6E9F 0x2F 0xA5 PUSH5 0x736F6C6343 STOP ADDMOD SGT STOP CALLER "
		},
		"gasEstimates": {
			"creation": {
				"codeDepositCost": "802600",
				"executionCost": "45137",
				"totalCost": "847737"
			},
			"external": {
				"isOnCurve((uint256,uint256))": "infinite",
				"pointMultiply((uint256,uint256),uint256)": "infinite",
				"verifySignature(bytes32,uint256,uint256,(uint256,uint256))": "infinite"
			},
			"internal": {
				"modDiff(uint256,uint256,uint256)": "infinite",
				"modInverse(uint256,uint256)": "infinite",
				"pointAddition(struct EllipticCurve.Point memory,struct EllipticCurve.Point memory)": "infinite"
			}
		},
		"methodIdentifiers": {
			"isOnCurve((uint256,uint256))": "3a1dd7ac",
			"pointMultiply((uint256,uint256),uint256)": "06ba17bc",
			"verifySignature(bytes32,uint256,uint256,(uint256,uint256))": "32058281"
		}
	},
	"abi": [
		{
			"inputs": [
				{
					"components": [
						{
							"internalType": "uint256",
							"name": "x",
							"type": "uint256"
						},
						{
							"internalType": "uint256",
							"name": "y",
							"type": "uint256"
						}
					],
					"internalType": "struct EllipticCurve.Point",
					"name": "pt",
					"type": "tuple"
				}
			],
			"name": "isOnCurve",
			"outputs": [
				{
					"internalType": "bool",
					"name": "",
					"type": "bool"
				}
			],
			"stateMutability": "pure",
			"type": "function"
		},
		{
			"inputs": [
				{
					"components": [
						{
							"internalType": "uint256",
							"name": "x",
							"type": "uint256"
						},
						{
							"internalType": "uint256",
							"name": "y",
							"type": "uint256"
						}
					],
					"internalType": "struct EllipticCurve.Point",
					"name": "point",
					"type": "tuple"
				},
				{
					"internalType": "uint256",
					"name": "scalar",
					"type": "uint256"
				}
			],
			"name": "pointMultiply",
			"outputs": [
				{
					"components": [
						{
							"internalType": "uint256",
							"name": "x",
							"type": "uint256"
						},
						{
							"internalType": "uint256",
							"name": "y",
							"type": "uint256"
						}
					],
					"internalType": "struct EllipticCurve.Point",
					"name": "",
					"type": "tuple"
				}
			],
			"stateMutability": "pure",
			"type": "function"
		},
		{
			"inputs": [
				{
					"internalType": "bytes32",
					"name": "message",
					"type": "bytes32"
				},
				{
					"internalType": "uint256",
					"name": "r",
					"type": "uint256"
				},
				{
					"internalType": "uint256",
					"name": "s",
					"type": "uint256"
				},
				{
					"components": [
						{
							"internalType": "uint256",
							"name": "x",
							"type": "uint256"
						},
						{
							"internalType": "uint256",
							"name": "y",
							"type": "uint256"
						}
					],
					"internalType": "struct EllipticCurve.Point",
					"name": "publicKey",
					"type": "tuple"
				}
			],
			"name": "verifySignature",
			"outputs": [
				{
					"internalType": "bool",
					"name": "",
					"type": "bool"
				}
			],
			"stateMutability": "view",
			"type": "function"
		}
	]
}